:020000040800F2
:1000000048110020614A0008394900083B490008AE
:100010003D4900083F490008414900080000000030
:100020000000000000000000000000007D4A000801
:100030004349000800000000814A000845490008C3
:10004000854A0008894A00088D4A0008914A00083C
:10005000954A0008994A00089D4A0008A14A0008EC
:10006000A54A0008A94A0008AD4A0008B14A00089C
:10007000B54A0008B94A0008BD4A0008C14A00084C
:10008000C54A0008C94A0008CD4A0008D14A0008FC
:10009000D54A0008D94A0008DD4A0008E14A0008AC
:1000A000E54A0008E94A0008ED4A0008F14A00085C
:1000B000F54A000851490008F94A0008FD4A0008BD
:1000C000014B0008054B0008094B00080D4B0008C8
:1000D000114B0008154B0008194B00081D4B000878
:1000E000214B0008254B0008294B00082D4B000828
:1000F000314B0008354B0008394B00083D4B0008D8
:10010000414B0008454B0008494B00084D4B000887
:10011000514B0008554B0008594B00085D4B000837
:10012000614B0008654B0008694B00086D4B0008E7
:100130002DE9F04F80460FF23060A5B015461E46FF
:10014000D0E90023CDE91223002004910D900DF198
:10015000500A6FF0004900E065190020ADF8020078
:1001600012AB4FF0FF3229460DF1020001F093F877
:100170000446012C04DA2878441EA441E443E40F29
:10018000BDF8020025280CBFA4F1010BA346BBF16A
:10019000010F0EDB2F4617F8011B0498C0470028FB
:1001A000049000F0F3800D98401CBBF1010B0D9002
:1001B000F1D1BDF80200252807D100200790089052
:1001C00009900A900B900C9005E00028C4D10D987E
:1001D000D2E240F0010015F8011F2029F9D02329AF
:1001E0000DD02B2904D02D2906D030290AD00CE0BF
:1001F00040F0020080B2EEE740F00400FAE740F081
:100200000800F7E740F01000F4E72A290ED1316822
:10021000316051F8042B3160002A0F9204D551420D
:1002200040F004000F9180B26D1C11E000210F918D
:1002300009E00F99494505D001EB810302EB430129
:1002400030390F916D1C2A78A2F130010A29F0D3C0
:1002500029782E2903D04FF0FF310E911DE015F8BB
:10026000011F2A2907D1316831606D1C51F8042B18
:1002700031600E9211E000210E9109E00E9949457E
:1002800005D001EB810302EB430130390E916D1C67
:100290002A78A2F130010A29F0D3ADF840000FF21C
:1002A000D040297801F008F808B115F8010B8DF855
:1002B00042009DF84200682802BF29786829622020
:1002C00005D06C2804BF28786C2803D171208DF8E4
:1002D00042006D1C14A8069015F8014BB4F12500DE
:1002E0002AD01C3800F0D480001F022840F2D080B1
:1002F000133800F0F580093800F0CA80801E00F045
:100300005C81401E00F03581401E022840F2C08012
:10031000001F00F02E81401F00F08B80401E00F077
:10032000DF80401E35D0C01E0BD0801E00F0D8806C
:10033000C01E00F0D58063E125208DF8500001201B
:1003400067E19DF842006C283068306014D050F8A6
:10035000047B306005970E9C002C04D5384600F0D5
:10036000B7FF044606E022460021384600F0CCFFE5
:1003700000B1C41B08944DE150F8042B306002A971
:10038000404600F033FA002840F144814FF0FF303E
:10039000F2E1316831603C2451F8040B31600021F6
:1003A000CDE9020114A80590DDE90201069F11B90B
:1003B00008B90E9AB2B10206120FA0EB0212303247
:1003C000D2B2631E3A2AA8BF27320009DA5540EAA2
:1003D0000170090908BF00281C4603D0059AE319DB
:1003E0009A42E8D3E0190590C4F13C010E980891B7
:1003F000814209DA401A0A904FF6EF71BDF84000C9
:100400000840ADF8400005E1002840F103819DF867
:10041000400000F01400102840F0FC800F98079A6C
:10042000801A0A9A801A441A012CC0F2F3800A94A6
:10043000F0E09DF8420062281AD0682806D06A28A9
:100440000CD06C281CD0712808D019E030683060BE
:1004500050F8041B30600D980880DBE03068306095
:1004600050F8042B30600D98C117C2E90001D1E0AB
:100470003068306050F8041B30600D980870C9E097
:100480003068306050F8041B30600D980860C1E09F
:100490003068C01D20F007023260D2E90001083246
:1004A0003260CDE90201002902D507982D210AE02A
:1004B000BDF84000810702D507982B2103E0C00753
:1004C00005D50798202100F80A10401C079014A8B1
:1004D000079908180590214602A800F091FB99E0C1
:1004E0009DF842006C280DD0712818BF6A2809D1E8
:1004F0003068C01D20F007023260D2E900010832E6
:10050000326005E03168316051F8040B3160002140
:10051000CDE902019DF84200682803D1DDE902011E
:1005200080B20BE0622803D1DDE90201C0B205E030
:10053000742818BF7A2804D1DDE902010021CDE931
:1005400002019DF8400000072ED5DDE902010029D7
:1005500008BF002828D044F02000782824D107982C
:10056000302100F80A10401C411C079100F80A4095
:100570001AE09DF84200314600F001F9CDE9020190
:10058000002902DA07982D210AE0BDF84000810712
:1005900002D507982B2103E0C00705D50798202135
:1005A00000F80A10401C079014A807990818059035
:1005B000214602A800F0A0FA2CE09DF842006C2829
:1005C00009D0012007903068306050F8041B30607B
:1005D0008DF850101EE03068306001AA50F8041BFE
:1005E0003060ADF804100020ADF8060002A94FF00D
:1005F000FF300E90404600F0F9F800280AD5C5E615
:1006000025208DF85000012007901CB18AF8014088
:10061000022007900F980799401A0A99401A0899E2
:10062000401A0B99401A0999401A0C99441A9DF8DE
:100630004000400710D42020012C8DF800000BDB77
:10064000274601236A4602A9404600F000FE002822
:100650007FF49CAE7F1EF4D1DDF81CB0BBF1000F1F
:1006600014AF0DD017F8011B0498C0470028049060
:100670003FF48CAE0D98401CBBF1010B0D90F1D1F5
:1006800030208DF800000A9F012F0ADB01236A4603
:1006900002A9404600F0DBFD00287FF477AE7F1E04
:1006A000F4D1DDF820B0059FBBF1000F0DD017F895
:1006B000011B0498C047002804903FF467AE0D98D2
:1006C000401CBBF1010B0D90F1D130208DF80000E2
:1006D0000B9F012F0ADB01236A4602A9404600F066
:1006E000B6FD00287FF452AE7F1EF4D1059808991C
:1006F000DDF824B00F18BBF1000F0DD017F8011B67
:100700000498C047002804903FF440AE0D98401C68
:10071000BBF1010B0D90F1D130208DF800000C9F42
:10072000012F0ADB01236A4602A9404600F08FFD33
:1007300000287FF42BAE7F1EF4D19DF840004007C7
:100740007FF50BAD2020012C8DF80000FFF605ADE4
:1007500001236A4602A9404600F079FD00287FF493
:1007600015AE641EF4D1F8E40000000000000000A3
:10077000686A6C747A4C000025B0BDE8F08F62287E
:1007800026D068281DD06A2808D06C2827D0712868
:1007900004D0742823D07A280CD020E00868C01D2B
:1007A00020F007000860D0E90023083008601946EF
:1007B000104670470A680A6052F8040B0A6000216C
:1007C00070470A680A6052F8040B0A6000B20BE036
:1007D0000A680A6052F8040B0A6040B204E00A6832
:1007E0000A6052F8040B0A60C11770472DE9F44FF4
:1007F0000D4694B0D5F830A0BAF1000F804648BF3E
:100800006FF0004A00F0ACFD696B401801900FF6E4
:100810006C20D0E90023CDE9022395F83800400789
:1008200002D40198412805D240200DF11009019011
:10083000002609E000F09AFD5FEA0009F8D14FF0C8
:10084000FF3056E1AAEB040ABAF1010FC0F2CE80E4
:100850001498018802AA0DF1010000F0DFFD0028C4
:10086000044600F1DE801498008810B9641E00F17F
:10087000D880A245C0F2BA806869019922189142D5
:1008800080F0A2806E634042296A401AA969401A2A
:10089000696A401AE969401AA96A461A95F8380047
:1008A000400710D42020012E8DF800000BDB3746C6
:1008B00001236A462946404600F0C9FC002840F062
:1008C000B0807F1EF4D1D5F814B0BBF1000F4F46B5
:1008D0000DD017F8011BA868C0470028A86000F0D9
:1008E000A080E86A401CBBF1010BE862F1D1302026
:1008F0008DF800002F6A012F0ADB01236A46294682
:10090000404600F0A4FC002840F08B807F1EF4D10C
:10091000D5F818B0EF68BBF1000F0CD017F8011B29
:10092000A868C0470028A8607BD0E86A401CBBF1DB
:10093000010BE862F2D130208DF800006F6A012FC0
:1009400009DB01236A462946404600F080FC002866
:1009500067D17F1EF5D1E868A969D5F81CB00F18DA
:10096000BBF1000F0CD017F8011BA868C047002886
:10097000A86056D0E86A401CBBF1010BE862F2D1D6
:1009800030208DF80000AF6A012F09DB01236A4691
:100990002946404600F05BFC002842D17F1EF5D17D
:1009A00095F8380040070DD52020012E8DF8000065
:1009B00008DB01236A462946404600F048FC80BB1C
:1009C000761EF6D100266E61224668690DF101019E
:1009D000484400F031FD6869201868611498801C53
:1009E0001490801E008800287FF42CAF686B696922
:1009F000401A296A401AA969401A696A401AE969C5
:100A0000401AA96AA0EB010A95F83800400710D4F3
:100A1000BAF1010F0DDB5446A8682021C047A86039
:100A200010B94FF0FF365DE0E86A401C641EE862D2
:100A3000F2D16B694A462946404600F008FC00287E
:100A4000EFD12C6A012C0ADBA8683021C0470028AE
:100A5000A860E6D0E86A401C641EE862F4D1AB6985
:100A6000EA682946404600F0F2FB0028D9D16C6ABA
:100A7000012C0ADBA8683021C0470028A860D0D02C
:100A8000E86A401C641EE862F4D1E868A969EB6971
:100A90000A182946404600F0DAFB0028C1D1AC6AAA
:100AA000012C0ADBA8683021C0470028A860B8D014
:100AB000E86A401C641EE862F4D195F838004007EB
:100AC0000ED5BAF1010F0BDBA8682021C047002822
:100AD000A860A6D0E86A401CBAF1010AE862F3D126
:100AE0006E616E6304A881451CBF484600F0E0FCBF
:100AF000304615B0BDE8F08F2DE9FA4E05460A469E
:100B00002F696F2A08BF082405D041F020007828FB
:100B100014BF0A2410243C26D5E90001642A18BF1A
:100B2000692A81468A4605D1002903DAD9F10009EC
:100B30006AEB4A0ABAF1000F08BFB9F1000F0CD1F5
:100B4000286B50B9082C36D195F83800000732D5FB
:100B500030203B2687F83B002DE0E31748465146FE
:100B6000224600F0E5FCA4FB0023A9EB0202303290
:100B7000D2B2A6F1010B3A2A5E4603DB9DF80030A3
:100B8000513B9A180BF8072081465FEA010A08BF1B
:100B9000B9F1000F03D0E868F1198842DDD3082CC1
:100BA00009D195F83800000705D5F05D302802D04E
:100BB000761E3020F055C6F13C00A861F119E960BD
:100BC000296B884208DA081A28624FF6EF71288FDD
:100BD00008402887BDE8F38E00290ED595F8381017
:100BE00001F01401102908D1696B6A69891A2A6A0F
:100BF000891A0E1A012EA8BF2E62BDE8F38E0000DE
:100C00002DE9F24F04468EB0D4E90001CDE902018E
:100C100004AF9DF8380040F0200BBBF1610F0AD003
:100C2000206B002848BF062004D408BFBBF1670F23
:100C300001D1012020636168C1F30A5040F2FF72C4
:100C400090421CD1080304BF2068002809D103206A
:100C5000A0619DF8380061381A2836D30FF2306150
:100C600008E00320A0619DF8380061381A2829D3D4
:100C70000FF21461E068032200F0DEFBBEE1012800
:100C800016DA204600F0CBFC012811DB00250020FD
:100C9000BBF1610F20D1E168302201F8012B4A1C21
:100CA000E2609DF83820612A0CBF782258220FE0BC
:100CB000626840F2FE3161F31E52451A62604FF0E5
:100CC000FF30E5E70FF2BC51D4E70FF2C051D1E796
:100CD0000A706169891C616110B90026002584E1F0
:100CE000BBF1610F40F09880206B00284CBF21269B
:100CF000461CD4E900ABDDE902010022002300F02C
:100D0000AFFC36B23ABF8BF00040CDE902A0CDE98E
:100D100002AB06F101082D1FB8F1010F8DF810206C
:100D20000DF1110736DBDDE902010022002300F09E
:100D3000AFFC2FD21C2102A800F0C2FCDDE90201A9
:100D400000F044FDA8F10708B8F1010F814609DB66
:100D500000F068FD02460B46DDE9020100F07AFD75
:100D6000CDE90201F81D072105E009F00F0200F8A6
:100D7000012D4FEA2919B9F1010F01DB491EF4D504
:100D8000491E5CBF002200F8012DF9D5C71DB8F13E
:100D9000010FC8DA0DF11100391AB142B8BF0E4681
:100DA00036B230000DF111072FD4884206DA04A9BB
:100DB000411849780829A8BF0F2100DA002104AAA8
:100DC000821800E0761E12F80139401E8B42F9D0DD
:100DD0000F2904D104A941184A78521C4A700028EE
:100DE00002D504AF761C2D1D36B2701E0DD4C1196C
:100DF0000A783032D2B23A2A03DB9DF838303A3BD7
:100E00009A18401E01F80129F2D5206B002840F104
:100E1000EC80701E2063E8E0DDE90201002200237F
:100E200000F01EFC3CBF81F00041CDE902012DB273
:100E300047F2975068434B49DFF82C9190FBF1F54E
:100E40002DB2C5F1070ABAF1010F90461CDBDDE9AE
:100E500002675FEACA7007D542464B4630463946BC
:100E600000F0B8FD06460F464046494642464B460E
:100E70004FEA6A0A00F0AEFDBAF1000F80468946DB
:100E8000E7D1CDE9026724E0CAF1000A0026374F16
:100E900014E05FEACA7007D542464B4630463946F1
:100EA00000F098FD06460F464046494642464B46EE
:100EB00000F090FD4FEA6A0A80468946BAF1000FB9
:100EC000E7D1DDE9020132463B4600F055FECDE9AF
:100ED0000201BBF1660F0CBF05F10A000620216B71
:100EE000DFF88C904618142EA8BF132630208DF8FA
:100EF00010000DF11107012E3CDBDDE9020100F0CD
:100F00007BFC07F1080104220A23B0FBF3F303EB97
:100F10008307A0EB4700303001F8010C0A20B3FB37
:100F2000F0F000EB8007A3EB47033033521E01F8CB
:100F3000023DE9D1083E012E01F10807DBDBDDE9C6
:100F4000020100F059FC00F077FC02460B46DDE997
:100F5000020100F07FFC00224B4600F03BFDCDE992
:100F60000201CAE7A0860100000024400000F03F13
:100F700084D797410DF11100381A0DF1110702E0E5
:100F8000401E6D1E7F1C39783029F9D0BBF1660FE9
:100F900002D12DB2691C04E0BBF1650F0CBF012129
:100FA0000021226B8E1836B2B042B8BF064636B268
:100FB00031001AD4814204DAC85D3528A8BF39202F
:100FC00000DA3020CA19521E00E0761E12F80139EC
:100FD000491E8342F9D0392802D1C85D401CC8554A
:100FE000002902D57F1E761C6D1C2DB29DF838108D
:100FF000009533B23A46204600F003F80FB0BDE842
:10100000F08F2DE9F04786B006468A4690461D4689
:1010100000F0FBFE012D406A376B90F8009002DA79
:1010200001250FF270284AF02000BDF938406628EB
:1010300008BF641C12D0672876D114F1040F79DB45
:10104000BC4277DA96F83800641C000702D4BD422F
:10105000B8BF2F4624B23F1B48BF002724B2F06818
:10106000B169012C21DA4A1C30230B54012F03DA19
:1010700096F83810090702D502F80090521CB261A8
:10108000E742B8BF7C4224B26142E7197162AF42C5
:10109000B8BF3D46B3692DB2F5612A4641461818DE
:1010A00000F0CAF9781BB062BAE00818A54216DA57
:1010B0002A46414600F0C0F9B1696918601B012F4A
:1010C000B161706203DA96F83800000705D5F06860
:1010D00001F80090F069401CF061B762A0E0224680
:1010E000414600F0A9F9B06920182D1B012F03DA41
:1010F00096F83810090703D5F16800F80190401CF4
:101100002DB2B061AF42B8BF3D46F068B3692DB2B1
:101110002A4604EB0801181800F08EF9B069281867
:10112000B061781B70627BE0BAF1610F14D14FF0AF
:10113000700A16E0BD4204DA96F83810090758BF65
:101140002F467F1E48BF0027BAF1670F14BF4FF02C
:10115000450A4FF0650A04E0BAF1410F08BF4FF0AD
:10116000500AB169F0684A1CB261012F18F8013BBE
:101170000B5403DA96F83810090715D5531CB361E0
:1011800002F80090012F0FDB6D1E2DB2AF42B8BFE9
:101190003D462DB22A464146181800F04DF9B06977
:1011A0002818B061781B7062F068B16909182000D6
:1011B00081F800A004D42B20487001F1020804E05B
:1011C0002D224A7001F102086442002502AF08E0B6
:1011D0000A22684600F032FE019807F8010B6D1CE8
:1011E000009C21B20129F3DA022D06DA4AF0200030
:1011F000652804BF302008F8010B4DB9302008F8ED
:10120000010B07E06D1E02A8285C303008F8010BC6
:10121000012DF7DAF068B1690818A8EB0000F06159
:1012200096F8380000F0140010280DD17069B169EB
:101230000818716A0818F1690818B16A0818716B02
:101240008842BCBF081A306206B0BDE8F087F8B526
:1012500004460D4616461F46002077B116F8011BBE
:10126000A868A047A86030B1E86A401CE862002086
:101270007F1EF3D1F2BD4FF0FF30F2BD0000000041
:10128000000000006E616E004E414E00696E660007
:10129000494E46003000F8B504460D4616461F4636
:1012A00000F0D4FD3B4632462946204601B0BDE859
:1012B000F04000F0E2BD01020278C9B28A421AB1E0
:1012C0001CBF10F8012FF9E718BF0020704700007D
:1012D00000F10103810704D010F8011B89B18107D7
:1012E000FAD10268B2F10131914311F0803F04BF9D
:1012F00050F8042FF6E710F8011B11B110F8011B8C
:10130000FBE7C01A70470000C9B2830706D0521E1F
:1013100022D310F8013B9942F7D11FE0083A13D3CA
:1013200002F1040241EA012141EA014150F8043B83
:10133000121F21BF4B40A3F1013C2CEA030C1CF00F
:10134000803FF3D0C9B2001F083210F8013B521E93
:1013500028BF91EA030FF8D818BF0120401E70473C
:1013600080B500F073FD012002BD000070B5054698
:1013700005F10F00C408C046C046E400A54232D2C1
:10138000082C04D2082402E0083000F091F822482A
:10139000026811000CD1011D0A6802B31368A34250
:1013A00038BF111DF8D310E01D68A5420DD2191DDC
:1013B0000B68002BF8D11268011D00E0191D0B68A5
:1013C00093420CD01D68A542F8D361B10D682A681C
:1013D000A2F10803A3420AD26A680A600FE000F093
:1013E0006FFD0028D0D1C046C046002070BD6319F3
:1013F0000B60121B6E685E600B681A602C600968D7
:1014000000291DBF4A68002A091D00210160C0464D
:10141000C04605F1080070BD5014002070B50446A8
:101420000D46164600F012FD324629462046BDE81C
:10143000704000F015BD000062B38B0708D0521E4B
:1014400011F8013B00F8013B00F024808B07F6D136
:10145000830740F0208000BF103A07D330B4B1E8D2
:101460003810103AA0E83810F9D230BC530724BF26
:10147000B1E80810A0E8081044BF51F8043B40F858
:10148000043BD20724BF31F8022B20F8022B44BFC3
:101490000B7803707047083A07D3B1E80810083A90
:1014A00040F8043B40F804CBF7D25307E4E70000D0
:1014B00000B9704738B5A0F108042068082833D374
:1014C00010F0070F30D1C046C0461848416809B136
:1014D0008C4203D26160446017E019464B680BB13F
:1014E000A342FAD30B685D18AC421BD3A54204D1CA
:1014F0002268D2180A600C4607E04A681AB12368CD
:101500001B199A420ED362604C60616851B1226827
:1015100013198B4206D100230360086880182060ED
:1015200048686060C046C04631BD000050140020CD
:101530001B4213D1094236D12AB18446B0FBF2F0E6
:1015400002FB10C2704700F0D1BCFCD30022002384
:1015500070470B000200002100207047904271EBA1
:10156000030CF6D370B5B1FA81F4B3FA83F52C1BF2
:10157000A340C4F1200532FA05F63343A2405FF0E0
:101580000046E64002E05B085FEA3202841A71EB33
:10159000030524BF204629467641F4D302000B0000
:1015A0003000002170BD012ACFD970B5140C20D0B5
:1015B000B1FA81F4B2FA82F5C4F120046419B4F1ED
:1015C0002006D6D3B2405FF00044F440002502E08C
:1015D00052085FEA3303C61A71EB020E24BF30468D
:1015E000714664416D41F3D302000B0020002900D5
:1015F00070BD0C46B1FBF2F102FB11452D0445EA2A
:101600001045B5FBF2F402FB145580B240EA0545E3
:10161000B5FBF2F002FB105240EA044070BD30B45A
:10162000436803F0004201211B031B0B436004BF0E
:101630000368002B08D10DE00368DD0F45EA440480
:1016400044605B000360491E4468E302F4D5230351
:101650001B0B436043681A434260084630BC704726
:101660004FF4001C1CEB410F94BF1CEB430F09E02F
:1016700041EA030C50EA4C0C52EA0C0C03D299429A
:1016800008BF9042704714BF8B42824270470000EF
:101690004FF4001C1CEB410F94BF1CEB430F09E0FF
:1016A00041EA030C50EA4C0C52EA0C0C03D28B4278
:1016B00008BF8242704714BF9942904270470000B1
:1016C00070B504460D466068C0F30A5040F2FF71E1
:1016D000884207D16068000304BF2068002817D043
:1016E000022070BD20B92046FFF799FF012866DA75
:1016F000012D0FDB40F2FF71091A8D420AD3606899
:10170000002847BF00202F4900202F49C4E90001CD
:10171000012070BD4142A942616806DA6FF31E5193
:10172000401941EA0050606040E0401E636845197E
:10173000012205F1350062F31F53352801F0004105
:10174000636003D361600020206070BD002015F14C
:101750001F0F04DA206823600022203562606A428D
:1017600012D0401E25688041C2F12003C0439D4035
:1017700045EAD07025686668D54006FA03F32B4326
:1017800023606368D340636062680A43B0F1004F2E
:10179000626003D80DD12078C0070AD52068401CAC
:1017A0002060206828B96068401C60604FF0FF30FE
:1017B00070BD6068884204BF20680028F6D1002010
:1017C00070BD00BF0000F0FF0000F07FF446400D48
:1017D00040EAC120490006D200F014F8004248BF98
:1017E0006FF00040604700F00DF84FF00041884274
:1017F0008CBF084640426047400D40EAC120490086
:1018000080F00D8040F00040490DA1F58061491C39
:1018100005D4D1F11F0154BFC840C01770474FF025
:1018200000007047010040F10980F446404200F09A
:1018300005F851F000416047010000BF09D0B0FA3F
:1018400080F18840C91CC1F58461090501EBD021F4
:1018500040057047F0B44FF0004591EA030F44BFD4
:101860006B4000F045BB00BF841A71EB030604D245
:101870006E40001BB141121973414FF4001C1CEB68
:10188000410F34BF7CEB430684E00C0DA4EB1356F0
:10189000362E7DDC012E43DC45EAC32343EA525356
:1018A00012BFD20292025B08240545EAC12141EA37
:1018B0005051D2EBC020994125D407D1B0FA80F61F
:1018C00010FA06F164D00020203608E0B1FA81F663
:1018D000B140C6F1200220FA02F21143B0404FEAB3
:1018E000F474B4EB465434F001064FEA74040AD899
:1018F000D6F50016760D04F00044F04061FA06F2C9
:101900005040F1404840C00A40EA415021F00041B7
:1019100028BF5FEA500550F1000044EBD12137E0C9
:1019200045EAC323DB0A45EAC121C90AB6F120050D
:101930000EDD42EA0242120CC5F1200603FA06F659
:10194000EB4042EA06056D42984161F100010DE06D
:1019500062FA06F5F240554063FA06FC82EA0C0290
:10196000F3405A406D42904161EB030111F4801F36
:1019700005D1641E620502D06D004041494121F449
:101980008011430875F1004350F1000041EB045110
:10199000F0BC70471CEB410F15D223F0004352EA14
:1019A00043060BD04FEA4C0CBCEB410F04D80C0D96
:1019B000661E342EB7DDEBE7801A994150EA4106E6
:1019C00008BF0021E4E708BF1CEB430F28BF6FF0FE
:1019D0000001DDE7B0B581EA030C0CF0004C40F2E9
:1019E000FF7515EA11541DBF15EA1357AC42AF42FB
:1019F00039E0E41923EA455343F48013C90241F066
:101A0000004141EA505EC7021100A7FB0202002814
:101A10004FF00000EEFB01204FF00001E3FB072137
:101A200018BF42F00102401800214941E3FB0E01BA
:101A3000A4F580640F0302D252004041494154F1A1
:101A400001046CDD470872F1004250F1000051EBD7
:101A50000451A1F580115CBF41EA0C01B0BD4CEA14
:101A600005510020B0BD05EA1357AC4214BFAF4288
:101A700041E050EA410E1CBF52EA430E02E06146CB
:101A80000020B0BD24423C441BD15FEA070EF6D0D3
:101A9000090302BF01460020AEF1140EB1FA81F72E
:101AA000AEEB070401FA07FE0C37C7F1200100FA7C
:101AB00007F7C8404EEA000E23EA455343F480136B
:101AC000A2E733F00043B3FA83F704BFB2FA82FE11
:101AD00077440B3FE41BB7F1200E2FBF02FA0EF341
:101AE000BB40C7F1200E22FA0EFE38BF43EA0E03B8
:101AF000BA40641C82E750EA410E14BF52EA430E1A
:101B00006FF000014FF4001717EB430F8ABF19461F
:101B100017EB410FB5E74CEA05510020B0BDD4F1F9
:101B20000104B4F120070FDAC4F12007520828BFDE
:101B300042F0010210FA07F501FA07F7E1BF2A4364
:101B4000E0403843E1400FE0352C98DCC7F1200439
:101B500052EA400220FA07F218BF42F0010231FABD
:101B600007F0A1400A43002172F1004250F1000049
:101B700051EB0C01B0BD00002DE9F04140F2FF75C2
:101B800081EA030C0CF0004C15EA11541DBF15EA54
:101B90001357AC42AF42E9E0BC41C1F31301C3F3B8
:101BA0001303801A994143F4801304D2641E400049
:101BB000494180185941C90241EA5051B1FBF3F63D
:101BC00003FB1611A2FB0675D7EBC020A94102D278
:101BD000761E80185941C90241EA5051B1FBF3FE0B
:101BE00003FB1E11A2FB0E75D7EBC020A94103D247
:101BF000AEF1010E80185941890241EA90517605F3
:101C000046EA8E2EB1FBF3F603FB1611A2FB067516
:101C1000D7EB8020A94102D2761E80185941C90213
:101C200041EA50514EEA060EB1FBF3F603FB1611E2
:101C3000A2FB0675D7EBC020A94102D2761E801800
:101C40005941C90241EA5051B1FBF3F703FB1711A7
:101C5000A2FB0735D3EBC020A94167F100070CBFF9
:101C6000004247F0010766F3D5274FEA1E31B80856
:101C700014F5806414DDBD0775F1004250EB0E5081
:101C800051EB045111F5801F5CBF41EA0C01BDE826
:101C9000F0814CF07F6141F0E0410020BDE8F0812F
:101CA000BD076D0840EA0E5041F48011D4F10104E3
:101CB000B4F120060ADAC4F120060200E04001FA7D
:101CC00006F3E1401843B24015430EE0342C14DC17
:101CD000C6F1200445EA40056D0820FA06F21543D6
:101CE00021FA06F0A1400D43002175F1004250F1A8
:101CF000000051EB0C01BDE8F08100205FEA0C010F
:101D0000BDE8F081CFB992185B41B3FA83F704BF05
:101D1000B2FA82F6BF190B3FB7F120062FBF02FAC5
:101D200006F3BB40C7F1200622FA06F638BF33435C
:101D3000BA401CB1E419641E2FE77F4231F0004124
:101D4000B1FA81F404BFB0FA80F6A4190B3CB4F1E7
:101D500020062FBF00FA06F1A140C4F1200620FAA8
:101D600006F638BF3143A0403C1B16E7AC421ABF11
:101D700005EA1357AF4214E050EA41061CBF52EA8D
:101D80004306BFE750EA4107304661461CBF41EABF
:101D90000551BDE8F08152EA430C08BFC143BDE8DC
:101DA000F08100204FF4001616EB410F98BF16EBA0
:101DB000430F08BF16EB410F24BFC14305E016EBEC
:101DC000430F0CBF61464CEA0551BDE8F0810000AD
:101DD00080B5134800F0F6F80FF24C020FF2440100
:101DE0000160426241600FF24402826381600FF23F
:101DF0004402C1600161416181618162C16201632C
:101E00004163C2630164416401BD10B5044800F040
:101E1000D9F80446206808B9FFF7DAFF204610BD5C
:101E200044000020000000002E00000066616C737A
:101E300065000000747275650000000091FBF2F30C
:101E400003FB1211C0E900317047000080B5DFF8D4
:101E50000C0000F0B7F8806902BD0000D40000203B
:101E600030B430B90FF24800D0E90045C2E900456E
:101E70001BE00170012030BC704730B431B90FF263
:101E80003800D0E90045C3E900450EE01AB930BC7E
:101E90006FF00100704708B10A7802800978481E87
:101EA000804130BCC043C00F7047002030BC704739
:101EB0000000000000000000000000000000000022
:101EC0000749086808B1002070470648C008C000EC
:101ED00008600549C908C900091A0160704700BFB8
:101EE000601400204F1100204813002070470000AC
:101EF000841A71EB030603D2001BB141121973411E
:101F00004FF4001C1CEB410F34BF7CEB430443E057
:101F10000C0DA4EB1356352E50DC45EAC323DB0A27
:101F200045EAC121C912B6F120050DDD63FA05F6B7
:101F3000EB4086EA0305124218BF45F00105C018C0
:101F400051F100010CD213E062FA06F5F24055405F
:101F5000F3415A40B340F3405A408018594107D3E7
:101F600049085FEA30005FEA350528BF45F0010502
:101F700001F58011420875F1004250F1000041EB7B
:101F80000451F0BC4FF4001C1CEB410F38BF7047EC
:101F90000020090D090570471CEB410F10D252EAD1
:101FA00043060BD0BCEB410F05D80C0DAB43661EAE
:101FB000342EB5DD02E0AB4380185941F0BC7047C8
:101FC000F0BC70477047000038B504000025207849
:101FD000C00740F10D81DFF8040C006810F00C0020
:101FE00004280BD0DFF8F40B006810F00C00082870
:101FF0002AD1DFF8E80B0068C00325D54FF48040F4
:10200000B0FA80F050F02000C0B24009C0B2012800
:1020100003D1DFF8EC0B006806E04FF48040B0FA23
:1020200080F0DFF8E00B00684FF48041B1FA81F1F5
:1020300011F01F01C840C00740F1DA806068002835
:1020400040F0D6800120A6E3DFF8B40B006830F43E
:102050008030DFF8AC1B0860DFF8A40B006830F4B8
:102060008020DFF89C1B086000F011FE05004FF493
:102070008040B0FA80F050F02000C0B24009C0B2F9
:10208000012803D1DFF8780B006806E04FF48040A8
:10209000B0FA80F0DFF86C0B00684FF48041B1FAC1
:1020A00081F111F01F01C840C00706D500F0EFFD17
:1020B000401B6528DBD303206DE36068B0F5803FEB
:1020C00008D1DFF83C0B006850F48030DFF8301B9B
:1020D000086038E06068002810D1DFF8240B006841
:1020E00030F48030DFF8181B0860DFF8140B00684C
:1020F00030F48020DFF8081B086024E06068B0F549
:10210000A02F10D1DFF8F80A006850F48020DFF823
:10211000F01A0860DFF8E80A006850F48030DFF851
:10212000E01A08600FE0DFF8D80A006830F4803069
:10213000DFF8CC1A0860DFF8C80A006830F48020A5
:10214000DFF8BC1A08606068002828D000F09FFD06
:1021500005004FF48040B0FA80F050F02000C0B28B
:102160004009C0B2012803D1DFF8940A006806E0F4
:102170004FF48040B0FA80F0DFF8880A00684FF42E
:102180008041B1FA81F111F01F01C840C0072FD47E
:1021900000F07DFD401B6528DBD30320FBE200F04F
:1021A00076FD05004FF48040B0FA80F050F020003A
:1021B000C0B24009C0B2012803D1DFF8440A006868
:1021C00006E04FF48040B0FA80F0DFF8380A00688B
:1021D0004FF48041B1FA81F111F01F01C840C007EE
:1021E00006D500F054FD401B6528DBD30320D2E266
:1021F0002078800740F1BF80DFF8E009006810F028
:102200000C0F0BD0DFF8D409006810F00C00082880
:1022100039D1DFF8C8090068C00334D45FF08040CA
:10222000B0FA80F050F02000C0B24009C0B20128DE
:1022300003D1DFF8CC09006806E05FF08040B0FA17
:1022400080F0DFF8C00900685FF08041B1FA81F1E9
:1022500011F01F01C840C00704D52069012801D032
:10226000012098E2DFF8980900685FF0F851B1FAB0
:1022700081F130F0F800626912FA01F10843DFF8E9
:102280008019086077E02069002842D001205FF0C3
:102290000041B1FA81F1DFF8702942F8210000F025
:1022A000F6FC05005FF08040B0FA80F050F02000AE
:1022B000C0B24009C0B2012803D1DFF84409006868
:1022C00006E05FF08040B0FA80F0DFF8380900687F
:1022D0005FF08041B1FA81F111F01F01C840C007E1
:1022E00006D400F0D4FC401B0328DBD3032052E2C9
:1022F000DFF80C0900685FF0F851B1FA81F130F0B5
:10230000F800626912FA01F10843DFF8F418086076
:1023100031E000205FF00041B1FA81F1DFF8E828F8
:1023200042F8210000F0B3FC05005FF08040B0FAF5
:1023300080F050F02000C0B24009C0B2012803D1A3
:10234000DFF8BC08006806E05FF08040B0FA80F07B
:10235000DFF8B00800685FF08041B1FA81F111F058
:102360001F01C840C00706D500F091FC401B0328A0
:10237000DBD303200FE22078000754D5A0690028A2
:102380002AD001205FF00041B1FA81F1DFF87C280A
:1023900042F8210000F07BFC05005FF08040B0FABD
:1023A00080F05FF08040B0FA80F0DFF858080068F5
:1023B0005FF08041B1FA81F111F01F01C840C00700
:1023C00006D400F064FC401B0328E6D30320E2E1BE
:1023D000012000F05FFC26E000205FF00041B1FA30
:1023E00081F1DFF8282842F8210000F050FC0500B8
:1023F0005FF08040B0FA80F05FF08040B0FA80F08B
:10240000DFF8000800685FF08041B1FA81F111F057
:102410001F01C840C00706D500F039FC401B032847
:10242000E6D30320B7E12078400740F1FE80DFF8D3
:10243000E007006850F08050DFF8D4170860DFF83C
:10244000D007006810F0805000900098DFF8C407B3
:10245000006850F48070DFF8BC17086000F017FCCB
:102460000500DFF8B0070068C00506D400F00FFCD7
:10247000401B6528F5D303208DE1DFF89C07006839
:1024800040084000DFF890170860DFF88C0700680C
:1024900030F00400DFF88017086000F0F8FB05005A
:1024A0005FF08040B0FA80F05FF08040B0FA80F0DA
:1024B00050F04000C0B24009C0B2022803D1DFF89A
:1024C0005807006802E0DFF83C0700685FF08041D1
:1024D000B1FA81F111F01F01C840C00708D500F022
:1024E000D6FB401B41F289318842D9D3032052E107
:1024F000E068012808D1DFF82007006850F00100EB
:10250000DFF81417086037E0E068002810D1DFF822
:102510000807006840084000DFF8FC160860DFF894
:10252000F806006830F00400DFF8EC16086023E0DD
:10253000E068052810D1DFF8E006006850F00400DC
:10254000DFF8D4160860DFF8D006006850F001000C
:10255000DFF8C41608600FE0DFF8BC06006840082A
:102560004000DFF8B4160860DFF8AC06006830F011
:102570000400DFF8A4160860E06800282AD000F004
:1025800086FB05005FF08040B0FA80F05FF080408D
:10259000B0FA80F050F04000C0B24009C0B202284A
:1025A00003D1DFF87406006802E0DFF8580600681F
:1025B0005FF08041B1FA81F111F01F01C840C007FE
:1025C00033D400F064FB401B41F289318842D9D3F7
:1025D0000320E0E000F05BFB05005FF08040B0FA14
:1025E00080F05FF08040B0FA80F050F04000C0B260
:1025F0004009C0B2022803D1DFF81C06006802E0DF
:10260000DFF8000600685FF08041B1FA81F111F057
:102610001F01C840C00708D500F039FB401B41F23C
:1026200089318842D9D30320B5E0E069002800F061
:10263000B180DFF8A805006810F00C00082800F051
:10264000A780E069022875D100208021B1FA81F1CC
:10265000DFF8B42542F8210000F019FB0500402006
:10266000B0FA80F050F02000C0B24009C0B201289A
:1026700003D1DFF88C05006805E04020B0FA80F057
:10268000DFF8800500684021B1FA81F111F01F01E7
:10269000C840C00706D500F0FAFA401B0328DED375
:1026A000032078E0206AB0F5803F09D1DFF82C05DF
:1026B000006830F40030A1680843DFF82015086096
:1026C000DFF81805006830F47410216A0843616A65
:1026D0000843DFF80815086001208021B1FA81F174
:1026E000DFF8242542F8210000F0D1FA050040204F
:1026F000B0FA80F050F02000C0B24009C0B201280A
:1027000003D1DFF8FC04006805E04020B0FA80F057
:10271000DFF8F00400684021B1FA81F111F01F01E7
:10272000C840C00736D400F0B2FA401B0328DED3FD
:10273000032030E000208021B1FA81F1DFF8C824C5
:1027400042F8210000F0A3FA05004020B0FA80F022
:1027500050F02000C0B24009C0B2012803D1DFF818
:10276000A004006805E04020B0FA80F0DFF894048F
:1027700000684021B1FA81F111F01F01C840C00783
:1027800008D500F084FA401B0328DED3032002E0C2
:10279000012000E0002032BD70B504000D000026CD
:1027A000DFF87804006810F00700A84280F0CE80BF
:1027B000DFF868040068C008C0002843DFF85C1434
:1027C0000860DFF85804006810F00700A84201D044
:1027D000012099E12078800709D5DFF844040068DA
:1027E00030F0F000A1680843DFF834140860207866
:1027F000C00740F16E816068012820D14FF480400D
:10280000B0FA80F050F02000C0B24009C0B20128F8
:1028100003D1DFF8EC03006806E04FF48040B0FA23
:1028200080F0DFF8E00300684FF48041B1FA81F1F5
:1028300011F01F01C840C00743D4012064E1606863
:1028400002281DD14020B0FA80F050F02000C0B224
:102850004009C0B2012803D1DFF8A403006805E0F5
:102860004020B0FA80F0DFF89C0300684021B1FA04
:1028700081F111F01F01C840C00722D4012043E1BB
:102880005FF08040B0FA80F050F02000C0B2400904
:10289000C0B2012803D1DFF86803006806E05FF0EA
:1028A0008040B0FA80F0DFF85C0300685FF08041A0
:1028B000B1FA81F111F01F01C840C00701D4012015
:1028C00022E1DFF85C03006880088000616808434B
:1028D000DFF84C13086000F0DAF9060060680128A0
:1028E00010D1DFF83C03006810F00C00042800F061
:1028F000F08000F0CCF9801B41F289318842F0D39E
:10290000032001E16068022810D1DFF81403006899
:1029100010F00C00082800F0DC8000F0B8F9801BF3
:1029200041F289318842F0D30320EDE0DFF8F00274
:10293000006810F00C0F00F0CC8000F0A8F9801BAC
:1029400041F289318842F1D30320DDE0207880070D
:1029500009D5DFF8CC02006830F0F000A168084328
:10296000DFF8BC1208602078C00740F1A3806068DF
:1029700001281FD14FF48040B0FA80F050F02000C1
:10298000C0B24009C0B2012802D19D48006806E0EB
:102990004FF48040B0FA80F0DFF8680200684FF42E
:1029A0008041B1FA81F111F01F01C840C00741D444
:1029B0000120A9E0606802281CD14020B0FA80F014
:1029C00050F02000C0B24009C0B2012802D18C48AA
:1029D000006805E04020B0FA80F0DFF828020068C7
:1029E0004021B1FA81F111F01F01C840C00721D484
:1029F000012089E05FF08040B0FA80F050F02000C4
:102A0000C0B24009C0B2012802D17D48006806E08A
:102A10005FF08040B0FA80F0DFF8E80100685FF016
:102A20008041B1FA81F111F01F01C840C00701D403
:102A3000012069E0DFF8E801006880088000616833
:102A40000843DFF8DC11086000F021F90600606837
:102A500001280FD1DFF8C801006810F00C0004282D
:102A600028D000F014F9801B41F289318842F1D35B
:102A7000032049E0606802280ED16948006810F020
:102A80000C00082816D000F002F9801B41F28931B1
:102A90008842F2D3032037E06148006810F00C0F41
:102AA00008D000F0F4F8801B41F289318842F3D35A
:102AB000032029E059480068C008C000284357494E
:102AC00008605648006810F00700A84201D00120B5
:102AD0001AE02078400707D55148006830F4E060DC
:102AE000E16808434E4908602078000708D54C4843
:102AF000006830F46050216950EAC100484908601C
:102B0000002000F0ACF8002070BDF0B585B001A841
:102B100044491022FEF7A0FC43480088ADF80000AD
:102B2000002100220023002400202C4D2D682900C4
:102B300011F00C05042D02D0082D03D026E03B4DEA
:102B4000280025E001AD11F470164FF47057B7FA64
:102B500087F7FE40755D2C00CD0311D51F4D2D6804
:102B60006E4615F400354FF48047B7FA87F7FD40FD
:102B7000AD5D2A002D4DB5FBF2F565432B0003E05A
:102B80002B4D05FB04F52B00180001E0274D280014
:102B900005B0F0BD80B5FFF7B8FF104909685FF0D8
:102BA0007062B2FA82F2234B11F0F001D140C95C9D
:102BB000C840214908602048006802BD80B5FFF781
:102BC000E9FF064909685FF46002B2FA82F2194B24
:102BD00011F4E061D140C95CC84002BD041002405C
:102BE00080B5FFF7D7FF0E4909685FF4E012B2FA2B
:102BF00082F2104B11F46051D140C95CC84002BD53
:102C00000010024024100240000042428004424270
:102C10001C100240007000402010024000200240C2
:102C200004100240404A0008B612000800127A0060
:102C300000093D00504A00080000002080B51C48F3
:102C4000006850F010001A490860032000F09CF85A
:102C5000002000F004F800F0E1F8002002BD10B5FB
:102C60000400FFF797FF4FF47A71B0FBF1F000F02A
:102C7000ABF8002221005FF0FF3000F08BF800205D
:102C800010BD0C480068401C0A490860704709489C
:102C90000068704711B581B00024FFF7F8FF040009
:102CA000FFF7F5FF001B01998842F9D313BD00001F
:102CB000002002405C14002010F007024D4B1B68FE
:102CC00019004FF6FF0319404B4B53EA02231943F7
:102CD000484B1960704747480068C0F302207047AE
:102CE000012110F01F029140444A40B2430942F8CA
:102CF0002310704710B440B2002808D50A01404B99
:102D000040B210F00F04E31803F8042C03E00A01AA
:102D10003C4B40B2C25410BC704770B4030013F077
:102D20000704D4F10706052E01D3042001E0D4F1F5
:102D30000700261D072E01D2002500E0E51E012612
:102D400016FA00F0401E0840A8400121A940491E83
:102D50001140084370BC704710B50400601EB0F10C
:102D6000807F01D301200EE0601E274908600F21FB
:102D70005FF0FF30FFF7BEFF002024490860072006
:102D800023490860002010BD10B504002000FFF7A3
:102D900093FF10BDF8B504000D0016000027FFF7E3
:102DA0009AFF0700320029003800FFF7B6FF010044
:102DB000200040B2FFF79EFFF1BD10B504002000D7
:102DC00040B2FFF78DFF10BD10B504002000FFF7E3
:102DD000C3FF10BD042806D10D49096851F0040154
:102DE0000B4A116005E00A49096831F00401084AFC
:102DF000116070470CED00E00000FA0500E100E012
:102E000018ED00E000E400E014E000E018E000E06D
:102E100010E000E080B500F0B8F801BD80B51748BB
:102E2000006850F00100154908601448006810F06F
:102E30000100009000980520FFF7A6FF0022002166
:102E40007FF00B00FFF7A6FF002200217FF00A00B1
:102E5000FFF7A0FF002200217FF00900FFF79AFF93
:102E6000002200217FF00300FFF794FF00220021E1
:102E70005FF0FF30FFF78EFF01BD00BF181002406A
:102E800000B58FB0012005905FF4803006900020DF
:102E9000079002200C905FF480300D905FF4E010FA
:102EA0000E9005A8FFF790F80F20009002200190E7
:102EB000002002904FF480600390002004900221D3
:102EC0006846FFF769FCFFF765FE4FF47A71B0FBC7
:102ED000F1F0FFF779FF0420FFF77CFF00220021CB
:102EE0005FF0FF30FFF756FF0FB000BD80B5FFF772
:102EF000A5FEFFF7C5FF00F08FF800F026F900F0FF
:102F000087F93B4800F0EEF900F03AFF394800F04D
:102F1000E9F90821364800F078FA3748028801219B
:102F2000012000F095FF01203449087000F0A5F859
:102F3000012813D13048008832302F4908802E48AC
:102F40000088B0F5617F03DD4FF461702A49088085
:102F5000294802880121012000F07AFF00F0A7F83B
:102F60000128E3D1244800883238234908802248C8
:102F70000088C82802DAC8201F4908801E48028835
:102F80000121012000F064FFD0E780B51B480078E4
:102F9000002825D01A480088401C19490880184884
:102FA0000088B0F57A7F1BD116480168164800F0FA
:102FB00095FF1448006800F0A3FF144900F0B0FF2B
:102FC000134900F0ADFF01F029F802000B00114891
:102FD00000F084FF00200B490860002008490880A9
:102FE00001BD08490968491C064A11607047000084
:102FF000D813002014140020400100206614002083
:103000006414002058140020304A000800003041A9
:1030100000000842A849000800B585B032480068A1
:1030200050F00400304908602F48006810F0040098
:10303000009000982C48006850F010002A49086061
:103040002948006810F010000090009801200190BD
:10305000002002900220039001A9244801F006F804
:103060004FF400500190002002900120039001A92C
:103070001F4800F0FBFF05B000BD80B501211B48D3
:1030800001F05FF9012810D11420FFF703FE0121A0
:10309000164801F056F9012807D10121134801F023
:1030A00050F90128F9D0012000E0002002BD80B5D0
:1030B0004FF400510E4801F044F9002812D11420B9
:1030C000FFF7E8FD4FF40051094801F03AF90028F4
:1030D00008D14FF40051064801F033F90028F8D028
:1030E000012000E0002002BD18100240000801404D
:1030F0000010014010B586B0040020682E498842B7
:1031000021D12E48006850F480402C4908602B489B
:10311000006810F48040009000984FF40070019017
:10312000022002900320049001A9254800F09EFF90
:103130004FF480600190002002900020039001A9CC
:103140001F4800F093FF06B010BD80B51B48006813
:1031500050F00400194908601848006810F0040095
:10316000009000981448174908605FF4E130154951
:10317000486000201349886000201249C860002080
:10318000104908610C200F49486100200D498861F1
:1031900000200C49C8610B4801F004F901BD11B5CC
:1031A00081B00C004FF6FF73012201A9054801F020
:1031B00031F9019816BD0000003801401810024096
:1031C000000801409813002000B585B0324800681F
:1031D00050F00800304908602F48006810F00800DF
:1031E00000900098012001900020029000200390A0
:1031F00001A92A4800F03AFF05B000BD80B50022C1
:1032000001211D20FFF7C6FD1D20FFF7D6FD01BDE2
:1032100000B58BB02248006850F0020020490860D9
:103220001F48006810F0020000900098FFF7CCFFE4
:10323000FFF7E4FF1B481C49086047201A49486013
:103240000020194988604FF6FF701749C8600020B8
:1032500015490861144800F029F84FF48050079090
:1032600007A9114800F0B2FA002001900020029056
:1032700001A90D4801F0B0FA00200390012004904C
:103280000020059000200690082203A9064800F0BF
:10329000B2F90BB000BD000018100240000C014054
:1032A0001C10024000040040D813002010B5040098
:1032B000002C01D1012014E094F93900002805D137
:1032C000002084F83800200000F0AFFD022084F8D0
:1032D0003900211D206800F00CFB012084F8390022
:1032E000002010BD0100022081F839000868006844
:1032F00050F001000A681060012081F839000020B8
:10330000704710B50400002C01D1012014E094F99D
:103310003900002805D1002084F83800200000F092
:103320000CF8022084F83900211D206800F0E1FA31
:10333000012084F83900002010BD704738B5040022
:103340000D0001222900206800F0DCFC2068DFF875
:103350002811884204D02068DFF82011884201D16A
:10336000012000E00020C0B2002805D02068406C99
:1033700050F40040216848642068006850F0010063
:1033800021680860002032BD38B504000D0000221D
:103390002900206800F0B6FC2068DFF8DC108842C5
:1033A00004D02068DFF8D410884201D1012000E069
:1033B0000020C0B2002811D02068006A41F211112B
:1033C00008420BD12068006A40F24441084205D10E
:1033D0002068406C30F40040216848642068006A2E
:1033E00041F2111108420BD12068006A40F24441B9
:1033F000084205D120680068400840002168086044
:10340000012084F83900002032BD38B504000D00D9
:103410002800002806D004280BD0082810D00C283B
:1034200015D01BE02068C06850F002002168C86019
:1034300014E02068C06850F004002168C8600DE006
:103440002068C06850F008002168C86006E0206865
:10345000C06850F010002168C860FFE70122290011
:10346000206800F04FFC2068006850F001002168DF
:103470000860002032BD0000002C014000340140F3
:1034800010B504002068006980071AD52068C0685C
:10349000800716D57FF002002168086101202076A0
:1034A0002068806910F0030F03D02000FFF799FD1A
:1034B00005E0200000F01AFA200000F018FA0020C1
:1034C00020762068006940071AD52068C068400748
:1034D00016D57FF00400216808610220207620685C
:1034E000806910F4407F03D02000FFF77AFD05E0EB
:1034F000200000F0FBF9200000F0F9F90020207610
:103500002068006900071AD52068C068000716D532
:103510007FF0080021680861042020762068C069D7
:1035200010F0030F03D02000FFF75BFD05E0200043
:1035300000F0DCF9200000F0DAF9002020762068A5
:103540000069C0061AD52068C068C00616D57FF08D
:10355000100021680861082020762068C06910F4F6
:10356000407F03D02000FFF73CFD05E0200000F085
:10357000BDF9200000F0BBF900202076206800692A
:10358000C0070AD52068C068C00706D57FF00100D3
:1035900021680861200000F0A8F920680069000691
:1035A0000AD52068C068000606D57FF08000216833
:1035B0000861200001F03EF92068006940060AD544
:1035C0002068C068400606D57FF040002168086189
:1035D000200000F08DF92068006980060AD5206877
:1035E000C068800606D57FF02000216808612000B1
:1035F00001F01FF910BD70B504000D00160094F91C
:103600003800012801D102205FE0012084F8380051
:10361000022084F83900002E12D1EB686A6829680C
:10362000206800F08AFA2068806930F00C00216878
:10363000886120688069A9680843216888613DE045
:10364000042E13D1EB686A682968206800F0CEFA6E
:103650002068806930F44060216888612068806952
:10366000A96850EA01202168886127E0082E12D15C
:10367000EB686A682968206800F0EEFA2068C06983
:1036800030F00C002168C8612068C069A96808434F
:103690002168C86112E0EB686A682968206800F058
:1036A000F9FA2068C06930F440602168C861206878
:1036B000C069A96850EA01202168C861012084F826
:1036C0003900002084F83800002070BD70B5040077
:1036D0000D00160094F93800012801D1022074E091
:1036E000012084F83800022084F8390030000028D6
:1036F00006D004281BD0082831D00C2846D05DE025
:103700002900206800F039F92068806950F008002D
:10371000216888612068806930F004002168886130
:1037200020688069296908432168886146E029008A
:10373000206800F05BF92068806950F4006021681F
:1037400088612068806930F4806021688861206821
:103750008069296950EA0120216888612EE02900EA
:10376000206800F081F92068C06950F008002168E5
:10377000C8612068C06930F004002168C861206811
:10378000C069296908432168C86117E029002068D9
:1037900000F0A7F92068C06950F400602168C86192
:1037A0002068C06930F480602168C8612068C06901
:1037B000296950EA01202168C861FFE7012084F8E7
:1037C0003900002084F83800002070BD70B5040076
:1037D0000D00002694F93800012801D1022083E071
:1037E000012084F83800022084F8390020688068BD
:1037F000060036F0770636F47F4620688660286833
:10380000002856D0102859D020285CD030285FD00E
:10381000402844D050282ED0602836D070280DD0B3
:10382000B0F5805F03D0B0F5005F17D055E0206899
:103830008068C008C000216888604EE0EB686A6854
:10384000A968206800F050FA20688068060036F009
:10385000770656F07706206886603EE0EB686A6877
:10386000A968206800F040FA2068806850F4804021
:103870002168886031E0EA686968206800F0A0F992
:103880005021206800F025FA27E0EA68696820687E
:1038900000F0CBF96021206800F01BFA1DE0EA6817
:1038A0006968206800F08CF94021206800F011FA66
:1038B00013E00021206800F00CFA0EE010212068CF
:1038C00000F007FA09E02021206800F002FA04E085
:1038D0003021206800F0FDF9FFE7012084F839006D
:1038E000002084F83800002070BD70477047704792
:1038F0007047002203681A00DFF8B032984212D0F5
:10390000DFF8AC3298420ED0B0F1804F0BD0DFF828
:10391000A432984207D0DFF8A032984203D0DFF8F3
:103920009C32984203D132F070024B681A439F4B8D
:1039300098420ED09E4B98420BD0B0F1804F08D0E9
:103940009C4B984205D09C4B984202D09B4B98428E
:1039500003D132F44072CB681A4302608B68C362B1
:103960000B688362914B984202D0914B984201D1EF
:103970000B69036301234361704730B400230024C3
:103980000022056A6D086D000562056A2C00456815
:103990002A0085692B0033F070039B089B000D689B
:1039A0002B4334F002048D682C43804DA84202D092
:1039B0007F4DA84205D134F00804CD682C4334F083
:1039C00004047A4DA84202D0794DA84207D132F4BE
:1039D000807232F400724D692A438D692A43426035
:1039E00083614D684563046230BC704730B4002386
:1039F00000240022056A35F010050562056A2C00D6
:103A000045682A0085692B0033F4E04333F44073A2
:103A10000D6853EA052334F020048D6854EA051438
:103A2000624DA84202D0624DA84206D134F0800413
:103A3000CD6854EA051434F040045C4DA84202D02D
:103A40005B4DA84209D132F4806232F400624D69C4
:103A500052EA85028D6952EA8502426083614D68AF
:103A60008563046230BC704730B400230024002218
:103A7000056A35F480750562056A2C0045682A00E0
:103A8000C5692B0033F070039B089B000D682B4326
:103A900034F400748D6854EA0524444DA84202D0E1
:103AA000434DA84206D134F40064CD6854EA05249D
:103AB00034F480643D4DA84202D03D4DA84209D166
:103AC00032F4805232F400524D6952EA05128D6987
:103AD00052EA05124260C3614D68C563046230BC9E
:103AE000704730B4002200230024056A35F4805565
:103AF0000562056A2B0045682C00C5692A0032F46E
:103B0000E04232F440720D6852EA052233F4005369
:103B10008D6853EA0533254DA84202D0244DA842B2
:103B200004D134F480444D6954EA85144460C26180
:103B30004D680564036230BC704770B400240025F2
:103B4000066A76087600066286693400066A3500E1
:103B5000164EB0420ED0164EB0420BD0B0F1804F90
:103B600008D0144EB04205D0134EB04202D0134ECE
:103B7000B04201D1012600E00026F6B2002E03D0AB
:103B8000A408A400144301E054F0010434F0F0044C
:103B90001E0116F0F006344335F00A0511F00A064E
:103BA00035438461056270BC70470000002C014001
:103BB000003401400004004000080040000C0040B8
:103BC00030B400230024056A2C00056A6D086D00DE
:103BD000056285692B0033F0F00353EA021334F0D9
:103BE0000A040C438361046230BC704770B4002443
:103BF0000025066A36F01006066286693400066AF9
:103C0000350034F4407454EA022434F470441E0342
:103C100016F47046344335F0A0050E0116F0A006E8
:103C200035438461056270BC704730B400230024C2
:103C3000056A35F01005056285692B00056A2C00C0
:103C400033F4704353EA023334F0A00454EA01140D
:103C50008361046230BC704770B400240025066A9A
:103C600036F480760662C6693400066A3500A40818
:103C7000A400144334F0F0041E0116F0F00634439F
:103C800035F420650E0216F420663543C4610562E2
:103C900070BC704770B400240025066A36F4805664
:103CA0000662C6693400066A350034F4407454EA8A
:103CB000022434F470441E0316F47046344335F481
:103CC00020450E0316F420463543C461056270BCDE
:103CD0007047002283681A0032F0700289B251F0F6
:103CE00007031A438260704730B4002485682C00B3
:103CF00034F47F4452EA010555EA03252C438460DD
:103D000030BC704730B4002301248C402300046A87
:103D10009C430462046A12FA01F52C43046230BC2D
:103D20007047000000B585B06648006850F0040098
:103D3000644908606348006810F00400009000982F
:103D40006048006850F008005E4908605D480068FF
:103D500010F00800009000984FF48070019002204D
:103D600002900320049001A9574800F07FF94FF416
:103D70000050019001A9554800F078F905B000BD48
:103D800000B595B052485349086001205149486038
:103D90000020504988604FF461704E49C86000208F
:103DA0004C49086100204B4948614A48FFF77EFAB8
:103DB0004FF48050109010A94648FFF707FD454882
:103DC000FFF79FFA002000900020019069464148CB
:103DD00000F002FD0020099000200A9000200B90C6
:103DE00000200C9000200D904FF400500E90002009
:103DF0000F9009A9374800F0CBFC602002903648AC
:103E00000088039000200490002005900020069078
:103E10000020079000200890002202A92D48FFF7FB
:103E200055FCFFF77FFF15B000BD81B00168284A3F
:103E300091420BD12349096851F40061214A116074
:103E40002049096811F400610091009901B07047A0
:103E500070B504000D001600E4B22000012802D065
:103E6000022825D02CE0EDB2012D08D100211948FF
:103E7000FFF764FA0021174800F05CFC13E0EDB294
:103E8000022D08D100211348FFF77EFA00211148C6
:103E900000F03AFC07E000210E48FFF775FA002118
:103EA0000C4800F047FCB6B20A480068466307E0D9
:103EB00000210848FFF768FA0021064800F03AFCA4
:103EC00070BD00001810024000080140000C0140C5
:103ED000002C014014140020400100200EB400B555
:103EE00082B003A9009102466B4601210348784441
:103EF0000A30FCF71DF906BC5DF810FB110B000041
:103F0000002800BF0AD0B0FA80F18840D1F19D01AD
:103F1000C905020672F1004241EB10207047000013
:103F200010B5FF2313EAD0541DBF13EAD1529C42AF
:103F30009A4239E0A41ADA0780EA0103134042EA00
:103F4000012142EA0020421A3CBF641E01EB4202FA
:103F5000090AB2FBF1FE01FB1E221202B2FBF1F0D4
:103F600001FB10226EF30F201202B2FBF1FE4EEAAB
:103F700000207F3406DDFE2C24DA53EA500050EB9B
:103F8000C45010BDD4F1020401FB1E2240F0807128
:103F9000192C1DDC21FA04F0C4F12004A1401143C6
:103FA00071F10042584110BD9C421ABF03EAD15240
:103FB0009A420FE080EA010E0EF00043400004D068
:103FC000490016D143F0FF4010BD490008BFD3435C
:103FD000180010BD9C4205D1D21AF7D001F0004163
:103FE000484010BD4A0212BF0846484000F0004059
:103FF00010BD4AB90902B1FA81F2914044B1A41846
:10400000C00140F000409EE7C90141F0004152422A
:104010000002B0FA80F4A040141B94E75FF0FF0C9C
:104020001CEAD05114BF614506E0C110400721F0E1
:10403000E04101F16051704779B900F000410002A0
:104040000AD0B0FA80FC00FA0CF001F16051A1EB4B
:104050000C5101EBD0214005704741020CBF40F4E8
:10406000E0016FF000010020704700002DE9F841E9
:1040700000230024002500265FF0000E5FF0000CF6
:104080006246102A80F05B815FF0010C1CFA02FC92
:104090006346D1F800C013EA0C0C64469C4240F021
:1040A0004C81D1F804C0BCF1000F3DD0BCF1010F30
:1040B00024D0BCF1020F2BD0BCF1030F4CD0BCF1CB
:1040C000110F1FD0BCF1120F28D0DFF89082C44529
:1040D0002AD0DFF88C82C44526D0DFF88882C44518
:1040E00022D0DFF88482C4451ED0DFF88082C44528
:1040F0001AD0DFF87C82C44516D031E0D1F80CC06C
:1041000066462DE0D1F80CC01CF1040C664627E091
:10411000D1F80CC01CF1080C664621E0D1F80CC0A7
:104120001CF10C0C66461BE0D1F808C0BCF1000F76
:1041300003D15FF0040C66460DE0D1F808C0BCF175
:10414000010F04D15FF0080C6646036103E05FF0E5
:10415000080C6646436103E05FF0000C6646FFE72B
:10416000FF2C01D8070000E0071DFF2C02D85FEAF2
:10417000820E03E0B2F1080C5FEA8C0ED7F800C0A3
:104180005FF00F0818FA0EF83CEA080C16FA0EF861
:1041900058EA0C0CC7F800C0D1F804C05FEACC0C98
:1041A00040F1CB80DFF8CCC1DCF800C05CF0010C42
:1041B000DFF8C081C8F800C0DFF8B8C1DCF800C083
:1041C0001CF00108CDF80080DDF800C0DFF8A8C1C0
:1041D0005FEA92085CF828C065465FF00F0C12F0A9
:1041E00003085FFA88F85FEA88081CFA08FC35EAD9
:1041F0000C05DFF888C1604502D15FF0000C24E0B7
:10420000DFF87CC1604502D15FF0010C1DE0DFF8F2
:1042100074C1604502D15FF0020C16E0DFF868C19E
:10422000604502D15FF0030C0FE0DFF860C160452C
:1042300002D15FF0040C08E0DFF854C1604502D100
:104240005FF0050C01E05FF0060C12F003085FFA66
:1042500088F85FEA88081CFA08FC5CEA0505DFF8C4
:1042600018C15FEA92084CF82850D1F804C05FEA00
:10427000CC3C0AD5DFF81CC1DCF800C054EA0C0CB9
:10428000DFF81081C8F800C009E0DFF808C1DCF8E9
:1042900000C03CEA040CDFF8FC80C8F800C0D1F88C
:1042A00004C05FEA8C3C0AD5DFF8ECC0DCF800C043
:1042B00054EA0C0CDFF8E080C8F800C009E0DFF831
:1042C000D8C0DCF800C03CEA040CDFF8CC80C8F8A9
:1042D00000C0D1F804C05FEACC2C0AD5DFF8BCC01E
:1042E000DCF800C054EA0C0CDFF8B080C8F800C05D
:1042F00009E0DFF8A8C0DCF800C03CEA040CDFF8F5
:104300009C80C8F800C0D1F804C05FEA8C2C0AD5A4
:10431000DFF88CC0DCF800C054EA0C0CDFF88080B9
:10432000C8F800C009E0DFF878C0DCF800C03CEA5B
:10433000040CDFF86C80C8F800C0521CA1E6BDE890
:10434000F1810200936889B20B4202D00123180068
:1043500001E00023180040B2704700000000111077
:104360000000121000002110000022100000311087
:1043700000003210181002400800014000080140FF
:10438000000C0140001001400014014000180140E1
:10439000001C0140000401400404014008040140E5
:1043A0000C04014010B50400002C01D1012030E0C4
:1043B000A0690028FFD194F93900002805D1002018
:1043C00084F838002000FEF795FE022084F83900BA
:1043D0002068C06830F400502168C860200000F0F8
:1043E00008F92068006930F490402168086120686D
:1043F000406930F02A00216848612068C06850F4A4
:1044000000502168C8600020E063012084F8390072
:10441000002010BD2DE9F84304000D0016001F0018
:104420005FF0000994F939008146B9F1010F02D01B
:10443000B9F1220F69D1002D02D0B6B2002E01D100
:10444000012063E094F93800012801D102205DE0E9
:10445000012084F838000020E06394F93900222814
:1044600003D1322084F8390002E0122084F83900A8
:10447000A684E684E08C00282DD0E08C401EE084E9
:10448000A068B0F5805F17D13B000022802120009A
:1044900000F03EF8002801D0032037E0A846B8F825
:1044A0000000C005C00D216848602069002801D1C6
:1044B000AD1CDFE76D1CDDE73B0000228021200002
:1044C00000F026F8002801D003201FE0287821689A
:1044D00048606D1CCEE73B0000224021200000F028
:1044E00017F8002801D0032010E094F93900322891
:1044F00003D1222084F8390002E0012084F8390039
:10450000002084F83800002000E00220BDE8F2839B
:104510002DE9F04104000D0016001F005FF00008B7
:10452000FEF7B5FB804676B2002E2FD120680068DA
:104530002840A8425AD017F1010FF7D0002F05D01C
:10454000FEF7A5FBB0EB08008742EFD22068C068F9
:1045500030F080002168C8602068C06830F020001A
:104560002168C8602068C06830F480702168C86025
:10457000206840694008400021684861012084F8B3
:104580003900002084F83800032030E020680068FB
:104590002840A8422AD117F1010FF7D0002F05D0EB
:1045A000FEF775FBB0EB08008742EFD22068C068C9
:1045B00030F080002168C8602068C06830F02000BA
:1045C0002168C8602068C06830F480702168C860C5
:1045D000206840694008400021684861012084F853
:1045E0003900002084F83800032000E00020BDE8F6
:1045F000F081F8B5040000252068006930F44050CF
:10460000E168084321680861A0682169084361697D
:10461000084305002068C0683949084028432168DC
:10462000C8602068406930F44070A169084321687F
:10463000486120683349884230D1FEF7D1FA07003B
:10464000FEF7CEFA0600FEF7CBFA192101FB07F1BF
:1046500062689200B1FBF2F16422B1FBF2F119221F
:1046600002FB06F263689B00B2FBF3F21923584386
:1046700063689B00B0FBF3F06423B0FBF3F06423AA
:1046800003FB1020000132306422B0FBF2F010F086
:104690000F0050EA0110216888602FE0FEF78EFAC3
:1046A0000700FEF78BFA0600FEF788FA192101FBD6
:1046B00007F162689200B1FBF2F16422B1FBF2F102
:1046C000192202FB06F263689B00B2FBF3F2192386
:1046D000584363689B00B0FBF3F06423B0FBF3F036
:1046E000642303FB1020000132306422B0FBF2F09F
:1046F00010F00F0050EA011021688860F1BD000041
:10470000F3E9FFFF0038014038B504000D00042232
:104710002900206800F090F82068406C50F40040B8
:10472000216848642068006850F001002168086032
:10473000002032BD38B504000D0000222900206899
:1047400000F07AF82068006A41F2111108420BD19A
:104750002068006A40F24441084205D12068406C5C
:1047600030F40040216848642068006A41F2111169
:1047700008420BD12068006A40F24441084205D14A
:10478000206800684008400021680860002032BDB1
:10479000020092F93800012801D102201BE001201B
:1047A00082F83800022082F8390008684B68184304
:1047B0008B681843CB6818430B6918434B6918433F
:1047C0008B69184313685864012082F8390000206F
:1047D00082F8380000207047020092F93800012862
:1047E00001D1022024E0012082F83800022082F862
:1047F00039001068406830F0700013685860106825
:1048000040680B681843136858601068806830F07F
:10481000800013689860106880684B6818431368BC
:104820009860012082F83900002082F838000020CA
:10483000704770477047000030B4002304248C4058
:104840002300046A9C430462046A12FA01F52C43B3
:10485000046230BC704700001348006850F001004B
:104860001149086011480068114908400F49086063
:104870000D4800680F4908400B4908600A48006865
:1048800030F48020084908600848006830F4FE00D1
:10489000064908605FF41F00074908605FF0006088
:1048A00006490860704700000010024004100240F2
:1048B0000000FFF8FFFFF6FE0810024008ED00E0E0
:1048C00019E050F8041BCB0744BFA9F101035918A4
:1048D000121F0023042A41F8043BF9D25FEA827CCC
:1048E0000B4604D54FF0000CA1F800C09B1CD1076B
:1048F00044BF0021197050F8042B002AE1D1704701
:1049000030B5016842688468091801EB5203D20788
:1049100048BF4C440C30994200D130BD11F9012BF5
:1049200011F8015B002A04F8015B02D5521CF9D191
:10493000F1E7521EF4D5EEE77047FEE7FEE7FEE72B
:10494000FEE7FEE780B5FEF79CF9FEF763FA01BDCE
:1049500080B50248FEF794FD01BD0000D813002089
:1049600010B5074979441831064C7C44163404E0EC
:104970000A68081D511888470146A142F8D110BDA8
:10498000080000002400000039FFFFFF20010000A4
:10499000481300200000000069FFFFFFD401000061
:1049A0006800000000000020B5E7BBFACAB5BCCA29
:1049B000D7AAB6AFCBD9B6C8A3BA25302E3266284F
:1049C000C8A62F73290A000000F00BF8002801D0B8
:1049D000FFF7C6FF0020C046C046FEF787FA00F08A
:1049E00002F80120704700F001B800000746384681
:1049F00000F002F8FBE7000080B5C046C046024A5E
:104A000011001820ABBEFBE72600020038B50446B3
:104A10000D46284600F006F8A84218BF002420469C
:104A200032BD00000149FEF7BABB00BF0400002000
:104A3000CAE4C8EBB2B6BBF1D6B5A3BA25640A0086
:104A400002030405060708090A0B0C0D0E0F1010CF
:104A50000000000001020304010203040607080924
:104A6000014880470148004759480008714A00083A
:104A7000C046C046C046C046FFF7A6FFFFF7FEBFD0
:104A8000FFF7FEBFFFF7FEBFFFF7FEBFFFF7FEBF5A
:104A9000FFF7FEBFFFF7FEBFFFF7FEBFFFF7FEBF4A
:104AA000FFF7FEBFFFF7FEBFFFF7FEBFFFF7FEBF3A
:104AB000FFF7FEBFFFF7FEBFFFF7FEBFFFF7FEBF2A
:104AC000FFF7FEBFFFF7FEBFFFF7FEBFFFF7FEBF1A
:104AD000FFF7FEBFFFF7FEBFFFF7FEBFFFF7FEBF0A
:104AE000FFF7FEBFFFF7FEBFFFF7FEBFFFF7FEBFFA
:104AF000FFF7FEBFFFF7FEBFFFF7FEBFFFF7FEBFEA
:104B0000FFF7FEBFFFF7FEBFFFF7FEBFFFF7FEBFD9
:104B1000FFF7FEBFFFF7FEBFFFF7FEBFFFF7FEBFC9
:104B2000FFF7FEBFFFF7FEBFFFF7FEBFFFF7FEBFB9
:104B3000FFF7FEBFFFF7FEBFFFF7FEBFFFF7FEBFA9
:104B4000FFF7FEBFFFF7FEBFFFF7FEBFFFF7FEBF99
:104B5000FFF7FEBFFFF7FEBFFFF7FEBFFFF7FEBF89
:104B6000FFF7FEBFFFF7FEBFFFF7FEBFFFF7FEBF79
:104B70002300A24A040204010148130020981300F4
:104B80002048130020481300204813002041000053
:104B90002028000020C400F8FFDC00FAFF8100D1CB
:044BA0000001C2014D
:0400000508004A7134
:00000001FF
