:020000040800F2
:1000000068080020C54600084D0200084F0200089D
:1000100053020008570200085B02000800000000BD
:100020000000000000000000000000005F02000867
:100030006102000800000000630200086502000879
:10004000DF460008DF460008DF460008DF460008FC
:10005000DF460008DF460008DF460008DF460008EC
:10006000DF460008DF460008DF460008DF460008DC
:10007000DF460008DF460008DF460008DF460008CC
:10008000DF460008DF460008DF460008DF460008BC
:10009000DF460008DF460008DF460008DF460008AC
:1000A000DF460008DF460008DF460008DF4600089C
:1000B000DF460008DF460008DF460008DF4600088C
:1000C000DF460008DF460008DF460008DF4600087C
:1000D000DF460008DF460008DF4600083946000812
:1000E000DF460008DF460008DF460008DF4600085C
:1000F000DF460008DF460008DF460008DF4600084C
:10010000DF460008DF460008AB090008DF460008AC
:10011000DF460008DF460008DF460008DF4600082B
:10012000DF460008DF460008DF460008DF4600081B
:1001300000F002F800F04AF80AA090E8000C8244AF
:100140008344AAF10107DA4501D100F03FF8AFF28C
:10015000090EBAE80F0013F0010F18BFFB1A43F0A5
:1001600001031847209C0000409C0000103A24BF67
:1001700078C878C1FAD8520724BF30C830C144BF0C
:1001800004680C607047000000230024002500264E
:10019000103A28BF78C1FBD8520728BF30C148BFEA
:1001A0000B607047662908F08C86642905F0DC87AF
:1001B000002070471FB506F0EFFB0400002000216F
:1001C00007F008FDE0601FBD10B510BD06F028FD6A
:1001D0001146FFF7EFFF00F009F806F046FD03B403
:1001E000FFF7F2FF03BC04F0C9F9000000F02CF99E
:1001F00004F05AF94FF4C06004F084FA4FF4E1308F
:1002000004F0CBF941F61F41632000F03DFE00F001
:10021000C5FE47214FF6FF7000F03AFB00F03AF9B7
:1002200041F61F41C72000F011FD01F06CF802F00B
:100230001FFF01200449086005E000F0BEF900F04E
:100240003CF900F0FDFFF8E794012342704700BF3E
:10025000FEE700BFFEE700BFFEE700BFFEE7704716
:1002600070477047704700000CB500200190009067
:100270006C48006840F480306A49086000BF6948F3
:10028000006800F4003000900198401C0190009834
:1002900018B90198B0F5A06FF1D16248006800F478
:1002A000003010B10120009001E000200090009883
:1002B000012843D15C48006840F010005A490860AA
:1002C0000846006820F0030008600846006840F017
:1002D0000200086053484068524948600846406838
:1002E00048600846406840F48060486008464068BE
:1002F00020F47C1048600846406840F4E8104860EC
:100300000846006840F08070086000BF45480068FB
:1003100000F000700028F9D04248406820F0030047
:10032000404948600846406840F00200486000BF0D
:100330003C48406800F00C000828F9D10CBD10B50D
:10034000FFF792FF10BD10B53648006840F001007D
:1003500034490860084640683449084031494860DB
:1003600008460068324908402E490860084600687F
:1003700020F4802008600846406820F4FE004860B1
:100380004FF41F008860FFF7DAFF4FF00060294943
:10039000086010BD10B5002100200022214B5B68D1
:1003A00003F00C0121B1042906D0082928D107E067
:1003B000214B224C236027E01F4B204C236023E07D
:1003C000184B5B6803F47010164B5B6803F48032C3
:1003D000022303EB904022B9194B4343174C23608F
:1003E0000DE0104B5B6803F4003323B1144B43431F
:1003F000124C236003E0104B4343104C236003E096
:100400000D4B0E4C236000BF00BF064B5B68C3F36F
:1004100003130C4CE15C094B1B68CB40074C236079
:1004200010BD000000100240002002400000FFF854
:10043000FFFFF6FE08ED00E000127A003400002015
:1004400000093D003800002008B50121482004F0D3
:10045000E3FC2020ADF8000010208DF803000320FD
:100460008DF802006946094804F01AFA4FF48040FA
:10047000ADF8000028208DF8030003208DF802005D
:100480006946034804F00CFA08BD0000001801405A
:10049000000C014008B50121042004F0BDFCF0204F
:1004A000ADF8000010208DF8030003208DF8020045
:1004B0006946CE4804F0F4F908BD10B5CC48006890
:1004C00090BB4FF48041CB4804F07DFA28BBCA4969
:1004D0008868CA4908F04EFC1FD80A2003F0FDFFC7
:1004E000C5498868C54908F045FC16D8C448006865
:1004F000401CC34908600120C2490860C248006826
:1005000058B9BF480068062807DBC0480068401C8F
:10051000BE4908600120BC490860BC480068012849
:1005200039D1B349086036E0FFE7B14800680128D7
:1005300031D1B1494868B64908F01CFC05D9AE492B
:100540008868B34908F016FC25D80A2003F0C5FFD7
:10055000A9494868AE4908F00DFC05D9A649886844
:10056000AB4908F007FC16D8A5480068401CA44910
:1005700008600120A3490860A348006858B9A04852
:1005800000680D2807DBA1480068401C9F490860EF
:1005900001209D4908609D480268994801689DA016
:1005A00005F0D6FD98480068012805D197480068F5
:1005B000012801DB03F0E9FD10BD2DE9F04F8BB000
:1005C00020218A4804F019FA142003F086FF202124
:1005D000864804F014FA4021844804F00EFA1420EE
:1005E00003F07BFF4021814804F009FA80217F4815
:1005F00004F003FA142003F070FF80217B4804F01C
:10060000FEF91021794804F0F8F9142003F065FF91
:100610001021764804F0F3F98448007800F0800057
:1006200048B38249097801F03F0008F077FA0446A0
:100630004FF08F41204608F0D1FA04467C480088EC
:1006400008F084FA0546214608F0C8F8044600215F
:10065000204608F08FFA00D8002400207349087063
:100660007449204608F0BAFA0546734908F024F99F
:100670000446614804607148007800F0800058B377
:100680006E49097801F03F0008F048FA81464FF0C2
:100690008F41484608F0A2FA81466948008808F070
:1006A00055FA0546494608F099F881460021484622
:1006B00008F060FA01D84FF0000900205F49087087
:1006C0005C49484608F08AFA05465B4908F0F4F8A8
:1006D00081464948C0F804905A48007800F08000EC
:1006E00058B35849097801F03F0008F017FA8246DC
:1006F0004FF08F41504608F071FA82465248008808
:1007000008F024FA0546514608F068F882460021B0
:10071000504608F02FFA01D84FF0000A002049494E
:1007200008704449504608F059FA0546424908F015
:10073000C3F882463048C0F808A04448007800F06A
:10074000800058B34149097801F03F0008F0E6F90C
:1007500083464FF08F41584608F040FA83463C48A4
:10076000008808F0F3F90546594608F037F8834643
:100770000021584608F0FEF901D84FF0000B002088
:10078000324908702B49584608F028FA05462A498C
:1007900008F092F883461848C0F80CB01649C868AB
:1007A00007F0F0FF05460E461349886807F0EAFF98
:1007B000074688461049486807F0E4FFCDE908017C
:1007C0000D49086807F0DEFFCDE90278CDE904564F
:1007D000CDE90601DDE90801CDE900011DA0DDE953
:1007E000062305F0B5FC0BB0BDE8F08F0008014012
:1007F0005C000020000C0140080100200000F041D6
:10080000540000204C000020600000205800002010
:10081000000020422020466C6167313D25642C4653
:100820006C6167323D25640D0A0000006400002001
:10083000680000200000884100007A446700002022
:100840006A000020650000206C0000206600002087
:100850006E0000204563686F5F76616C75653A20B5
:100860005B315D3A252E3266202020205B325D3AD6
:10087000252E3266202020205B335D3A252E3266FD
:10088000202020205B345D3A252E32660D0A0000C0
:1008900030B589B005460C460121082004F0C9FA9C
:1008A0000121042004F0B8FA0F20ADF80800282038
:1008B0008DF80B0002A9FE4803F0F2FF0F21FC485F
:1008C00004F09DF8ADF81050ADF80C400020ADF8E4
:1008D0001200ADF80E008DF8140003A9F54804F0DD
:1008E000D3FB1E21F34805F0F1F901221E21F14846
:1008F00004F041FF0020ADF81800ADF81A00012007
:10090000ADF81C000020ADF81E00ADF8200006A9CF
:10091000E84804F04CFE0420ADF818000020ADF8C3
:100920001A000120ADF81C000020ADF81E00ADF843
:10093000200006A9DF4804F03AFE0820ADF81800B0
:100940000020ADF81A000120ADF81C000020ADF821
:100950001E00ADF8200006A9D64804F028FE0C20A1
:10096000ADF818000020ADF81A000120ADF81C0009
:100970000020ADF81E00ADF8200006A9CD4804F017
:1009800016FE32208DF8040000208DF805008DF849
:10099000060001208DF8070001A803F0B8FE012130
:1009A000C44804F0CDFE09B030BD10B5C24800788F
:1009B00000F0800000284CD10121BE4805F089F9E3
:1009C000D0B1BD48007800F04000A8B1BA48007826
:1009D00000F03F003F280AD1B748007840F080007F
:1009E000B54908704FF6FF70B449088004E0B2487A
:1009F0000078401CB04908700221AE4805F069F942
:100A000038B3AD48007800F0400078B1AA480078CB
:100A100040F08000A8490870A64805F03BF9A749B6
:100A200008800021A34805F03DF812E00020A2490B
:100A30000870A249088000219E4805F015F99E48DB
:100A4000007840F040009C4908700221994805F068
:100A500029F89B48007800F0800000284CD1012143
:100A6000944805F036F9D0B19548007800F0400080
:100A7000A8B19348007800F03F003F280AD1904881
:100A8000007840F080008E4908704FF6FF708D4965
:100A9000088004E08A480078401C894908700421D5
:100AA000844805F016F938B38548007800F0400016
:100AB00078B18348007840F08000814908707D4813
:100AC00005F0EBF87F49088000217A4804F0FCFF2C
:100AD00012E000207A4908707A49088000217548A0
:100AE00005F0C2F87648007840F04000744908707C
:100AF0000221704804F0E8FF7348007800F080009D
:100B000000284CD101216B4805F0E3F8D0B16E48C4
:100B1000007800F04000A8B16B48007800F03F007A
:100B20003F280AD16848007840F080006649087084
:100B30004FF6FF706549088004E063480078401C68
:100B40006149087008215B4805F0C3F838B35E4876
:100B5000007800F0400078B15B48007840F08000F9
:100B600059490870534805F09BF8584908800021FE
:100B7000504804F0C3FF12E0002053490870534965
:100B8000088000214B4805F06FF84F48007840F08E
:100B900040004D4908700221464804F0AFFF4C4820
:100BA000007800F08000C0BB0121424805F091F8B8
:100BB000D0B14748007800F04000A8B14448007820
:100BC00000F03F003F280AD14148007840F0800003
:100BD0003F4908704FF6FF703E49088004E03C48EA
:100BE0000078401C3A4908701021324805F071F82D
:100BF00098B13748007800F0400078B13448007868
:100C000040F08000324908702A4805F04CF831491C
:100C100008800021274804F08BFF12E000202C49B7
:100C200008702C4908800021224805F01DF828484A
:100C3000007840F040002649087002211D4804F069
:100C400077FF1E211B4805F055F810BD30B589B05F
:100C500005460C460121042004F0EBF80121082090
:100C600004F0DAF8C020ADF8200018208DF8230039
:100C700003208DF8220008A9174803F011FEADF8F3
:100C80001850ADF814400020ADF81A001020ADF84F
:100C9000160005A9114804F0F7F96020ADF804002A
:100CA0000120ADF806000020ADF80A0018E00000B1
:100CB00000080140000C0040640000206800002093
:100CC000670000206A000020650000206C00002002
:100CD000660000206E000020000C0140000800406B
:100CE000ADF80C0001A9A84804F09AFA0821A6481A
:100CF00004F06CFE6020ADF804000120ADF80600A1
:100D00000020ADF80A00ADF80C0001A99E4804F0DF
:100D1000F8F908219C4804F043FE6020ADF8040077
:100D20000120ADF806000020ADF80A00ADF80C0077
:100D300001A9954804F0BFFA0821934804F04FFE3A
:100D40006020ADF804000120ADF806000020ADF8E9
:100D50000A00ADF80C0001A98B4804F014FA082130
:100D6000894804F026FE01221146874804F003FD5D
:100D70000121854804F0E4FC09B030BD30B589B0EC
:100D800005460C460121082004F053F801210420F7
:100D900004F042F80F20ADF8200018208DF8230051
:100DA00003208DF8220008A9784803F079FDADF8FA
:100DB0001850ADF814400020ADF81A001020ADF81E
:100DC000160005A9724804F05FF96020ADF8040030
:100DD0000120ADF8060040F2DC50ADF80A0000201A
:100DE000ADF80C0001A96A4804F08BF908216848A5
:100DF00004F0D6FD6020ADF804000120ADF8060037
:100E00004FF47A70ADF80A000020ADF80C0001A98B
:100E10005F4804F0B8F908215D4804F0CAFD60207D
:100E2000ADF804000120ADF806004FF47A70ADF87B
:100E30000A000020ADF80C0001A9554804F0F0F9B3
:100E40000821534804F0C2FD6020ADF804000120E1
:100E5000ADF806004FF47A70ADF80A000020ADF846
:100E60000C0001A94A4804F026FA0821484804F079
:100E7000B6FD01221146464804F07DFC012144489C
:100E800004F05EFC09B030BD30B589B005460C46B3
:100E90000121480303F0C0FF0121102003F0BCFF33
:100EA0004FF4C070ADF8200018208DF82300032007
:100EB0008DF8220008A9374803F0F2FCADF818506D
:100EC000ADF814400020ADF81A00ADF816008DF80A
:100ED0001C0005A9304804F0D7F87020ADF80400D4
:100EE0000120ADF806000020ADF80A000220ADF8A0
:100EF0000C000420ADF808000120ADF80600002029
:100F0000ADF80E004FF48070ADF810000020ADF881
:100F1000120001A9204804F036F908211E4804F007
:100F200048FD7020ADF804000120ADF80600002057
:100F3000ADF80A000220ADF80C000420ADF808005E
:100F40000120ADF806000020ADF80E004FF48070CF
:100F5000ADF810000020ADF8120001A90E4804F011
:100F60005FF908210C4804F031FD01210A4804F022
:100F7000E7FC0121084804F0EFFB0121064804F0DA
:100F8000DFFB09B030BD0000000800400008014050
:100F9000000C0040001001400034014008B5012160
:100FA000080203F039FF4FF4F040ADF800001020C4
:100FB0008DF8030003208DF802006946B14803F064
:100FC0006FFC08BD70B504460D46A1B2AE4804F0F2
:100FD00051FEA9B2AC4804F04FFE2A462146ABA010
:100FE00005F0B6F870BD2DE9F041AE480068012863
:100FF0003CD1AD480068012838DB1E211A20FFF7DC
:10100000E1FF2CE0FFF7D9FAA8498868A84907F062
:10101000B1FD0AD8A5494868A54907F0ABFD04D839
:10102000A4480068401CA3490860A2480168A2A027
:1010300005F08EF89F480068142800DB10E09A48FD
:1010400000680C280BD14FF47A7003F06AFA4FF461
:10105000FA7003F066FA00210846FFF7B3FFD1E704
:1010600000BF0020934908608E49086096480068D8
:10107000012811D100209549086030210846FFF76A
:10108000A1FF4FF4617003F04CFA01209049C1F8C0
:10109000940100208C4908608E480068002845D1E2
:1010A00081480068F8B18048006801281BD07E485C
:1010B0000068022817D07C480068062813D07A48B8
:1010C00000680A280FD0784800680B280BD07648B3
:1010D0000068032807D074480068042803D07248C9
:1010E0000068072822D1714908687B4907F074FE1F
:1010F0008046404607F046FB06460022774B07F045
:1011000031F8044606F0C2FFC0F1210074490860BE
:10111000404607F037FB04460022704B07F022F8E8
:10112000064606F0B3FF29306E490860694800683A
:1011300050BB5D480068082803D05B4800680C2855
:1011400022D15A49C868644907F046FE80464046A5
:1011500007F018FB04460022604B07F003F8064630
:1011600006F094FF21305E490860404607F00AFB14
:1011700004460022594B06F0F5FF064606F086FFAE
:10118000C0F12900574908605248006850BB4648E2
:101190000068052803D044480068092822D1434943
:1011A00008684D4907F018FE8046404607F0EAFA05
:1011B00004464D4A4D4B06F0D5FF064606F066FF45
:1011C000C0F12D0046490860404607F0DBFA0446AE
:1011D000454A464B06F0C6FF064606F057FF353037
:1011E00040490860BDE8F08138480068C04338498C
:1011F000C1F894016FF00B00394908606FF00300EB
:10120000384908607047364800684B2802DB4B209D
:1012100033490860324800680C2802DC0C20304951
:101220000860304800684B2802DB4B202D490860DD
:101230002C4800680C2802DC0C202A490860704702
:1012400010B501202A49086000202A49C1F8B001E0
:10125000012027490831086000202649C1F8B8015B
:1012600025480068012802D1FFF7BEFF01E0FFF723
:10127000BAFEFFF7C8FF1B48016819480068FFF76E
:10128000A1FE10BD00200140003401404D6F746F7D
:1012900072413D25642C4D6F746F72423D25640D83
:1012A0000A0D0A007C0000205800002008010020E0
:1012B0000000F041700000204E756D626572A3BAA7
:1012C00025640D0A000000008000002094012342E4
:1012D0000000234260000020000030410000044074
:1012E00074000020780000209A9999999999F13F0B
:1012F000AC012442000024424C00002000BF411EEB
:101300000800FCD1704708B50121102003F084FDCE
:101310004FF44050ADF8000002208DF80200142078
:101320008DF803006946FE4803F0BAFA0820ADF8CC
:10133000000002208DF8020004208DF803006946A9
:10134000F74803F0ADFA4FF40051F54803F055FBB0
:101350004FF48051F24803F050FBF248FFF7CEFF04
:1013600008BD10B54FF48051ED4803F046FB0A204C
:10137000FFF7C4FF4FF40051E94803F03EFB0A2099
:10138000FFF7BCFF4FF48051E54803F01CFB08B9A0
:10139000012010BD4FF48051E14803F030FB0A20DA
:1013A000FFF7ACFF4FF40051DD4803F028FB0A20A3
:1013B000FFF7A4FF4FF48051D94803F004FB08B1B4
:1013C0000220E6E70020E4E710B54FF48051D4484E
:1013D00003F015FB0A20FFF791FF4FF40051D048AE
:1013E00003F00BFB0A20FFF789FF4FF48051CC4834
:1013F00003F003FB0A20FFF781FF10BD10B54FF487
:101400008051C74803F0FBFA0A20FFF777FF4FF43B
:101410000051C34803F0F1FA0A20FFF76FFF4FF4C1
:101420000051BF4803F0EBFA0A20FFF767FF10BD39
:1014300010B54FF48051BA4803F0DFFA0A20FFF7E5
:101440005DFF4FF40051B64803F0D7FA0A20FFF7CA
:1014500055FF4FF40051B24803F0D1FA0A20FFF7CC
:101460004DFF10BD70B504464FF40051AC4803F079
:10147000C6FA002524E004F0800028B14FF4805122
:10148000A74803F0BAFA04E04FF48051A44803F0EF
:10149000B6FA6006040E0A20FFF730FF4FF4005141
:1014A0009F4803F0AAFA0A20FFF728FF4FF40051E3
:1014B0009B4803F0A4FA0A20FFF720FF681CC5B27E
:1014C000082DD8DB4FF48051954803F096FA0A2096
:1014D000FFF714FF4FF40051914803F08EFA0A20F1
:1014E000FFF70CFF4FF480518D4803F06CFA30B1D8
:1014F0004FF400518A4803F082FA002070BD4FF487
:101500000051874803F07BFA0120F7E770B54FF4EC
:101510008051834803F071FA4FF40051804803F082
:101520006EFA002400251BE04FF400517C4803F0C4
:1015300064FA0A20FFF7E2FE6006040E4FF48051C1
:10154000774803F040FA08B144F001044FF4005129
:10155000734803F054FA0A20FFF7D0FE681CC5B2A6
:10156000082DE1DBFFF764FF204670BD70B54FF436
:1015700080516B4803F041FA4FF40051684803F082
:101580003EFA002400251BE04FF40051644803F0AC
:1015900034FA0A20FFF7B2FE6006040E4FF48051C1
:1015A0005F4803F010FA08B144F001044FF4005111
:1015B0005B4803F024FA0A20FFF7A0FE681CC5B2BE
:1015C000082DE1DBFFF71AFF204670BD2DE9F04141
:1015D000064600272FE04FF48051514803F00DFAE2
:1015E0004FF400514E4803F00AFA002400251BE096
:1015F0004FF400514A4803F000FA0A20FFF77EFE3C
:101600006006040E4FF48051454803F0DCF908B140
:1016100044F001044FF40051414803F0F0F90A206E
:10162000FFF76CFE681CC5B2082DE1DBF455FFF72F
:10163000E5FE781CC7B2052FCDDB4FF4805138484A
:1016400003F0DBF94FF40051354803F0D8F90024DA
:1016500000251BE04FF40051314803F0CEF90A2079
:10166000FFF74CFE6006040E4FF480512C4803F047
:10167000AAF908B144F001044FF40051284803F0DE
:10168000BEF90A20FFF73AFE681CC5B2082DE1DB5F
:101690007471FFF7CDFEBDE8F0812DE9F0410646FB
:1016A00000272FE04FF480511D4803F0A6F94FF4B6
:1016B00000511B4803F0A3F9002400251BE04FF460
:1016C0000051174803F099F90A20FFF717FE60064A
:1016D000040E4FF48051124803F075F908B144F03C
:1016E00001044FF400510E4803F089F90A20FFF776
:1016F00005FE681CC5B2082DE1DBF455FFF77EFE40
:10170000781CC7B20B2FCDDB4FF48051044803F097
:1017100074F94FF40051024803F071F9002403E01A
:10172000000C0140A086010000251BE04FF4005191
:10173000764803F062F90A20FFF7E0FD6006040E28
:101740004FF48051714803F03EF908B144F00104B0
:101750004FF400516D4803F052F90A20FFF7CEFD17
:10176000681CC5B2082DE1DBF472FFF761FEBDE82D
:10177000F0812DE9F041064600272FE04FF480511B
:10178000624803F03AF94FF40051604803F037F92A
:10179000002400251BE04FF400515C4803F02DF9B4
:1017A0000A20FFF7ABFD6006040E4FF48051574846
:1017B00003F009F908B144F001044FF40051534813
:1017C00003F01DF90A20FFF799FD681CC5B2082D2A
:1017D000E1DBF455FFF712FE781CC7B20D2FCDDB0D
:1017E0004FF48051494803F008F94FF4005147483D
:1017F00003F005F9002400251BE04FF40051434895
:1018000003F0FBF80A20FFF779FD6006040E4FF4A1
:1018100080513E4803F0D7F808B144F001044FF47A
:1018200000513A4803F0EBF80A20FFF767FD681C07
:10183000C5B2082DE1DB7473FFF7FAFDBDE8F08156
:10184000014605E0002001E0421CD0B20A28FBDB83
:101850000A00A1F10101F5D1704710B5044603E07B
:101860004FF47A70FFF7ECFF2000A4F10104F7D1E8
:1018700010BD2DE9F04105460E4617469846FFF784
:1018800070FD002141EA4501C8B2FFF7EBFD30468B
:10189000FFF7E8FD002405E018F80400FFF7E2FD7B
:1018A000601CC4B2BC42F7DBFFF78EFD0020BDE830
:1018B000F0812DE9F04106460F4614461D46FFF71C
:1018C00050FD002141EA4601C8B2FFF7CBFD384682
:1018D000FFF7C8FDFFF745FD012101EB4601C8B246
:1018E000FFF7C0FD0BE0012C03D1FFF70FFE2870BE
:1018F00002E0FFF73BFE28706D1C601EC4B2002C96
:10190000F1D1FFF761FD0020BDE8F081000C01403E
:1019100038B50446FA48807A10B94FF0FF3038BD28
:10192000FA2C09D0B4F5FA7F09D0B4F57A7F09D042
:10193000B4F5FA6F0CD108E0002000900BE008200D
:10194000009008E01020009005E01820009002E0D0
:101950004FF0FF30E3E700BFE948007A9DF8001040
:10196000B0EBE10F01D10020D9E7E54A1268917987
:10197000E34A526810786B460122FFF77AFF10B1F4
:101980004FF0FF30CBE79DF80000C010DC49087233
:101990000020C4E738B50446D948807A10B94FF022
:1019A000FF3038BD022C06D0042C07D0082C08D0FC
:1019B000102C0CD108E0002000900BE008200090D3
:1019C00008E01020009005E01820009002E04FF0A1
:1019D000FF30E6E700BFCA48407A9DF80010B0EB40
:1019E000E10F01D10020DCE7C54A1268D179C44A71
:1019F000526810786B460122FFF73BFF10B14FF0A1
:101A0000FF30CEE79DF80000C110BD4841720020B4
:101A1000C7E738B50446BA48807A10B94FF0FF30AE
:101A200038BDBC2C02DB0120009015E0622C02DBEB
:101A30000220009010E02A2C02DB032000900BE033
:101A4000142C02DB0420009006E00A2C02DB0520A7
:101A5000009001E006200090A948C07A9DF800108F
:101A6000884201D10020DBE7A54A12689178A44A98
:101A7000526810786B460122FFF7FBFE10B14FF061
:101A8000FF30CDE79DF800109D48C1720020C7E7E8
:101A900038B504469A4890F82300A04201D10020AE
:101AA00038BD14B13020009001E00020009094482F
:101AB000807C20B19DF8000040F00200009090482A
:101AC00090F8220020B19DF8000040F080000090C6
:101AD0008B4A1268117D8A4A526810786B4601223F
:101AE000FFF7C7FE10B14FF0FF30D9E7844880F808
:101AF00023400020D4E738B50446814890F82400FC
:101B0000C0B114B10220009001E0002000907C4A96
:101B10001268D17B7A4A526810786B460122FFF72F
:101B2000A8FE10B14FF0FF3038BD9DF8001074488A
:101B3000417423E07248807A10B94FF0FF30F3E728
:101B400024B16F48407C08B10020EDE714B10120BA
:101B5000009001E000200090694A1268D17B684A39
:101B6000526810786B460122FFF783FE10B14FF0E8
:101B7000FF30D9E79DF80010614841740020D3E799
:101B800008B55F48807A10B94FF0FF3008BD0020DB
:101B900000905B4A1268D17B594A526810786B46B4
:101BA0000122FFF766FE10B14FF0FF30EEE7544A16
:101BB00012685179524A526810786B460122FFF739
:101BC00058FE10B14FF0FF30E0E74D4A126811792E
:101BD0004B4A526810786B460122FFF74AFE10B15B
:101BE0004FF0FF30D2E7464890F82400002853D049
:101BF0000C200090424A12681179414A52681078CC
:101C00006B460122FFF735FE10B14FF0FF30BDE704
:101C10003220FFF722FEC02000903948807A00F081
:101C2000010020B19DF8000040F020000090344AEF
:101C300012681179324A526810786B460122FFF718
:101C400018FE10B14FF0FF30A0E72D48407C10B1D6
:101C50000220009001E000200090294A1268D17B08
:101C6000274A526810786B460122FFF702FE10B136
:101C70004FF0FF308AE700200090214A1268517926
:101C80001F4A526810786B460122FFF7F2FD0028C8
:101C900057D04FF0FF3079E704200090184A1268BF
:101CA0001179174A526810786B460122FFF7E1FD5F
:101CB00010B14FF0FF3069E71148807C20B910481F
:101CC000807A00F0010010B94020009001E060200F
:101CD00000900B4A12681179094A526810786B46D5
:101CE0000122FFF7C6FD10B14FF0FF304EE7322062
:101CF000FFF7B3FD0248407C20B10120009003E0D3
:101D0000A800002000200090FE4A1268D17BFD4A06
:101D1000526810786B460122FFF7ABFD10B14FF00F
:101D2000FF3033E7F74A12685179F64A5268107863
:101D3000F44B10330122FFF79CFD10B14FF0FF3040
:101D400024E7002022E770B50446002624F00104B1
:101D5000EC4890F8240008B1002070BDE948807A72
:101D600010B94FF0FF30F8E7E648057C807A204054
:101D7000E44908740846007CA04202D04FF0FF36C8
:101D800000E0002614B9DF48007D18B10120FFF7FC
:101D9000B2FE02E00020FFF7AEFE3CB1FFF7F0FE1E
:101DA00020B1D84805744FF0FF30D6E73046D4E76D
:101DB00038B50446282C02DD4FF0FF3038BDDCB9C1
:101DC0000020FFF765FE00208DF8000007208DF849
:101DD0000100CC4A1268917CCA4A526810786B465E
:101DE0000222FFF746FD10B14FF0FF30E6E7002179
:101DF000C44801750020E1E70120FFF749FE2020DB
:101E00008DF80000012C06D100208DF8010005207E
:101E1000FFF7FFFD17E0052C06DC01208DF801001F
:101E20000520FFF7F6FD0EE0142C06DC02208DF8ED
:101E300001000A20FFF7EDFD05E003208DF8010009
:101E40001420FFF7E6FD9DF80100072101EB80104B
:101E5000C0B28DF80100AB4A1268917CA94A526861
:101E600010786B460222FFF704FD10B14FF0FF30EF
:101E7000A4E70821A34881720021017301210175A3
:101E80000020FFF760FF002098E738B504469D4822
:101E9000807A10B94FF0FF3038BD9A4890F824008E
:101EA00010B14FF0FF30F7E79648007D50B134B1E4
:101EB000282C04DCE0B2FFF77BFF0020ECE70020D9
:101EC000FFF776FF042C01DA042404E0B4F57A7FEE
:101ED00001DD4FF47A744FF47A7090FBF4F0401EF9
:101EE000C0B20090874A12685178864A52681078CA
:101EF0006B460122FFF7BDFC10B14FF0FF30CBE77E
:101F00009DF80000401C4FF47A7191FBF0F081B213
:101F10007C48C1810146C9894810FFF77AFD00203D
:101F2000BAE738B504467748807CA04201D100204A
:101F300038BD002C46D0734A12681179714A526834
:101F400010786B460122FFF7B4FC10B14FF0FF3060
:101F5000EEE79DF8000020F020000090694A12682A
:101F60001179684A526810786B460122FFF781FCAC
:101F700010B14FF0FF30DBE70320FFF76EFC0220CB
:101F80000090604890F8220020B19DF8000040F0D9
:101F9000800000905B4890F8230020B19DF800007D
:101FA00040F030000090574A1268117D554A52683F
:101FB00010786B460122FFF75CFC002851D04FF0EF
:101FC000FF30B5E74F4A126811794E4A52681078CF
:101FD0006B460122FFF76DFC10B14FF0FF30A7E711
:101FE0004848807A00F0010028B19DF8000040F0D8
:101FF0002000009004E09DF8000020F020000090F8
:10200000404A126811793F4A526810786B460122A3
:10201000FFF72FFC10B14FF0FF3089E70320FFF7E7
:102020001CFC384890F8220010B18020009001E09C
:1020300000200090334890F8230020B19DF8000064
:1020400040F0300000902F4A1268117D2D4A5268EE
:1020500010786B460122FFF70CFC10B14FF0FF30F7
:1020600066E728488474002062E738B5044604F027
:10207000700010B10120009005E014B10020009024
:1020800001E0402000901F4A1268917C1D4A52686E
:1020900010786B460122FFF7ECFB20B100211948B4
:1020A0008172481E38BD9DF8000020F0400115489F
:1020B00001730020009004F0400020B99DF800005A
:1020C00040F00400009004F0200020B99DF80000CA
:1020D00040F00200009004F0100020B99DF80000CC
:1020E00040F00100009004F0080020B99DF80000C5
:1020F00040F038000090034A1268D17C014A5268CF
:10210000107801E0A80000206B460122FFF7B1FB28
:1021100020B10021FD488172481EC3E724B1082C7C
:1021200002D00020FFF7B4FCF8488472002101754A
:102130003220FFF792FB0020B4E738B50446F3489D
:1021400090F82400A04201D1002038BD24B3EF480C
:1021500090F8250010B94FF0FF30F6E70020FFF7A8
:10216000CAFC0020FFF7DDFEE849C88CFFF78DFEB2
:1021700000200090E549496808786B460122232138
:10218000FFF777FB0121E14880F824100120FFF7D9
:10219000B2FCFFF7F5FC13E00020FFF7ACFCDB48D6
:1021A000007C0090D949496808786B4601222321B8
:1021B000FFF75FFB0021D54880F82410FFF7E0FC13
:1021C0000020C2E70146D148007A30B1012807D08B
:1021D000022809D003280FD10AE0FA2008800EE077
:1021E0004FF4FA7008800AE04FF47A70088006E035
:1021F0004FF4FA60088002E00020088000BF00BFB2
:10220000002070470146C148407A30B1012807D00C
:10221000022808D003280CD108E0022008700BE047
:102220000420087008E00820087005E010200870FD
:1022300002E04FF0FF30704700BFB448C07C18B1D7
:1022400008784006000E08700020F4E70146AF4809
:10225000C07A082817D2DFE800F01704070A0D102B
:102260001318BC20088013E06220088010E02A20A8
:1022700008800DE0142008800AE00A20088007E0AA
:102280000520088004E000BF00BF0020088000BFD8
:1022900000BF0020704701469C4890F8240010B110
:1022A0004FF0FF3070479948C08908800020F9E757
:1022B00001469648007C0870002070472DE9F04FD9
:1022C00087B005460C46914601208DF8100000208D
:1022D0008DF811008D4A1268917C8C4A52681078F2
:1022E00004AB0222FFF7C5FA20B14FF0FF3007B070
:1022F000BDE8F08FC820FFF7B0FA00208DF810007D
:10230000824A1268D17B814A5268107804AB01225C
:10231000FFF7AFFA10B14FF0FF30E8E77B4A1268E1
:1023200051797A4A5268107804AB0122FFF7A1FA7A
:1023300010B14FF0FF30DAE7744A1268917C734AAB
:102340005268107804AB0122FFF793FA10B14FF0F6
:10235000FF30CCE76D4A1268D17D6C4A5268107824
:1023600004AB0122FFF785FA10B14FF0FF30BEE752
:10237000664A12681179654A5268107804AB0122E6
:10238000FFF777FA10B14FF0FF30B0E70C208DF86F
:1023900010005E4A126811795C4A5268107804ABEA
:1023A0000122FFF766FA10B14FF0FF309FE70F20D0
:1023B000FFF753FA5548806A407A8DF81000534A67
:1023C00012689178514A5268107804AB0122FFF7E5
:1023D00050FA10B14FF0FF3089E74C48806A007A1C
:1023E0008DF81000494A12685178484A52681078AE
:1023F00004AB0122FFF73DFA10B14FF0FF3076E752
:10240000B9F1000F07D04148806A807A40F0E000BF
:102410008DF8100004E03D48806A807A8DF8100045
:102420003A4A12689179394A5268107804AB01220D
:10243000FFF71FFA10B14FF0FF3058E7B9F1000F66
:1024400007D03248806AC07A40F0E0008DF8100072
:1024500003E02F48C07A8DF810002C4A1268D17919
:102460002A4A5268107804AB0122FFF702FA10B131
:102470004FF0FF303BE7B9F1000F02D0C820FFF763
:10248000ECF940208DF81000204A126811791F4A9B
:102490005268107804AB0122FFF7EBF910B14FF04E
:1024A000FF3024E778208DF81000184A126851791F
:1024B000164A5268107804AB0122FFF7DAF910B11E
:1024C0004FF0FF3013E712498889FFF7C6F9002063
:1024D0008DF810000D4A126851790C4A5268107834
:1024E00004AB0122FFF7C5F910B14FF0FF30FEE653
:1024F000064A1268917A054A5268107804AB0222A3
:10250000FFF7D7F930B14FF0FF30F0E6A800002018
:10251000E08F00089DF811009DF8101040EA012B93
:102520000C209BFBF0F0C6B20020A8606860286019
:10253000A06060602060824665E0FE4A1268D17A41
:10254000FC4A5268107804AB0C22FFF7B2F910B1C4
:102550004FF0FF30CBE69DF811009DF8101040EAD7
:10256000012000B2ADF808009DF813009DF812108C
:1025700040EA012000B2ADF80A009DF815009DF870
:10258000141040EA012000B2ADF80C00BDF90810AB
:10259000206808442060BDF90A1060680844606043
:1025A000BDF90C10A0680844A0609DF817009DF8C4
:1025B000161040EA012000B2ADF800009DF81900A5
:1025C0009DF8181040EA012000B2ADF802009DF815
:1025D0001B009DF81A1040EA012000B2ADF804007B
:1025E000BDF90010286808442860BDF90210686829
:1025F00008446860BDF90410A8680844A8600AF19E
:10260000010000F0FF0AB24597DBCB48D0F800C0CC
:102610002868C117090441EA1041070462460023F3
:10262000384603F070FD32460023CDE9020103F085
:102630006AFD2860C048D0F800C06868C117090466
:1026400041EA1041070462460023384603F05BFD6F
:1026500032460023CDE9020103F055FD6860B6481B
:10266000D0F800C0A868C117090441EA1041070466
:1026700062460023384603F046FD32460023CDE98A
:10268000020103F040FDA860AB48D0F804C0216807
:10269000C817000440EA11480F0462460023384678
:1026A000414603F030FD32460023CDE9020103F03C
:1026B0002AFD2060A048D0F804C06068C117090452
:1026C00041EA1041070462460023384603F01BFD2F
:1026D00032460023CDE9020103F015FD6060964803
:1026E000D0F804C0A068C117090441EA10410704EA
:1026F00062460023384603F006FD32460023CDE94A
:10270000020103F000FDA060A068002804DDA068BD
:10271000A0F58030A06003E0A06800F58030A060E4
:102720000020E4E57CB5054682494968087801AB9C
:1027300004220D21FFF7BDF808B107207CBD9DF8EC
:102740000700C0F301109DF8041001F0E00140EA19
:10275000E1008DF800009DF80700C0F381009DF8AE
:10276000051001F0E00140EAE1008DF801009DF85C
:10277000070000F003009DF8061001F0E00140EAB8
:10278000E1008DF8020000241CE01DF8040018B9D7
:10279000002045F8240013E0684845F8240006E0CE
:1027A00055F82400664906F019FA45F824001DF88A
:1027B0000400401EC0B20DF804000028F0D100BF94
:1027C000601CC4B2032CE0DB0020B7E70146594887
:1027D000007A30B1012807D0022808D003280CD194
:1027E00008E0584808600BE05748086008E0574880
:1027F000086005E05648086002E04FF0FF3070477F
:1028000000BF0020FBE701464A48407A30B101286A
:1028100008D002280AD0032810D10BE04FF48040E2
:1028200008800EE041F69C7008800AE04FF480506A
:10283000088006E04FF40060088002E04FF0FF30AF
:10284000704700BF3B48C07C10B10888401008802A
:102850000020F5E72DE9F04F85B0064689460025B2
:1028600002A8FFF75FFF00244BE056F8240059F858
:102870002410471A002F01DB394600E07942084650
:1028800006F04CF980464FF08F4106F015F882466D
:1028900002A951F82400002106F0D0F821D002A8A6
:1028A00050F82410504606F007F807464FF07E51C6
:1028B00006F092FA83462049486A05F063FF07460E
:1028C0008846584605F05EFF21F000413A464346EF
:1028D000CDE9000105F044FD12D20120A0400543DE
:1028E0000EE01548C169504606F044F905D3124878
:1028F000016A504606F03EFA02D20120A04005438C
:10290000641C032CB1DB284605B0BDE8F08F2DE92F
:10291000F04F85B006460F460025064949680878FD
:1029200004AB03220D21FEF7C4FF98B1072005B0C8
:10293000BDE8F08FA8000020E08F00087B14AE3EB9
:102940001D5A843F00000343000083423333034297
:10295000333383419DF8100000F01F008DF8100004
:102960009DF8110000F01F008DF811009DF8120075
:1029700000F01F008DF81200002461E056F82400DA
:1029800057F82410A0EB010BBBF1000F01DB5946F7
:1029900001E0CBF10001084606F0C0F84FF08F418E
:1029A000039005F089FF814604A8005DB8B3F8499B
:1029B000086806F0CBF883465946F64805F07CFFD8
:1029C000804604E0F449404606F008F9804604A831
:1029D000005D401EC0B204A908550028F2D141464E
:1029E000484605F069FF83464FF07E5106F0F4F942
:1029F0008246E749886905F0C5FECDE902015046E7
:102A000005F0C0FE21F00041CDE90001DDE902231F
:102A100005F0A6FC13D20120A04005430FE0FFE71C
:102A2000DB480169484606F0A5F805D3D848416956
:102A3000484606F09FF902D20120A0400543641CDD
:102A4000032C9BDB284672E72DE9F04F8DB08346BF
:102A50000F4602200C90D14890F8240020B10020AD
:102A6000FFF76BFB012600E0002603A8FFF7AAFB97
:102A700005A8FFF7C7FB01A8FFF7E8FB02A8FFF7CF
:102A80000AFCC64890F80AA004A8FFF711FC00242D
:102A900007E0002239465846FFF710FC00B902E073
:102AA000641C022CF5DB00BF022C01D1002528E0BC
:102AB000002407E0012206A909A8FFF7FFFB00B9DF
:102AC00002E0641C022CF5DB00BF022C01D10025C2
:102AD00017E006A93846FFF7BDFE00F0FF0809A978
:102AE0005846FFF714FF00F0FF090025B9F1000F69
:102AF00001D145F00105B8F1000F01D145F0020503
:102B000000BFFF20A5490872FF21A4484172C1728D
:102B10004FF6FF71C181FF218172017401210173A0
:102B2000BDF80C00FEF7F4FE9DF81400FEF732FF2E
:102B3000BDF80400FEF76DFFBDF80800FFF7A5F92A
:102B40005046FFF792FA9DF81000FFF7FCF816B117
:102B50000120FFF7F2FA28460DB0BDE8F08F70B5FE
:102B600088B002A905A8FFF76FFF0446032C3CD1EB
:102B700001A8FFF72BFE059805F0D0FF0646019946
:102B800006F02CF8054605F08DFF0590069805F037
:102B9000C5FF0646019906F021F8054605F082FFBB
:102BA0000690079805F0BAFF0646019906F016F858
:102BB000054605F077FF079005A800F04EFC684633
:102BC000FFF721FEBDF80010029848430290BDF8BF
:102BD0000010039848430390BDF800100498484340
:102BE000049002A800F0CCFC00BF08B070BDF8B59E
:102BF00004460D46164616B94FF0FF30F8BD67483B
:102C0000807A10B94FF0FF30F8E720128DF80000FD
:102C1000E0B28DF801009DF8010028445F49496841
:102C20004989884202DD4FF0FF30E7E75B4A1268CE
:102C3000117E5A4A526810786B460222FEF719FE3E
:102C400010B14FF0FF30D9E7EAB2544B1B68597D01
:102C5000524B5B6818783346FEF70BFE10B14FF00D
:102C6000FF30CBE70020C9E7F8B504460D4616460D
:102C700016B94FF0FF30F8BD4848807A10B94FF0D0
:102C8000FF30F8E720128DF80000E0B28DF8010067
:102C90009DF801002844414949684989884202DD7C
:102CA0004FF0FF30E7E73D4A1268117E3B4A526819
:102CB00010786B460222FEF7DCFD10B14FF0FF30BA
:102CC000D9E7EAB2354B1B68597D344B5B681878FD
:102CD0003346FEF7EEFD10B14FF0FF30CBE700209A
:102CE000C9E7F8B504460F4616462C4890F824006C
:102CF00010B94FF0FF30F8BD2848807A10B94FF076
:102D0000FF30F8E7254A1268917A244A5268107811
:102D10006B460222FEF7CDFD10B14FF0FF30EAE71F
:102D20009DF801009DF8001040EA0125A54203DA54
:102D300000203070401EDEE7184840684088B5EB40
:102D4000600F17DD154A1268517C144A52681078DA
:102D50006B460122FEF7ADFD10B14FF0FF30CAE720
:102D60009DF8000000F0100020B1FEF709FF6FF0A1
:102D70000100C0E7E2B2094B1B68D97A074B5B68D8
:102D800018783B46FEF795FD50B14FF0FF30B2E7A3
:102D9000E08F000800B04C4554E3853FA8000020B8
:102DA00095FBF4F0401E30700020A4E72DE9F043BD
:102DB00085B005460E4690469946FE4890F8250097
:102DC00020B14FF0FF3005B0BDE8F08316B94FF0E9
:102DD000FF30F8E7002423E0281B102801DD102035
:102DE00000E0281B87B2321939462046FFF7FFFE64
:102DF00010B14FF0FF30E6E701AA39462046FFF751
:102E000033FF10B14FF0FF30DDE730193A4601A92A
:102E100003F06DFA10B16FF00100D4E7E01984B24D
:102E2000AC42D9DB4FEA28208DF8000008F0FF0003
:102E30008DF80100DF4A1268917EDE4A52681078F0
:102E40006B460222FEF715FD10B14FF0FF30BAE7D6
:102E50000121D84880F82510A0F826900020B2E77C
:102E6000014691F90020002A01DD00201EE091F9C1
:102E70000020002A01DA042018E091F90120002A3C
:102E800001DD012012E091F90120002A01DA05207C
:102E90000CE091F90220002A01DD022006E091F900
:102EA0000220002A01DA062000E00720704770B5F2
:102EB00005462846FFF7D4FF0446E81CFFF7D0FF7D
:102EC00044EAC00084B2A81DFFF7CAFF44EA80109C
:102ED00084B2204670BD1CB5B64A12681178B54A56
:102EE000526810786B460122FEF7E3FC08B101201E
:102EF0001CBD9DF80000682801D00220F8E7802062
:102F00008DF80000AB4A1268917CAA4A526810788A
:102F10006B460122FEF7ADFC08B10320E8E7642010
:102F2000FEF79BFC00208DF80000A24A1268917CFD
:102F3000A04A526810786B460122FEF79AFC08B14D
:102F40000420D5E79B4A1268917D9A4A526810780E
:102F50006B460622FEF7ADFC08B10520C8E79DF8D8
:102F60000500C007400F9DF8031001F0010140EA81
:102F700041009DF8011001F0010140EA01046CB12B
:102F8000012C03D101218B48C17424E0022C03D110
:102F900000218848C1741EE00620A9E7854A12680E
:102FA000D178844A526810786B460122FEF781FC82
:102FB00008B107209CE79DF8000000F00F040CB951
:102FC000052095E7042C03D101217A48C17402E061
:102FD00000217848C174FF2176488172FF2075492D
:102FE0000872FF2173484172C1724FF6FF71C181AF
:102FF000FF21017481740121017380F822100021E6
:1030000080F82310417501751630016041608160C0
:10301000163880F8241080F82510C1844FF4FA6027
:10302000FEF776FC08B1102062E70220FEF7B2FC42
:1030300008B111205CE72A20FEF7EBFC08B1122052
:1030400056E73220FEF721FF08B1132050E7002099
:10305000FEF779FE08B114204AE70020FEF761FF71
:1030600008B1152044E70020FEF7FFFF00203FE7EE
:1030700010B5FFF730FF7820FEF7F7FFE0B97820B2
:10308000FEF761FEC0B96420FEF7FFFEA0B900F0B4
:1030900049F988B94848FFF70AFF044600F04CF99F
:1030A00050B940F2731000F088FD28B9642000F098
:1030B000FDFA08B9FFF753FD0120FFF73EF80020A5
:1030C00010BD1CB53D483E493E4B3F4ACDE900107E
:1030D0003E493F4800F0D0FE1CBD2DE9F04F99B0AD
:1030E00004460D4616464FF07E574FF000084FF04D
:1030F00000094FF0000A12A813A918AB0EAACDE9D7
:10310000001014A916A800F0B7FE18B1012019B0DC
:10311000BDE8F08FBDF84C0000F4807000287DD031
:103120000E9805F0FBFC83464FF09D4105F0C4FB73
:1031300007460F9805F0F2FC83464FF09D4105F0DD
:10314000BBFB8046109805F0E9FC83464FF09D419B
:1031500005F0B2FB8146119805F0E0FC83464FF084
:103160009D4105F0A9FB824639464FF0804005F0AD
:1031700035FD4946059005F031FD414607904FF079
:10318000404005F02BFD5146059005F027FD0690C7
:10319000079905F023FB834605F0F4FACDE9080111
:1031A00004F0EAF94FF066320A4BCDE90A0104F067
:1031B000D9FF11E0A800002088000020A000002016
:1031C0009E000020A40000201C0100209800002088
:1031D0009200002066A64C40CDE90C0104F010FDE1
:1031E000206049464FF0804005F0F8FC49460290C7
:1031F00005F0F4FC414604904FF0404005F0EEFC31
:103200004146029005F0EAFC0390049905F0E4FDC4
:1032100083464FF07E5105F0E1FA00E07CE0059036
:1032200005F0B0FACDE9080139464FF0804005F0CD
:10323000D5FC4146039005F0D1FC494604904FF07F
:10324000804005F0CBFC5146039005F0C7FC834657
:10325000049905F0C3FA059005F094FACDE906014A
:10326000DDE9082304F0D0FB4FF066322C4BCDE9AA
:103270000A0104F077FFCDE90C0104F0C1FC2860DD
:103280005146504605F0AAFC49460490484605F0D0
:10329000A5FC41460390404605F0A0FC394601904C
:1032A000384605F09BFC0090019905F097FA0290D2
:1032B000039905F091FD8346049905F08DFD059075
:1032C00005F060FACDE908015146384605F086FC64
:1032D00049460490404605F081FC0390049905F0AE
:1032E0007DFA4FF08041059005F078FC834605F0AB
:1032F00049FACDE90601DDE9082304F085FB4FF02A
:103300006632074BCDE90A0104F02CFFCDE90C0130
:1033100004F076FC306001E00220F8E60020F6E6DA
:1033200066A64C4010B5C8234FF48062F74940F6BA
:10333000F630FFF73BFD10BD10B586B00446F4A093
:1033400000680390F3A000680290F3A00068019069
:10335000F2A00068009004F0030003A9085C8DF857
:10336000140003A8C4F3C101405C8DF8150003A844
:10337000C4F38111405C8DF8160004F0030002A92B
:10338000085C8DF8100002A8C4F3C101405C8DF800
:10339000110002A8C4F38111405C8DF8120005AA47
:1033A000032140F22640FFF722FC18B14FF0FF3016
:1033B00006B010BD04AA032140F22A40FFF717FC13
:1033C00010B14FF0FF30F3E701980590009804909A
:1033D00004F0040058B19DF8140040F001008DF88D
:1033E00014009DF8100040F001008DF8100004F06A
:1033F000200058B19DF8150040F001008DF815002F
:103400009DF8110040F001008DF8110004F4807067
:1034100058B19DF8160040F001008DF816009DF897
:10342000120040F001008DF8120005AA03214FF4AC
:103430008860FFF7DCFB10B14FF0FF30B8E704AA5B
:10344000032140F23140FFF7D2FB10B14FF0FF30C3
:10345000AEE7B34804810020AAE71FB50446B04890
:10346000007A00F0030054F820000190AC48007A84
:1034700000F0040010B1019840420190A848007A81
:10348000C0F3C10054F820000290A548007A00F073
:10349000200010B1029840420290A148007AC0F387
:1034A000811054F8200003909D48008900F480703A
:1034B00010B10398404203909A49019880FB0101A2
:1034C000800F40EA810001909649029880FB01102C
:1034D000820042EA917002909249039880FB0110A9
:1034E000820042EA917003900198000E8DF800006E
:1034F0000198000C8DF801000198000A8DF8020077
:103500000198C0B28DF803006A4604214FF474702C
:10351000FFF76DFB18B14FF0FF3004B010BD0298FB
:10352000000E8DF800000298000C8DF80100029842
:10353000000A8DF802000298C0B28DF803006A46B6
:1035400004214FF47570FFF752FB10B14FF0FF30BC
:10355000E3E70398000E8DF800000398000C8DF847
:1035600001000398000A8DF802000398C0B28DF89C
:1035700003006A4604214FF47670FFF738FBCCE76E
:1035800070B588B0064601A8FFF73DF9BDF8040004
:103590000021C90341EA5045C4036148007A00F0A4
:1035A000030056F8200005905D48007A00F0040002
:1035B00010B10598404205905948007AC0F3C10007
:1035C00056F8200006905648007A00F0200010B10E
:1035D0000698404206905248007AC0F3811056F88F
:1035E000200007904E48008900F4807010B10798C1
:1035F000404207900598C117A0FB042301FB04314A
:1036000000FB0510810041EA927005900698C117F1
:10361000A0FB042301FB043100FB0510810041EAFB
:10362000927006900798C117A0FB042301FB043198
:1036300000FB0510810041EA927007900598000E8A
:103640008DF808000598000C8DF809000598000A0F
:103650008DF80A000598C0B28DF80B000698000E90
:103660008DF80C000698000C8DF80D000698000AE5
:103670008DF80E000698C0B28DF80F000798000E66
:103680008DF810000798000C8DF811000798000ABB
:103690008DF812000798C0B28DF8130002AA0C2111
:1036A0004FF42570FFF7A3FA08B070BD30B585B0B0
:1036B00004461DA207CA02AB07C3C82C03DD4FF0A6
:1036C000FF3005B030BDC82090FBF4F0401E85B23D
:1036D000280A8DF80000E8B28DF801006A46022140
:1036E00040F21620FFF783FA10B14FF0FF30E8E701
:1036F00002AA0C2140F6C120FFF779FA10B14FF071
:10370000FF30DEE7064884810020DAE708900008F1
:103710004CCD6C000CC92C0036567600264666004F
:103720002C01002009E3CA02FEF2ABC4AAF1DFDFDC
:10373000BBAFDFDF0146FC4880890880002070476E
:103740002DE9FC4706460F4606F0070010B1B7F515
:10375000C86F03DD4FF0FF30BDE8FC87384605F049
:10376000F5F98146F14905F0A7F880466846FEF76D
:1037700049FD9DF80000022806D0042816D008282C
:1037800026D0102848D135E04FF08D41404605F055
:1037900025FA814605F0A2F984B2E549404605F0D4
:1037A0001DFA814605F09AF985B238E04FF08C4158
:1037B000404605F013FA814605F090F984B2DD49E0
:1037C000404605F00BFA814605F088F985B226E0FF
:1037D0004FF08B41404605F001FA814605F07EF935
:1037E00084B2D549404605F0F9F9814605F076F9ED
:1037F00085B214E04FF08A41404605F0EFF981466A
:1038000005F06CF984B2CD49404605F0E7F98146F0
:1038100005F064F985B202E04FF0FF309CE700BF8D
:1038200020128DF80400E0B28DF8050028128DF802
:103830000600E8B28DF8070006F00100A0B101AA69
:1038400002214FF4EA70FFF7D2F910B14FF0FF30C8
:1038500082E70DF1060202214FF49270FFF7C7F9DB
:1038600010B14FF0FF3077E706F00200A0B101AAD7
:1038700002214FF4EC70FFF7BAF910B14FF0FF30AE
:103880006AE70DF1060202214FF49470FFF7AFF9D9
:1038900010B14FF0FF305FE706F00400A0B101AABD
:1038A00002214FF4EE70FFF7A2F910B14FF0FF3094
:1038B00052E70DF1060202214FF49670FFF797F9D7
:1038C00010B14FF0FF3047E7002045E738B5044618
:1038D0000020009004F0010020B19DF8000040F0AD
:1038E0003000009004F0020020B19DF8000040F08C
:1038F0000C00009004F0040020B19DF8000040F09E
:10390000030000906A4601214FF4A470FFF76FF99D
:1039100038BD38B50446012C01DA012402E0042C3C
:1039200000DD0424601EC0B200906A46012140F20E
:103930004F10FFF75CF938BD38B50446052094FBFD
:10394000F0F085B228128DF80000E8B28DF8010081
:103950006A4602214FF4EF70FFF749F938BD38B5D8
:103960000446052094FBF0F085B228128DF8000083
:10397000E8B28DF801006A4602214FF4ED70FFF7BE
:1039800036F938BDF8B505460E464FF47A7095FB0A
:10399000F0F000FB06F4200E8DF80000200C8DF8EE
:1039A0000100200A8DF80200E0B28DF803006A469B
:1039B00004214FF4AE70FFF71AF9F8BD38B504468C
:1039C000052094FBF0F084B220128DF80000E0B2E4
:1039D0008DF801006A4602214FF4AD70FFF707F938
:1039E00038BD38B50446052094FBF0F084B22012AF
:1039F0008DF80000E0B28DF801006A4602214FF414
:103A0000AC70FFF7F4F838BD38B5044614B94FF080
:103A1000FF3038BD6A4604214FF45870FFF724F98F
:103A200010B14FF0FF30F4E79DF8000000069DF85C
:103A3000011040EA01409DF8021040EA01209DF883
:103A40000310084320600020E3E738B50446200E49
:103A50008DF80000200C8DF80100200A8DF802007E
:103A6000E0B28DF803006A4604214FF45870FFF766
:103A7000BEF838BD38B5044614B94FF0FF3038BD34
:103A80006A4604214FF47170FFF7EEF810B14FF061
:103A9000FF30F4E79DF8000000069DF8011040EAB1
:103AA00001409DF8021040EA01209DF803100843F0
:103AB00000EB8000800020600020E0E738B504467D
:103AC0001420B4FBF0F4200E8DF80000200C8DF8CB
:103AD0000100200A8DF80200E0B28DF803006A466A
:103AE00004214FF47170FFF782F838BD38B50446F1
:103AF00064B120208DF8000028208DF801003020CE
:103B00008DF8020038208DF8030004E0A322042180
:103B1000684602F018FC6A46042140F69E20FFF732
:103B200066F8FEF72DF838BD2C0100200000484350
:103B3000000040460000C045000040450000C04471
:103B400038B5044664B1C0208DF80000C2208DF85D
:103B50000100C4208DF80200C6208DF8030004E0A7
:103B60008B220421684602F0EEFB6A46042140F6EF
:103B70009820FFF73CF8FEF703F838BD3EB5044641
:103B80006CB1FDA1D1E900208968CDE90020029146
:103B90006A4609214FF49760FFF729F83EBDF9A264
:103BA000D2E900109268CDE9010200916A4609212C
:103BB0004FF49760FFF71BF8F0E73EB5044602208C
:103BC0008DF80000CA208DF80100E3208DF8020076
:103BD00009208DF803006A4604216820FFF707F8E2
:103BE000A3208DF8000004F0400048B1C0208DF8FB
:103BF0000100C8208DF80200C2208DF8030006E005
:103C0000A3208DF801008DF802008DF8030004F464
:103C1000C07048B1C4208DF80400CC208DF8050098
:103C2000C6208DF8060006E0A3208DF804008DF86C
:103C300005008DF80600A3208DF807008DF8080018
:103C40008DF809006A460A2140F6A720FEF7CFFF4B
:103C500004F0030018B120208DF8000002E0D82005
:103C60008DF800006A46012140F6B620FEF7BFFF3E
:103C700004F0200018B10120FFF780FF02E00020CF
:103C8000FFF77CFF04F4C07008B304F4807060B1E7
:103C9000B2208DF800008B208DF80100B6208DF841
:103CA00002009B208DF803000BE0B0208DF800008F
:103CB00080208DF80100B4208DF8020090208DF84E
:103CC00003006A46042140F6A220FEF790FF04F0AC
:103CD000010020B3F8208DF800006A4601214FF45E
:103CE0000B60FEF784FFFA210720FFF729FD07206C
:103CF000FFF7ECFD0120FFF70CFE6420FFF71CFE30
:103D00004FF4FA70FFF72BFEC821A148FFF73AFEE7
:103D10002820FFF753FE0A20FFF763FE08E0D820B3
:103D20008DF800006A4601214FF40B60FEF75FFF3B
:103D300004F0020018B1D9208DF8000002E0D8206C
:103D40008DF800006A46012140F23D70FEF74FFFFA
:103D500004F0040018B10120FFF7F2FE02E0002099
:103D6000FFF7EEFE04F0100018B10120FFF7BEFED1
:103D700002E00020FFF7BAFE44F0080085494881C0
:103D8000FDF7FEFE00208349887304F0400018B15F
:103D90000846807B801D887304F4C07020B17D4884
:103DA000807B801D7B49887304F0140020B1794822
:103DB000807B10307749887304F0030020B1754888
:103DC000807B001D7349887300203EBD0146714809
:103DD00040890880002070472DE9F0410446E078D2
:103DE00000F0C006E07800F03F05607800F00100C8
:103DF00098B1EF102846E91705EB5171C910A5EBF2
:103E0000C101491C01F0FF086248006820B1614807
:103E1000414602683846904700BF607800F00800CD
:103E200030B15C48406818B1B0115A4A51688847AF
:103E30000020BDE8F08110B586B0044656A207CA3E
:103E400003AB07C357A207CA8DE80700012C09D0AE
:103E5000022C0ED103AA0B2140F68220FEF7C7FEEA
:103E600006B010BD6A460B2140F68220FEF7BFFE69
:103E7000F6E74FF0FF30F3E72DE9F04F8DB007463E
:103E8000884615469B46DDE9166A002400203080EE
:103E90004049887B524605A9FEF723FF18B1601EF2
:103EA0000DB0BDE8F08F3B48807A00F01400002888
:103EB00061D09DF8140000069DF8151040EA0140FD
:103EC0009DF8161040EA01209DF81710084328605D
:103ED0009DF8180000069DF8191040EA01409DF871
:103EE0001A1040EA01209DF81B10084368609DF8F5
:103EF0001C0000069DF81D1040EA01409DF81E10B0
:103F000040EA01209DF81F100843A8609DF820009A
:103F100000069DF8211040EA01409DF8221040EA79
:103F200001209DF823100843E86004F11000C4B29A
:103F3000286800140190686800140290A8680014B2
:103F40000390E8680014049001984043029901FB33
:103F50000100039901FB0100049901FB0109B9F17A
:103F6000706F02DBB9F1885F22DDFDF709FE0020EA
:103F70003080401E94E721E0B8AAB38DB4980D3587
:103F80005D000000B8AAAAAAB088C3C5C700000097
:103F900009E3CA022C010020D8B1B9F38BA391B672
:103FA00009B4D900DAB1B9F38BA391B6DAB4DA0067
:103FB000B6F9000040F48070308000BF3248807A4B
:103FC00000F0400020B305A9601C085C095D40EAD0
:103FD000012000B2A8F8000005A9E01C095C05AAB0
:103FE000A01C105C41EA002000B2A8F8020005A95C
:103FF000601D095C201D105C41EA002000B2A8F899
:104000000400A01DC4B2B6F9000040F008003080E2
:104010001D48408900F4C07008B305A9601C085C05
:10402000095D40EA012000B2388005A9E01C095C66
:1040300005AAA01C105C41EA002000B2788005A906
:10404000601D095C201D105C41EA002000B2B880B0
:10405000A01DC4B2B6F9000040F0700030800A48DC
:10406000807A00F0030018B105A90819FFF7B4FE23
:10407000002015E701460448016000207047014612
:1040800001484160002070472C01002070B590B0BD
:1040900001203049887002202F49887003202F4961
:1040A00088700FA809A90EAB05AACDE900100AA9CE
:1040B0000CA8FFF7E1FE03AA04A902A8FFF70DF878
:1040C000002844D10021029804F054FD08D224496C
:1040D000029804F083FD029000201E49487002E01F
:1040E00001201C4948700021049804F043FD08D2C7
:1040F0001B49049804F072FD049000201649487092
:1041000002E00120144948700021039804F032FDB8
:1041100008D21349039804F061FD039000200F4971
:10412000487002E001200D494870029804F0BAFC82
:10413000064608490E70049804F0B4FC054606498A
:104140000D70039804F0AEFC044604490C7010B0E6
:1041500070BD0000DD000020E0000020E300002032
:10416000000080BF10B504460021204604F002FE86
:1041700001D8204610BD0021204604F0FBFC02D2ED
:1041800084F00040F6E700BFF4E770B5FFF77EFF6C
:10419000B74AB849B848FEF7A0FFB548006804F030
:1041A00081FC04462146B5A001F0D2FF002108465B
:1041B000FCF708FF642000F0B4F9B2480068042856
:1041C0000FD0B048006805280BD0AE48006808281A
:1041D00007D0AC480068092803D0AA4800680C281A
:1041E0000ED10020A84908600120A849C1F8B001FB
:1041F000A549083108600020A449C1F8B80129E0A8
:10420000A0480068012817D09E480068022813D0F3
:104210009C48006803280FD09A48006806280BD0F5
:1042200098480068072807D0964800680A2803D0F5
:10423000944800680B280DD10120934908600020A4
:104240009249C1F8B00190490831086001208F49B6
:10425000C1F8B8018B480068012803D16FF05605FA
:104260006FF04D0687480068032801D15825612664
:1042700084480068052803D16FF060056FF0570689
:1042800080480068062802D16FF0B3056E1D7D4896
:104290000068072801D1582561267A480068082857
:1042A00001D1B125B42677480068092803D16FF001
:1042B00060056FF05706734800680A2802D16FF056
:1042C000B3056E1D6F4800680B2801D15825612683
:1042D0006C4800680C2801D1B125B42669480068F3
:1042E00005280BD067480068062807D06548006895
:1042F000092803D0634800680A2825D1614800686E
:10430000052803D05F480068092804D141213720DF
:10431000FCF758FE03E037214120FCF753FE0FE085
:10432000FFF7B4FE524A53495348FEF7D6FE5048B1
:10433000006804F0B7FB0446214650A001F008FFD6
:10434000AC42EDDDB442EBDA4E480068042807D0F9
:104350004C4800680C2803D04A48006808281ED141
:104360002E212620FCF72EFE0FE0FFF78FFE404A9D
:1043700040494148FEF7B1FE3D48006804F092FB19
:10438000044621463DA001F0E3FEB12CEDDBB42C48
:10439000EBDC14F1AD0F02DC14F1B40FE5DA3948AF
:1043A0000068022803D03748006807281ED126215C
:1043B0002E20FCF707FE0FE0FFF768FE2C4A2D4980
:1043C0002D48FEF78AFE2A48006804F06BFB04467D
:1043D00021462AA001F0BCFE14F1B40FECDB14F16D
:1043E000AF0FE9DCAF2C01DBB42CE5DD254800681C
:1043F000012807D023480068032803D0214800681B
:104400000B2818D126212E20FCF7DCFD0FE0FFF74A
:104410003DFE174A17491848FEF75FFE144800682A
:1044200004F040FB0446214614A001F091FEAC428A
:10443000EDDDB442EBDA0020154908600120154992
:10444000086010480068042803D00E480068082857
:1044500005D100200F49086001200F4908600020A5
:104460000E4908600E4908600E49086070BD0000E2
:10447000200000201C00002024000020743D202586
:10448000640D0A0058000020AC01244200002442C0
:10449000600000207C000020800000204C000020F4
:1044A000540000207000002010B56FF0040000F0F0
:1044B00078F92E4800682E49B0FBF1F02D490870BC
:1044C0000846007800EB4001C1EBC0104FF6FF71C9
:1044D00001EAC0002849088010BD0146254A12782B
:1044E0004A434FF0E0235A6100229A611A4612694A
:1044F00042F001021A6100BF4FF0E022106900F0A3
:1045000001021AB100F48032002AF5D04FF0E02207
:10451000126922F001024FF0E0231A6100229A6131
:1045200070470146144A12884A434FF0E0235A610B
:1045300000229A611A46126942F001021A6100BF14
:104540004FF0E022106900F001021AB100F480324D
:10455000002AF5D04FF0E022126922F001024FF05C
:10456000E0231A6100229A617047000034000020A5
:1045700000127A00E6000020E8000020014600BF9B
:10458000704700BF4B4A128802F04002002AF9D05F
:10459000C2B2484B1B1D1A80704710B586B0044646
:1045A0000121880400F045FC0121082000F034FCC2
:1045B0004FF48060ADF8140003208DF81600182029
:1045C0008DF8170005A93C4800F06AF94FF4006027
:1045D000ADF8140004208DF8170005A9364800F046
:1045E0005FF927208DF8000003208DF801008DF879
:1045F000020001208DF80300684600F088F801945D
:104600000020ADF80800ADF80A00ADF80C00ADF8D8
:1046100010000C20ADF80E0001A9264801F0B1FBF6
:10462000012240F22551234801F043FC0121214899
:1046300001F033FC06B010BD10B540F225511D4805
:1046400001F01CFD10B31B4801F098FCC4B21B48DC
:10465000008800F40040C8B91848008800F4804081
:1046600060B10A2C03D000201449088020E01348D0
:10467000008840F400401149088019E00D2C06D153
:104680000E48008840F480400C49088010E00B4838
:104690000088C0F30D000A490C5408480088401CEB
:1046A0000649088008460088C72801DD00200880E8
:1046B00010BD000000480040000C0140F000002048
:1046C0003C0100200948804709480047FEE7FEE713
:1046D000FEE7FEE7FEE7FEE7FEE7FEE7FEE7FEE7B2
:1046E00004480549054A064B704700004703000887
:1046F00031010008680200206808002068040020DA
:104700006804002031490143314A1160704770B597
:10471000002100230F22C47804B32D4C246804F434
:10472000E064C4F5E064210AC1F10403CA4044789E
:1047300004FA03F18478144021430901254C0678DA
:10474000A155047804F01F050124AC4005786D11D3
:10475000AD0005F1E025C5F8004109E0047804F05A
:104760001F050124AC401C4D0678761145F8264003
:1047700070BD1A4A0A400243154B1B1F1A6070474E
:1047800039B1134A121D12680243114B1B1D1A60E6
:1047900006E00F4A121D126882430D4B1B1D1A6062
:1047A0007047042808D14FF0E021096941F0040165
:1047B0004FF0E022116107E04FF0E021096921F09C
:1047C00004014FF0E0221161704700000000FA057B
:1047D0000CED00E000E400E080E100E080FFFF1F5E
:1047E00010B50446CC48844208D10121042000F0D1
:1047F0002DFB0021042000F029FB46E0C74884423D
:1048000008D10121082000F021FB0021082000F040
:104810001DFB3AE0C248844208D10121102000F07B
:1048200015FB0021102000F011FB2EE0BD48844252
:1048300008D10121202000F009FB0021202000F0F8
:1048400005FB22E0B848844208D10121402000F055
:10485000FDFA0021402000F0F9FA16E0B348844246
:1048600008D10121802000F0F1FA0021802000F021
:10487000EDFA0AE0AE48844207D10121801500F02C
:10488000E5FA0021A01500F0E1FA10BD10B50121F4
:10489000084600F0DBFA0021012000F0D7FA10BD35
:1048A0002DE9F041024600250026002000230024C7
:1048B000002791F803C00CF00F0591F803C00CF02D
:1048C000100CBCF1000F03D091F802C04CEA0505B2
:1048D00091F800C0BCF1000F31D0146800202BE02B
:1048E0004FF0010C0CFA00F3B1F800C00CEA03061B
:1048F0009E4220D183004FF00F0C0CFA03F7BC430B
:1049000005FA03FC4CEA040491F803C0BCF1280F3B
:1049100006D14FF0010C0CFA00FCC2F814C00AE0FA
:1049200091F803C0BCF1480F05D14FF0010C0CFA0F
:1049300000FCC2F810C0401C0828D1D31460B1F8A4
:1049400000C0BCF1FF0F34DD546800202EE000F100
:10495000080C4FF0010808FA0CF3B1F800C00CEA9B
:1049600003069E4221D183004FF00F0C0CFA03F78F
:10497000BC4305FA03FC4CEA040491F803C0BCF103
:10498000280F05D100F1080C08FA0CF8C2F81480C1
:1049900091F803C0BCF1480F07D100F1080C4FF0AB
:1049A000010808FA0CF8C2F81080401C0828CED381
:1049B0005460BDE8F0814FF6FF71018002218170E3
:1049C0000421C17070470246002093680B400BB170
:1049D000012000E0002070470146886880B27047DF
:1049E00002460020D3680B400BB1012000E00020FC
:1049F00070470146C86880B27047016170474161E5
:104A000070470AB1016100E041617047C1607047C1
:104A10004FF480320A4382618161826182698269D6
:104A2000704702460020434B18684FF680731840C9
:104A300040EA021008433F4B186070473E49C86186
:104A40007047F0B50A46002300240021002500F03D
:104A50000046B6F1004F02D1364EF16901E0354E05
:104A60007168C0F3034583B200F44016B6F5401FE9
:104A700008D121F070612F4E766826F070662D4FB8
:104A80007E6012E000F48016B6F5801F06D1032682
:104A900006FA05F4A14341F0706106E0460D3601C7
:104AA00003FA06F6B14341F0706122B1460D3601BA
:104AB00003FA06F6314300F00046B6F1004F02D18A
:104AC0001C4EF16101E01B4E7160F0BD30B500225B
:104AD0008B071C0F0F2303FA04F2164B08338C10BC
:104AE00053F824309343134C08348D1044F8253088
:104AF00023468C1053F824308C07240F00FA04F45A
:104B000023430C4C08348D1044F8253030BD0A493D
:104B1000DC3108607047000000080140000C0140D3
:104B2000001001400014014000180140001C014029
:104B3000002001400000014000002042DF480068E2
:104B400040F00100DD49086008464068DC49084043
:104B5000DA49486008460068DA490840D7490860E1
:104B60000846006820F4802008600846406820F469
:104B7000FE0048604FF41F0088607047CF49096805
:104B800021F48031CD4A11601146096821F4802159
:104B90001160B0F5803F03D0B0F5802F0ED106E054
:104BA000C649096841F48031C44A116007E0C3492D
:104BB000096841F4A021C14A116000E000BF00BFB4
:104BC000704710B501460022002300204A11012A37
:104BD00002D1BA4C236806E0022A02D1B74C236AFC
:104BE00001E0B64C636A01F01F02012494401C40AE
:104BF0000CB1012000E0002010BD38B5002000906D
:104C00000024002500BF3120FFF7DBFF0546009898
:104C1000401C00900098B0F5A06F01D0002DF2D09C
:104C20003120FFF7CEFF08B1012400E00024204628
:104C300038BD01460020A14A106820F0F80040EA83
:104C4000C10010607047A04908607047024600200C
:104C50009A4B586820F47C1042EA01031843974BA2
:104C60005860704798490866704701460020934A8B
:104C7000506820F003000843506070478F48406838
:104C800000F00C007047014600208C4A506820F06C
:104C9000F00008435060704701460020874A506882
:104CA00020F4E06008435060704701460020834ACA
:104CB000506820F4605040EAC1005060704729B14C
:104CC0007E4A527A02437D4B5A7204E07B4A527A02
:104CD00082437A4B5A7270477B49D83108607047DB
:104CE00001460020754A506820F440400843506057
:104CF00070470021714A20321170704A82F82010EA
:104D0000012802D004280AD104E001216B4A203294
:104D1000117005E00521694A2032117000E000BFE2
:104D200000BF70476949086070476449096A0143D8
:104D3000624A11627047654944390860704730B56E
:104D400000210022002400235C4D6D6805F00C0159
:104D500021B1042905D0082923D105E05C4D056067
:104D600022E05B4D05601FE0544D6D6805F4701244
:104D7000524D6D6805F48034022505EB92421CB952
:104D8000544D554305600BE04C4D6D6805F40035FE
:104D90001DB1504D5543056002E04D4D5543056032
:104DA00002E04B4D056000BF00BF444D6D6805F04B
:104DB000F0010909484D6B5C0568DD4045603F4DD9
:104DC0006D6805F4E061090A434D6B5C4568DD40A0
:104DD00085603A4D6D6805F46051C90A3E4D6B5CC3
:104DE0004568DD40C560354D6D6805F44041890B6F
:104DF0003A4D6B5CC568B5FBF3F5056130BD29B173
:104E00002E4A526902432D4B5A6104E02B4A5269E3
:104E100082432A4B5A61704729B1284A926902435A
:104E2000264B9A6104E0254A92698243234B9A619A
:104E3000704729B1214AD2690243204BDA6104E06C
:104E40001E4AD26982431D4BDA61704729B11B4A61
:104E5000D2680243194BDA6004E0184AD2688243F0
:104E6000164BDA60704729B1144A12690243134B9A
:104E70001A6104E0114A12698243104B1A617047AB
:104E800012494039086070470F49C86470470B49A0
:104E9000C87170470948406A40F08070074948620D
:104EA000704701460020054A92680A400AB1012075
:104EB00000E00020704701498872704700100240EE
:104EC0000000FFF8FFFFF6FE00004242800442426D
:104ED00000127A0000093D00F200002002010020CB
:104EE00010B50446FE48844208D10121C014FFF7E2
:104EF000ADFF0021E014FFF7A9FFC4E0B4F1804F3B
:104F000008D101210846FFF7AEFF00210120FFF77D
:104F1000AAFFB8E0F348844208D101210220FFF73C
:104F2000A2FF00210220FFF79EFFACE0EE48844282
:104F300008D101210420FFF796FF00210420FFF78C
:104F400092FFA0E0E948844208D101210820FFF740
:104F50008AFF00210820FFF786FF94E0E44884429E
:104F600008D101211020FFF77EFF00211020FFF75C
:104F70007AFF88E0DF48844208D101212020FFF732
:104F800072FF00212020FFF76EFF7CE0DA488442A8
:104F900008D101214014FFF759FF00216014FFF7E9
:104FA00055FF70E0D548844209D10121C804FFF7BC
:104FB0004DFF00214FF40020FFF748FF63E0D04889
:104FC000844209D101210805FFF740FF00214FF479
:104FD0008010FFF73BFF56E0CA48844209D1012107
:104FE0004805FFF733FF00214FF40010FFF72EFFB5
:104FF00049E0C548844208D101214020FFF733FF32
:1050000000214020FFF72FFF3DE0C048844208D137
:1050100001218020FFF727FF00218020FFF723FFD9
:1050200031E0BB48844208D101218015FFF71BFF06
:105030000021A015FFF717FF25E0B648844209D1EB
:1050400001210804FFF702FF00214FF48030FFF731
:10505000FDFE18E0B048844209D101214804FFF761
:10506000F5FE00214FF40030FFF7F0FE0BE0AB48F7
:10507000844208D101218804FFF7E8FE00214FF4A3
:105080008020FFF7E3FE10BD00220288944B984277
:105090000ED0994B98420BD0B0F1804F08D0914B75
:1050A000984205D0904B984202D0904B984204D140
:1050B0004FF68F731A404B881A438D4B984207D096
:1050C0008C4B984204D04FF6FF431A40CB881A43CA
:1050D00002808B8883850B880385814B98420BD097
:1050E000854B984208D08B4B984205D08A4B98420A
:1050F00002D08A4B984201D10B7A03860123838226
:10510000704770B5002400220023058C4FF6FE7610
:1051100035400584028C8388048B4FF68F752C40B4
:10512000B51E2C400D882C43751E2A400D892A433C
:105130004D882A436A4DA8420BD06F4DA84208D033
:10514000744DA84205D0744DA84202D0734DA842B8
:1051500013D14FF6F7752A404D892A434FF6FB7558
:105160002A408D882A434FF6FF652B404FF6FF55A6
:105170002B408D892B43CD892B4383800483CD889D
:105180008586028470BD70B5002400220023058C42
:105190004FF6EF7635400584028C8388048B48F601
:1051A000FF752C404FF6FF452C400D884FF6FF76DB
:1051B00006EA05252C434FF6DF752A400D8906EADD
:1051C00005152A434D8806EA05152A43444DA84291
:1051D00002D0494DA8421DD14FF67F752A404D8916
:1051E0004FF6FF7606EA05152A434FF6BF752A40AB
:1051F0008D8806EA05152A434FF6FF352B404FF2FE
:10520000FF752B408D8906EA85052B43CD8906EA7B
:1052100085052B4383800483CD880587028470BD78
:1052200070B5002400220023058C4FF6FF66354040
:105230000584028C8388848B4FF68F752C404FF643
:10524000FC752C400D882C434FF6FF552A400D89E4
:105250004FF6FF7606EA05252A434D8806EA05251E
:105260002A431F4DA84202D0234DA8421DD14FF220
:10527000FF752A404D894FF6FF7606EA05252A4339
:105280004FF6FF352A408D8806EA05252A434EF65B
:10529000FF752B404DF6FF752B408D8906EA0515ED
:1052A0002B43CD8906EA05152B4383808483CD8863
:1052B0008587028470BD70B5002200230024058C10
:1052C0004EF6FF7635400584038C8488828B48F641
:1052D000FF752A404FF6FF452A400D8820E0000068
:1052E000002C01400004004000080040000C004079
:1052F000001000400014004000340140004C014008
:10530000005001400054014000180040001C0040C3
:10531000002000400040014000440140004801409E
:105320004FF6FF7606EA05252A434DF6FF752B401A
:105330000D8906EA05352B434D8806EA05352B43D2
:10534000FA4DA84202D0FA4DA84208D14BF6FF759B
:105350002C408D894FF6FF7606EA85152C43848014
:105360008283CD88A0F84050038470BD828B4FF2B9
:10537000FF331A408283828B4FF6FF7303EA0123C7
:105380001A4382837047F0B50C461546002200216F
:105390000026078C4EF6FF7C07EA0C070784828BF9
:1053A000018C4FF6FF7707EA043640F6FF473A4094
:1053B0004FF6FF7707EA05273A434FF6FF7707EAEC
:1053C00003373A43D94FB8420ED0D94FB8420BD029
:1053D000B0F1804F08D0D74FB84205D0D64FB84271
:1053E00002D0D64FB84206D14DF6FF77394046F489
:1053F0008057394305E047F6FF57394044F480575A
:10540000394382830184F0BD828B4FF6F3731A40D7
:105410008283828B0A4382837047F0B50C4615461F
:10542000002200210026078C4FF6FF6C07EA0C07CC
:105430000784828B018C4FF6FF7707EA04264FF62C
:105440000C773A404FF6FF7707EA03172F433A43AA
:10545000B64FB8420ED0B64FB8420BD0B0F1804F25
:1054600008D0B44FB84205D0B34FB84202D0B34FC2
:10547000B84206D14FF6FF57394046F4807739439A
:1054800005E04FF2FF57394044F480773943828377
:105490000184F0BD028B4FF2FF331A400283028B6E
:1054A0004FF6FF7303EA01231A4302837047F0B5F6
:1054B0000C461546002200210026078C4FF6EF7C93
:1054C00007EA0C070784028B018C4FF6FF7707EA87
:1054D000041640F6FF473A404FF6FF7707EA0337D6
:1054E0003A434FF6FF7707EA05273A438F4FB84212
:1054F0000ED08F4FB8420BD0B0F1804F08D08D4FF7
:10550000B84205D08C4FB84202D08C4FB84206D179
:105510004FF6DF77394046F01007394305E04FF684
:105520005F77394044F01007394302830184F0BDAE
:10553000028B4FF6F3731A400283028B0A430283F5
:105540007047F0B50C46154600220021068C4FF638
:10555000FE773E400684028B018C4FF60C7632407B
:105560007E1C06EA03162E433243704EB0420ED024
:105570006F4EB0420BD0B0F1804F08D06D4EB042AC
:1055800005D06D4EB04202D06C4EB04206D14FF6FF
:10559000FD76314044F00106314305E04FF6F576E3
:1055A000314044F00106314302830184F0BD70B5FF
:1055B00005460C465D4885420ED05D4885420BD0BD
:1055C000B5F1804F08D05B48854205D05A488542E6
:1055D00002D05A48854200D100E000BF208850B96F
:1055E0002389A28861882846FFF7ABFFE188284617
:1055F000FFF79EFF25E0208804280AD12389A2888E
:1056000061882846FFF753FFE1882846FFF742FFED
:1056100017E0208808280AD12389A28861882846B3
:10562000FFF7FBFEE1882846FFF7EEFE09E023893D
:10563000A28861882846FFF7A6FEE1882846FFF782
:1056400095FE70BD2DE9F04105460C460026012768
:10565000608808B9022600E00026A088012801D150
:10566000022700E001272088A0B92389A288618849
:105670002846FFF766FFE1882846FFF759FF238990
:105680003A4631462846FFF712FFE1882846FFF7E1
:1056900001FF13E02389A28861882846FFF707FFEE
:1056A000E1882846FFF7F6FE23893A463146284628
:1056B000FFF747FFE1882846FFF73AFFBDE8F08192
:1056C0000A884B881A438B881A43CB881A430B8964
:1056D0001A434B891A438B891A43A0F84420704718
:1056E0004FF6FF71818000210180C18041800172ED
:1056F00070470021018041808180C180018141810A
:105700008181C18170470021018041800121818018
:105710000021C1800181704700210180418081808A
:10572000C18001814181818170470000002C0140CE
:10573000003401400004004000080040000C00401C
:1057400021B1028842F00102028004E002884FF693
:10575000FE731A400280704731B1B0F8442042F421
:105760000042A0F8442005E0B0F84420C2F30E0245
:10577000A0F8442070471AB183890B43838102E06B
:1057800083898B43838170478182704741EA02039A
:10579000A0F8483070471AB183890B43838102E037
:1057A00083898B438381704701894FF6F8721140DA
:1057B000018170470A46002101894FF68F73194015
:1057C00011430181704730B504460D4629462046F5
:1057D000FFF7F0FF208940F00700208130BD2DE960
:1057E000F04104460D4616461F46602D06D13B4645
:1057F000012231462046FFF75AFE05E03B460122D2
:1058000031462046FFF79DFE29462046FFF7D2FF8E
:10581000208940F007002081BDE8F08130B50C46BA
:1058200000210189C9B24FF6FF7505EA032515432A
:1058300025432943018130BD2DE9F04105460E463F
:1058400017469846002443463A4631462846FFF715
:10585000E5FF2C894FF6F870044044F007044FF63A
:105860008F70044044F070042C81BDE8F081F0B5E5
:1058700004460D4616461F463B46324629462046FC
:10588000FFF7CCFF208940F480402081F0BD0185E6
:10589000828270470A46002101884FF68F731940B3
:1058A000114301807047F0B50C4615461E46002195
:1058B000002200230189028B038C4FF6F8773940D0
:1058C00021434FF6FC473A4040F201173A434FF666
:1058D000DD773B404FF6FF7707EA06172F433B4340
:1058E000018102830384F0BD0A460021018B4FF63B
:1058F0008F7319401143018370470A460021018BC1
:1059000048F6FF7319404FF6FF7303EA0223194369
:10591000018370470A460021818B4FF68F7319402F
:105920001143818370470A460021818B48F6FF733B
:1059300019404FF6FF7303EA02231943818370472E
:1059400021B1028842F08002028004E002884FF612
:105950007F731A400280704721B1828842F00402AE
:10596000828004E082884FF6FB731A408280704781
:1059700021B1828842F00802828004E082884FF6DA
:10598000F7731A408280704721B1828842F0010289
:10599000828004E082884FF6FE731A40828070474E
:1059A0000A460021018B4FF6F7731940114301831A
:1059B00070470A460021018B4FF2FF7319404FF6E2
:1059C000FF7303EA02231943018370470A4600214B
:1059D000818B4FF6F77319401143818370470A4654
:1059E0000021818B4FF2FF7319404FF6FF7303EADA
:1059F00002231943818370470A460021018B4FF629
:105A0000FB7319401143018370470A460021018B43
:105A10004FF6FF3319404FF6FF7303EA0223194391
:105A2000018370470A460021818B4FF6FB731940B2
:105A30001143818370470A460021818B4FF6FF3363
:105A400019404FF6FF7303EA02231943818370471D
:105A50000A460021018B4FF67F73194011430183E1
:105A600070470A460021018BC1F30E014FF6FF7308
:105A700003EA02231943018370470A460021818B00
:105A80004FF67F7319401143818370470A46002106
:105A9000818BC1F30E014FF6FF7303EA0223194312
:105AA000818370470A460021018C4FF6FD7319402F
:105AB0001143018470470A460021018C4FF6F773A9
:105AC00019401143018470470A460021018C4FF6AA
:105AD000DF7319404FF6FF7303EA02131943018481
