:020000040800F2
:100000006013002055750008C9730008CB73000801
:10001000CD730008CF730008D17300080000000002
:1000200000000000000000000000000071750008E2
:10003000D37300080000000075750008D573000830
:10004000797500087D7500088175000885750008C0
:10005000897500088D750008917500089575000870
:10006000997500089D750008A1750008A575000820
:10007000A9750008AD750008B1750008B5750008D0
:10008000B9750008BD750008C1750008C575000880
:10009000C9750008CD750008D1750008D575000830
:1000A000D9750008DD750008E1750008E5750008E0
:1000B000E9750008ED750008F1750008F575000890
:1000C000F9750008FD75000801760008057600083E
:1000D000097600080D76000811760008F77300080D
:1000E00015760008197600081D76000821760008AC
:1000F00025760008297600082D760008317600085C
:1001000035760008E1730008397600083D7600086E
:100110004176000845760008497600084D760008CB
:10012000517600085576000859760008EB730008F0
:1001300000000000000000000000000000000000BF
:1001400000000000000000000000000000000000AF
:10015000000000000000000000000000000000009F
:1001600000000000000060006000600060006000AF
:1001700060006000600060006000600060002000BF
:10018000000000007000700070000000000000001F
:1001900000000000000000009801980198019801FB
:1001A00098000000000000000000000000000000B7
:1001B000000000000000000000000000000000003F
:1001C00000000000000000001003100310031803DB
:1001D0001801FF07FF07080188018801FF07FF07D3
:1001E0008C008C008C008400C40000000000000023
:1001F0000000000000002000F000F801AC032C0318
:100200002C032C003C007800E000E001A003260352
:1002100026032E03AC03FC01F000200020000000A8
:1002200000000000000000000C021E01120112017B
:100230009200920052005E002C03A00790049004EC
:10024000D004880488048407040300000000000030
:1002500000000000000000007000F8008C008C011D
:100260008C00CC00780038003C003E066606E602B2
:10027000C60386038E07FC06700000000000000025
:1002800000000000000000003000300030003000AE
:10029000300000000000000000000000000000002E
:1002A000000000000000000000000000000000004E
:1002B0000000000000000006000380018000C00074
:1002C000C00040004000600060006000400040004E
:1002D0004000C00080008001000300060000000014
:1002E00000000000020006000C00080018001000CA
:1002F00030002000200020002000200020002000EE
:1003000030001000180008000C0006000200000079
:10031000000000000000000060006000620466064B
:10032000FE07F801F000FC036E0762046000600045
:1003300000000000000000000000000000000000BD
:10034000000000000000000000000000000060004D
:100350006000600060006000FF07600060006000F7
:1003600060006000000000000000000000000000CD
:10037000000000000000000000000000000000007D
:10038000000000000000000000000000000000006D
:10039000000000000C000C000C000800040000002D
:1003A000000000000000000000000000000000004D
:1003B0000000000000000000FF0700000000000037
:1003C000000000000000000000000000000000002D
:1003D000000000000000000000000000000000001D
:1003E000000000000000000000000000000000000D
:1003F000000000000C000C000C00000000000000D9
:1004000000000000000000040004000200020001DF
:1004100080018000C000400020002000100010007B
:1004200008000C00040006000200000000000000AC
:1004300000000000000000007000F8019C030C03A5
:10044000060306060606060606060606060606064F
:1004500006030C039C03F80160000000000000008C
:100460000000000000000000400060007000780004
:100470006C0064006000600060006000600060006C
:1004800060006000600060000000000000000000EC
:100490000000000000000000F000FC018C030603D7
:1004A00006030003000380018001C00060007000AB
:1004B00038001C000C00FE070000000000000000D7
:1004C0000000000000000000F000F8010C0306032B
:1004D000060300030003E001E001800300030006BF
:1004E000060606038C03F8017000000000000000FF
:1004F000000000000000000000018001C001C001F8
:10050000E001B001B00198018C018C018601FF0F60
:10051000FF0F80018001800100000000000000004A
:1005200000000000000000000000FC030C000C00B4
:100530000C000400FE01CE030603000300060006C3
:10054000030306038603FC017000000000000000A6
:100550000000000000000000C001C000600060005A
:1005600030001800F800FC030C0706060606060615
:10057000060606060C03F803F00000000000000069
:1005800000000000000000000000FE07000600035D
:10059000000380018001C000C000600060006000B6
:1005A00030003000300018000000000000000000A3
:1005B00000000000000000007000FC010C030603B6
:1005C000060306038C03FC01FC018E0306060606E7
:1005D000060606060E03FC01F00000000000000005
:1005E00000000000000000007000FC018E03060304
:1005F00006070307060306038E03FC01F001C00093
:10060000E000600030003000180000000000000032
:1006100000000000000000000000000000000000DA
:10062000000000006000600000000000000000000A
:10063000000000006000600060000000000000009A
:1006400000000000000000000000000000000000AA
:1006500000000000600060000000000000000000DA
:10066000000000006000600060002000200000002A
:100670000000000000000000000400038001C00032
:100680006000300018000C0006000C00180030005C
:100690006000C000800100030004000000000000B2
:1006A000000000000000000000000000000000004A
:1006B0000000FF070000000000000000FF07FF0728
:1006C000000000000000000000000000000000002A
:1006D00000000000000000000200060008003000DA
:1006E0006000C00080010003000600038001C0001C
:1006F000600030000800060002000000000000005A
:1007000000000000000000007000F8019C030C03D2
:10071000060300038003C001C000600060002000E9
:1007200000000000600060006000000000000000A9
:100730000000000000000000E000180104020404B2
:10074000E20592059A05990489048904C904CA023C
:10075000BA03020004000801F000000000000000DD
:100760000000000000000000600060007000F00069
:10077000F000D8009801980198018C01FC03FC035B
:100780000E03060706060606070E0000000000001E
:1007900000000000000000003E00FE01860306038A
:1007A000060706070603FE01FE0106030606060607
:1007B000060606078603FE037E0000000000000018
:1007C0000000000000000000E000F8011C030C061F
:1007D0000E060606060006000600060006060606C9
:1007E0000E060C071C03F801E000000000000000EA
:1007F00000000000000000000E00FE00C60186039D
:100800000603060706060606060606060606060789
:1008100006038603C601FE001E0000000000000063
:100820000000000000000000FE03FE0306000600BA
:10083000060006000600FE03FE0306000600060092
:10084000060006000600FE07FE070000000000008C
:100850000000000000000000FE07FE070600060082
:100860000600060006000600FE010600060006005F
:10087000060006000600060006000000000000005A
:1008800000000000000000006000F8019C030C0361
:100890000E07060606000600C607C6070606060679
:1008A0000E060C071C07F807600600000000000099
:1008B0000000000000000000060606060606060608
:1008C000060606060606FE07FE07060606060606D6
:1008D00006060606060606060606000000000000DC
:1008E0000000000000000000600060006000600088
:1008F00060006000600060006000600060006000F8
:100900006000600060006000600000000000000007
:1009100000000000000000000007000700070007BB
:100920000007000700070007000700070607060387
:1009300006030E039C03F801700000000000000095
:100940000000000000000000060606038601C60144
:10095000E600660036003E007E00EE00C600C601DE
:100960008601860306030607060600000000000055
:10097000000000000000000006000600060006005F
:100980000600060006000600060006000600060037
:10099000060006000600FE07FE070000000000003B
:1009A00000000000000000000E070E070E078E0773
:1009B0009E079E079E079E069606F606F606F60614
:1009C00076066606660666066606000000000000FB
:1009D000000000000000000006060E060E061E06BF
:1009E0001E061E063606360666066606C606C606D7
:1009F0008607860786070607060700000000000036
:100A000000000000000000007000F8019C030E03CD
:100A10000607060606060606060606060606060675
:100A200006070E039C03F8017000000000000000A0
:100A300000000000000000003E00FE0186030606E4
:100A40000606060606060607FE03FE010600060069
:100A50000600060006000600060000000000000078
:100A600000000000000000007000F8019C030E036D
:100A70000607060606060606060606060606C60655
:100A8000C6078E039C03F8037003000000000000FB
:100A900000000000000000003E00FE018603060783
:100AA0000606060606078603FE01FE00C60086014E
:100AB0008601060306030607060600000000000084
:100AC00000000000000000007000F8018C030E031D
:100AD00006030E001C007800F001C00300070606A4
:100AE000060606070E03FC01F000000000000000EF
:100AF0000000000000000000FE07FE07600060002C
:100B000060006000600060006000600060006000E5
:100B100060006000600060006000000000000000F5
:100B20000000000000000000060606060606060695
:100B30000606060606060606060606060606060655
:100B4000060606078C03FC03F0000000000000000E
:100B50000000000000000000030607060606060766
:100B60000E030C030C038C019C0198019801D80022
:100B7000F000F00070006000600000000000000065
:100B80000000000000000000630E630663067306A9
:100B90007606F606D606D606D60696029E039E036F
:100BA0009C038C038C038C030C01000000000000EC
:100BB000000000000000000006060E030C038C017C
:100BC0009801D800F00070006000F000F00098017B
:100BD0009C010C030E03060707060000000000003E
:100BE00000000000000000000706060606030C03D4
:100BF0008C019801D800F000700060006000600077
:100C00006000600060006000600000000000000004
:100C10000000000000000000FE07FE0700030003C4
:100C20008001C001C0006000600030003800180082
:100C30000C000C000600FE07FE070000000000008C
:100C400000000000E007E007200020002000200056
:100C50002000200020002000200020002000200094
:100C600020002000200020002000E007E007000016
:100C70000000000000000000060004000C00080056
:100C800018001800100030002000600060004000D4
:100C9000C00080008001000100010003000200008C
:100CA000000000007E007E006000600060006000C8
:100CB0006000600060006000600060006000600034
:100CC000600060006000600060007E007E00000048
:100CD00000000000F000D8018C01060200000000B6
:100CE0000000000000000000000000000000000004
:100CF00000000000000000000000000000000000F4
:100D000000000000000000000000000000000000E3
:100D100000000000000000000000000000000000D3
:100D20000000000000000000000000000000FF0FB5
:100D30000000000030006000C000C00000000000A3
:100D400000000000000000000000000000000000A3
:100D50000000000000000000000000000000000093
:100D60000000000000000000000000000000000083
:100D700000000000F801FC030C030003F0037C03F7
:100D80000E0306038603FC03380600000000000083
:100D9000000000000000000006000600060006003B
:100DA00006000600F601DE030E030603060706062C
:100DB000060706038E03FE01E600000000000000A7
:100DC0000000000000000000000000000000000023
:100DD00000000000F801FC030E03060306000600F5
:100DE000060606070C03F801F000000000000000F2
:100DF00000000000000000000003000300030003E7
:100E000000030003F803DC030E03060306030603D6
:100E1000060306038C03FC037003000000000000BF
:100E200000000000000000000000000000000000C2
:100E300000000000F8019C030C030603FE070600F7
:100E4000060006070C03F801F00000000000000097
:100E500000000000000000008003E00730043000C4
:100E600030003000FE03FE03300030003000300060
:100E70003000300030003000300000000000000082
:100E80000000000000000000000000000000000062
:100E900000000000F807DC018C018C018C01DC01F2
:100EA000FC0006007C00F803060606060E03FC01A3
:100EB000000000000000000006000600060006001A
:100EC00006000600E601B6030E030E060606060639
:100ED00006060606060606060606000000000000D6
:100EE0000000000000000000000060006000000042
:100EF00000000000600060006000600060006000B2
:100F00006000600060006000600000000000000001
:100F100000000000000000000000800180010000CF
:100F200000000000800180018001800180018001BB
:100F3000800180018001800180018001FC007C0033
:100F40000000000000000000060006000600060089
:100F5000060006008603C601E60076007E00DE007D
:100F6000CE0086010603060306060000000000000E
:100F700000000000000000006000600060006000F1
:100F80006000600060006000600060006000600061
:100F90006000600060006000600000000000000071
:100FA0000000000000000000000000000000000041
:100FB000000000003B07FF07670463046304630449
:100FC000630463046304630463040000000000001E
:100FD0000000000000000000000000000000000011
:100FE00000000000E601B6030E030E060606060624
:100FF00006060606060606060606000000000000B5
:1010000000000000000000000000000000000000E0
:1010100000000000F800FC030E03060606060606A4
:10102000060606078C03F8017000000000000000AF
:1010300000000000000000000000000000000000B0
:1010400000000000F600FE030E0306030607060676
:10105000060706038E03FE01E600060006000600F2
:101060000000000000000000000000000000000080
:1010700000000000F803FC030E030603060306034A
:10108000060306038C03FC03700300030003000344
:101090000000000000000000000000000000000050
:1010A000000000008C01EC013C001C001C000C0046
:1010B0000C000C000C000C000C00000000000000F4
:1010C0000000000000000000000000000000000020
:1010D00000000000F8019C030C030C007C00F001F0
:1010E000000304030C03FC03F000000000000000F8
:1010F0000000000000000000000000003000300090
:1011000030003000FE03FE033000300030003000BD
:10111000300030003000E003C00300000000000099
:1011200000000000000000000000000000000000BF
:101130000000000006060606060606060606060667
:10114000060706078E07FC063806000000000000B0
:10115000000000000000000000000000000000008F
:1011600000000000060606030C030C038C01980126
:101170009800D000F0007000600000000000000047
:10118000000000000000000000000000000000005F
:10119000000000006306630672067606D606D602D5
:1011A00094039C039C038C018C0100000000000050
:1011B000000000000000000000000000000000002F
:1011C000000000000E038C019801F0007000700018
:1011D000F000D8018C010C0306060000000000009E
:1011E00000000000000000000000000000000000FF
:1011F00000000000060606030C030C038C01980196
:101200009800F000F0007000600060003C001C00DE
:1012100000000000000000000000000000000000CE
:1012200000000000FC03FC038001C00060007000AF
:10123000380018000C00FE03FE0300000000000050
:10124000000000008003800180008000800080009A
:10125000800080008000C000E000C00080008000AE
:1012600080008000800080008000800180030000FA
:10127000600060006000600060006000600060006E
:10128000600060006000600060006000600060005E
:10129000600060006000600060006000600060004E
:1012A000000000000E0018001800180018001800B8
:1012B000180018001800180030003000180018003E
:1012C0001800180018001800180018000E00000080
:1012D000000038047C06C603800100000000000006
:1012E00000000000000000000000000000000000FE
:1012F00000000000000000000000000000000000EE
:101300002DE9F04F80460FF21C60A5B017461D4630
:10131000D0E90023CDE91223002004910D900DF1B6
:10132000500A6FF0004900E0E7190020ADF8020014
:1013300012AB4FF0FF3239460DF1020001F089F88F
:101340000446012C04DA3878441EA441E443E40F37
:10135000BDF8020025280CBFA4F1010BA346BBF188
:10136000010F0EDB3E4616F8011B0498C04700280B
:10137000049000F0D2820D98401CBBF1010B0D903F
:10138000F1D1BDF80200252807D100200790089070
:1013900009900A900B900C9005E00028C4D10D989C
:1013A000BDE240F0010017F8011F2029F9D02329E0
:1013B0000DD02B2904D02D2906D030290AD00CE0DD
:1013C00040F0020080B2EEE740F00400FAE740F09F
:1013D0000800F7E740F01000F4E72A290ED1296849
:1013E000296051F8042B2960002A0F9204D551423C
:1013F00040F004000F9180B27F1C11E000210F919A
:1014000009E00F99494505D001EB810302EB430147
:1014100030390F917F1C3A78A2F130010A29F0D3BC
:1014200039782E2903D04FF0FF310E911DE017F8C7
:10143000011F2A2907D1296829607F1C51F8042B34
:1014400029600E9211E000210E9109E00E994945A4
:1014500005D001EB810302EB430130390E917F1C73
:101460003A78A2F130010A29F0D3ADF840000FF22A
:10147000BC40397801F002F808B117F8010B8DF87B
:1014800042009DF84200682802BF3978682962202E
:1014900005D06C2804BF38786C2803D171208DF8F2
:1014A00042007F1C14A8069017F8014BB4F12500E8
:1014B0002AD01C3800F0CB80001F022840F2C780E1
:1014C000133800F0EC80093800F0C180801E00F075
:1014D0005381401E00F02C81401E022840F2B7804C
:1014E000001F00F02581401F00F08280401E00F0A8
:1014F000D680401E2CD0C01E0BD0801E00F0CF80A6
:10150000C01E00F0CC805AE125208DF8500001204B
:101510005EE19DF842006C282868286014D050F8DD
:10152000046B286005960E9C002C04D5304600F014
:10153000B1FF044606E022460021304600F0C6FF17
:1015400000B1841B089444E150F8042B28602FE17B
:10155000296829603C2451F8040B29600021CDE959
:10156000020114A80590DDE90201069E11B908B92F
:101570000E9AB2B10206120FA0EB02123032D2B2B2
:10158000631E3A2AA8BF273200099A5540EA017023
:10159000090908BF00281C4603D0059AA3199A42DE
:1015A000E8D3A0190590C4F13C010E98089181423E
:1015B00009DA401A0A904FF6EF71BDF84000084072
:1015C000ADF8400005E1002840F103819DF840009E
:1015D00000F01400102840F0FC800F98079A801A41
:1015E0000A9A801A441A012CC0F2F3800A94F0E09F
:1015F0009DF8420062281AD0682806D06A280CD0CC
:101600006C281CD0712808D019E02868286050F890
:10161000041B28600D980880DBE02868286050F8DB
:10162000042B28600D98C117C2E90001D1E0286899
:10163000286050F8041B28600D980870C9E02868DD
:10164000286050F8041B28600D980860C1E02868E5
:10165000C01D20F007022A60D2E9000108322A608A
:10166000CDE90201002902D507982D210AE0BDF835
:101670004000810702D507982B2103E0C00705D55C
:101680000798202100F80A10401C079014A8079919
:1016900008180590214602A800F090FB99E09DF8FB
:1016A00042006C280DD0712818BF6A2809D128681B
:1016B000C01D20F007022A60D2E9000108322A602A
:1016C00005E02968296051F8040B29600021CDE963
:1016D00002019DF84200682803D1DDE9020180B2D1
:1016E0000BE0622803D1DDE90201C0B205E07428F5
:1016F00018BF7A2804D1DDE902010021CDE90201F9
:101700009DF8400000072ED5DDE90201002908BF41
:10171000002828D044F02000782824D107983021D0
:1017200000F80A10401C411C079100F80A401AE01A
:101730009DF84200294600F0FDF8CDE9020100299C
:1017400002DA07982D210AE0BDF84000810702D592
:1017500007982B2103E0C00705D50798202100F842
:101760000A10401C079014A80799081805902146F4
:1017700002A800F09FFA2CE09DF842006C2809D0E6
:10178000012007902868286050F8041B28608DF815
:1017900050101EE02868286001AA50F8041B286039
:1017A000ADF804100020ADF806004FF0FF300E90A9
:1017B00002A9404600F0F5F800280AD5ADE0252042
:1017C0008DF85000012007901CB18AF801400220DA
:1017D00007900F980799401A0A99401A0899401AD9
:1017E0000B99401A0999401A0C99441A9DF8400027
:1017F000400710D420208DF80000002609E00123C6
:101800006A4602A9404600F000FE002840F08580AC
:10181000761CA642F3DB079E0DF1500B0AE01BF885
:10182000011B0498C0470028049076D00D98401CF6
:101830000D90761E002EF2D130208DF800004FF072
:10184000000B0A9E09E001236A4602A9404600F007
:10185000DCFD002861D10BF1010BB345F3DB089EE1
:10186000DDF814B00AE01BF8011B0498C0470028FB
:10187000049052D00D98401C0D90761E002EF2D18F
:1018800030208DF800004FF0000B0B9E09E0012383
:101890006A4602A9404600F0B8FD00283DD10BF190
:1018A000010BB345F3DB05980899099E01EB000B8A
:1018B00009E01BF8011B0498C047049068B30D9819
:1018C000401C0D90761E002EF3D130208DF80000C4
:1018D0004FF0000B0C9E08E001236A4602A9404627
:1018E00000F093FDC8B90BF1010BB345F4DB9DF893
:1018F000400040077FF519AD20208DF8000000263C
:1019000000E0761CA642BFF610AD01236A4602A98C
:10191000404600F07AFD0028F3D04FF0FF3025B0AC
:10192000BDE8F08F0000000000000000686A6C74E1
:101930007A4C0000622826D068281DD06A2808D07A
:101940006C2827D0712804D0742823D07A280CD092
:1019500020E00868C01D20F007000860D0E90023DF
:10196000083008601946104670470A680A6052F845
:10197000040B0A60002170470A680A6052F8040BE1
:101980000A6000B20BE00A680A6052F8040B0A60B1
:1019900040B204E00A680A6052F8040B0A60C117FA
:1019A00070472DE9F44F0D4694B0D5F830B0BBF137
:1019B000000F804648BF6FF0004B00F0B3FD696B2D
:1019C000401801900FF67020D0E90023CDE90223E2
:1019D00095F83800400702D40198412806D24020EB
:1019E0000DF1100A01904FF0000909E000F0A0FD90
:1019F0005FEA000AF7D14FF0FF3058E1ABEB040B80
:101A0000BBF1010FC0F2CD801498018802AA0DF13C
:101A1000010000F0E5FD0028044600F1D58014988F
:101A2000008810B9641E00F1CF80A345C0F2B980D0
:101A3000686901992218914280F0A180296AC5F84D
:101A400034904042401AA969401A696A401AE9690B
:101A5000401AA96AA0EB010995F83800400710D494
:101A600020208DF80000002609E001236A4629465F
:101A7000404600F0CAFC002840F0A680761C4E4587
:101A8000F3DB6E6957460BE017F8011BA868C047E7
:101A90000028A86000F09880E86A401CE862761E82
:101AA000002EF1D130208DF8000000272E6A09E0C9
:101AB00001236A462946404600F0A7FC002840F072
:101AC00083807F1CB742F3DBAE69EF680AE017F84A
:101AD000011BA868C0470028A86075D0E86A401CB0
:101AE000E862761E002EF2D130208DF8000000272B
:101AF0006E6A08E001236A462946404600F085FCEC
:101B0000002861D17F1CB742F4DBE868A969EE695F
:101B10000F180AE017F8011BA868C0470028A86042
:101B200052D0E86A401CE862761E002EF2D13020C6
:101B30008DF800000027AE6A08E001236A462946B6
:101B4000404600F062FC00283ED17F1CB742F4DB27
:101B500095F8380040070ED520208DF800000026AB
:101B600007E001236A462946404600F04EFC58BB78
:101B7000761C4E45F5DB4FF00009C5F8149022465F
:101B800068690DF10101504400F038FD68692018C2
:101B900068611498801C1490801E008800287FF4CF
:101BA0002DAF686B6969401A296A401AA969401A01
:101BB000696A401AE969401AA96A471A95F8380013
:101BC000400710D400240CE04FF0FF3968E0A8680B
:101BD0002021C0470028A860F6D0E86A401CE862CF
:101BE000641CBC42F3DB6B6952462946404600F058
:101BF0000CFC0028E8D12C6A002609E0A8683021F6
:101C0000C0470028A860DFD0E86A401CE862761C64
:101C1000A642F3DBAB69EA682946404600F0F5FBD3
:101C20000028D1D16C6A002609E0A8683021C0479D
:101C30000028A860C8D0E86A401CE862761CA6426A
:101C4000F3DBE868A969EB690A182946404600F009
:101C5000DCFB0028B8D1AC6A002609E0A868302176
:101C6000C0470028A860AFD0E86A401CE862761C34
:101C7000A642F3DB95F8380040070DD5002409E0B3
:101C8000A8682021C0470028A8609DD0E86A401CB1
:101C9000E862641CBC42F3DBC5F81490C5F83490CC
:101CA00004A882451CBF504600F0E4FC484615B02D
:101CB000BDE8F08F2DE9FA4E05460A462F696F2AD6
:101CC00008BF082405D041F02000782814BF0A245A
:101CD00010243C26D5E90001642A18BF692A8146F0
:101CE0008A4605D1002903DAD9F100096AEB4A0ACC
:101CF000BAF1000F08BFB9F1000F0CD1286B50B931
:101D0000082C36D195F83800000732D530203B2614
:101D100087F83B002DE0E31748465146224600F085
:101D2000E9FCA4FB0023A9EB02023032D2B2A6F1F7
:101D3000010B3A2A5E4603DB9DF80030513B9A18AE
:101D40000BF8072081465FEA010A08BFB9F1000FCE
:101D500003D0E868F1198842DDD3082C09D195F841
:101D60003800000705D5F05D302802D0761E3020FF
:101D7000F055C6F13C00A861F119E960296B884271
:101D800008DA081A28624FF6EF71288F0840288772
:101D9000BDE8F38E00290ED595F8381001F0140136
:101DA000102908D1696B6A69891A2A6A891A0E1A78
:101DB000012EA8BF2E62BDE8F38E00002DE9F24F80
:101DC00004468EB0D4E90001CDE9020104AF9DF8CC
:101DD000380040F0200BBBF1610F0AD0206B0028C7
:101DE00048BF062004D408BFBBF1670F01D1012012
:101DF00020636168C1F30A5040F2FF7290421CD127
:101E0000080304BF2068002809D10320A0619DF8C1
:101E1000380061381A2836D30FF2306108E0032009
:101E2000A0619DF8380061381A2829D30FF2146197
:101E3000E068032200F0E2FBBEE1012816DA20464A
:101E400000F0CFFC012811DB00250020BBF1610F61
:101E500020D1E168302201F8012B4A1CE2609DF894
:101E60003820612A0CBF782258220FE0626840F2C5
:101E7000FE3161F31E52451A62604FF0FF30E5E714
:101E80000FF2BC51D4E70FF2C051D1E70A7061697B
:101E9000891C616110B90026002584E1BBF1610F46
:101EA00040F09780206B00284CBF2126461CD4E9C7
:101EB00000ABDDE902010022002300F0B3FC36B2E2
:101EC0003ABF8BF00040CDE902A0CDE902AB06F1AC
:101ED00001082D1F8DF810200DF1110700E0C71D1E
:101EE000B8F1010F33DBDDE902010022002300F02D
:101EF000B1FC2CD21C2102A800F0C4FCDDE90201D7
:101F000000F046FDA8F10708B8F1010F814609DB92
:101F100000F06AFD02460B46DDE9020100F07CFD9F
:101F2000CDE90201F81D072105E009F00F0200F8D4
:101F3000012D4FEA2919B9F1010F01DB491EF4D532
:101F4000491E5CBF002200F8012DF9D5C7E70DF14D
:101F50001100391AB142B8BF0E4636B230000DF149
:101F600011072FD4884206DA04A9411849780829B4
:101F7000A8BF0F2100DA002104AA821800E0761E13
:101F800012F80139401E8B42F9D00F2904D104A95F
:101F900041184A78521C4A70002802D504AF761CBA
:101FA0002D1D36B2701E0DD4C1190A783032D2B24E
:101FB0003A2A03DB9DF838303A3B9A18401E01F864
:101FC0000129F2D5206B002840F1ED80701E2063BE
:101FD000E9E0DDE902010022002300F023FC3CBF20
:101FE00081F00041CDE902012DB247F297506843DC
:101FF0004B49DFF8309190FBF1F52DB2C5F1070A9E
:10200000BAF1010F90461CDBDDE902675FEACA7096
:1020100007D542464B463046394600F0BDFD0646E0
:102020000F464046494642464B464FEA6A0A00F090
:10203000B3FDBAF1000F80468946E7D1CDE90267CA
:1020400024E0CAF1000A0026374F14E05FEACA70A4
:1020500007D542464B463046394600F09DFD0646C0
:102060000F464046494642464B4600F095FD4FEA32
:102070006A0A80468946BAF1000FE7D1DDE902011C
:1020800032463B4600F05AFECDE90201BBF1660F35
:102090000CBF05F10A000620216BDFF8909046186E
:1020A000142EA8BF132630208DF810000DF1110753
:1020B000012E3DDBDDE9020100F080FC07F10801A3
:1020C00004220A23B0FBF3F303EB8307A0EB4700E2
:1020D000303001F8010C0A20B3FBF0F000EB800770
:1020E000A3EB47033033521E01F8023DE9D1083E0D
:1020F000012E01F10807DBDBDDE9020100F05EFCE7
:1021000000F07CFC02460B46DDE9020100F084FC95
:1021100000224B4600F040FDCDE90201CAE700BFB6
:10212000A0860100000024400000F03F84D79741C2
:102130000DF11100381A0DF1110702E0401E6D1E5D
:102140007F1C39783029F9D0BBF1660F02D12DB24E
:10215000691C04E0BBF1650F0CBF01210021226B5B
:102160008E1836B2B042B8BF064636B231001AD425
:10217000814204DAC85D3528A8BF392000DA302052
:10218000CA19521E00E0761E12F80139491E834218
:10219000F9D0392802D1C85D401CC855002902D5A4
:1021A0007F1E761C6D1C2DB29DF83810009533B241
:1021B0003A46204600F003F80FB0BDE8F08F2DE955
:1021C000F04786B006468A4690461D4600F0FFFE60
:1021D000012D406A376B90F8009002DA01250FF26A
:1021E00070284AF02000BDF93840662808BF641CFA
:1021F00012D0672876D114F1040F79DBBC4277DA6C
:1022000096F83800641C000702D4BD42B8BF2F46C0
:1022100024B23F1B48BF002724B2F068B169012CEB
:1022200021DA4A1C30230B54012F03DA96F83810B8
:10223000090702D502F80090521CB261E742B8BF0C
:102240007C4224B26142E7197162AF42B8BF3D4699
:10225000B3692DB2F5612A464146181800F0CEF94F
:10226000781BB062BAE00818A54216DA2A46414641
:1022700000F0C4F9B1696918601B012FB161706287
:1022800003DA96F83800000705D5F06801F80090E9
:10229000F069401CF061B762A0E02246414600F0C0
:1022A000ADF9B06920182D1B012F03DA96F838100C
:1022B000090703D5F16800F80190401C2DB2B06108
:1022C000AF42B8BF3D46F068B3692DB22A4604EB71
:1022D0000801181800F092F9B0692818B061781B4D
:1022E00070627BE0BAF1610F14D14FF0700A16E012
:1022F000BD4204DA96F83810090758BF2F467F1EF2
:1023000048BF0027BAF1670F14BF4FF0450A4FF0DE
:10231000650A04E0BAF1410F08BF4FF0500AB169F5
:10232000F0684A1CB261012F18F8013B0B5403DA24
:1023300096F83810090715D5531CB36102F80090C0
:10234000012F0FDB6D1E2DB2AF42B8BF3D462DB23F
:102350002A464146181800F051F9B0692818B061B2
:10236000781B7062F068B1690918200081F800A03C
:1023700004D42B20487001F1020804E02D224A7099
:1023800001F102086442002502AF08E00A22684613
:1023900000F036FE019807F8010B6D1C009C21B27D
:1023A0000129F3DA022D06DA4AF02000652804BF7D
:1023B000302008F8010B4DB9302008F8010B07E078
:1023C0006D1E02A8285C303008F8010B012DF7DAE9
:1023D000F068B1690818A8EB0000F06196F83800C1
:1023E00000F0140010280DD17069B1690818716AE5
:1023F0000818F1690818B16A0818716B8842BCBFE7
:10240000081A306206B0BDE8F087F8B504460D46FC
:1024100016461F46002004E0E86A401CE8627F1E62
:10242000002047B116F8011BA868A0470028A86043
:10243000F2D14FF0FF30F2BD0000000000000000BC
:102440006E616E004E414E00696E6600494E460058
:102450003000F8B504460D4616461F4600F0D8FD7C
:102460003B4632462946204601B0BDE8F04000F028
:10247000E6BD0268531C0360117070470278C9B250
:102480008A421AB11CBF10F8012FF9E718BF0020CB
:102490007047010200F10103810704D010F8011B0D
:1024A00089B18107FAD10268B2F10131914311F08B
:1024B000803F04BF50F8042FF6E710F8011B11B15C
:1024C00010F8011BFBE7C01A70470000C9B2830770
:1024D00006D0521E22D310F8013B9942F7D11FE0DB
:1024E000083A13D302F1040241EA012141EA014111
:1024F00050F8043B121F21BF4B40A3F1013C2CEAD2
:10250000030C1CF0803FF3D0C9B2001F083210F852
:10251000013B521E28BF91EA030FF8D818BF0120D3
:10252000401E704780B500F073FD012002BD000021
:1025300070B5054605F10F00C408C046C046E4006A
:10254000A54232D2082C04D2082402E0083000F060
:1025500091F82248026811000CD1011D0A6802B3EB
:102560001368A34238BF111DF8D310E01D68A542BF
:102570000DD2191D0B68002BF8D11268011D00E067
:10258000191D0B6893420CD01D68A542F8D361B1A8
:102590000D682A68A2F10803A3420AD26A680A6099
:1025A0000FE000F06FFD0028D0D1C046C0460020EB
:1025B00070BD63190B60121B6E685E600B681A6059
:1025C0002C60096800291DBF4A68002A091D0021E6
:1025D0000160C046C04605F1080070BD44030020FC
:1025E00070B504460D46164600F012FD32462946E7
:1025F0002046BDE8704000F015BD000062B38B07B7
:1026000008D0521E11F8013B00F8013B00F0248075
:102610008B07F6D1830740F0208000BF103A07D324
:1026200030B4B1E83810103AA0E83810F9D230BC14
:10263000530724BFB1E80810A0E8081044BF51F8C0
:10264000043B40F8043BD20724BF31F8022B20F8AA
:10265000022B44BF0B7803707047083A07D3B1E8E8
:102660000810083A40F8043B40F804CBF7D253076F
:10267000E4E7000000B9704738B5A0F1080420680D
:10268000082833D310F0070F30D1C046C046184891
:10269000416809B18C4203D26160446017E0194679
:1026A0004B680BB1A342FAD30B685D18AC421BD345
:1026B000A54204D12268D2180A600C4607E04A6895
:1026C0001AB123681B199A420ED362604C6061688C
:1026D00051B1226813198B4206D1002303600868A8
:1026E0008018206048686060C046C04631BD000068
:1026F000440300201B4213D1094236D12AB184463B
:10270000B0FBF2F002FB10C2704700F0D1BCFCD36A
:102710000022002370470B000200002100207047B8
:10272000904271EB030CF6D370B5B1FA81F4B3FAB1
:1027300083F52C1BA340C4F1200532FA05F6334380
:10274000A2405FF00046E64002E05B085FEA32022A
:10275000841A71EB030524BF204629467641F4D341
:1027600002000B003000002170BD012ACFD970B5E6
:10277000140C20D0B1FA81F4B2FA82F5C4F120042D
:102780006419B4F12006D6D3B2405FF00044F4409F
:10279000002502E052085FEA3303C61A71EB020E0D
:1027A00024BF3046714664416D41F3D302000B00F3
:1027B0002000290070BD0C46B1FBF2F102FB11456F
:1027C0002D0445EA1045B5FBF2F402FB145580B226
:1027D00040EA0545B5FBF2F002FB105240EA044026
:1027E00070BD30B4436803F0004201211B031B0B92
:1027F000436004BF0368002B08D10DE00368DD0FC0
:1028000045EA440444605B000360491E4468E302F7
:10281000F4D523031B0B436043681A434260084608
:1028200030BC70474FF4001C1CEB410F94BF1CEBF5
:10283000430F09E041EA030C50EA4C0C52EA0C0C3D
:1028400003D2994208BF9042704714BF8B42824224
:10285000704700004FF4001C1CEB410F94BF1CEBB1
:10286000430F09E041EA030C50EA4C0C52EA0C0C0D
:1028700003D28B4208BF8242704714BF99429042F4
:102880007047000070B504460D466068C0F30A50FA
:1028900040F2FF71884207D16068000304BF2068DE
:1028A000002817D0022070BD20B92046FFF799FFFD
:1028B000012866DA012D0FDB40F2FF71091A8D4203
:1028C0000AD36068002847BF00202F4900202F4905
:1028D000C4E90001012070BD4142A942616806DAE5
:1028E0006FF31E51401941EA0050606040E0401E05
:1028F00063684519012205F1350062F31F5335283D
:1029000001F00041636003D361600020206070BD6E
:10291000002015F11F0F04DA206823600022203503
:1029200062606A4212D0401E25688041C2F12003D5
:10293000C0439D4045EAD07025686668D54006FAD8
:1029400003F32B4323606368D340636062680A43E8
:10295000B0F1004F626003D80DD12078C0070AD5CE
:102960002068401C2060206828B96068401C6060B6
:102970004FF0FF3070BD6068884204BF20680028B7
:10298000F6D1002070BD00BF0000F0FF0000F07F16
:10299000F446400D40EAC120490006D200F014F888
:1029A000004248BF6FF00040604700F00DF84FF064
:1029B000004188428CBF084640426047400D40EAD3
:1029C000C120490080F00D8040F00040490DA1F584
:1029D0008061491C05D4D1F11F0154BFC840C01704
:1029E00070474FF000007047010040F10980F44645
:1029F000404200F005F851F000416047010000BF7F
:102A000009D0B0FA80F18840C91CC1F5846109057C
:102A100001EBD02140057047F0B44FF0004591EA3A
:102A2000030F44BF6B4000F045BB00BF841A71EB3D
:102A3000030604D26E40001BB141121973414FF4DA
:102A4000001C1CEB410F34BF7CEB430684E00C0DF3
:102A5000A4EB1356362E7DDC012E43DC45EAC3235E
:102A600043EA525312BFD20292025B08240545EAA0
:102A7000C12141EA5051D2EBC020994125D407D160
:102A8000B0FA80F610FA06F164D00020203608E093
:102A9000B1FA81F6B140C6F1200220FA02F21143E8
:102AA000B0404FEAF474B4EB465434F001064FEAF8
:102AB00074040AD8D6F50016760D04F00044F040F0
:102AC00061FA06F25040F1404840C00A40EA4150E5
:102AD00021F0004128BF5FEA500550F1000044EBAF
:102AE000D12137E045EAC323DB0A45EAC121C90AFF
:102AF000B6F120050EDD42EA0242120CC5F12006B5
:102B000003FA06F6EB4042EA06056D42984161F190
:102B100000010DE062FA06F5F240554063FA06FC4A
:102B200082EA0C02F3405A406D42904161EB03018E
:102B300011F4801F05D1641E620502D06D00404172
:102B4000494121F48011430875F1004350F1000020
:102B500041EB0451F0BC70471CEB410F15D223F040
:102B6000004352EA43060BD04FEA4C0CBCEB410F3A
:102B700004D80C0D661E342EB7DDEBE7801A9941A0
:102B800050EA410608BF0021E4E708BF1CEB430FF1
:102B900028BF6FF00001DDE7B0B581EA030C0CF04F
:102BA000004C40F2FF7515EA11541DBF15EA13578A
:102BB000AC42AF4239E0E41923EA455343F48013B1
:102BC000C90241F0004141EA505EC7021100A7FB73
:102BD000020200284FF00000EEFB01204FF0000140
:102BE000E3FB072118BF42F00102401800214941D0
:102BF000E3FB0E01A4F580640F0302D252004041B2
:102C0000494154F101046CDD470872F1004250F172
:102C1000000051EB0451A1F580115CBF41EA0C01A9
:102C2000B0BD4CEA05510020B0BD05EA1357AC42D7
:102C300014BFAF4241E050EA410E1CBF52EA430EBE
:102C400002E061460020B0BD24423C441BD15FEA53
:102C5000070EF6D0090302BF01460020AEF1140EA4
:102C6000B1FA81F7AEEB070401FA07FE0C37C7F1A2
:102C7000200100FA07F7C8404EEA000E23EA455348
:102C800043F48013A2E733F00043B3FA83F704BFA1
:102C9000B2FA82FE77440B3FE41BB7F1200E2FBF40
:102CA00002FA0EF3BB40C7F1200E22FA0EFE38BF27
:102CB00043EA0E03BA40641C82E750EA410E14BF97
:102CC00052EA430E6FF000014FF4001717EB430F69
:102CD0008ABF194617EB410FB5E74CEA05510020B2
:102CE000B0BDD4F10104B4F120070FDAC4F120071C
:102CF000520828BF42F0010210FA07F501FA07F75F
:102D0000E1BF2A43E0403843E1400FE0352C98DC36
:102D1000C7F1200452EA400220FA07F218BF42F03D
:102D2000010231FA07F0A1400A43002172F100428A
:102D300050F1000051EB0C01B0BD00002DE9F04155
:102D400040F2FF7581EA030C0CF0004C15EA1154B7
:102D50001DBF15EA1357AC42AF42E9E0BC41C1F3D5
:102D60001301C3F31303801A994143F4801304D26F
:102D7000641E4000494180185941C90241EA50513E
:102D8000B1FBF3F603FB1611A2FB0675D7EBC020CF
:102D9000A94102D2761E80185941C90241EA505118
:102DA000B1FBF3FE03FB1E11A2FB0E75D7EBC02097
:102DB000A94103D2AEF1010E80185941890241EABE
:102DC0009051760546EA8E2EB1FBF3F603FB161101
:102DD000A2FB0675D7EB8020A94102D2761E80188F
:102DE0005941C90241EA50514EEA060EB1FBF3F6D1
:102DF00003FB1611A2FB0675D7EBC020A94102D236
:102E0000761E80185941C90241EA5051B1FBF3F7CF
:102E100003FB1711A2FB0735D3EBC020A94167F1D3
:102E200000070CBF004247F0010766F3D5274FEAC1
:102E30001E31B80814F5806414DDBD0775F1004239
:102E400050EB0E5051EB045111F5801F5CBF41EA6D
:102E50000C01BDE8F0814CF07F6141F0E0410020C1
:102E6000BDE8F081BD076D0840EA0E5041F48011C5
:102E7000D4F10104B4F120060ADAC4F120060200FC
:102E8000E04001FA06F3E1401843B24015430EE07A
:102E9000342C14DCC6F1200445EA40056D0820FA04
:102EA00006F2154321FA06F0A1400D43002175F109
:102EB000004250F1000051EB0C01BDE8F081002010
:102EC0005FEA0C01BDE8F081CFB992185B41B3FA1B
:102ED00083F704BFB2FA82F6BF190B3FB7F12006A1
:102EE0002FBF02FA06F3BB40C7F1200622FA06F60E
:102EF00038BF3343BA401CB1E419641E2FE77F4248
:102F000031F00041B1FA81F404BFB0FA80F6A4199F
:102F10000B3CB4F120062FBF00FA06F1A140C4F12A
:102F2000200620FA06F638BF3143A0403C1B16E7C6
:102F3000AC421ABF05EA1357AF4214E050EA41060B
:102F40001CBF52EA4306BFE750EA410730466146DC
:102F50001CBF41EA0551BDE8F08152EA430C08BFAD
:102F6000C143BDE8F08100204FF4001616EB410F7D
:102F700098BF16EB430F08BF16EB410F24BFC143A8
:102F800005E016EB430F0CBF61464CEA0551BDE866
:102F9000F081000080B5134800F0F6F80FF24C0203
:102FA0000FF244010160426241600FF24402826309
:102FB00081600FF24402C1600161416181618162FF
:102FC000C16201634163C2630164416401BD10B524
:102FD000044800F0D9F80446206808B9FFF7DAFF82
:102FE000204610BD00000020000000002E00000060
:102FF00066616C7365000000747275650000000006
:1030000091FBF2F303FB1211C0E90031704700009D
:1030100080B5DFF80C0000F0B7F8806902BD000051
:103020009000002030B430B90FF24800D0E90045DC
:10303000C2E900451BE00170012030BC704730B48C
:1030400031B90FF23800D0E90045C3E900450EE080
:103050001AB930BC6FF00100704708B10A780280DD
:103060000978481E804130BCC043C00F7047002023
:1030700030BC7047000000000000000000000000AD
:10308000000000000749086808B1002070470648A2
:10309000C008C00008600549C908C900091A0160D4
:1030A000704700BF58030020671300206015002000
:1030B00070470000841A71EB030603D2001BB14174
:1030C000121973414FF4001C1CEB410F34BF7CEB11
:1030D000430443E00C0DA4EB1356352E50DC45EAB7
:1030E000C323DB0A45EAC121C912B6F120050DDD73
:1030F00063FA05F6EB4086EA0305124218BF45F075
:103100000105C01851F100010CD213E062FA06F576
:10311000F2405540F3415A40B340F3405A408018C2
:10312000594107D349085FEA30005FEA350528BFF7
:1031300045F0010501F58011420875F1004250F19A
:10314000000041EB0451F0BC4FF4001C1CEB410F9C
:1031500038BF70470020090D090570471CEB410F6F
:1031600010D252EA43060BD0BCEB410F05D80C0D30
:10317000AB43661E342EB5DD02E0AB4380185941E7
:10318000F0BC7047F0BC70477047000000B585B0D8
:10319000DFF8A8080068002840F0AF800120DFF8C1
:1031A0009C180860DFF89808006850F48070DFF819
:1031B00090180860DFF88808006810F480700090AC
:1031C0000098DFF87C08006850F08000DFF8701885
:1031D0000860DFF86C08006810F08000009000982C
:1031E000DFF85C08006850F08000DFF854180860D1
:1031F000DFF84C08006810F0800000900098DFF8BD
:103200004008006850F08000DFF834180860DFF8EC
:103210003008006810F0800000900098DFF8200867
:10322000006850F04000DFF818180860DFF8100858
:10323000006810F0400000900098DFF80408006873
:1032400050F02000DFF8F8170860DFF8F407006896
:1032500010F0200000900098DFF88408006850F417
:103260008070DFF87C180860DFF87408006810F4DC
:1032700080700090009801200190022002900320AD
:10328000049001A9DFF85C0800F0D8FD4FF48050ED
:103290000190022002900320049001A9DFF8480861
:1032A00000F0CCFD4FF680700190022002900320C8
:1032B000049001A9DFF8340800F0C0FD4CF233702F
:1032C0000190022002900320049001A9DFF8200859
:1032D00000F0B4FD00224FF48061DFF8080800F030
:1032E00018FF4FF4806001900120029002200490AA
:1032F00001A9DFF8F00700F0A1FD05B000BD10B591
:103300000400FFF743FF10BD00B587B05FF0204019
:10331000DFF8E0180860DFF8E008DFF8D818486048
:103320000620DFF8D01888600020DFF8C818C860D1
:103330000020DFF8C01808611020DFF8B8184861D5
:103340000020DFF8B01888610020DFF8A818C861F5
:103350000020DFF8A01808620020DFF89818486203
:103360004FF48050DFF88C1888620020DFF8841852
:10337000C8620020DFF87C1808630020DFF87418AA
:1033800048630020DFF86C1888630220009000205A
:10339000019005200290002003900020049000205E
:1033A0000590002006906A466946DFF8480800F05C
:1033B000DFFEDFF84808006850F48060DFF83C1852
:1033C000086007B000BD80B5E0205FF0D8410880FC
:1033D0000020DFF82C1808800720DFF82418088068
:1033E0001020DFF81C1808800920DFF81418088066
:1033F0001720DFF80C1808800B20DFF8041808806D
:103400004120DFF8FC1708808920DFF8F4170880D6
:103410004B20DFF8EC1708800A20DFF8E41708805B
:103420000C20DFF8DC1708800E20DFF8D4170880A6
:103430001820DFF8CC1708801B20DFF8C41708809D
:103440000F20DFF8BC170880E1205FF0D84108802A
:103450000020DFF8AC1708801720DFF8A4170880D9
:103460001A20DFF89C1708800420DFF894170880E2
:103470000E20DFF88C1708800620DFF884170880FC
:103480002F20DFF87C1708804520DFF874170880AC
:103490004320DFF86C1708800220DFF864170880EB
:1034A0000A20DFF85C1708800920DFF8541708802D
:1034B0003220DFF84C1708803620DFF844170880E8
:1034C0000F20DFF83C170880F7205FF0D841088014
:1034D000A920DFF82C1708805120DFF82417088076
:1034E0002C20DFF81C1708808220DFF814170880D2
:1034F000C0205FF0D84108801120DFF80417088051
:103500000920DFF8FC160880C1205FF0D841088050
:103510004120DFF8EC160880C5205FF0D841088014
:103520000020DFF8DC1608800A20DFF8D4160880B7
:103530008020DFF8CC160880B1205FF0D8410880E9
:10354000B020DFF8BC1608801120DFF8B416088020
:10355000B4205FF0D84108800220DFF8A41608806C
:10356000B6205FF0D84108800220DFF8941608806A
:103570002220DFF88C160880B7205FF0D841088041
:10358000C620DFF87C160880BE205FF0D841088096
:103590000020DFF86C1608800420DFF8641608802D
:1035A000E9205FF0D84108800020DFF85416088039
:1035B000012000F065F83A205FF0D84108805520DE
:1035C000DFF83C16088011205FF0D8410880782091
:1035D00000F028FE29205FF0D841088001BD82B0AC
:1035E00004205FF0D8410880DFF814060088ADF8A9
:1035F0000000DFF80C060088C0B2ADF80200DFF86A
:1036000000060088C0B2ADF80400DFF8F4050088B9
:10361000C0B2ADF80600BDF80200BDF80410090202
:1036200011EB0040BDF80610081802B0704780B5D5
:10363000FFF76AFEFFF7D3FFDFF8C8150860DFF871
:10364000C4050068DFF8C015884206D0DFF8B4056D
:10365000006848F26601884201D1FFF7B4FE0020FD
:1036600000904FF4F0734FF4A0720021002000F09E
:1036700027F9142000F0D6FDDFF88805006802BDA8
:10368000C0B2012808D0C0F0CA80032866D034D365
:10369000042800F09480C2E036215FF0D842118007
:1036A0000821DFF85C2511802A215FF0D8421180C3
:1036B0000021DFF84C2511800021DFF8442511801E
:1036C0000121DFF83C2511803F21DFF834251180EE
:1036D0002B215FF0D84211800021DFF824251180D2
:1036E0000021DFF81C2511800121DFF8142511804D
:1036F000DF21DFF80C25118091E036215FF0D84200
:1037000011806821DFF8F82411802A215FF0D84267
:1037100011800021DFF8E82411800021DFF8E02487
:1037200011800121DFF8D8241180DF21DFF8D024B7
:1037300011802B215FF0D84211800021DFF8C024D6
:1037400011800021DFF8B82411800121DFF8B024B6
:1037500011803F21DFF8A824118060E036215FF05E
:10376000D8421180C821DFF8982411802A215FF007
:10377000D84211800021DFF8882411800021DFF871
:10378000802411800121DFF8782411803F21DFF8A7
:10379000702411802B215FF0D84211800021DFF8C6
:1037A000602411800021DFF8582411800121DFF806
:1037B000502411803F21DFF8482411802FE036216A
:1037C0005FF0D8421180A821DFF8342411802A212B
:1037D0005FF0D84211800021DFF8242411800021FD
:1037E000DFF81C2411800121DFF814241180DF216F
:1037F000DFF80C2411802B215FF0D84211800021CA
:10380000DFF8FC2311800021DFF8F423118001216F
:10381000DFF8EC2311803F21DFF8E42311802C2115
:103820005FF0D8421180704730B42A245FF0D84549
:103830002C800400A4B2240ADFF8C4532C80C4B244
:10384000DFF8BC532C8080B292B21418641E24128C
:10385000DFF8AC532C801418641EE4B2DFF8A053D8
:103860002C802B245FF0D8452C800C00A4B2240AB5
:10387000DFF88C532C80CCB2DFF884532C8089B2D3
:103880009BB25C18641E2412DFF874532C805C1801
:10389000641EE4B2DFF868532C8030BC704710B46B
:1038A00000222C235FF0D844238000231A00824298
:1038B00004D2DFF84C331980521CF8E710BC704773
:1038C0002DE9F04105000E0017009846069C43467E
:1038D0009BB23A0092B2310089B2280080B2FFF761
:1038E000A3FF210089B2BFB21FFA88F808FB07F0D6
:1038F000FFF7D5FFBDE8F0812DE9F44F05000E007C
:103900001F000A9C9DF90000203881469DF92C007B
:10391000102836D110230822310089B2280080B245
:10392000FFF782FF2C205FF0D841088000208246FC
:103930005FFA8AFABAF1100F7DDADFF8D0025FFA87
:1039400089F910EB09105FFA8AFA1AF8000080462C
:10395000002083465FFA8BFBBBF1080F0EDA5FEAAB
:10396000C87002D5A648048001E0A54807805FFA28
:1039700088F85FEA58081BF1010BEBE71AF1010A1E
:10398000D6E718230C22310089B2280080B2FFF755
:103990004BFF2C205FF0D8410880002082465FFA60
:1039A0008AFABAF1300F46DA99485FFA89F930217C
:1039B00001FB09005FFA8AFA1AF80000804600202D
:1039C00083465FFA8BFBBBF1080F0EDA5FEAC87023
:1039D00002D58B48048001E0894807805FFA88F8A7
:1039E0005FEA58081BF1010BEBE71AF1010A88485E
:1039F0005FFA89F9302101FB09005FFA8AFA1AF8A7
:103A000000008046002083465FFA8BFBBBF1040F69
:103A10000EDA5FEAC87002D57948048001E0784880
:103A200007805FFA88F85FEA58081BF1010BEBE7A3
:103A30001AF1010AB3E7BDE8F18F0000500300203E
:103A4000181002402DE9F84304000D0016007148DB
:103A50000078002804D000F0F7FB00206D490870C2
:103A6000287880466878814676B2102E16D15FFAA3
:103A700088F85E205FFA89F900FB0890664908180B
:103A80004FF480714843082190FBF1F00700202299
:103A900017F52041200000F06CFC15E05FFA88F873
:103AA0005E205FFA89F900FB08905B4908184FF423
:103AB00010714843082190FBF1F00700482217F5E8
:103AC0009621200000F055FC2078FF2804D1607872
:103AD000FF2801D1002000E00120BDE8F2830000B2
:103AE00014100240001C0140002001400018014059
:103AF000001401402DE9F04F93B005000E001700AF
:103B000098461C9C9DF97400102837D11023102270
:103B1000310089B2280080B2FFF786FE2C205FF0CA
:103B2000D8410880102239006846FFF78BFF00203B
:103B300082465FFA8AFABAF1200F57DA68465FFACE
:103B40008AFA1AF800008146002083465FFA8BFB50
:103B5000BBF1080F0FDA5FEAC97002D5284804806C
:103B600002E02748A0F800805FFA89F95FEA590966
:103B70001BF1010BEAE71AF1010ADAE71823182210
:103B8000310089B2280080B2FFF74EFE2C205FF092
:103B9000D8410880182239006846FFF753FF0020FB
:103BA00082465FFA8AFABAF1480F1FDA68465FFA6E
:103BB0008AFA1AF800008146002083465FFA8BFBE0
:103BC000BBF1080F0FDA5FEAC97002D50C48048018
:103BD00002E00B48A0F800805FFA89F95FEA590912
:103BE0001BF1010BEAE71AF1010ADAE713B0BDE8AD
:103BF000F08F00004C020020040100A01C000140D6
:103C00000200006C4C03002066805400C46B000866
:103C1000300100084001002041C4FFFF2DE9F043BE
:103C200083B005000E00170098460A9C9DF92C9061
:103C3000387800284CD04FFA89F9B9F1100F23D108
:103C4000ADB215F11000B0F5A07F02DD0020050037
:103C50001036B6B216F11000B0F5F07F03DD00208B
:103C600005000020060010200190200080B2009086
:103C700043469BB23A00310089B2280080B2FFF778
:103C800039FFBF1C1035D3E7ADB215F11800B0F500
:103C9000A07F02DD002005001836B6B216F118002C
:103CA000B0F5F07F03DD002005000020060018209D
:103CB0000190200080B2009043469BB23A00310050
:103CC00089B2280080B2FFF715FFBF1C1835AFE797
:103CD000BDE8F7832DE9F04383B005000E0017001F
:103CE00098460A9C9DF92C903878002800F0A38013
:103CF0003878802852DA4FFA89F9B9F1100F26D1B5
:103D0000ADB215F10800B0F5A07F02DD002005007E
:103D10001036B6B216F11000B0F5F07F03DD0020CA
:103D200005000020060010200190200080B20090C5
:103D300043469BB297F90000020052B2310089B2AB
:103D4000280080B2FFF7D8FD7F1C0835CCE7ADB264
:103D500015F10C00B0F5A07F02DD0020050018363B
:103D6000B6B216F11800B0F5F07F03DD00200500B3
:103D70000020060018200190200080B200904346E9
:103D80009BB297F90000020052B2310089B22800BC
:103D900080B2FFF7B1FD7F1C0C35A5E74FFA89F91A
:103DA000B9F1100F23D1ADB215F11000B0F5A07F1D
:103DB00002DD002005001036B6B216F11000B0F595
:103DC000F07F03DD00200500002006001020019098
:103DD000200080B2009043469BB23A00310089B285
:103DE000280080B2FFF786FEBF1C10357CE7ADB21D
:103DF00015F11800B0F5A07F02DD0020050018368F
:103E0000B6B216F11800B0F5F07F03DD0020050012
:103E10000020060018200190200080B20090434648
:103E20009BB23A00310089B2280080B2FFF762FEEF
:103E3000BF1C183558E7BDE8F78300002DE9F841AD
:103E400000230024002500265FF0000E5FF0000C28
:103E50006246102A80F05B815FF0010C1CFA02FCC4
:103E60006346D1F800C013EA0C0C64469C4240F053
:103E70004C81D1F804C0BCF1000F3DD0BCF1010F62
:103E800024D0BCF1020F2BD0BCF1030F4CD0BCF1FD
:103E9000110F1FD0BCF1120F28D0DFF88C82C4455F
:103EA0002AD0DFF88882C44526D0DFF88482C44552
:103EB00022D0DFF88082C4451ED0DFF87C82C44562
:103EC0001AD0DFF87882C44516D031E0D1F80CC0A2
:103ED00066462DE0D1F80CC01CF1040C664627E0C4
:103EE000D1F80CC01CF1080C664621E0D1F80CC0DA
:103EF0001CF10C0C66461BE0D1F808C0BCF1000FA9
:103F000003D15FF0040C66460DE0D1F808C0BCF1A7
:103F1000010F04D15FF0080C6646036103E05FF017
:103F2000080C6646436103E05FF0000C6646FFE75D
:103F3000FF2C01D8070000E0071DFF2C02D85FEA24
:103F4000820E03E0B2F1080C5FEA8C0ED7F800C0D5
:103F50005FF00F0818FA0EF83CEA080C16FA0EF893
:103F600058EA0C0CC7F800C0D1F804C05FEACC0CCA
:103F700040F1CB80DFF8C8C1DCF800C05CF0010C78
:103F8000DFF8BC81C8F800C0DFF8B4C1DCF800C0BD
:103F90001CF00108CDF80080DDF800C0DFF8A4C1F6
:103FA0005FEA92085CF828C065465FF00F0C12F0DB
:103FB00003085FFA88F85FEA88081CFA08FC35EA0B
:103FC0000C05DFF884C1604502D15FF0000C24E0ED
:103FD000DFF878C1604502D15FF0010C1DE0DFF829
:103FE00070C1604502D15FF0020C16E0DFF864C1D9
:103FF000604502D15FF0030C0FE0DFF85CC1604563
:1040000002D15FF0040C08E0DFF850C1604502D136
:104010005FF0050C01E05FF0060C12F003085FFA98
:1040200088F85FEA88081CFA08FC5CEA0505DFF8F6
:1040300014C15FEA92084CF82850D1F804C05FEA36
:10404000CC3C0AD5DFF818C1DCF800C054EA0C0CEF
:10405000DFF80C81C8F800C009E0DFF804C1DCF823
:1040600000C03CEA040CDFF8F880C8F800C0D1F8C2
:1040700004C05FEA8C3C0AD5DFF8E8C0DCF800C079
:1040800054EA0C0CDFF8DC80C8F800C009E0DFF867
:10409000D4C0DCF800C03CEA040CDFF8C880C8F8E3
:1040A00000C0D1F804C05FEACC2C0AD5DFF8B8C054
:1040B000DCF800C054EA0C0CDFF8AC80C8F800C093
:1040C00009E0DFF8A4C0DCF800C03CEA040CDFF82B
:1040D0009880C8F800C0D1F804C05FEA8C2C0AD5DB
:1040E000DFF888C0DCF800C054EA0C0CDFF87C80F4
:1040F000C8F800C009E0DFF874C0DCF800C03CEA92
:10410000040CDFF86880C8F800C0521CA1E6BDE8C6
:10411000F18152B2002A02D089B2016102E089B273
:104120000B04036170470000000011100000121022
:104130000000211000002210000031100000321099
:10414000181002400800014000080140000C014026
:10415000001001400014014000180140001C014003
:104160000004014004040140080401400C04014023
:1041700070B504000D001600002C01D1012024E0D0
:1041800094F93D00002805D1002084F83C0020006F
:10419000FFF7B5F814F10801206800F031F9A268C2
:1041A0002900206800F07FF9236BA2683100606865
:1041B00000F0B5F92068A16850F8210050F0010026
:1041C0002168A26841F82200002070BD80B51C481B
:1041D000006850F010001A490860032000F03EFA11
:1041E000002000F004F800F085FA002002BD10B5B0
:1041F000040001F097F84FF47A71B0FBF1F000F091
:104200004DFA002221005FF0FF3000F02DFA00206F
:1042100010BD0C480068401C0A49086070470948F6
:104220000068704711B581B00024FFF7F8FF040063
:10423000FFF7F5FF001B01998842F9D313BD000079
:10424000002002405403002080B5DFF8A401DFF80D
:10425000A41108604FF48270DFF8981148600020C4
:10426000DFF8901188600020DFF88811C860022014
:10427000DFF8801108610120DFF8781148614FF400
:104280000070DFF8701188610820DFF86811C861DC
:104290000020DFF8601108620020DFF85811486242
:1042A0000020DFF8501188620A20DFF84811C86248
:1042B000DFF8400101F08AF801BD10B586B00400B6
:1042C0002068DFF82C11884251D1DFF82C010068FA
:1042D00050F48050DFF820110860DFF81C010068FE
:1042E00010F4805000900098DFF80C01006850F046
:1042F0000400DFF804110860DFF8FC00006810F02B
:10430000040000900098DFF8F000006850F004000E
:10431000DFF8E4100860DFF8E000006810F0040047
:1043200000900098A02001900220029003200490A9
:1043300001A9DFF8C800FFF781FD402001900020AF
:1043400002900020039001A9DFF8B000FFF776FD8E
:1043500001221021DFF8A400FFF7DBFE10200190FE
:104360000120029001A9DFF89400FFF767FD06B075
:1043700010BD70B504000D001600002210211F486A
:10438000FFF7C7FE032000F01DF8280CC0B200F0B4
:1043900019F8280AC0B200F015F82800C0B200F0E1
:1043A00011F83000461E80B2002805D0FF2000F032
:1043B00009F82070641CF4E7012210210F48FFF770
:1043C000A8FE70BD1CB504008DF805407FF07F404D
:1043D0000090012301AA0DF10501064801F03EF805
:1043E000002802D0FF208DF804009DF8040016BDBF
:1043F00000300140A40100201810024000080140D4
:104400000200086852F82000400840000B6842F89B
:1044100023008868082823D1086852F82000DFF8B4
:10442000643118404B6818438B681843CB681843B5
:104430000B6918434B6918438B691843CB691843C0
:104440000B6A18434B6A18438B6A1843CB6A1843AC
:104450000B6B184350F040000B6842F8230020E03B
:10446000086852F82000DFF81C3118404B681843E8
:104470008B681843CB6818430B6918434B69184382
:104480008B691843CB6918430B6A18434B6A18436E
:104490008B6A1843CB6A18430B6B18430B6842F8BE
:1044A000230000207047F0B5030013EB8200D0F822
:1044B00004C05FF07060B0FA80F05FF47F04B4FA7B
:1044C00084F44FF47045B5FA85F54FF47066B6FA8A
:1044D00086F6F027B7FA87F71CF0404CD1F800E0D9
:1044E0005EEA0C0CD1F804E01EFA00F050EA0C0071
:1044F000D1F808C01CFA04F42043CC68AC40204337
:104500000C69641EB44020434C69A41EBC40204387
:104510008C69204313EB820460600020F0BDF0B48E
:104520000400B3F5804F26D154F822705FF070601C
:10453000B0FA80F05FF47F05B5FA85F54FF4704668
:10454000B6FA86F6DFF840C01CEA0707D1F800C0CB
:104550005CEA0707D1F804C01CFA00F038438F6802
:1045600017FA05F528438D692843CD68B5402843DF
:1045700044F8220003E07FF0704044F8220000205D
:10458000F0BC70478100F7FF0000F0CF10F0070289
:104590004D4B1B6819004FF6FF0319404B4B53EA74
:1045A00002231943484B1960704747480068C0F31D
:1045B00002207047012110F01F029140444A40B28E
:1045C000430942F82310704710B440B2002808D5C0
:1045D0000A01404B40B210F00F04E31803F8042C1A
:1045E00003E00A013C4B40B2C25410BC704770B4A7
:1045F000030013F00704D4F10706052E01D30420AD
:1046000001E0D4F10700261D072E01D2002500E0AD
:10461000E51E012616FA00F0401E0840A8400121C0
:10462000A940491E1140084370BC704710B50400F2
:10463000601EB0F1807F01D301200EE0601E27498B
:1046400008600F215FF0FF30FFF7BEFF0020244914
:104650000860072023490860002010BD10B5040041
:104660002000FFF793FF10BDF8B504000D00160001
:104670000027FFF79AFF0700320029003800FFF7F4
:10468000B6FF0100200040B2FFF79EFFF1BD10B55C
:104690000400200040B2FFF78DFF10BD10B50400EC
:1046A0002000FFF7C3FF10BD042806D10D4909689B
:1046B00051F004010B4A116005E00A49096831F024
:1046C0000401084A116070470CED00E00000FA0593
:1046D00000E100E018ED00E000E400E014E000E09C
:1046E00018E000E010E000E080B500F001F801BD46
:1046F0007047000080B51748006850F00100154968
:1047000008601448006810F001000090009805202F
:10471000FFF7A4FF002200217FF00B00FFF7A4FFAA
:10472000002200217FF00A00FFF79EFF00220021F7
:104730007FF00900FFF798FF002200217FF00300BF
:10474000FFF792FF002200215FF0FF30FFF78CFFA0
:1047500001BD00BF1810024038B5040000252078C4
:10476000C00740F10D81DFF8040C006810F00C0068
:1047700004280BD0DFF8F40B006810F00C000828B8
:104780002AD1DFF8E80B0068C00325D54FF480403C
:10479000B0FA80F050F02000C0B24009C0B2012849
:1047A00003D1DFF8EC0B006806E04FF48040B0FA6C
:1047B00080F0DFF8E00B00684FF48041B1FA81F13E
:1047C00011F01F01C840C00740F1DA80606800287E
:1047D00040F0D6800120A6E3DFF8B40B006830F487
:1047E0008030DFF8AC1B0860DFF8A40B006830F401
:1047F0008020DFF89C1B0860FFF711FD05004FF4D7
:104800008040B0FA80F050F02000C0B24009C0B241
:10481000012803D1DFF8780B006806E04FF48040F0
:10482000B0FA80F0DFF86C0B00684FF48041B1FA09
:1048300081F111F01F01C840C00706D5FFF7EFFC5A
:10484000401B6528DBD303206DE36068B0F5803F33
:1048500008D1DFF83C0B006850F48030DFF8301BE3
:10486000086038E06068002810D1DFF8240B006889
:1048700030F48030DFF8181B0860DFF8140B006894
:1048800030F48020DFF8081B086024E06068B0F591
:10489000A02F10D1DFF8F80A006850F48020DFF86C
:1048A000F01A0860DFF8E80A006850F48030DFF89A
:1048B000E01A08600FE0DFF8D80A006830F48030B2
:1048C000DFF8CC1A0860DFF8C80A006830F48020EE
:1048D000DFF8BC1A08606068002828D0FFF79FFC4A
:1048E00005004FF48040B0FA80F050F02000C0B2D4
:1048F0004009C0B2012803D1DFF8940A006806E03D
:104900004FF48040B0FA80F0DFF8880A00684FF476
:104910008041B1FA81F111F01F01C840C0072FD4C6
:10492000FFF77DFC401B6528DBD30320FBE2FFF78C
:1049300076FC05004FF48040B0FA80F050F0200083
:10494000C0B24009C0B2012803D1DFF8440A0068B0
:1049500006E04FF48040B0FA80F0DFF8380A0068D3
:104960004FF48041B1FA81F111F01F01C840C00736
:1049700006D5FFF754FC401B6528DBD30320D2E2A9
:104980002078800740F1BF80DFF8E009006810F070
:104990000C0F0BD0DFF8D409006810F00C000828C9
:1049A00039D1DFF8C8090068C00334D45FF0804013
:1049B000B0FA80F050F02000C0B24009C0B2012827
:1049C00003D1DFF8CC09006806E05FF08040B0FA60
:1049D00080F0DFF8C00900685FF08041B1FA81F132
:1049E00011F01F01C840C00704D52069012801D07B
:1049F000012098E2DFF8980900685FF0F851B1FAF9
:104A000081F130F0F800626912FA01F10843DFF831
:104A10008019086077E02069002842D001205FF00B
:104A20000041B1FA81F1DFF8702942F82100FFF767
:104A3000F6FB05005FF08040B0FA80F050F02000F7
:104A4000C0B24009C0B2012803D1DFF844090068B0
:104A500006E05FF08040B0FA80F0DFF838090068C7
:104A60005FF08041B1FA81F111F01F01C840C00729
:104A700006D4FFF7D4FB401B0328DBD3032052E20C
:104A8000DFF80C0900685FF0F851B1FA81F130F0FD
:104A9000F800626912FA01F10843DFF8F4180860BF
:104AA00031E000205FF00041B1FA81F1DFF8E82841
:104AB00042F82100FFF7B3FB05005FF08040B0FA39
:104AC00080F050F02000C0B24009C0B2012803D1EC
:104AD000DFF8BC08006806E05FF08040B0FA80F0C4
:104AE000DFF8B00800685FF08041B1FA81F111F0A1
:104AF0001F01C840C00706D5FFF791FB401B0328E4
:104B0000DBD303200FE22078000754D5A0690028EA
:104B10002AD001205FF00041B1FA81F1DFF87C2852
:104B200042F82100FFF77BFB05005FF08040B0FA00
:104B300080F05FF08040B0FA80F0DFF8580800683D
:104B40005FF08041B1FA81F111F01F01C840C00748
:104B500006D4FFF764FB401B0328E6D30320E2E101
:104B60000120FFF75FFB26E000205FF00041B1FA73
:104B700081F1DFF8282842F82100FFF750FB0500FB
:104B80005FF08040B0FA80F05FF08040B0FA80F0D3
:104B9000DFF8000800685FF08041B1FA81F111F0A0
:104BA0001F01C840C00706D5FFF739FB401B03288B
:104BB000E6D30320B7E12078400740F1FE80DFF81C
:104BC000E007006850F08050DFF8D4170860DFF885
:104BD000D007006810F0805000900098DFF8C407FC
:104BE000006850F48070DFF8BC170860FFF717FB0F
:104BF0000500DFF8B0070068C00506D4FFF70FFB1B
:104C0000401B6528F5D303208DE1DFF89C07006881
:104C100040084000DFF890170860DFF88C07006854
:104C200030F00400DFF880170860FFF7F8FA05009D
:104C30005FF08040B0FA80F05FF08040B0FA80F022
:104C400050F04000C0B24009C0B2022803D1DFF8E2
:104C50005807006802E0DFF83C0700685FF0804119
:104C6000B1FA81F111F01F01C840C00708D5FFF764
:104C7000D6FA401B41F289318842D9D3032052E150
:104C8000E068012808D1DFF82007006850F0010033
:104C9000DFF81417086037E0E068002810D1DFF86B
:104CA0000807006840084000DFF8FC160860DFF8DD
:104CB000F806006830F00400DFF8EC16086023E026
:104CC000E068052810D1DFF8E006006850F0040025
:104CD000DFF8D4160860DFF8D006006850F0010055
:104CE000DFF8C41608600FE0DFF8BC060068400873
:104CF0004000DFF8B4160860DFF8AC06006830F05A
:104D00000400DFF8A4160860E06800282AD0FFF746
:104D100086FA05005FF08040B0FA80F05FF08040D6
:104D2000B0FA80F050F04000C0B24009C0B2022892
:104D300003D1DFF87406006802E0DFF85806006867
:104D40005FF08041B1FA81F111F01F01C840C00746
:104D500033D4FFF764FA401B41F289318842D9D33A
:104D60000320E0E0FFF75BFA05005FF08040B0FA57
:104D700080F05FF08040B0FA80F050F04000C0B2A8
:104D80004009C0B2022803D1DFF81C06006802E027
:104D9000DFF8000600685FF08041B1FA81F111F0A0
:104DA0001F01C840C00708D5FFF739FA401B41F280
:104DB00089318842D9D30320B5E0E069002800F0AA
:104DC000B180DFF8A805006810F00C00082800F09A
:104DD000A780E069022875D100208021B1FA81F115
:104DE000DFF8B42542F82100FFF719FA050040204A
:104DF000B0FA80F050F02000C0B24009C0B20128E3
:104E000003D1DFF88C05006805E04020B0FA80F09F
:104E1000DFF8800500684021B1FA81F111F01F012F
:104E2000C840C00706D5FFF7FAF9401B0328DED3B8
:104E3000032078E0206AB0F5803F09D1DFF82C0527
:104E4000006830F40030A1680843DFF820150860DE
:104E5000DFF81805006830F47410216A0843616AAD
:104E60000843DFF80815086001208021B1FA81F1BC
:104E7000DFF8242542F82100FFF7D1F90500402092
:104E8000B0FA80F050F02000C0B24009C0B2012852
:104E900003D1DFF8FC04006805E04020B0FA80F0A0
:104EA000DFF8F00400684021B1FA81F111F01F0130
:104EB000C840C00736D4FFF7B2F9401B0328DED341
:104EC000032030E000208021B1FA81F1DFF8C8240E
:104ED00042F82100FFF7A3F905004020B0FA80F066
:104EE00050F02000C0B24009C0B2012803D1DFF861
:104EF000A004006805E04020B0FA80F0DFF89404D8
:104F000000684021B1FA81F111F01F01C840C007CB
:104F100008D5FFF784F9401B0328DED3032002E005
:104F2000012000E0002032BD70B504000D00002615
:104F3000DFF87804006810F00700A84280F0CE8007
:104F4000DFF868040068C008C0002843DFF85C147C
:104F50000860DFF85804006810F00700A84201D08C
:104F6000012099E12078800709D5DFF84404006822
:104F700030F0F000A1680843DFF8341408602078AE
:104F8000C00740F16E816068012820D14FF4804055
:104F9000B0FA80F050F02000C0B24009C0B2012841
:104FA00003D1DFF8EC03006806E04FF48040B0FA6C
:104FB00080F0DFF8E00300684FF48041B1FA81F13E
:104FC00011F01F01C840C00743D4012064E16068AC
:104FD00002281DD14020B0FA80F050F02000C0B26D
:104FE0004009C0B2012803D1DFF8A403006805E03E
:104FF0004020B0FA80F0DFF89C0300684021B1FA4D
:1050000081F111F01F01C840C00722D4012043E103
:105010005FF08040B0FA80F050F02000C0B240094C
:10502000C0B2012803D1DFF86803006806E05FF032
:105030008040B0FA80F0DFF85C0300685FF08041E8
:10504000B1FA81F111F01F01C840C00701D401205D
:1050500022E1DFF85C030068800880006168084393
:10506000DFF84C130860FFF7DAF8060060680128E3
:1050700010D1DFF83C03006810F00C00042800F0A9
:10508000F080FFF7CCF8801B41F289318842F0D3E1
:10509000032001E16068022810D1DFF814030068E2
:1050A00010F00C00082800F0DC80FFF7B8F8801B37
:1050B00041F289318842F0D30320EDE0DFF8F002BD
:1050C000006810F00C0F00F0CC80FFF7A8F8801BF0
:1050D00041F289318842F1D30320DDE02078800756
:1050E00009D5DFF8CC02006830F0F000A168084371
:1050F000DFF8BC1208602078C00740F1A380606828
:1051000001281FD14FF48040B0FA80F050F0200009
:10511000C0B24009C0B2012802D19D48006806E033
:105120004FF48040B0FA80F0DFF8680200684FF476
:105130008041B1FA81F111F01F01C840C00741D48C
:105140000120A9E0606802281CD14020B0FA80F05C
:1051500050F02000C0B24009C0B2012802D18C48F2
:10516000006805E04020B0FA80F0DFF8280200680F
:105170004021B1FA81F111F01F01C840C00721D4CC
:10518000012089E05FF08040B0FA80F050F020000C
:10519000C0B24009C0B2012802D17D48006806E0D3
:1051A0005FF08040B0FA80F0DFF8E80100685FF05F
:1051B0008041B1FA81F111F01F01C840C00701D44C
:1051C000012069E0DFF8E80100688008800061687C
:1051D0000843DFF8DC110860FFF721F8060060687B
:1051E00001280FD1DFF8C801006810F00C00042876
:1051F00028D0FFF714F8801B41F289318842F1D39F
:10520000032049E0606802280ED16948006810F068
:105210000C00082816D0FFF702F8801B41F28931F4
:105220008842F2D3032037E06148006810F00C0F89
:1052300008D0FEF7F4FF801B41F289318842F3D396
:10524000032029E059480068C008C0002843574996
:1052500008605648006810F00700A84201D00120FD
:105260001AE02078400707D55148006830F4E06024
:10527000E16808434E4908602078000708D54C488B
:10528000006830F46050216950EAC1004849086064
:105290000020FEF7ACFF002070BDF0B585B001A87E
:1052A00044491022FDF7BAF943480088ADF80000E0
:1052B000002100220023002400202C4D2D6829000D
:1052C00011F00C05042D02D0082D03D026E03B4D33
:1052D000280025E001AD11F470164FF47057B7FAAD
:1052E00087F7FE40755D2C00CD0311D51F4D2D684D
:1052F0006E4615F400354FF48047B7FA87F7FD4046
:10530000AD5D2A002D4DB5FBF2F565432B0003E0A2
:105310002B4D05FB04F52B00180001E0274D28005C
:1053200005B0F0BD80B5FFF7B8FF104909685FF020
:105330007062B2FA82F2234B11F0F001D140C95CE5
:10534000C840214908602048006802BD80B5FFF7C9
:10535000E9FF064909685FF46002B2FA82F2194B6C
:1053600011F4E061D140C95CC84002BD04100240A4
:1053700080B5FFF7D7FF0E4909685FF4E012B2FA73
:1053800082F2104B11F46051D140C95CC84002BD9B
:1053900000100240241002400000424280044242B9
:1053A0001C1002400070004020100240002002400B
:1053B00004100240347500089224000800127A009C
:1053C00000093D00447500083C01002010B50400B0
:1053D000002C01D101203EE094F95100002802D1B7
:1053E0002000FEF76AFF022084F851002068006860
:1053F00030F04000216808606068A1680843E168F7
:1054000008432169084361690843A16911F40071E7
:105410000843E1690843216A0843A16A08432168F7
:105420000860A069000C10F00400616A084321685C
:105430004860E06A216808612068C06930F4006053
:105440002168C861002004490870002060650120BF
:1054500084F85100002010BD5E0300202DE9F041CA
:1054600082B004000D0016001F00DDF8208000202F
:10547000ADF8000094F95100012804D094F95100CE
:10548000222840F09681002D04D0002E02D0BFB219
:10549000002F01D101208DE194F95000012801D1A4
:1054A000022087E1012084F8500094F9510001287E
:1054B00002D1322084F8510000206065A663A787DE
:1054C000E7872563A786E7860020A0640020E064C4
:1054D000A06AB0F5005F0BD12068006830F400507E
:1054E000216808602068006850F400502168086056
:1054F00020680068400605D42068006850F040002D
:1055000021680860E068B0F5006F40F0888060684E
:10551000002806D06068B0F5827F0CD1E08E0128AB
:1055200009D1206B00882168C860206B801C206333
:10553000E08E401EE086E08E00281ED1A06AB0F505
:10554000005F05D12068006850F480502168086031
:10555000434600220121200000F02EF9002801D04E
:10556000032027E12068C068A16B0880A06B801C25
:10557000A063E08F401EE087D0E0E08E002835D0A9
:10558000434600220221200000F016F9002801D035
:1055900003200FE1206B00882168C860206B801C0D
:1055A0002063E08E401EE086E08E002809D1A06ACC
:1055B000B0F5005F05D12068006850F48050216884
:1055C0000860434600220121200000F0F5F8002881
:1055D00001D00320EEE02068C068A16B0880A06BBA
:1055E000801CA063E08F401EE087C6E7606800284B
:1055F00040F09480434600220121200000F0DCF8B6
:10560000002801D00320D5E02068C068A16B088085
:10561000A06B801CA063E08F401EE0877EE0606886
:10562000002806D06068B0F5827F0BD1E08E01289B
:1056300008D1206B411C216300782168C860E08E8E
:10564000401EE086E08E00281BD1A06AB0F5005F06
:1056500005D12068006850F48050216808604346F6
:1056600000220121200000F0A7F8002801D003202B
:10567000A0E02068C068A16B0870E08F401EE08742
:105680004CE0E08E002833D0434600220221200067
:1056900000F092F8002801D003208BE0206B411C21
:1056A000216300782168C860E08E401EE086E08EAD
:1056B000002809D1A06AB0F5005F05D12068006814
:1056C00050F48050216808604346002201212000E8
:1056D00000F072F8002801D003206BE0A06B411CA1
:1056E000A1632168C9680170E08F401EE087C8E7A8
:1056F0006068002812D1434600220121200000F0FA
:105700005BF8002801D0032054E0A06B411CA1638A
:105710002168C9680170E08F401EE087A06AB0F57B
:10572000005F13D1434600220121200000F044F81D
:10573000002805D0606D50F002006065032039E05C
:105740002068C068ADF80000BDF8000043460122A3
:105750008021200000F030F8002805D0606D50F066
:1057600010006065032025E0012084F85100A06A44
:10577000B0F5005F18D120688068C00614D5606D50
:1057800050F0020060652068006830F40050216825
:1057900008602068006850F400502168086000200C
:1057A00084F85000012005E0002084F8500000201B
:1057B00000E00220BDE8F6812DE9F04104000D0073
:1057C00016001F005FF00008FEF729FD804676B244
:1057D000002E33D1206880682840A84262D017F19B
:1057E000010FF7D0002F05D0FEF719FDB0EB080030
:1057F0008742EFD22068406830F0E00021684860BE
:105800002068006830F0400021680860A06AB0F5A8
:10581000005F0BD12068006830F4005021680860F8
:105820002068006850F4005021680860012084F866
:105830005100002084F85000032034E02068806884
:105840002840A8422ED117F1010FF7D0002F05D024
:10585000FEF7E5FCB0EB08008742EFD22068406815
:1058600030F0E000216848602068006830F04000B7
:1058700021680860A06AB0F5005F0BD1206800685D
:1058800030F40050216808602068006850F400502F
:1058900021680860012084F85100002084F850003D
:1058A000032000E00020BDE8F081000010B50400F6
:1058B0002068DFF8F81888425AD3DFF8F408006847
:1058C0002168DFF8F028914201D108214EE02168DB
:1058D000DFF8E428914201D1802147E02168DFF818
:1058E000DC28914202D14FF400613FE02168DFF8EB
:1058F000D028914202D14FF4004137E02168DFF80F
:10590000C428914202D15FF400212FE02168DFF822
:10591000B828914202D15FF4000127E02168DFF846
:10592000AC28914202D15FF000611FE02168DFF8EE
:10593000A028914201D1082118E02168DFF89428BD
:10594000914201D1802111E02168DFF88C28914239
:1059500002D14FF4006109E02168DFF8802891420C
:1059600002D14FF4004101E05FF40021084059E00A
:10597000DFF86C0800682168DFF83828914201D10F
:1059800008214EE02168DFF83028914201D18021C2
:1059900047E02168DFF82428914202D14FF40061EA
:1059A0003FE02168DFF81828914202D14FF400410E
:1059B00037E02168DFF80C28914202D15FF4002122
:1059C0002FE02168DFF80028914202D15FF4000146
:1059D00027E02168DFF8F427914202D15FF00061EF
:1059E0001FE02168DFF8E827914201D1082118E083
:1059F0002168DFF8E027914201D1802111E0216880
:105A0000DFF8D427914202D14FF4006109E0216808
:105A1000DFF8C827914202D14FF4004101E05FF462
:105A200000210840002800F0D380206800680007AB
:105A300040F1CE802068006830F0080021680860DE
:105A40002068DFF86817884259D32068DFF86417A8
:105A5000884201D108204EE02068DFF85C178842B8
:105A600001D1802047E02068DFF85017884202D13A
:105A70004FF400603FE02068DFF84417884202D10D
:105A80004FF4004037E02068DFF83817884202D131
:105A90005FF400202FE02068DFF82C17884202D145
:105AA0005FF4000027E02068DFF82017884202D169
:105AB0005FF000601FE02068DFF81417884201D112
:105AC000082018E02068DFF80C17884201D18020F8
:105AD00011E02068DFF80017884202D14FF400601F
