:020000040800F2
:1000000068120020450100089728000857220008C0
:1000100095280008790200084D2E00080000000015
:100020000000000000000000000000005701000870
:1000300089020008000000005B0100081B2A00087C
:100040005F0100085F0100085F0100085F01000810
:100050005F0100085F0100085F0100085F01000800
:100060005F0100085F0100085F0100085F010008F0
:100070005F0100085F0100085F0100085F010008E0
:100080005F0100085F0100085F0100085F010008D0
:100090005F0100085F0100085F0100085F010008C0
:1000A0005F0100085F0100085F0100085F010008B0
:1000B0005F0100085F0100085F0100085F010008A0
:1000C0005F0100085F0100085F0100085F01000890
:1000D0005F0100085F0100085F010008412E000871
:1000E0005F0100085F0100085F0100085F01000870
:1000F0005F0100085F0100085F0100085F01000860
:100100005F010008B92800085F0100085F010008CE
:100110005F0100085F0100085F0100085F0100083F
:100120005F0100085F0100085F0100087D02000810
:10013000DFF80CD000F05AF8004800473D330008C3
:10014000681200200648804706480047FEE7FEE7A1
:10015000FEE7FEE7FEE7FEE7FEE7FEE7FEE7FEE777
:10016000852A000831010008202A04DB203A21FA00
:1001700002F00021704721FA02F3D040C2F12002C0
:1001800091400843194670472DE9F05F054600206D
:1001900092469B4688460646814640241BE02846F8
:1001A000414647462246FFF7DFFF53465A46C01AEC
:1001B000914110D311461846224600F029F82D1A15
:1001C00067EB01084F4622460120002100F020F88D
:1001D00017EB00094E41201EA4F10104DFDC484664
:1001E00031462A464346BDE8F09F0000064C074DC5
:1001F00006E0E06840F0010394E8070098471034F7
:10020000AC42F6D3FFF798FFC44B0008E44B00085C
:10021000202A04DB203A00FA02F1002070479140C6
:10022000C2F1200320FA03F3194390407047000005
:1002300038B502F0BDFA02F033FA0E4C6060606827
:10024000A0F5A901663904D06068A0F500416639BF
:1002500001D102F001F800204FF4F0734FF4A072C6
:100260000146009002F07AF8142000F02BFC606840
:1002700038BD00000C000020FEE700000148806D42
:1002800000F008B998000020FEE7000070B5B3F553
:10029000804F05D06FF0704140F82210002070BDF3
:1002A0008C690B68F025234395FAA5F54C68B5FADF
:1002B00085F5AC404FF47F4696FAA6F68D68B6FAFF
:1002C00086F6B5402C4323434FF47024C96894FA52
:1002D000A4F4B4FA84F4A1400B4350F82210034C68
:1002E00021400B4340F82230D8E700000000F0CF57
:1002F00030B50A6850F8223023F0010340F822306C
:100300008A68214C082A1ED04B681343D1E9032583
:100310002A4313434A6913438A691343CA6913433F
:100320000A6A13434A6A13438A6A1343CA6A134325
:100330000A6B0968134350F821202240134340F808
:100340002130002030BDD1E903354A682B4342F00B
:1003500008021A434B691A438B691A43CB691A4343
:100360000B6A1A434B6A1A438B6A1A43CB6A1A43C5
:100370000B6B09681A4350F8213023401A4342F0AE
:10038000400240F82120DCE78100F7FF70B5F0253E
:10039000D1E9003495FAA5F5B5FA85F5AC402343CB
:1003A0004FF47F4595FAA5F58C68B5FA85F5AC4014
:1003B0004FF4702696FAA6F6CD68B6FA86F6B540E2
:1003C0002C4323430C694FF4700595FAA5F5641E80
:1003D000B5FA85F5AC4023434C694FF0706595FA4A
:1003E000A5F5A41EB5FA85F5AC40896923430B43F6
:1003F000521C50F8221001F040410B4340F82230CB
:10040000002070BD2DE9F04104460D461746204EF0
:100410003078002803D002F0FFF9002030702B78EC
:100420006978102F18D0A13BC3EB031000EB4310E9
:1004300001EB4001A13901EBC1008101C81701EBBB
:100440005070C110482201F59621204602F03AFA78
:100450002078FF2814D016E0A13BC3EB031000EB7B
:10046000431001EB4000A1380102C81701EB5070A6
:10047000C110202201F52041204602F023FAE7E7CF
:100480006078FF2802D00120BDE8F0810020FBE762
:100490000C0000202DE9F05F0446F94AF84DF84EB3
:1004A000F74FD114DFF8D883DFF8D493DFF8D0A367
:1004B00020680B02783D643E503FDFF8C8B34FF42C
:1004C000004EA8F13C08A9F12809AAF1140A9042AB
:1004D00036D9EC4A083AD2F800C0A84201D1082225
:1004E0002BE0B04201D1802227E0B84201D10A4678
:1004F00023E0404501D172461FE0484501D11A462C
:100500001BE0504502D14FF4000216E0584501D1DE
:10051000082212E0DB4A1432904201D180220CE022
:10052000D84A2832904201D10A4606E0D54A3C32E8
:10053000904201D1724600E01A460CEA020C3AE001
:10054000CF4A803AD2F800C0A84201D1082230E058
:10055000B04201D180222CE0B84201D10A4628E005
:10056000404501D1724624E0484501D11A4620E0B9
:10057000504502D14FF400021BE0C14A904201D124
:10058000020516E0584501D1082212E0BD4A143296
:10059000904201D180220CE0BA4A2832904201D127
:1005A0000A4606E0B74A3C32904201D1724600E06A
:1005B0001A460CEA020CBCF1000F7FD00268D2434D
:1005C00012077BD4026822F008020260AC4A20685D
:1005D00090422FD9A84201D1082127E0B04201D191
:1005E000802123E0B84221D0404501D171461DE071
:1005F000484501D1194619E0504502D14FF4000198
:1006000014E0584501D1082110E09E4A143290426E
:1006100001D180210AE09B4A2832904206D09949B4
:100620003C31884201D1714600E019469548001FCF
:10063000016033E0A84201D108212CE0B04201D191
:10064000802128E0B84226D0404501D1714622E001
:10065000484501D119461EE0504502D14FF4000132
:1006600019E0904202D14FF0006114E0584501D1E9
:10067000082110E0834A1432904201D180210AE01F
:10068000804A2832904206D07E493C31884201D1CE
:10069000714600E019467A4880384160606B40F04E
:1006A00001006063042084F82100002084F8200009
:1006B000216B09B1204600E000E08847704A2068BD
:1006C00011150B014FF4802E904236D96D4A083A2D
:1006D000D2F800C0A84201D104222BE0B04201D1DF
:1006E000402227E0B84201D10A4623E0404501D12B
:1006F0001A461FE0484501D172461BE0504502D121
:100700004FF4800216E0584501D1042212E05D4A00
:100710001432904201D140220CE05A4A28329042D1
:1007200001D10A4606E0574A3C32904201D11A46AE
:1007300000E072460CEA020C3AE0514A803AD2F8E4
:1007400000C0A84201D1042230E0B04201D14022D1
:100750002CE0B84201D10A4628E0404501D11A46B2
:1007600024E0484501D1724620E0504502D14FF4C3
:1007700080021BE0424A904201D1C20416E0584573
:1007800001D1042212E03F4A1432904201D14022AA
:100790000CE03C4A2832904201D10A4606E0394A30
:1007A0003C32904201D11A4600E072460CEA020C3B
:1007B000BCF1000F7CD00268D243520778D40268A3
:1007C000920603D4026822F0040202602C4A2068D8
:1007D00090422FD9A84201D1042127E0B04201D193
:1007E000402123E0B84221D0404501D119461DE007
:1007F000484501D1714619E0504502D14FF48001BE
:1008000014E0584501D1042110E01E4A14329042F0
:1008100001D140210AE01B4A2832904206D01949F2
:100820003C31884201D1194600E071461548001F4D
:10083000016036E0A84201D1042130E0B04201D18C
:1008400040212CE0B8422AD0404501D1194626E08B
:10085000484501D1714622E0504502D14FF4800154
:100860001DE0904202D14FF0806118E0584501D15F
:10087000042114E0034A1432904206D140210EE0D4
:10088000800002400804024012E08C4A904206D0E8
:100890008A491431884201D1194600E071468848DE
:1008A0004160112084F82100E16A09B1204688479F
:1008B000DFF80CC24FF4007120680CF1800C0B01C2
:1008C000604537D97D4A303AD2F800E0A84201D1DC
:1008D00002222CE0B04201D1202228E0B84201D10E
:1008E0000A4624E0404501D11A4620E0484502D19D
:1008F0004FF400321BE0504502D14FF4001216E0D5
:10090000584501D1022212E06C4A143A904201D1BA
:1009100020220CE0694A904201D10A4607E0674A6A
:100920001432904201D11A4601E04FF400320EEA2F
:10093000020E3AE0624AD2F800E0A84201D1022257
:1009400031E0B04201D120222DE0B84201D10A4667
:1009500029E0404501D11A4625E0484502D14FF42F
:10096000003220E0504502D14FF400121BE06045F8
:1009700002D14FF0007216E0584501D1022212E078
:100980004E4A143A904201D120220CE04B4A904248
:1009900001D10A4607E0494A1432904201D11A4671
:1009A00001E04FF400320EEA020EBEF1000F6ED0ED
:1009B0000268D24392077ED40268920603D402688A
:1009C00022F0020202602068604530D9A84201D1BD
:1009D000022128E0B04201D1202124E0B84222D0F7
:1009E000404501D119461EE0484502D14FF400317F
:1009F00019E0504502D14FF4001114E0584501D1DF
:100A0000022110E02D4A143A904201D120210AE03F
:100A10002A4A904207D029491431884201D1194607
:100A200001E04FF4003125482C38016034E0A84241
:100A300001D102212EE0B04201D120212AE0B842AA
:100A400028D0404501D1194624E0484502D14FF451
:100A500000311FE0504502D14FF400111AE060450B
:100A600002D14FF0007115E0584501D1022111E08B
:100A7000124A143A904201D120210BE00F4A9042D1
:100A800008D00E491431884202D1194602E012E022
:100A90004FF400310A484160606B6063012084F8C4
:100AA0002100002084F82000A16A002903D02046FC
:100AB000BDE8F05F0847BDE8F09F00003004024049
:100AC0000000024031B500F099F9044600F096F9B3
:100AD0000099001B8842F9D338BD0000F0B585B0FD
:100AE0003848816800296BD10126866036488169C3
:100AF00041F480718161816901F4807100918169A3
:100B000041F080018161816901F08001009181697A
:100B100041F080018161816901F08001009181696A
:100B200041F080018161816901F08001009181695A
:100B300041F040018161816901F0400100918169CA
:100B400041F020018161816901F02001009141693A
:100B500041F480714161406900F480700090019619
:100B60000224029403250495184F01A9384600F089
:100B700035F8E00201900294049501A9144800F0B0
:100B80002DF84FF6807001900294049501A9114848
:100B900000F024F84CF2337001900294049501A9FE
:100BA0000D4800F01BF8650200222946384600F087
:100BB0001DF901950296049401A9384600F00EF83B
:100BC00005B0F0BD0C00002000100240001C0140E8
:100BD0000020014000180140001401402DE9F84FA9
:100BE00000230024DFF8DC914FF00F0809F1040A1C
:100BF0000AF1040B0BF1040E0127A7400A683A40E2
:100C0000BA4275D1DFF8C0C14D68A5EB0C06654549
:100C10002BD00DDC032D34D005DC35B3012D19D0DC
:100C2000022D2FD11BE0112D16D0122D2AD119E043
:100C3000B6F5881F19D006DCB6F5803F15D0B6F59D
:100C4000801F1FD111E0B6F5001F0ED0B6F5041FAE
:100C500018D10AE0CB6815E0CB681B1D12E0CB6809
:100C600008330FE0CB680C330CE08B6823B1012B09
:100C700004D00823476105E0042303E0082307614B
:100C800000E00023FF2A01D8054601E000F1040539
:100C900002D84FEA840603E0A4F108064FEA86066C
:100CA0002F6808FA06FC27EA0C0703FA06F647EA5B
:100CB00006072F604D68ED007ED5444DAE6946F0C5
:100CC0000106AE61AD6905F001050095404D24F0C7
:100CD00003067719BE68A5072D0F08FA05FC26EA5A
:100CE0000C06DFF8F0C0604503D14FF0000C25E0A2
:100CF00062E0DFF8E4C0604502D14FF0010C1DE076
:100D0000DFF8D8C0604502D14FF0020C16E0DFF8E2
:100D1000D0C0604502D14FF0030C0FE0DFF8C4C033
:100D2000604502D14FF0040C08E0DFF8BCC060451C
:100D300002D14FF0050C01E04FF0060C0CFA05FC57
:100D40004CEA060CC7F808C04D68ED0305D5D9F884
:100D500000501543C9F8005004E0D9F800509543FD
:100D6000C9F800504D68AD0305D5DAF800501543B9
:100D7000CAF8005004E0DAF800509543CAF8005071
:100D80004D68ED0205D5DBF800501543CBF8005057
:100D900004E0DBF800509543CBF800504D68AD02FD
:100DA00005D5DEF800501543CEF8005004E0DEF81B
:100DB00000509543CEF80050641C102CFFF41CAF7B
:100DC000BDE8F88F0004014000001110001002403F
:100DD0000000014000080140000C014000100140EB
:100DE0000014014000180140001C0140002A01D0FD
:100DF0000161704709040161704700000148006803
:100E0000704700000400002002480168491C01608E
:100E1000704700000400002010B50748016841F049
:100E200010010160032000F075F8002000F006F8C2
:100E300000F016F8002010BD0020024010B5044656
:100E400000F0D6F94FF47A72B0FBF2F001F04BF8F3
:100E500000222146501E00F03DF8002010BD000089
:100E600008B51548816941F001018161806900F090
:100E700001000090052000F04DF8002211466FF0AF
:100E80000B0000F027F8002211466FF00A0000F076
:100E900021F8002211466FF0090000F01BF8002233
:100EA0001146101F00F016F80022BDE80840114658
:100EB000501E00F00FB800000010024000F01F02AA
:100EC000012191404009800000F1E020C0F80011AC
:100ED00070470000F0B40D460D4B1B68C3F30223AE
:100EE000C3F10704042C00D90424191D072901D2D9
:100EF000002300E0DB1E012606FA04F1491E29400A
:100F000099409E40761E16403143F0BC01F0C4BCAF
:100F10000CED00E000F00701054A10684FF6FF03F2
:100F2000184040EA01200349084310607047000060
:100F30000CED00E00000FA052DE9F04704460F46ED
:100F4000DFF8A492D9F80000A84D00F007010120B5
:100F5000430446064FF0020C41F28838B9426FD282
:100F6000D9F8001021F007013943C9F80010D9F869
:100F7000001001F00701B94201D0BDE8F0872178E7
:100F8000890705D56968A26821F0F00111436960FD
:100F90002178C90761D0616801290BD002291FD0CF
:100FA0009CFAACF2B2FA82F242F0200252092DD041
:100FB0002A682CE093FAA3F2B2FA82F242F02002FD
:100FC000520901D02A6800E06A6A93FAA3F3B3FADF
:100FD00083F303F01F039840024223D10120CCE7A2
:100FE00096FAA6F2B2FA82F242F02002520901D039
:100FF0002A6800E06A6A96FAA6F3B3FA83F303F06C
:101000001F03984002420DD10120B6E76A6A9CFA9C
:10101000ACF3B3FA83F303F01F039840024201D10B
:101020000120AAE7686820F0030008436860FFF722
:10103000E5FE0646606801280AD0022815D021E0A6
:1010400025E0FFF7DBFE801B404501D9032094E734
:101050006868C0F381000128F3D1ADE0FFF7CEFE50
:10106000801B404501D9032087E76868C0F38100F1
:101070000228F3D1A0E0FFF7C1FE801B404501D953
:1010800003207AE7686810F00C0FF4D194E021781F
:10109000890705D56968A26821F0F00111436960EC
:1010A0002178C90779D0616801290BD002291FD0A6
:1010B0009CFAACF2B2FA82F242F0200252092DD030
:1010C0002A682CE093FAA3F2B2FA82F242F02002EC
:1010D000520901D02A6800E06A6A93FAA3F3B3FACE
:1010E00083F303F01F039840024223D1012044E719
:1010F00096FAA6F2B2FA82F242F02002520901D028
:101100002A6800E06A6A96FAA6F3B3FA83F303F05A
:101110001F03984002420DD101202EE76A6A9CFA13
:10112000ACF3B3FA83F303F01F039840024201D1FA
:10113000012022E7686820F0030008436860FFF799
:101140005DFE06466068012809D0022814D020E020
:10115000FFF754FE801B404501D903200DE7686866
:10116000C0F381000128F3D117E0FFF747FE801B91
:10117000404501D9032000E76868C0F381000228D8
:10118000F3D10AE0FFF73AFE801B404501D9032066
:10119000F3E6686810F00C0FF4D1D9F8000020F0E5
:1011A00007003843C9F80000D9F8000000F0070034
:1011B000B84201D00120E0E62078400705D56868F4
:1011C000E16820F4E060084368602078000706D5F5
:1011D0006868216920F4605040EAC100686000201E
:1011E000FFF72CFE0020C8E600200240001002405D
:1011F00000B500F043F808494968F02292FAA2F2DB
:1012000001F0F001B2FA82F2D140044A515CC840C8
:101210000349086000BD000000100240F4330008DC
:101220000000002000B5FFF7E3FF074949684FF4CD
:10123000E06292FAA2F201F4E061B2FA82F2D140E5
:10124000024A515CC84000BD00100240F43300085F
:1012500000B5FFF7CDFF074949684FF4605292FA95
:10126000A2F201F46051B2FA82F2D140024A515C1A
:10127000C84000BD00100240F433000810B585B02E
:101280001AA0D0E90031D0E90220CDE90131CDE941
:1012900003201AA000680090194B5968194801F002
:1012A0000C02042A1DD0082A1BD14FF4701494FAA2
:1012B000A4F401F47012B4FA84F4E24001ACA25C2C
:1012C000C90310D559684FF4003393FAA3F301F41E
:1012D0000031B3FA83F3D9401DF80110B0FBF1F0EF
:1012E000504305B010BD08485043FAE70203040517
:1012F000060708090A0B0C0D0E0F10100102000062
:101300000010024000127A0000093D002DE9F84F5C
:101310000446F94D20784FF00106C00775D0686883
:101320007704C0F38100012807D06868C0F381000A
:1013300002281DD16868C0031AD597FAA7F0B0FA41
:1013400080F040F02000400901D0286800E0686A81
:1013500097FAA7F1B1FA81F101F01F0206FA02F142
:10136000084252D0606800284FD10120BDE8F88FB4
:10137000286820F480302860286820F480202860C5
:10138000FFF73CFD804607E0FFF738FDA0EB0800C3
:10139000642801D90320E9E797FAA7F0B0FA80F0B2
:1013A00040F02000400901D0286800E0686A97FA00
:1013B000A7F1B1FA81F101F01F0106FA01F108422B
:1013C000E2D16068B0F5803F11D0A8B1B0F5A02F90
:1013D0001CD0286820F480302860286820F4802001
:1013E00028606068C8B3FFF709FD80461FE02868E1
:1013F00040F480302860F4E7286820F480302860CA
:10140000286820F480202860EBE748E0286840F452
:1014100080202860286840F480302860E1E7FFF7EA
:10142000EDFCA0EB0800642801D903209EE797FAA1
:10143000A7F0B0FA80F040F02000400901D0286801
:1014400000E0686A97FAA7F1B1FA81F101F01F0193
:1014500006FA01F10842E2D021E0FFE7FFF7CEFCF7
:10146000804607E0FFF7CAFCA0EB0800642801D91A
:1014700003207BE797FAA7F0B0FA80F040F0200055
:10148000400901D0286800E0686A97FAA7F1B1FA2C
:1014900081F101F01F0106FA01F10842E2D1207842
:1014A000DFF8588280074FF0000B4FF0020732D56B
:1014B00068684FF0F80A10F00C0F07D06868C0F3A6
:1014C0008100022828D16868C00325D497FAA7F0C4
:1014D000B0FA80F040F02000400901D0286800E018
:1014E000686A97FAA7F1B1FA81F101F01F0106FAD3
:1014F00001F1084204D02069012801D0012035E71C
:1015000028689AFAAAF26169B2FA82F220F0F80029
:101510009140084328605CE0206990B396FAA6F0F9
:10152000B0FA80F048F82060FFF768FC814607E0D9
:10153000FFF764FCA0EB0900022801D9032015E79E
:1015400097FAA7F0B0FA80F040F02000400901D0EF
:10155000286800E0686A97FAA7F1B1FA81F101F012
:101560001F0106FA01F10842E2D028689AFAAAF2AD
:101570006169B2FA82F220F0F800914008432860D5
:1015800027E0FFE796FAA6F0B0FA80F048F820B01E
:10159000FFF734FC814607E0FFF730FCA0EB0900C1
:1015A000022801D90320E1E697FAA7F0B0FA80F00B
:1015B00040F02000400901D0286800E0686A97FAEE
:1015C000A7F1B1FA81F101F01F0106FA01F1084219
:1015D000E2D12078000770D5A069C0B396FAA6F0D2
:1015E000B0FA80F008EB8000C0F88064FFF706FCDA
:1015F000814607E0FFF702FCA0EB0900022801D9B1
:101600000320B3E697FAA7F0B0FA80F040F060004C
:10161000B6EB501F01D128680BE097FAA7F0B0FA9B
:1016200080F040F06000B7EB501F01D1286A00E065
:10163000686A97FAA7F1B1FA81F101F01F0206FA80
:1016400002F10842D6D00120FFF73CFA35E0FFE76F
:1016500096FAA6F0B0FA80F008EB8000C0F880B4EB
:10166000FFF7CCFB814607E0FFF7C8FBA0EB0900C2
:10167000022801D9032079E697FAA7F0B0FA80F0A2
:1016800040F06000B6EB501F01D128680BE097FADC
:10169000A7F0B0FA80F040F06000B7EB501F01D126
:1016A000286A00E0686A97FAA7F1B1FA81F101F0BF
:1016B0001F0206FA02F10842D6D12078400770D501
:1016C000E86940F08050E861E86900F080500090DF
:1016D000DFF82CA0DAF8000040F48070CAF80000AF
:1016E000FFF78CFB81460DE0FFF788FBA0EB0900BC
:1016F000642807D9032039E6001002400000424266
:1017000000700040DAF80000C005EDD5286A20F02E
:1017100001002862286A20F004002862FFF76EFBAF
:10172000814641F2883A07E0FFF768FBA0EB090029
:10173000504501D9032019E697FAA7F0B0FA80F0D6
:1017400040F04000B6EB501F01D128680BE097FA3B
:10175000A7F0B0FA80F040F04000B7EB501F01D185
:10176000286A00E0686A97FAA7F1B1FA81F101F0FE
:101770001F0106FA01F10842D6D1E068012811D014
:10178000A8B105281CD0286A20F001002862286A28
:1017900020F004002862E068C8B3FFF72FFB814601
:1017A0001FE06EE0286A40F001002862F3E7286A33
:1017B00020F001002862286A20F004002862EAE78D
:1017C000286A40F004002862286A40F0010028627C
:1017D000E1E7FFF713FBA0EB0900504501D9032017
:1017E000C4E597FAA7F0B0FA80F040F04000B6EBFD
:1017F000501F01D128680CE097FAA7F0B0FA80F0EA
:1018000040F04000B7EB501F02D1286A01E00BE026
:10181000686A97FAA7F1B1FA81F101F01F0206FA9E
:1018200002F10842D5D02CE0FFF7E8FA814607E044
:10183000FFF7E4FAA0EB0900504501D9032095E534
:1018400097FAA7F0B0FA80F040F04000B6EB501FD6
:1018500001D128680BE097FAA7F0B0FA80F040F0C9
:101860004000B7EB501F01D1286A00E0686A97FA80
:10187000A7F1B1FA81F101F01F0206FA02F1084264
:10188000D6D1E06980B36968C1F38101022970D0C3
:101890004FF080794FF00077022809D099FAA9F02B
:1018A000B0FA80F048F820B0FFF7A8FA044668E0E4
:1018B00099FAA9F0B0FA80F048F820B0FFF79EFA44
:1018C000824607E0FFF79AFAA0EB0A00022801D946
:1018D00003204BE597FAA7F0B0FA80F040F0200023
:1018E000400902D0286801E060E0686A97FAA7F131
:1018F000B1FA81F101F01F0106FA01F10842E1D1CC
:10190000206AB0F5803F05D16868A16820F40030F6
:1019100008436860D4E908010843696821F4741138
:101920000843686099FAA9F0B0FA80F048F820609E
:10193000FFF764FA044606E0FFF760FA001B02288E
:1019400001D9032012E597FAA7F0B0FA80F040F031
:101950002000400901D0296800E0696A97FAA7F0E1
:10196000B0FA80F000F01F0006FA00F00142E3D068
:101970001CE01DE0FFF742FA001B022801D90320FA
:10198000F4E497FAA7F0B0FA80F040F020004009A4
:1019900001D0296800E0696A97FAA7F0B0FA80F0F0
:1019A00000F01F0006FA00F00142E3D10020DDE460
:1019B0000120DBE410B504462168486BC0050AD558
:1019C0004FF4807088630120A0640020E06420460A
:1019D00000F03EF835E0486B800706D502208863AA
:1019E000E064204600F035F82BE0486B000707D58F
:1019F000082088630420E064204600F02AF820E0F4
:101A0000486B800607D5202088630620E0642046C6
:101A100000F01FF815E0486BC00607D5102088635A
:101A20000520E064204600F014F80AE0486B8005C9
:101A300007D54FF4007088630720E064204600F06B
:101A400008F82068C16B4CF23A329143C16310BD73
:101A50007047704710B50446002C03D094F851002D
:101A600010B104E0012010BD204600F039F802203A
:101A700084F851002068016821F040010160D4E938
:101A800001010843D4E90312114308436169084383
:101A9000218B01F400710843E1690843216A08437E
:101AA000A16A084321680860A069042101EA104086
:101AB000616A0843216848602168E06A086120681B
:101AC000C16921F40061C1610449002008706065AA
:101AD000012084F85100002010BD00000800002003
:101AE00010B586B000681F49884239D11E48816907
:101AF00041F480518161816901F4805101918169D2
:101B000041F004018161816901F004010191816961
:101B100041F004018161806900F004000190A0207F
:101B200002900220039003200590104C02A9204649
:101B3000FFF754F84021029100210391049102A97A
:101B40002046FFF74BF8012210212046FFF74EF9FF
:101B5000102102910121039102A92046FFF73EF8CE
:101B600006B010BD003001400010024000080140E6
:101B70002DE9F8430446DDF820800026009694F80D
:101B80005100012806D094F85100222802D00220EA
:101B9000BDE8F88369B162B15BB194F850000128E7
:101BA00009D0012784F8507094F85100012804D01E
:101BB00006E00120ECE70220EAE7322084F8510039
:101BC0006665A263A387E3872163A386E386A66491
:101BD000E664A06A4FF40055A84209D12068016864
:101BE00021F4005101602068016841F40051016056
:101BF00020680168490603D4016841F04001016092
:101C0000E0684FF48271B0F5006F08D0606800287A
:101C100075D0884202D1E08E01287CD084E06068D3
:101C200020B188420CD1E08E012809D1206B2168B7
:101C30000088C860206B801C2063E08E401EE08618
:101C4000E08EE8BBA06AA84204D12068016841F494
:101C500080510160434600220121204600F072FEBF
:101C600008B1032094E72068C068A16B0880A06BCE
:101C7000801CA063E08F401EE087B6E04346002250
:101C80000221204600F05EFE08B1032080E7206BB1
:101C900021680088C860206B801C2063E08E401E95
:101CA00080B2E08638B9A06AA84204D120680168F1
:101CB00041F480510160002243460121204600E0AA
:101CC0000EE000F03FFE08B1032061E72068C06825
:101CD000A16B0880A06B801CA063E08F401EE08792
:101CE000E08E0028CAD1606800287ED143460022D9
:101CF0000121204600F026FE10B1032048E70AE04B
:101D00002068C068A16B0880A06B801CA063E08F76
:101D1000401EE08769E0206B411C21632168007848
:101D2000C860E08E401EE086E08EE8BBA06AA84254
:101D300004D12068016841F48051016043460022CB
:101D40000121204600F0FEFD08B1032020E72068B5
:101D5000C068A16B0870E08F401EE08745E04346F5
:101D600000220221204600F0EDFD08B103200FE71C
:101D7000206B411C216321680078C860E08E401E02
:101D800080B2E08638B9A06AA84204D12068016810
:101D900041F480510160434600220121204600F0B9
:101DA000D1FD10B10320F3E608E02068C168A06B04
:101DB000421CA2630170E08F401EE087E08E002885
:101DC000CDD1606888B9434600220121204600F049
:101DD000B9FD08B10320DBE62068C168A06B421C96
:101DE000A2630170E08F401EE087A06AA84211D173
:101DF000434600220121204600F0A4FD28B1606D79
:101E000040F0020060650320C2E62068C0680090D0
:101E1000BDF80000434601228021204600F092FDDB
:101E200028B1606D40F0100060650320B0E684F8D2
:101E30005170A06AA84215D120688168C943C906BB
:101E400010D4616D41F002016165016821F4005117
:101E500001602068016841F40051016084F850601D
:101E6000012095E684F85060002091E670B50446A4
:101E70000E461546002C03D094F83D0010B107E043
:101E8000012070BD002084F83C00204600F01AF8C4
:101E900004F108012068FEF72BFA3146A268206899
:101EA000FEF774FAD4E901022946236BFEF7EEF936
:101EB000A168206850F8212042F0010240F821205A
:101EC000002070BDFEF70ABE4FF0E021042804D0C8
:101ED000086920F0040008617047086940F00400B8
:101EE00008617047704710B5401EB0F1807F01D384
:101EF000012010BD4FF0E02460610F21601700F059
:101F0000CBFC0020A06107202061002010BD10B58F
:101F1000FFF7E8FF10BD704738B504462068016838
:101F2000C1F30001C26802F48072002904D01AB122
:101F3000E16B41F00101E1630168C1F340024169D5
:101F400001F0010122B119B1E26B42F00402E26337
:101F50000268C2F3800222B119B1E26B42F00202C0
:101F6000E2630268C2F3C00222B119B1E16B41F031
:101F70000801E1630168C1F34011C06800F020006E
:101F800019B110B1204600F0B6FD20680168C1F318
:101F9000C011C06800F0800019B110B1204600F0F7
:101FA00089FE20680168C1F38011C06800F040001C
:101FB00019B110B1204600F089FDE06B002809D06E
:101FC0002068016840680090012084F839002046AC
:101FD000FFF7A1FF38BD70B50446002C04D094F87B
:101FE0003900002510B106E0012070BD84F838509A
:101FF000204600F021F8022084F839002068C168EA
:1020000021F40051C160204600F0CEFD2068016936
:1020100021F4904101612068416921F02A01416168
:102020002068C16841F40051C160E563012084F873
:102030003900002070BD000010B586B0006811495D
:1020400088421DD11048816941F4804181618069D5
:1020500000F4804001904FF4007002900220039041
:1020600003200590094C02A92046FEF7B7FD211573
:10207000029100210391049102A92046FEF7AEFDD2
:1020800006B010BD003801400010024000080140B9
:1020900090F83930012B03D0122B01D00220704769
:1020A00031B32AB390F83830012B23D0012380F8C4
:1020B000383081628285C2850021C16390F8392061
:1020C000122A19D0222280F8392080F838100168AD
:1020D000CA6842F48072CA6001684A6942F001022B
:1020E0004A610068C16841F02001C160002070476A
:1020F0000120704702207047322280F83920E4E73F
:102100001CB511484178007801EB002084B22146CB
:102110000EA000F09DFE224611A1164800F0A8FE78
:1021200018204FF40041CDE900100023114AC821C6
:102130001E2000F00DFA02B00222BDE81040024954
:102140000D48FFF7A5BF00000A000020B2E2C1BFA2
:10215000B5C4BEE0C0EBCEAA3A25646D6D0A00009E
:10216000B2E2C1BFB5C4BEE0C0EBCEAA3A25646DF1
:102170006D00000020000020240200202DE9F04125
:1021800004460D46984694F83900012804D02228C8
:1021900002D00220BDE8F0819DB192B194F83800E0
:1021A000012810D0012684F838600027E76394F8EE
:1021B0003900222809D0122084F83900A284E28450
:1021C0002EE00120E6E70220E4E7322084F839001F
:1021D000F4E7401EE084A068B0F5805F08D0434675
:1021E00000228021204600F09AFDA8B10320D1E70B
:1021F000434600228021204600F091FD08B10320D3
:10220000C8E728882168C0F308004860206908B141
:102210006D1C05E0AD1C03E0216815F8010B48605A
:10222000E08C0028D5D1434600224021204600F012
:1022300076FD08B10320ADE794F83900322805D0C7
:1022400084F8396084F838700020A3E7222084F8ED
:102250003900F7E77047FEE72DE9F0414FF0D84429
:10226000E0202080002060800721618010216180B3
:1022700009216180172363800B22628041266680DA
:10228000892262804B2262800A2262800C2565804E
:102290000E256580182767801B2767800F276780BA
:1022A0004FF0E10CA4F800C0608063801A236380C3
:1022B0004FF0040CA4F802C06580062363802F232E
:1022C00063804523638043236380022363806280AD
:1022D000618032256580362565806780F7252580F9
:1022E000A9256580512565802C256580822565801E
:1022F000C0252580112565806180C12121806680EF
:10230000C52121806080628080216180B12121808F
:10231000B02161806580B42121806380B621218055
:10232000638022216180B7212180C6216180BE2186
:1023300021806080A4F802C0E92121806080012012
:1023400000F0C1F93A202080552060802580782057
:10235000FEF7B8FB29202080BDE8F08170B5144657
:10236000049E1D462B46224600F07EF904FB05F034
:102370003146BDE8704000F06BB92DE9F04393B0F1
:102380009146DDE91A521C464FF02C0801AF4FF080
:10239000D846102A11D018231A4600F065F9A6F87D
:1023A00000801822494601A8FEF72CF80022B95CEB
:1023B0000020CB0720D075801FE010231A4600F0C4
:1023C00053F9A6F800801022494601A8FEF71AF832
:1023D0000022B95C0020CB0701D0758000E074803A
:1023E0004908401CC0B20828F5D3521CD2B2202A9A
:1023F000EFD313B0BDE8F08374804908401CC0B22D
:102400000828D6D3521CD2B2482AD0D3F1E7000014
:102410002DE9F0411C46DDE90653203AD7B24FF0D2
:102420002C084FF0D846102B11D018230C2200F0A6
:102430001BF9A6F8008000221F4907EB470001EBBB
:102440000013995C0020CF071DD075801CE010237D
:10245000082200F009F9A6F800800022174800EBD6
:102460000713995C0020CF0701D0758000E07480CD
:102470004908401CC0B20828F5D3521CD2B2102A19
:10248000EFD3BDE8F08174804908401CC0B2082831
:10249000D9D3521CD2B2995C0020CF0701D07580ED
:1024A00000E074804908401CC0B20428F5D3521CD7
:1024B000D2B2302AC5D3E4E7F43900080434000866
:1024C0002DE9FC5F0446DDE90C7A0D4616469B4675
:1024D0004FF4A0784FF4F0791BE0BAF1100F1DD043
:1024E00004F11800404502D900241835ADB205F1B9
:1024F0001800484501D9002400251820CDE90070B6
:102500005B46324629462046FFF737FFB61C183493
:10251000A4B230780028E0D1BDE8FC9F04F110009F
:10252000404502D900241035ADB205F110004845F0
:1025300001D9002400251020CDE900705B46324609
:1025400029462046FFF719FFB61C1034A4B2E0E775
:102550002DE9FF4F83B00446DDE910780D4616469D
:102560004FF0100B4FF4A0794FF4F07A51E07F2A2E
:1025700033D8B8F1100F18D004F10C00484502D937
:1025800000241835ADB205F11800504501D90024DA
:1025900000251820CDE9007029462046069BFFF74C
:1025A00037FF761C0C34A4B233E004F10800484530
:1025B00002D900241035ADB205F11000504501D903
:1025C00000240025CDE9007B29462046069BFFF725
:1025D0001FFF761C0834A4B21BE0B8F1100F1ED008
:1025E00004F11800484502D900241835ADB205F1B0
:1025F0001800504501D9002400251820CDE90070AD
:10260000324629462046069BFFF7B7FEB61C183413
:10261000A4B23278002AAAD107B0BDE8F08F04F145
:102620001000484502D900241035ADB205F1100064
:10263000504501D900240025CDE9007B32462946CA
:102640002046069BFFF799FEB61C1034A4B2E0E7C3
:1026500010B500224FF0D8432C241C8001E0598093
:10266000521C8242FBD310BD30B54FF0D8442A250E
:102670002580050A6580C5B265801044401E020AA7
:102680006280C0B260802B202080080A6080C8B2BF
:102690006080C818401E010A6180C0B2608030BDF1
:1026A0000CB54FF0D840042101804188ADF80010EE
:1026B0004188C9B24288D2B24088C0B2090401EB55
:1026C000022108440CBDF0B5002201232A263F2434
:1026D0002B25DF274FF0360C4FF0D841012806D0CC
:1026E000022813D0032820D004283BD12CE0A1F8E5
:1026F00000C0082048800E804A804A804B804C8071
:102700000D804A804A804B804F802BE0A1F800C0AA
:10271000682048800E804A804A804B804F800D8020
:102720004A804A804B804C801CE0A1F800C0C82041
:1027300048800E804A804A804B804C800D804A80C1
:102740004A804B804C800DE0A1F800C0A820488052
:102750000E804A804A804B804F800D804A804A809C
:102760004B804C802C200880F0BD000082B00D48CA
:10277000816941F004018161806900F004000190E9
:102780000A48094901604FF4E1314160002181604C
:10279000C16001610C2242618161C16102B0FFF739
:1027A0001ABC000000100240003801405400002014
:1027B00000B587B015484FF02041016014494160D1
:1027C000062181600021C1600161102242618161A6
:1027D000C1610162416212028262C16201634163AE
:1027E00081630220009001910520029003910491E1
:1027F000059106916A4669460448FFF737FB05488C
:10280000C16941F48061C16107B000BDE0010020F1
:10281000040100A0000001400C480B4901604FF486
:102820008271416000218160C16002220261012247
:102830004261520282610822C26101624162816288
:102840000A21C162FFF706B900300140880100206B
:1028500010B500F0C7FA0E480C4901604FF416514C
:10286000416000218160C16001610C22426181618F
:10287000C161FFF7B0FB002201212720FEF72AFBF0
:10288000BDE810402720FEF719BB000000480040BB
:1028900024020020FEE770470907090E002806DA27
:1028A00000F00F0000F1E02080F8141D704700F1E7
:1028B000E02080F8001470470148FFF77BB8000063
:1028C000980000202DE9F04104460F461546124EAF
:1028D000002210213046FEF789FA032000F01EF88E
:1028E000C7F3074000F01AF8C7F3072000F016F806
:1028F000F8B200F013F804E0FF2000F00FF804F83D
:10290000010B6D1EADB2F7D23046BDE8F041012299
:102910001021FEF76BBA0000000801400EB50190CF
:102920006FF07F400090012302AA01A90448FFF73D
:102930001FF908B1FF2002909DF808000EBD0000AD
:10294000880100202DE9F05F04460F4693461D469E
:10295000FEF754FA06464FF000084FF4005A4FF0C5
:102960000109BBF1000F26D050E0681C23D025B12F
:10297000FEF744FA801BA8421DD92068416821F067
:10298000E00141602068016821F040010160A06A17
:10299000504509D12068016821F400510160206888
:1029A000016841F40051016084F8519084F850802E
:1029B0000320BDE8F09F2068806837EA0000D4D18A
:1029C00029E0681C22D025B1FEF718FA801BA84226
:1029D0001CD92068416821F0E0014160206801684D
:1029E00021F040010160A06A504509D120680168CA
:1029F00021F4005101602068016841F40051016038
:102A000084F8519084F850800320D2E720688068D1
:102A100037EA0000D5D00020CBE710B5FEF7F4F977
:102A2000BDE81040FFF773BA30B58FB001200590B4
:102A3000000406900024079402250C950D904FF495
:102A4000E0100E9005A8FEF761FC0F2000900195A4
:102A5000029468020390049402216846FEF76CFA1F
:102A6000FEF7C6FB4FF47A71B0FBF1F0FFF73BFACB
:102A70000420FFF729FA00221146501EFEF72AFA19
:102A80000FB030BD0D48016841F00101016041689F
:102A90000B4A1140416001680A4A11400160016817
:102AA00021F480210160416821F4FE0141604FF46E
:102AB0001F0181600449C003086070470010024094
:102AC0000000FFF8FFFFF6FE08ED00E010B501681A
:102AD000CA6822F04002CA6090F83910322906D044
:102AE000012180F83910FFF7B5FB002010BD22212D
:102AF00080F83910F7E710B590F83910222903D083
:102B0000322901D0022010BD8168B1F5805F11D05B
:102B1000016919B30168496801F07F03816A4A1CA1
:102B200082620B70C18D491E0904090CC1851CD03D
:102B3000002010BD816A02693AB102685268D2B2BF
:102B40000A80816A491C8162ECE702685268C2F31C
:102B500008020A80816A891C8162E3E701684A6889
:102B6000816A4B1C83620A70DCE70168CA6822F044
:102B70002002CA6090F83910322910D00168CA6862
:102B800022F48072CA6001684A6922F001024A6137
:102B9000012180F83910FFF7B3FA002010BD12218F
:102BA00080F83910F7E700002DE9F041044620686D
:102BB0000169E26821F4405111430161A168206973
:102BC0000143606901432068C26841F20C639A4383
:102BD0000A43C26020684169A26921F4407111432F
:102BE00041613349206864253226884230D1FEF79E
:102BF0002FFB00EBC00101EB001061688900B0FB06
:102C0000F1F0B0FBF5F7FEF723FB00EBC00101EBA1
:102C1000001061688900B0FBF1F8FEF719FB00EBCA
:102C2000C00101EB001061688900B0FBF1F0B0FB5E
:102C3000F5F06FF01801484308EB800006EB001038
:102C4000B0FBF5F0216867F31F108860BDE8F081E4
:102C5000FEF7E8FA00EBC00101EB001061688900A3
:102C6000B0FBF1F0B0FBF5F7FEF7DCFA00EBC001CA
:102C700001EB001061688900B0FBF1F8FEF7D2FAB1
:102C800000EBC00101EB001061688900B0FBF1F0BE
:102C9000B0FBF5F06FF01801484308EB800006EB3D
:102CA0000010B0FBF5F0216867F31F108860CDE7D6
:102CB0000038014090F83910122903D0322901D090
:102CC000022070478168B1F5805F0CD0016A4A1C10
:102CD0000262026809785160C18C491E0904090C1E
:102CE000C18410D019E0016A02680988C1F30801A3
:102CF0005160016919B1016A491C0162ECE7016A7E
:102D0000891C0162E8E70168CA6822F08002CA6093
:102D10000068C16841F04001C160002070472DE9A2
:102D2000F04704460F4692461D46FEF767F80646F2
:102D30004FF000084FF00109BAF1000F23D04AE02C
:102D4000681C20D025B1FEF759F8801BA8421AD97B
:102D50002068C16821F08001C1602068C16821F04D
:102D60002001C1602068C16821F48071C1602068C1
:102D7000416921F00101416184F8399084F838807B
:102D80000320BDE8F0872068006837EA0000D7D14B
:102D900026E0681C1FD025B1FEF730F8801BA84242
:102DA00019D92068C16821F08001C1602068C1681C
:102DB00021F02001C1602068C16821F48071C160E8
:102DC0002068416921F00101416184F8399084F85B
:102DD00038800320D5E72068006837EA0000D8D0A3
:102DE0000020CEE710B586B01348C16941F48021B8
:102DF000C161C16901F480210191816941F008013B
:102E00008161806900F0080001904FF480600290B9
:102E10000220039003200590084C02A92046FDF7EC
:102E2000DDFEE114029100210391049102A92046E4
:102E3000FDF7D4FE06B010BD00100240000C0140AA
:102E40000148FFF769B8000024020020FEE70000F7
:102E50000FB4054B10B503A9044A029800F02CF8F2
:102E600010BC5DF814FB0000253300081C00002096
:102E70000FB4084B10B504A902AA039800F01CF87F
:102E8000044602A9002000F048FA204610BC5DF874
:102E900014FB00001B33000802E008C8121F08C121
:102EA000002AFAD170477047002001E001C1121FCB
:102EB000002AFBD1704700002DE9FF4F8DB00F466F
:102EC0000546002606E025280BD0DDE90F129047C5
:102ED0006D1C761C28780028F5D111B03046BDE86D
:102EE000F08F0024A246A1460122EC4900E00443F1
:102EF00015F8013F203B02FA03F00842F7D1287889
:102F00002A2810D06FF02F022878A0F1300109296B
:102F100014D80AEB8A0102EB410144F0020400EBF1
:102F2000010A6D1CF0E701CF5FEA000A03D544F403
:102F30000054CAF1000A44F002046D1C28782E28BF
:102F400017D115F8010F44F004042A280ED06FF0B1
:102F50002F022878A0F1300109290AD809EB89014C
:102F600002EB410100EB01096D1CF2E757F8049BED
:102F70006D1C28786C280FD006DC4C2817D06828E8
:102F80000DD06A2814D104E0742810D07A280FD10B
:102F90000DE044F400140AE044F4801401E044F429
:102FA00040146978814202D104F580146D1C6D1CB7
:102FB0002A786E2A1FD00CDC632A31D004DC002A68
:102FC0008BD0582A11D1A3E0642A68D0692A0CD189
:102FD00065E0732A2ED004DC6F2A73D0702A04D1E6
:102FE0009BE0752A6FD0782A6ED01046DDE90F126B
:102FF0009047761C50E1C4F30250022806D0032803
:1030000009D0042801CF09D0066045E101CFF117AE
:10301000C0E9006140E101CF06803DE106703BE17F
:1030200017F8040B8DF8000000208DF80100EB4626
:10303000012003E057F804BB4FF0FF3061074FF069
:10304000000102D40DE008F10101884649450FDA7C
:103050008045F8DB1BF808100029F4D108E008F1DE
:10306000010188468142FADB1BF808100029F6D1DD
:10307000DDE90F23AAEB08008146214600F036F96E
:10308000304400EB080604E0DDE90F121BF8010BE9
:103090009047B8F10108F7D221464846F7E00A21E7
:1030A000C4F302534FF0000B0891022B04D001CF60
:1030B000C117032B09D00AE0FF1D27F00707F7E827
:1030C000020108E032E01FE020E000B2C117042B4B
:1030D00001D140B2C117031E71F1000307DA4FF0AE
:1030E000000CD0EB0C006CEB01012D2302E023055A
:1030F00004D52B238DF82430012303E0E30701D00E
:103100002023F7E7984658E00A2110E010210EE04E
:1031100010204FF0000B08900CE010214FF0000B36
:1031200044F004044FF00809089103E008214FF02F
:10313000000B0891C4F30253022B04D001CF0021ED
:10314000032B06D006E0FF1D27F00707F7E8020172
:1031500003E080B2042B00D1C0B24FF00008230777
:103160002BD5702A07D0DDF820C08CF0100C5CEA5B
:103170000B0C05D00EE040238DF82430012308E02D
:1031800050EA010306D030238DF824308DF8252035
:1031900002239846DDF820C08CF0080C5CEA0B0C8A
:1031A0000BD150EA010301D1630706D530238DF816
:1031B00024304FF00108A9F10109582A04D038A29F
:1031C0000B9208AA0A920BE03AA2F9E75B46089A2A
:1031D000FCF7DAFF0B9B9B5C0A9A521E0A92137053
:1031E00050EA0102F2D10A98ADEB000000F1200B89
:1031F000600702D524F4803401E04FF00109D9457D
:1032000002DDA9EB0B0000E0002000EB0B014144C4
:103210000890AAEB010AE00306D4DDE90F2321465A
:10322000504600F063F806444FF0000908E009A991
:1032300011F80900DDE90F12904709F10109761C28
:10324000C145F4DBE0030CD5DDE90F2321465046F0
:1032500000F04CF8064404E0DDE90F1230209047FE
:10326000761C0899481E08900029F5DC08E00A98A9
:103270000A990078491C0A91DDE90F129047761CE3
:10328000BBF10001ABF1010BF1DC21465046DDE959
:103290000F2300F019F806446D1C1BE609280100F5
:1032A00030313233343536373839616263646566BC
:1032B000000000003031323334353637383941427E
:1032C00043444546000000002DE9F0410446002536
:1032D0001E461746880404D405E039462020B0472E
:1032E0006D1C641EF9D52846BDE8F0812DE9F0413A
:1032F000044600251E469046C80301D5302700E04D
:103300002027880404D505E041463846B0476D1CA7
:10331000641EF9D52846BDE8F0810A68531C0B608D
:103320001070704713B54FF6FF73012269460248CB
:10333000FEF724FF00981CBD540000201CB5FDF7CB
:103340006BFDFFF771FBFCF773FF0446FFF780FA94
:10335000FFF70CFAFFF760FA21461BA0FFF778FD94
:1033600000244FF4F0734FF4A072214620460094DD
:10337000FEF7F4FF012291021748FDF737FD1820F0
:103380004FF61F01CDE90010002314A2642128206C
:10339000FFF796F8022215491548FEF779FE4FF41B
:1033A0007A75C8211823782208460094FEF7D6FFC4
:1033B0000E4901231A46491E0D48FEF7DFFE284636
:1033C000FDF780FBEDE700004C43442049443D30CD
:1033D00078253038580A0000001C0140B3ACC9F908
:1033E000B2A8BEE0C0EBB2E2C1BF00000A000020FC
:1033F0002402002000000000010203040102030473
:10340000060708090000000000000000000000009E
:103410000000000000001818181818080808080014
:10342000181800000000003C2424000000000000E8
:1034300000000000000000442424FF242424FF2274
:10344000121200000000083C2E6A0E0C38686A6AEE
:103450002E1C08000000002625151D16685854541F
:10346000526200000000001C3434140C0E4A5363F6
:10347000F61C000000000008080800000000000022
:10348000000000000000402030101010101010103C
:10349000202040000000020404080808080808086A
:1034A0000406030000000018187E183C5A18180083
:1034B000000000000000000000080808FF080808DD
:1034C00000000000000000000000000000000000FC
:1034D0000606020000000000000000007F0000005F
:1034E00000000000000000000000000000000000DC
:1034F0000606000000000040202010100808040408
:10350000020100000000003C264242424242426268
:103510003418000000000010181E1A181818181887
:10352000181800000000003C6642602030100804BB
:103530007E7E00000000003C664260303060404209
:103540002618000000000020303828242622FF2002
:10355000202000000000007C06020A3E624040631A
:10356000361C00000000001018080C3E46C2C24283
:10357000663C00000000007E406020301018080803
:103580000C0C00000000003C6242623E3E4243429E
:10359000663C00000000003C62434363363C101868
:1035A000080C0000000000000000001800000000EF
:1035B00018180000000000000000001800000000C3
:1035C0001818080000000040201008060204081027
:1035D000204000000000000000007F0000007F008D
:1035E0000000000000000002040810204020100825
:1035F000060200000000003C666260301008000017
:10360000080800000000003C4279696555555529BD
:10361000023C00000000001818183C24243E6642BA
:1036200042C300000000003E6242423E3E4242422F
:103630007E1E00000000003C6642420202424246FA
:103640006C3800000000001E326242424242426278
:103650003E0E00000000007E0202027E7E02020298
:103660007E7E00000000007E020202023E02020294
:10367000020200000000003C6642420272724246B2
:103680006C580000000000424242427E7E424242AC
:1036900042420000000000181818181818181818CE
:1036A0001818000000000040404040404040426286
:1036B0003E1C00000000006222121A0E1E1232226E
:1036C00062C20000000000020202020202020202C4
:1036D0007E7E000000000066666666765E5A5A5A74
:1036E0005A4A00000000004246464E4A5A52726250
:1036F000626200000000003C664242434343426273
:10370000261800000000003E624242427E0E020285
:10371000020200000000003C6642424343435272F2
:10372000267800000000003E624242623E123222D1
:10373000624200000000003C6662060C38604242B3
:10374000663C00000000007E181818181818181899
:1037500018180000000000424242424242424242E7
:10376000663C0000000000434262662624341C18B8
:1037700018180000000000D95B5B5A5A565666665E
:10378000262600000000006226241C18181C34267F
:1037900062430000000000436226341C1818181809
:1037A000181800000000007E60203010080C04068D
:1037B0007E7E000000780808080808080808080845
:1037C0000808780000000002040404080810101023
:1037D00020204040001E101010101010101010106B
:1037E00010101E000018344200000000000000000D
:1037F00000000000000000000000000000000000C9
:10380000000000FF000C1810000000000000000085
:1038100000000000000000000000003C62706E62CA
:10382000725C0000000000020202023E624242623C
:10383000661A0000000000000000003C6202024224
:10384000661C0000000000404040407E6242426230
:10385000665C0000000000000000003C627E024246
:1038600066380000000000780808087E080808088C
:1038700008080000000000000000007C22223C023A
:103880003E62423E000000020202027A464242428A
:1038900042420000000000181800001818181818FC
:1038A0001818000000000030300000303030303098
:1038B0003030321E00000002020202321A1E1622AE
:1038C000624200000000001818181818181818187C
:1038D0001818000000000000000000EFDBDBDBDB5D
:1038E000DBDB0000000000000000007A464242429C
:1038F00042420000000000000000003C62424242E0
:1039000066180000000000000000003E62424262B3
:10391000661A0202000000000000007E624242625D
:10392000665C404000000000000000340C04040409
:1039300004040000000000000000003C660638425D
:10394000663C0000000000000808083F080808085E
:103950004870000000000000000000424242426245
:10396000765C000000000000000000426624241C79
:103970001818000000000000000000DB5B5A5666CB
:103980002624000000000000000000263418183C27
:103990002642000000000000000000426624241CB3
:1039A0001818080E000000000000007E3010080407
:1039B000067E000000603030303030301030303063
:1039C0003030200018181818181818181818181857
:1039D0001818181800060404040404040804040455
:1039E00004040400044E7200000000000000000007
:1039F00000000000000000000000000000000000C7
:103A000000000000000000000000000000000000B6
:103A100000000000000000000000000000000000A6
:103A20000000000000000000000060006000600076
:103A30006000600060006000600060006000600086
:103A400060002000000000007000700070000000A6
:103A50000000000000000000000000009801980134
:103A6000980198019800000000000000000000008C
:103A70000000000000000000000000000000000046
:103A80000000000000000000000000001003100310
:103A9000100318031801FF07FF07080188018801B8
:103AA000FF07FF078C008C008C008400C40000001E
:103AB000000000000000000000002000F000F801FD
:103AC000AC032C032C032C003C007800E000E00148
:103AD000A003260326032E03AC03FC01F000200004
:103AE0002000000000000000000000000C021E0189
:103AF000120112019200920052005E002C03A007F6
:103B000090049004D004880488048407040300000F
:103B10000000000000000000000000007000F8003D
:103B20008C008C018C00CC00780038003C003E06F4
:103B30006606E602C60386038E07FC0670000000D8
:103B40000000000000000000000000003000300015
:103B500030003000300000000000000000000000D5
:103B60000000000000000000000000000000000055
:103B700000000000000000000000000600038001BB
:103B80008000C000C0004000400060006000600095
:103B9000400040004000C00080008001000300069B
:103BA0000000000000000000020006000C000800F9
:103BB000180010003000200020002000200020000D
:103BC0002000200030001000180008000C00060043
:103BD0000200000000000000000000006000600023
:103BE00062046606FE07F801F000FC036E0762043B
:103BF0006000600000000000000000000000000005
:103C000000000000000000000000000000000000B4
:103C1000000060006000600060006000FF0760005E
:103C20006000600060006000000000000000000014
:103C30000000000000000000000000000000000084
:103C40000000000000000000000000000000000074
:103C500000000000000000000C000C000C00080038
:103C60000400000000000000000000000000000050
:103C7000000000000000000000000000FF0700003E
:103C80000000000000000000000000000000000034
:103C90000000000000000000000000000000000024
:103CA0000000000000000000000000000000000014
:103CB00000000000000000000C000C000C000000E0
:103CC00000000000000000000000000400040002EA
:103CD0000002000180018000C000400020002000A0
:103CE0001000100008000C00040006000200000094
:103CF0000000000000000000000000007000F8015B
:103D00009C030C03060306060606060606060606C0
:103D10000606060606030C039C03F801600000007B
:103D200000000000000000000000000040006000F3
:103D3000700078006C00640060006000600060004B
:103D40006000600060006000600060000000000033
:103D5000000000000000000000000000F000FC0176
:103D60008C03060306030003000380018001C000EA
:103D70006000700038001C000C00FE07000000000E
:103D8000000000000000000000000000F000F8014A
:103D90000C030603060300030003E001E0018003B7
:103DA00000030006060606038C03F80170000000FD
:103DB0000000000000000000000000000001800181
:103DC000C001C001E001B001B00198018C018C017B
:103DD0008601FF0FFF0F80018001800100000000BD
:103DE0000000000000000000000000000000FC03D4
:103DF0000C000C000C000400FE01CE0306030003BF
:103E000000060006030306038603FC0170000000A1
:103E1000000000000000000000000000C001C00021
:103E20006000600030001800F800FC030C07060674
:103E300006060606060606060C03F803F000000058
:103E40000000000000000000000000000000FE076D
:103E500000060003000380018001C000C000600074
:103E600060006000300030003000180000000000EA
:103E70000000000000000000000000007000FC01D5
:103E80000C030603060306038C03FC01FC018E03EE
:103E900006060606060606060E03FC01F0000000F4
:103EA0000000000000000000000000007000FC01A5
:103EB0008E03060306070307060306038E03FC01B1
:103EC000F001C000E0006000300030001800000089
:103ED00000000000000000000000000000000000E2
:103EE0000000000000000000600060000000000012
:103EF00000000000000000006000600060000000A2
:103F000000000000000000000000000000000000B1
:103F100000000000000000006000600000000000E1
:103F20000000000000000000600060006000200051
:103F3000200000000000000000000000000400035A
:103F40008001C0006000300018000C0006000C006A
:103F5000180030006000C000800100030004000071
:103F60000000000000000000000000000000000051
:103F7000000000000000FF0700000000000000003B
:103F8000FF07FF0700000000000000000000000025
:103F90000000000000000000000000000200060019
:103FA000080030006000C00080010003000600032C
:103FB0008001C00060003000080006000200000020
:103FC0000000000000000000000000007000F80188
:103FD0009C030C03060300038003C001C0006000C3
:103FE0006000200000000000600060006000000031
:103FF000000000000000000000000000E0001801C8
:1040000004020404E20592059A05990489048904CE
:10401000C904CA02BA03020004000801F00000004B
:1040200000000000000000000000000060006000D0
:104030007000F000F000D8009801980198018C0100
:10404000FC03FC030E03060706060606070E000027
:104050000000000000000000000000003E00FE0123
:1040600086030603060706070603FE01FE01060394
:1040700006060606060606078603FE037E00000007
:10408000000000000000000000000000E000F80157
:104090001C030C060E0606060600060006000600B7
:1040A000060606060E060C071C03F801E0000000D9
:1040B0000000000000000000000000000E00FE00F4
:1040C000C60186030603060706060606060606065A
:1040D0000606060706038603C601FE001E00000052
:1040E000000000000000000000000000FE03FE03CE
:1040F00006000600060006000600FE03FE0306009A
:1041000006000600060006000600FE07FE07000087
:10411000000000000000000000000000FE07FE0795
:10412000060006000600060006000600FE01060066
:104130000600060006000600060006000600000055
:104140000000000000000000000000006000F80116
:104150009C030C030E07060606000600C607C607EA
:10416000060606060E060C071C07F8076006000088
:104170000000000000000000000000000606060627
:1041800006060606060606060606FE07FE070606DD
:1041900006060606060606060606060606060000CB
:1041A000000000000000000000000000600060004F
:1041B00060006000600060006000600060006000FF
:1041C000600060006000600060006000600000004F
:1041D00000000000000000000000000000070007D1
:1041E0000007000700070007000700070007000797
:1041F0000607060306030E039C03F8017000000087
:104200000000000000000000000000000606060399
:104210008601C601E600660036003E007E00EE0024
:10422000C600C601860186030603060706060000CF
:104230000000000000000000000000000600060072
:10424000060006000600060006000600060006003E
:1042500006000600060006000600FE07FE07000036
:104260000000000000000000000000000E070E0724
:104270000E078E079E079E079E079E069606F60669
:10428000F606F6067606660666066606660600000A
:1042900000000000000000000000000006060E06FE
:1042A0000E061E061E061E0636063606660666063E
:1042B000C606C606860786078607060706070000A5
:1042C0000000000000000000000000007000F80185
:1042D0009C030E03060706060606060606060606E5
:1042E0000606060606070E039C03F8017000000090
:1042F0000000000000000000000000003E00FE0181
:10430000860306060606060606060607FE03FE01E7
:104310000600060006000600060006000600000073
:104320000000000000000000000000007000F80124
:104330009C030E0306070606060606060606060684
:104340000606C606C6078E039C03F803700300002A
:104350000000000000000000000000003E00FE0120
:10436000860306070606060606078603FE01FE000C
:10437000C60086018601060306030607060600003E
:104380000000000000000000000000007000F801C4
:104390008C030E0306030E001C007800F001C0031E
:1043A00000070606060606070E03FC01F0000000E3
:1043B000000000000000000000000000FE07FE07F3
:1043C00060006000600060006000600060006000ED
:1043D000600060006000600060006000600000003D
:1043E00000000000000000000000000006060606B5
:1043F000060606060606060606060606060606065D
:1044000006060606060606078C03FC03F0000000FD
:104410000000000000000000000000000306070686
:10442000060606070E030C030C038C019C01980181
:104430009801D800F000F0007000600060000000FB
:10444000000000000000000000000000630E630692
:10445000630673067606F606D606D606D6069602D6
:104460009E039E039C038C038C038C030C010000B1
:1044700000000000000000000000000006060E031F
:104480000C038C019801D800F00070006000F0006F
:10449000F00098019C010C030E03060707060000BC
:1044A00000000000000000000000000007060606F3
:1044B00006030C038C019801D800F0007000600026
:1044C000600060006000600060006000600000004C
:1044D000000000000000000000000000FE07FE07D2
:1044E000000300038001C001C000600060003000D4
:1044F000380018000C000C000600FE07FE07000044
:104500000000000000000000E007E007200020009D
:10451000200020002000200020002000200020009B
:104520002000200020002000200020002000E007C4
:10453000E00700000000000000000000060004008A
:104540000C00080018001800100030002000600067
:1045500060004000C00080008001000100010003F5
:1045600000020000000000007E007E00600060008D
:10457000600060006000600060006000600060003B
:1045800060006000600060006000600060007E000D
:104590007E00000000000000F000D8018C0106023F
:1045A000000000000000000000000000000000000B
:1045B00000000000000000000000000000000000FB
:1045C00000000000000000000000000000000000EB
:1045D00000000000000000000000000000000000DB
:1045E00000000000000000000000000000000000CB
:1045F0000000FF0F0000000030006000C000C0009D
:1046000000000000000000000000000000000000AA
:10461000000000000000000000000000000000009A
:10462000000000000000000000000000000000008A
:104630000000000000000000F801FC030C03000370
:10464000F0037C030E0306038603FC033806000018
:10465000000000000000000000000000060006004E
:104660000600060006000600F601DE030E03060340
:1046700006070606060706038E03FE01E600000095
:10468000000000000000000000000000000000002A
:104690000000000000000000F801FC030E03060308
:1046A00006000600060606070C03F801F0000000ED
:1046B00000000000000000000000000000030003F4
:1046C0000003000300030003F803DC030E030603EA
:1046D00006030603060306038C03FC0370030000B5
:1046E00000000000000000000000000000000000CA
:1046F0000000000000000000F8019C030C0306030A
:10470000FE070600060006070C03F801F000000093
:104710000000000000000000000000008003E0072F
:104720003004300030003000FE03FE033000300063
:104730003000300030003000300030003000000029
:104740000000000000000000000000000000000069
:104750000000000000000000F807DC018C018C0163
:104760008C01DC01FC0006007C00F803060606064E
:104770000E03FC010000000000000000060006001F
:104780000600060006000600E601B6030E030E064C
:1047900006060606060606060606060606060000C5
:1047A00000000000000000000000000000006000A9
:1047B0006000000000000000600060006000600019
:1047C0006000600060006000600060006000000049
:1047D0000000000000000000000000000000800158
:1047E0008001000000000000800180018001800144
:1047F00080018001800180018001800180018001B1
:10480000FC007C0000000000000000000600060024
:1048100006000600060006008603C601E6007600D4
:104820007E00DE00CE0086010603060306060000B9
:1048300000000000000000000000000060006000B8
:104840006000600060006000600060006000600068
:1048500060006000600060006000600060000000B8
:104860000000000000000000000000000000000048
:1048700000000000000000003B07FF07670463041E
:104880006304630463046304630463046304000057
:104890000000000000000000000000000000000018
:1048A0000000000000000000E601B6030E030E0643
:1048B00006060606060606060606060606060000A4
:1048C00000000000000000000000000000000000E8
:1048D0000000000000000000F800FC030E030606C4
:1048E00006060606060606078C03F801700000009F
:1048F00000000000000000000000000000000000B8
:104900000000000000000000F600FE030E03060396
:1049100006070606060706038E03FE01E6000600EC
:10492000060006000000000000000000000000007B
:104930000000000000000000F803FC030E03060363
:1049400006030603060306038C03FC03700300033F
:104950000003000300000000000000000000000051
:1049600000000000000000008C01EC013C001C0075
:104970001C000C000C000C000C000C000C000000D3
:104980000000000000000000000000000000000027
:104990000000000000000000F8019C030C030C0064
:1049A0007C00F001000304030C03FC03F000000092
:1049B00000000000000000000000000000000000F7
:1049C0003000300030003000FE03FE0330003000C5
:1049D00030003000300030003000E003C003000041
:1049E00000000000000000000000000000000000C7
:1049F0000000000000000000060606060606060687
:104A000006060606060706078E07FC06380600009F
:104A10000000000000000000000000000000000096
:104A20000000000000000000060606030C030C0353
:104A30008C0198019800D000F00070006000000028
:104A40000000000000000000000000000000000066
:104A50000000000000000000630663067206760690
:104A6000D606D60294039C039C038C018C010000A3
:104A70000000000000000000000000000000000036
:104A800000000000000000000E038C019801F000FF
:104A900070007000F000D8018C010C0306060000C5
:104AA0000000000000000000000000000000000006
:104AB0000000000000000000060606030C030C03C3
:104AC0008C0198019800F000F00070006000600018
:104AD0003C001C000000000000000000000000007E
:104AE0000000000000000000FC03FC038001C00087
:104AF00060007000380018000C00FE03FE03000088
:104B000000000000000000008003800180008000A1
:104B100080008000800080008000C000E000C000B5
:104B20008000800080008000800080008000800184
:104B300080030000600060006000600060006000B2
:104B40006000600060006000600060006000600065
:104B50006000600060006000600060006000600055
:104B600060006000000000000E001800180018002F
:104B70001800180018001800180018003000300045
:104B80001800180018001800180018001800180065
:104B90000E000000000038047C06C60380010000FF
:104BA0000000000000000000000000000000000005
:104BB00000000000000000000000000000000000F5
:104BC00000000000E44B000800000020200000006E
:104BD000982E0008044C0008200000204812000015
:104BE000A82E000800A24A040000000000550000A2
:104BF00001000000000000000000000000000000B4
:044C000000000000B0
:0400000508000131BD
:00000001FF
