:020000040800F2
:1000000098040020450100085F1300080B12000847
:100010005D1300088D010008F119000800000000C0
:100020000000000000000000000000008313000832
:100030008F010008000000008113000885130008EC
:100040005F0100085F0100085F0100085F01000810
:100050005F0100085F0100085F0100085F01000800
:100060005F0100085F0100085F0100085F010008F0
:100070005F0100085F0100085F0100085F010008E0
:100080005F0100085F0100085F0100085F010008D0
:100090005F0100085F0100085F0100085F010008C0
:1000A0005F0100085F0100085F0100085F010008B0
:1000B0005F0100085F0100085F0100085F010008A0
:1000C0005F0100085F0100085F0100085F01000890
:1000D0005F010008E51900085F0100085F010008E2
:1000E0005F0100085F0100085F0100085F01000870
:1000F0005F0100085F0100085F0100085F01000860
:100100005F0100085F0100085F0100085F0100084F
:100110005F0100085F0100085F0100085F0100083F
:100120005F0100085F0100085F0100085F0100082F
:10013000DFF80CD000F018F8004800475D1A0008FE
:10014000980400200648804706480047FEE7FEE77F
:10015000FEE7FEE7FEE7FEE7FEE7FEE7FEE7FEE777
:10016000FD13000831010008064C074D06E0E06869
:1001700040F0010394E8070098471034AC42F6D3EE
:10018000FFF7DAFFE81A0008081B0008FEE77047CF
:100190002DE9F05F90F821100024022903D00421FA
:1001A0008163012485E001680A6822F00E020A607A
:1001B00001680A6822F001020A603F4E3E4FB21504
:1001C000DFF8F4C0DFF8F090DFF8ECA0DFF8E8B07B
:1001D000DFF8E4E00168783F13011502ACF1640C2C
:1001E000A9F15009AAF13C0AABF1280BAEF1140EAB
:1001F0004FF48018B14227D9B9420ED0614512D0D0
:1002000049451DD0514518D0594518D0714501D1E7
:10021000424615E0294EB14201D1012210E0274E9D
:100220001436B14201D110220AE0244E2836B142E0
:1002300006D0224A3C32914201D11A4600E02A46B9
:100240001E49091F0A602BE0B94213D0614517D03F
:10025000494522D051451DD059451DD0714501D188
:1002600042461AE0B14202D14FF0807215E0134EBF
:10027000B14201D1012210E0104E1436B14201D139
:1002800010220AE00D4E2836B14206D00B4A3C320D
:10029000914201D11A4600E02A46074980394A6056
:1002A000012180F82110002180F82010416B01B15C
:1002B00088472046BDE8F09F8000024008040240C5
:1002C00070B5044600F002F90546601C02D00448EF
:1002D0000078044400F0FAF8401BA042FAD370BD45
:1002E000000000202DE9F84FDFF8B8A100220AF144
:1002F000040B144601274FF00F090BF1040E00BF49
:100300000B6807FA04F52B40AB4274D1DFF898C1B3
:100310004E68A6EB0C0866452BD00DDC032E34D0BE
:1003200005DC36B3012E19D0022E2FD11BE0112E81
:1003300016D0122E2AD119E0B8F5881F19D006DC84
:10034000B8F5803F15D0B8F5801F1FD111E0B8F582
:10035000001F0ED0B8F5041F18D10AE0CA6815E0D6
:10036000CA68121D12E0CA6808320FE0CA680C326F
:100370000CE08A682AB1012A4FF0080203D04561D7
:1003800004E0042202E0056100E00022FF2B01D816
:10039000064601E000F104064FEA840501D9A5F103
:1003A0002005D6F800C009FA05F82CEA080C02FA74
:1003B00005F54CEA050CC6F800C04D68ED006AD59D
:1003C0003A4DAE6946F00106AE61AD6924F0030610
:1003D00005F001050095364D06EB050CDCF80850DC
:1003E000A6074FEA167809FA08F6B543314EB0422F
:1003F00002D100261AE04EE02F4EB04201D1012674
:1004000014E02E4EB04201D102260FE02C4EB04235
:1004100001D103260AE02B4EB04201D1042605E0AB
:10042000294EB04201D1052600E0062606FA08F65C
:100430002E43CCF808604D68DAF80060ED035546AD
:1004400001D51E4300E09E432E604D68AD0305D5E7
:10045000DBF800601E43CBF8006004E0DBF80050DE
:100460009D43CBF800504D68DEF80060ED02754604
:1004700001D51E4300E09E432E604D68AD0205D5B8
:10048000084D0C352E681E432E6004E0054E0C36D8
:1004900035689D433560641C102CFFF431AFBDE816
:1004A000F88F00000004014000001110001002400D
:1004B0000000014000080140000C01400010014014
:1004C0000014014000180140001C014001488068F0
:1004D0007047000000000020024881680278114443
:1004E0008160704700000020074810B5016841F0A6
:1004F00010010160032000F09DF8002000F006F8D4
:1005000000F024F8002010BD0020024070B50D4D11
:1005100004464FF47A712878B1FBF0F00A49096873
:10052000B1FBF0F000F02DFB48B9102C07D20022EF
:100530002146501E00F05EF800206C6070BD012066
:1005400070BD0000000000200C000020214808B50C
:10055000816941F001018161816901F0010100912E
:10056000C16941F08051C161C06900F080500090C4
:10057000032000F05FF8002211466FF00B0000F03E
:1005800039F8002211466FF00A0000F033F800221B
:1005900011466FF0090000F02DF800221146501F9F
:1005A00000F028F800221146101F00F023F8002266
:1005B0001146901E00F01EF800221146501E00F059
:1005C00019F80548416821F0E06141F0806141601F
:1005D00008BD0000001002400000014000F01F02B2
:1005E000012191404009800000F1E020C0F8001195
:1005F00070470000F0B40E4B1B680C46C3F3022397
:10060000C3F10705042D00D90425191D072901D2BE
:10061000002300E0DB1E012606FA05F1491E2140F9
:1006200099409E40761E16403143F0BC00F098BEC3
:100630000CED00E0064900F0070208684FF6FF03E2
:10064000184040EA0220034A104308607047000047
:100650000CED00E00000FA052DE9F047DFF83C81E1
:1006600005460E46D8F8000000F00700B0420CD254
:10067000D8F8001021F007013143C8F80010D8F86D
:10068000000000F00700B04263D12878444C800796
:1006900005D56068A96820F0F000084360602878FC
:1006A000C00745D06868012816D02168022816D0F6
:1006B000890700294DDA616821F003010143616077
:1006C000FFF704FF6968074641F2883001290FD01F
:1006D0000229814619D027E021688903E9E78901C9
:1006E000E7E700BFFFF7F2FEC11B494501D918E05B
:1006F00081466068C0F381000128F3D118E000BF93
:10070000FFF7E4FEC11B49450BD86068C0F38100C8
:100710000228F5D10CE000BFFFF7D8FEC11B494508
:1007200002D90320BDE8F087606810F00C0FF3D108
:10073000D8F80010404601F00701B1420BD901681A
:1007400021F0070131430160006800F00700B0426A
:1007500001D00120E6E72878400705D56068E96800
:1007600020F4E060084360602878000706D56068E0
:10077000296920F4605040EAC100606000F03CF854
:100780006168084AC1F30311515CC840064908601A
:100790000020FFF7BBFE0020C4E70000002002405D
:1007A00000100240D01A00080C0000200148006828
:1007B000704700000C0000200448054900684968A3
:1007C000044AC1F30221515CC84070470C0000206C
:1007D00000100240E01A0008044805490068496812
:1007E000044AC1F3C221515CC84070470C0000208C
:1007F00000100240E01A000812A185B00FC98DE870
:100800000F0014A0144A006804905168134801F0C6
:100810000C03042B10D0082B0ED1C1F38343C90362
:100820001DF803000AD5516804AAC1F34041515C88
:100830000A4A5043B0FBF1F005B0704708494843FD
:10084000FAE7000002030405060708090A0B0C0D6D
:100850000E0F1010010200000010024000127A007A
:1008600000093D002DE9F84F04460078B94DC00756
:1008700048D06868C0F38100012807D06868C0F3D9
:100880008100022809D16868C00306D52868800362
:1008900038D5606800286FD034E06068B0F5803FDC
:1008A0000BD010B1B0F5A02F11D0286820F4803003
:1008B0002860286820F4802002E0286840F4803016
:1008C0002860606888B1FFF701FE064609E02868E5
:1008D00040F480202860F0E7FFF7F8FD801B6428D3
:1008E00075D828688003F7D50CE0FFF7EFFD0646C2
:1008F00005E000BFFFF7EAFD801B6428F0D82868F8
:100900008003F7D42078944E80074FF001094FF010
:1009100000083BD5686810F00C0F07D06868C0F37A
:100920008100022809D16868C00306D428688007BE
:1009300014D5206901281FD110E02069B0B1C6F894
:100940000090FFF7C3FD074605E000BFFFF7BEFDBF
:10095000C01B0228C4D828688007F7D528686169B9
:1009600020F0F80040EAC10028600FE0C6F80080DF
:10097000FFF7ACFD074606E0E9E000BFFFF7A6FD84
:10098000C01B022823D828688007F7D420780007E6
:100990002CD57248A169D9B1C0F80090FFF796FD37
:1009A000074604E0FFF792FDC01B02280FD8686AD3
:1009B0008007F7D56A484FF4FA510068B0FBF1F0B0
:1009C000009000BF0098411E0091FAD20EE080E036
:1009D000C0F80080FFF77AFD074604E0FFF776FDD8
:1009E000C01B022875D8686A8007F7D420784007B2
:1009F00060D5E8690027C00008D4E86940F080505D
:100A0000E861E869012700F08050009055480168CE
:100A1000C90513D40168834641F480710160FFF772
:100A200055FD824606E000BFFFF750FDA0EB0A002F
:100A300064284ED8DBF80000C005F5D5E068012831
:100A40000AD008B1052813D0286A20F001002862D6
:100A5000286A20F0040002E0286A40F001002862C1
:100A6000E06841F2883B98B1FFF730FD82460BE029
:100A7000286A40F004002862EEE700BFFFF726FD79
:100A8000A0EB0A0159455AD8286A8007F6D50CE030
:100A9000FFF71CFD824605E0FFF718FDA0EB0A01F9
:100AA00059454CD8286A8007F6D41FB1E86920F070
:100AB0008050E861E06988B36968C1F38101022967
:100AC00045D00228C6F8608004D0FFF7FFFC04463A
:100AD00038E034E0FFF7FAFC074604E0FFF7F6FCE5
:100AE000C01B02282BD828688001F7D4206AB0F5F3
:100AF000803F05D16868A16820F400300843686031
:100B0000D4E908010843696821F474110843686056
:100B1000C6F86090FFF7DAFC044606E015E000BF77
:100B2000FFF7D4FC001B022809D828688001F7D5FC
:100B30000BE000BFFFF7CAFC001B022802D903200C
:100B4000BDE8F88F28688001F4D40020F8E7012080
:100B5000F6E70000001002400000424280044242DA
:100B60000C000020007000404FF0E02104280869CC
:100B700003D020F004000861704740F00400FAE759
:100B8000704710B5401EB0F1807F01D3012010BD29
:100B90004FF0E02460610F21601700F0E1FB0020BE
:100BA000A06107202061002010BD10B5FFF7E8FF0D
:100BB00010BD10B590F83C20012A25D0012280F804
:100BC0003C20CA688C6822F4407222434C6822F4AC
:100BD000806222430C6822F4006222430C6922F4F2
:100BE000805222434C6922F4005222438C6922F441
:100BF0008042224322F400410268002321435164D1
:100C000080F83C30002010BD022010BD30B590F8B7
:100C10003C20012A20D0012280F83C20022380F8C9
:100C20003D3003685C6824F070045C6003685C68B5
:100C30000D682C435C6003689C6824F080049C6011
:100C400003689C6849680C439C6080F83D20002143
:100C500080F83C10084630BD022030BD10B5044677
:100C60000068042200F03FFC2068416C41F4004120
:100C700041642068016841F001010160002010BD5D
:100C800010B5040003D094F83D0010B107E0012036
:100C900010BD002084F83C00204600F00DF8022032
:100CA00084F83D00211D206800F0CCFB012084F871
:100CB0003D00002010BD000008B5006806498842CC
:100CC00008D10648816941F400618161806900F4BE
:100CD0000060009008BD0000002C014000100240A0
:100CE000022180F83D1001680A6842F001020A60A2
:100CF000012180F83D100020704770B5044690F83F
:100D00003C00012817D0012584F83C50022084F8CB
:100D10003D002068826822F0770222F47F428260E0
:100D20000868502837D00DDC202859D005DC88B35E
:100D3000102841D151E0022070BD302853D0402806
:100D40003AD13FE060282ED070280BD0B0F5805FFC
:100D500003D0B0F5005F2FD110E02068816821F04A
:100D6000070115E0CB68D1E90121206800F0C6FB3E
:100D70002168886840F0770088601DE0CB68D1E981
:100D80000121206800F0BAFB2068816841F48041AD
:100D9000816011E01EE0CA684968206800F082FCAA
:100DA0005021206806E0CA684968206800F08BFC82
:100DB0006021206800F0ACFB84F83D50002084F8EE
:100DC0003C0070BDCA684968206800F06BFC402197
:100DD0002068EFE700212068ECE710212068E9E7B0
:100DE00020212068E6E730212068E3E71FB500688E
:100DF0000B49884213D14FF44070009002200190BB
:100E00000320039069460748FFF76CFA06484168DB
:100E100021F0C00141F0E06141F0C00141601FBD1F
:100E2000002C0140001801400000014070B504464C
:100E300090F83C000D4601280DD0012684F83C6056
:100E4000022084F83D0042B1042A18D0082A2AD092
:100E50000C2A4DD139E0022070BD206800F060FB03
:100E60002068816941F0080181612068816921F071
:100E700004018161206881692A69114311E02068B9
:100E800000F07EFB2068816941F400618161206887
:100E9000816921F480618161206881692A6941EA60
:100EA0000221816124E0206800F0A0FB2068C16974
:100EB00041F00801C1612068C16921F00401C161EC
:100EC0002068C1692A69114311E0206800F0C2FB63
:100ED0002068C16941F40061C1612068C16921F4E1
:100EE0008061C1612068C1692A6941EA0221C1614A
:100EF00084F83D60002084F83C0070BD10B504000B
:100F000003D094F83D0010B107E0012010BD00208F
:100F100084F83C00204600F00CF8022084F83D00E4
:100F2000211D206800F08EFA012084F83D00002089
:100F300010BD704710B504460068012200F0C8FAE1
:100F400008492068884202D00749884203D1416C91
:100F500041F4004141642068016841F001010160F1
:100F6000002010BD002C01400034014070470000FB
:100F700070B5026804461068D168536910F00F0F0D
:100F800051D003F0010501F4907635435DD0C207DE
:100F900005D0CA0503D5E26B42F00102E2634207C5
:100FA00005D5DA0703D0E26B42F00202E263820762
:100FB00005D5DA0703D0E26B42F00402E2630207D0
:100FC00005D5DA0703D0E26B42F00802E263E26B78
:100FD000002A34D0800604D5880602D5204600F0C9
:100FE0009AFB20684069E16BC0F3801001F00801B2
:100FF0000143204624D000F080FB20684169490667
:101000001AD5416921F040014161606BA0B11B49D3
:101010004163606BFFF7BCF8002810D0606B416B38
:10102000BDE87040084783060FD58B060DD52046D6
:10103000BDE8704000F06FBB2046FFF797FF70BD22
:10104000FFF794FF0020E06370BD030606D50B0692
:1010500004D52046BDE8704000F060BC4006F3D5E2
:101060004806F1D5D168204621F04001D160202109
:1010700084F8391000F0C8F870BD0000EB160008C5
:1010800070B5040004D094F83900002510B106E0D2
:10109000012070BD84F83850204600F023F8242049
:1010A00084F839002068C16821F40051C1602046ED
:1010B00000F07CFB2068016921F490410161206807
:1010C000416921F02A0141612068C16841F4005161
:1010D000C160E563202084F8390084F83A000020DC
:1010E00070BD000010B50068154986B0884225D152
:1010F0001448816941F4804181618069124C00F497
:10110000804004904FF40070009002200190032072
:10111000039069462046FFF7E5F800212015CDE948
:101120000001029169462046FFF7DCF800221146D3
:101130002520FFF75FFA2520FFF750FA06B010BD13
:1011400000380140001002400008014070472DE9BE
:10115000F843044690F839001F4616460D462028ED
:1011600050D1A5B19EB194F8380001284AD0012091
:1011700084F838004FF00008C4F83C80212084F83F
:101180003900FFF7A3F9A6848146E68426E0012012
:10119000BDE8F883E08C401EE084A0684B46B0F5C3
:1011A000805F4FF000024FF080012046009703D08F
:1011B00000F0E5FBE8B90DE000F0E1FBC8B92888D4
:1011C0002168C0F308004860206908B16D1C05E083
:1011D000AD1C03E0216815F8010B4860E08C002885
:1011E000D8D14B46002240212046009700F0C7FB93
:1011F00008B10320CCE7202084F8390084F8388037
:101200000020C5E70220C3E77047FEE7094808B59C
:10121000816941F040018161816901F040010091E3
:10122000816941F004018161806900F0040000904F
:1012300008BD00000010024010B5304894B02E499F
:10124000016001210024C0E901144FF46171C0E97B
:10125000031444618461FFF713FD18B1422128A0F3
:1012600000F0C7FB4FF480500E900EA92348FFF703
:1012700044FD18B1482122A000F0BBFB1F48FFF736
:101280003DFE18B14D211EA000F0B3FB129412A92F
:101290001A481394FFF7BAFC18B1542118A000F0B3
:1012A000A8FB60200090C820CDE9010403940494B9
:1012B00005940022694611480694FFF7B7FD18B15E
:1012C00060210FA000F095FB0794089409944FF457
:1012D00000500A94CDE90B4007A908480D94FFF788
:1012E00068FC18B16C2106A000F083FB0348FFF7EF
:1012F0007DFD14B010BD0000002C01401400002042
:101300002E2E2F5372632F74696D2E630000000020
:101310000D4810B50B4901604FF4E13141600021E7
:1013200081600C22C160C0E904128161C161FFF7D4
:10133000A7FE002805D0BDE81040422103A000F020
:1013400058BB10BD00380140540000202E2E2F53F2
:1013500072632F75736172742E630000FEE770472D
:101360000907090E002806DA00F00F0000F1E0205E
:1013700080F8141D704700F1E02080F800147047D9
:101380007047704710B5FFF7A7F8BDE81040FFF7AA
:101390000CBC30B58FB001210804CDE90010002449
:1013A000029402250491CDE907504FF4E010099012
:1013B0006846FFF757FA00B1FEE70F20CDE90A05AE
:1013C0004FF48060CDE90C4002210AA80E94FFF78B
:1013D00043F900B1FEE7FFF7E9F94FF47A71B0FB8A
:1013E000F1F0FFF7CEFB0420FFF7BEFB0022114611
:1013F000501EFFF7FFF80FB030BD00000D48016828
:1014000041F00101016041680B4A114041600168EF
:101410000A4A11400160016821F48021016041689D
:1014200021F4FE0141604FF41F0181600449C003B3
:1014300008607047001002400000FFF8FFFFF6FE52
:1014400008ED00E0F0B502681C4B1D4D1D4E1E4F0F
:101450001E4C4FF0804C984209D0A04207D0604506
:1014600005D0A84203D0B04201D0B84204D122F046
:10147000700E4A6842EA0E02984209D0A04207D094
:10148000604505D0A84203D0B04201D0B84203D194
:1014900022F44075CA682A4322F080054A692A432B
:1014A00002608A68C2620A688262984201D0A042E1
:1014B00001D10969016301214161F0BD002C0140A6
:1014C0000004004000080040000C004000340140CF
:1014D00010B50123046A8B409C430462036A8A406E
:1014E0001343036210BD10B50423046A8B409C4370
:1014F0000462036A8A401343036210BD10B5846816
:1015000042EA032224F47F440A432243826010BD4E
:10151000826822F070020A4342F00701816070473E
:10152000F0B5026A22F001020262036A426884692D
:10153000124E24F073050C682C4323F002058B68CF
:101540002B430D4DA84201D0B04205D123F008072E
:10155000CB683B4323F00403A84201D0B04205D13D
:101560004D6922F4407215438A692A4342608461BE
:10157000496841630362F0BD002C01400034014022
:10158000F0B5026A22F010020262026A43688469BE
:101590000D6824F4E64444EA05248D6822F0200214
:1015A00042EA05120F4D104EA84201D0B04206D1BA
:1015B000CF6822F0800242EA071222F04002A842DD
:1015C00001D0B04207D14D6923F4406343EA85035B
:1015D0008D6943EA850343608461496881630262DF
:1015E000F0BD0000002C014000340140F0B5026A5B
:1015F00022F480720262026A4368C46922F40072B3
:1016000024F073050C68124E2C438D6842EA0522C3
:101610000E4DA84201D0B04206D1CF6822F400623C
:1016200042EA072222F48062A84201D0B04207D1E8
:101630004D6923F4405343EA05138D6943EA0513CA
:101640004360C4614968C1630262F0BD002C01407F
:101650000034014030B5026A22F480520262046A0A
:101660004268C3690D6823F4E64343EA05238D68A5
:1016700024F4005444EA0534084DA84202D0084D31
:10168000A84204D14D6922F4804242EA85124260A8
:10169000C36149680164046230BD0000002C014050
:1016A0000034014010B5036A046A24F001040462A6
:1016B000846924F0F00444EA021423F00A020A4385
:1016C0008461026210BD10B5036A23F01003036247
:1016D0008369046A23F4704343EA023224F0A003CE
:1016E00043EA01118261016210BD10B5406A002118
:1016F000C185C184FFF73AFC10BD0168CA6822F4B5
:101700009072CA6001684A6922F001024A61202190
:1017100080F83A10704710B590F83A10222901D09D
:10172000022010BD8168B1F5805F11D001690029E8
:1017300001681FD0496801F07F03816A4A1C8262F8
:101740000B70C18D491E0904090CC18518D02BE00E
:101750000269816A002A0268526805D0D2B20A8002
:10176000816A491C8162ECE7C2F308020A80816A3F
:10177000891CF7E74A68816A4B1C83620A70E0E7BC
:101780000168CA6822F02002CA600168CA6822F4AF
:101790008072CA6001684A6922F001024A61202110
:1017A00080F83A10FFF7D2FC002010BD2DE9F0417F
:1017B000044600680169E26821F440511143016167
:1017C0002169A0680843616908432168CA6841F239
:1017D0000C639A430243CA6020684169A26921F4FC
:1017E0004071114341614C4920686425322688428A
:1017F0003CD1FEF7F1FF00EBC00101EB0010616886
:101800008900B0FBF1F7FEF7E7FF00EBC00101EB49
:1018100000106168B0468900B0FBF1F0B0FBF5F054
:101820006FF01801484307EB800106EB0110B0FB95
:10183000F5F000F0F006FEF7CFFF00EBC00101EB82
:10184000001061688900B0FBF1F0B0FBF5F006EB29
:101850000016FEF7C1FF00EBC00101EB001061684C
:101860008900B0FBF1F7FEF7B7FF3BE0FEF7A4FFFE
:1018700000EBC00101EB001061688900B0FBF1F7DB
:10188000FEF79AFF00EBC00101EB00106168B04663
:101890008900B0FBF1F0B0FBF5F06FF018014843A0
:1018A00007EB800106EB0110B0FBF5F000F0F0064D
:1018B000FEF782FF00EBC00101EB001061688900B8
:1018C000B0FBF1F0B0FBF5F006EB0016FEF774FF8D
:1018D00000EBC00101EB001061688900B0FBF1F77B
:1018E000FEF76AFF00EBC00101EB001061688900A0
:1018F000B0FBF1F0B0FBF5F06FF01801484307EBD7
:10190000800108EB0110B0FBF5F0216800F00F003A
:1019100030448860BDE8F0810038014090F839100B
:10192000212901D0022070478168B1F5805F016AEA
:101930000BD04A1C0262026809785160C18C491EB2
:101940000904090CC1840ED017E009880268C1F3AC
:101950000801516001690029016A02D0491C016235
:10196000ECE7891CFBE70168CA6822F08002CA60C4
:101970000068C16841F04001C160002070472DE956
:10198000F041984617460E460446069D1DE0681C29
:101990001BD02DB1FEF79AFDA0EB0800A84214D988
:1019A0002068C16821F4D071C1602068416921F0CC
:1019B00001014161202084F8390084F83A000020B8
:1019C00084F838000320BDE8F0812068006836EA1A
:1019D000000004D00020B842D9D00020F3E7012055
:1019E000F9E700000148FFF7C3BA000054000020E7
:1019F000FEE7FEE7014A024900F013B8451A000865
:101A00001000002002E008C8121F08C1002AFAD105
:101A100070477047002001E001C1121F002AFBD16E
:101A200070472DE9F04116460F460446002503E0B5
:101A30003946B047641C6D1C20780028F8D1284630
:101A4000BDE8F08113B54FF6FF73012269460248E5
:101A5000FFF77DFB00981CBD54000020FEF744FDFD
:101A6000FFF797FCFFF7D2FBFFF7E6FBFFF750FC11
:101A70001148FFF735F900210F48FFF75BFA002105
:101A80000D48FFF7EBF80C4C00254FF4FA674FF4C4
:101A900048764FF47A78206845633846FEF710FCA4
:101AA00006A0FFF7A7FF206846634046FEF708FC44
:101AB00004A0FFF79FFFEEE71400002070776D3D54
:101AC000300A000070776D3D3830300A00000000A9
:101AD00000000000000000000102030406070809DE
:101AE0000000000001020304081B000800000020A1
:101AF00014000000041A00081C1B00081400002039
:101B000084040000141A0008010000001000000006
:0C1B10000000000000A24A0400000000D9
:0400000508000131BD
:00000001FF
