:020000040800F2
:10000000480500209D010008771C0008E31800083F
:10001000751C0008210600084524000800000000A7
:100020000000000000000000000000009B1C000811
:100030002306000800000000991C00089D1C000811
:10004000B7010008B7010008B7010008B7010008B0
:10005000B7010008B7010008B7010008B7010008A0
:10006000B7010008B7010008B7010008B701000890
:10007000B7010008B7010008B7010008B701000880
:10008000B7010008B7010008B7010008B701000870
:10009000B7010008B7010008B7010008B701000860
:1000A000B7010008B7010008B7010008B701000850
:1000B000B70100089D1D0008A91D0008B701000830
:1000C000B7010008B7010008B7010008B701000830
:1000D000B7010008B7010008B7010008B701000820
:1000E000B7010008B7010008B7010008B701000810
:1000F000B7010008B7010008B7010008B701000800
:10010000B7010008B7010008B7010008B7010008EF
:10011000B7010008B7010008B7010008B7010008DF
:10012000B7010008B7010008B7010008B7010008CF
:10013000B7010008B7010008B7010008B7010008BF
:10014000B7010008B7010008B7010008B7010008AF
:10015000B7010008B7010008B7010008B70100089F
:10016000B7010008B7010008B7010008B70100088F
:10017000B7010008B7010008B7010008000000003F
:10018000B7010008B7010008DFF80CD000F036FA1C
:1001900000480047F525000848050020064880472C
:1001A00006480047FEE7FEE7FEE7FEE7FEE7FEE75C
:1001B000FEE7FEE7FEE7FEE7491D000889010008AB
:1001C0002DE9F05F0546002092469B46884606468C
:1001D000814640241BE0284641464746224600F01F
:1001E0008EF953465A46C01A914110D3114618460B
:1001F000224600F075F92D1A67EB01084F4622469A
:100200000120002100F06CF917EB00094E41201E7F
:10021000A4F10104DFDC484631462A464346BDE8E6
:10022000F09F2DE9FE4F804681EA0300C00F0C4687
:10023000009021F0004123F00045B8EB0200A941F5
:1002400005D24046214690461C460B46024623F006
:100250000040104347D0270DC7F30A00C3F30A51EB
:100260000290401A019040286BDAC3F3130040F467
:10027000801B0098924620B10023D2EB030A63EB67
:100280000B0B01985946C0F14002504600F028F986
:1002900006460D4650465946019A00F040F910EBCB
:1002A00008006141002487EA115284EAE7731A4387
:1002B00040D0009A62B3019A012A4FEA075215DC36
:1002C000001B61EB02014FF0004202EA0752CDE948
:1002D0000042001C41F5801132462B4600F040F9E7
:1002E00003B0BDE8F08F40462146F9E7001B61EB03
:1002F0000201001C41F5801300185B412018A2F593
:10030000001747EB030140EAD570B6196D4111E0C3
:100310006D084FEA360645EAC0754FEA0752001BE2
:1003200061EB0201001C41F5801149084FEA3000E1
:100330000019514132462B4603B0BDE8F04F00F0A2
:1003400000B90098012240000023D0EB020263EBC9
:10035000E073009821464FEAE074B8EB000061EBCF
:100360000401E9E783F000435BE781F0004158E7CF
:100370002DE9FE4F81EA030404F0004421F000411E
:1003800000944FF0000B23F0004350EA01045ED0CC
:1003900052EA03045BD0C3F30A54C1F30A552C4458
:1003A000A4F2F3340194A0FB0254C1F3130141F40D
:1003B0008011C3F3130343F4801301FB024400FBD9
:1003C000034E840A970A44EA815447EA8357A4FB00
:1003D000076802958D0A05FB07854FEA932C04FBFD
:1003E0000C542705029D4FEA065847EA1637B5EB2D
:1003F00008056EEB070C870E920E47EA811742EA5A
:100400008312A7FB0201B6EB0B0164EB00042B0D7A
:1004100043EA0C335E1844EB1C50DA465146E7FBC6
:100420000201C5F313044FEA0B3343EA14534FEAB6
:100430000432019C43EA0603A4F10C040294009CDC
:10044000CDE900B400F08CF803B0BDE8F08F0020D7
:100450000146F9E70EB5C10F80EAE0700844CA070B
:10046000002140F233438DE80E000A460B4600F0AF
:1004700077F803B000BD70B5C1F30A5201F0004532
:100480000024C1F3130140F2FF3341F480119A427A
:1004900001DA002070BD40F233439A42A2F23342A7
:1004A00003DC524200F02BF800E090402C43F1D0E6
:1004B000404270BD30B50B46014600202022012489
:1004C00009E021FA02F59D4205D303FA02F5491B22
:1004D00004FA02F52844151EA2F10102F1DC30BD38
:1004E000202A04DB203A00FA02F1002070479140F4
:1004F000C2F1200320FA03F3194390407047202AE9
:1005000004DB203A21FA02F00021704721FA02F3BD
:10051000D040C2F120029140084319467047202A7A
:1005200006DBCB17203A41FA02F043EAE07306E01B
:1005300041FA02F3D040C2F120029140084319462B
:10054000704710B5141E73F1000408DA401C41F125
:10055000000192185B411A4301D120F0010010BD47
:100560002DE9F04D92469B4611B1B1FA81F202E0BD
:10057000B0FA80F220329046FFF7B2FF04460F46F1
:1005800040EA0A0041EA0B0153465A46084313D099
:10059000114653EA010019D0C8F140025046FFF756
:1005A000AEFF05460E46504659464246FFF798FFB5
:1005B000084305D0012004E020463946BDE8F08D0F
:1005C0000020054346EAE0762C4337430A9863054A
:1005D000E40AA0EB08000022FD0A44EA47540A306E
:1005E00002D500200146E9E7010510196941DDE95E
:1005F000084500196941BDE8F04DA2E7064C074DDA
:1006000006E0E06840F0010394E8070098471034E2
:10061000AC42F6D3FFF7BCFDB8260008D826000888
:10062000FEE770472DE9F84FDFF87CB100224FF06C
:1006300001084FF0030A4FF00F090BF1040E00BF41
:100640000B6808FA02F42340A3426ED14D68022DD4
:1006500001D0122D0ED1D50800EB850CDCF820500E
:100660005607F70E09FA07F6B5430E69BE402E434A
:10067000CCF82060066855000F790AFA05FC07F0EF
:10068000030726EA0C06AF40374307604E68012E89
:1006900005D0022E03D0112E01D0122E0ED1866865
:1006A000CF6826EA0C06AF40374387604668A6430A
:1006B0000C79C4F30014944034434460C6688C68D9
:1006C00026EA0C06AC403443C4604C68E40065D5AF
:1006D000364C256845F480452560246822F00305E2
:1006E00004F480440094324C2E19D6F8084895073B
:1006F0002F0F09FA07F5AC432E4DA84201D1002572
:1007000024E02D4DA84201D101251FE02B4DA84228
:1007100001D102251AE02A4DA84201D1032515E096
:10072000284DA84202D1042510E037E0264DA8420A
:1007300001D105250AE0254DA84201D1062505E095
:10074000234DA84201D1072500E00825BD402543DF
:10075000C6F80858DBF800405D464E689C43F60337
:1007600000D51C432C60DEF8004075464E689C4363
:10077000B60300D51C432C600B4D08352C684E6821
:100780009C43F60200D51C432C60074D0C352C68A9
:100790004E689C43B60200D51C432C60521C102AA4
:1007A000FFF44EAFBDE8F88F003C014044380240F2
:1007B00000300140000002400004024000080240F6
:1007C000000C0240001002400014024000180240D9
:1007D000001C02400AB1816170470904FBE7000078
:1007E00001488068704700001000002002488168BE
:1007F0000278114481607047100000200B4810B54A
:10080000016841F400710160016841F48061016098
:10081000016841F480710160032000F097F8002026
:1008200000F006F800F024F8002010BD003C024063
:1008300070B50D4D04464FF47A712878B1FBF0F095
:100840000A490968B1FBF0F000F0C2FB48B9102C6E
:1008500007D200222146501E00F058F800206C609C
:1008600070BD012070BD0000100000201C000020A1
:100870001F4808B5016841F480410160006800F438
:10088000804000901A48001F016841F080510160CB
:10089000006800F080500090032000F057F800221C
:1008A00011466FF00B0000F031F8002211466FF096
:1008B0000A0000F02BF8002211466FF0090000F04A
:1008C00025F800221146501F00F020F800221146A2
:1008D000101F00F01BF800221146901E00F016F8C1
:1008E0000022BDE808401146501E00F00FB800007D
:1008F0004438024000F01F0201219140400980006D
:1009000000F1E020C0F8001170470000F0B40E4B79
:100910001B680C46C3F30223C3F10705042D00D95D
:100920000425191D072901D2002300E0DB1E012642
:1009300006FA05F1491E214099409E40761E164058
:100940003143F0BC01F098B90CED00E0064900F02D
:10095000070208684FF6FF03184040EA0220034AE6
:1009600010430860704700000CED00E00000FA053D
:100970002DE9F0470E46050065D0DFF81481D8F860
:100980000000F7B200F00F00B04207D288F8007004
:10099000D8F8000000F00F00B04254D128683D4C58
:1009A000810712D5400703D5206840F4E05020604D
:1009B0002878000703D5206840F460402060206854
:1009C000A96820F0F000084320602878C0072DD0E7
:1009D000304968680839012812D0022813D003284A
:1009E00011D00968890700292DDA216821F0030157
:1009F00001432160FFF7F4FE814641F2883A0EE0A0
:100A000009688903EFE709688901ECE7FFF7E8FE69
:100A1000A0EB0901514502D90320BDE8F087206809
:100A2000696800F00C00B0EB810FEFD1D8F800102E
:100A3000404601F00F01B14207D90770006800F08D
:100A40000F00B04201D00120E7E72878400705D524
:100A50002068E96820F4E050084320602878000707
:100A600006D52068296920F4604040EAC100206072
:100A700000F03CF82168084AC1F30311515CC840FA
:100A8000064908600020FFF7D3FE0020C5E70000FC
:100A9000003C024008380240A02600081C0000204C
:100AA00001480068704700001C0000200448054908
:100AB00000680968044AC1F38221515CC84070474C
:100AC0001C00002008380240B026000804480549F0
:100AD00000680968044AC1F34231515CC84070475C
:100AE0001C00002008380240B0260008154810B548
:100AF000006810F00C02144813D04110042A0FD0E3
:100B0000082A0ED10F4C241F2268236802F03F02EE
:100B10005B0207D52068C0F38810A0FB010106E046
:100B2000084610BD2168C1F38811A1FB0001002314
:100B3000FFF746FB2168C1F30141491C4900B0FBA6
:100B4000F1F010BD083802400024F4002DE9F84F00
:100B5000050076D02878DFF8F8B2BE4CC00749D03F
:100B6000DBF800105846C1F38101012908D0006864
:100B7000C0F3810002280AD1201D0068400206D57A
:100B80002068800336D568680028E2D032E06868C3
:100B9000B0F5803F10D0B0F5A02F206810D020F421
:100BA00080302060206820F4802020606868A0B138
:100BB000FFF716FE06460CE0206840F48030F4E7AC
:100BC00040F480202060F7E7FFF70AFE801B6428CE
:100BD00073D820688003F7D50CE0FFF701FE0646C6
:100BE00005E000BFFFF7FCFD801B6428F0D82068FB
:100BF0008003F7D42878DFF8608280074FF000097F
:100C00003ED5DBF80010584611F00C0F09D00068F3
:100C1000C0F3810002280BD18D48001F00684002FC
:100C200006D42068800715D5E868012809D111E0AD
:100C3000E868B8B10120C8F80000FFF7D1FD06460A
:100C400005E002E1FFF7CCFD801B0228C0D8206838
:100C50008007F7D52068296920F0F80040EAC10034
:100C600020600DE0C8F80090FFF7BAFD064604E0EA
:100C7000FFF7B6FD801B02281FD820688007F7D435
:100C80002878000722D5724E744869696C3671B1B4
:100C900001210160FFF7A4FD074604E0FFF7A0FD76
:100CA000C01B022809D830688007F7D50EE0C0F8CD
:100CB0000090FFF795FD074605E083E0FFF790FD04
:100CC000C01B02287ED830688007F7D428784007F8
:100CD00068D5DFF87CA100270AF1380ADAF80000AD
:100CE000C0000BD4DAF8001041F08051CAF80010AF
:100CF000DAF80000012700F080500090584E30686C
:100D0000C00510D4306840F480703060FFF768FD93
:100D1000009005E0FFF764FD0099401A022851D8C1
:100D20003068C005F6D54A4EA868683601280FD04D
:100D30000528306810D020F001003060306820F0C5
:100D400004003060A868B8B1FFF74AFD00900FE0DA
:100D5000306840F00100F4E740F004003060F7E74D
:100D6000FFF73EFD0099411A41F28830814264D874
:100D700030688007F4D50EE0FFF732FD009007E001
:100D8000FFF72EFD0099411A41F28830814254D874
:100D900030688007F4D42FB1DAF8001021F08051C8
:100DA000CAF80010A869C0B3DBF80010C1F38101D4
:100DB00002294AD00228484607D0C8F86000FFF749
:100DC0000FFD00E039E005463AE04746C8F860000C
:100DD000FFF706FD064604E0FFF702FD801B022830
:100DE0002BD820688001F7D4D5E907010843A96A08
:100DF0001C4A490802EB01416A6A41EA8211084330
:100E000095F82C1040EA01611148001F0160012093
:100E10003866FFF7E5FC054605E014E0FFF7E0FC67
:100E2000401B022809D820688001F7D50BE000BFDD
:100E3000FFF7D6FC401B022802D90320BDE8F88F3B
:100E400020688001F4D40020F8E70120F6E70000D4
:100E5000083802400038024000004742800E4742F6
:100E6000007000400000FFFF4FF0E02104280869F7
:100E700003D020F004000861704740F00400FAE756
:100E80007FB5244C2078002842D06088401C6080C8
:100E90006088C8283CD1A06800250190A56000F0BA
:100EA00027FD009010F1030F01DB032805DD64210D
:100EB00090FBF1F0A1880844A080A088B0F5617F84
:100EC00002D340F28330A080E0680068FFF7C2FAE6
:100ED000CDE90201618810A001F0B6FAE06801686E
:100EE00014A001F0B1FA1BA0019901F0ADFAE0687D
:100EF00000680199091A1FA001F0A6FAA28825A08E
:100F0000009901F0A1FAA08830490968486365801A
:100F10007FBD0000000000200AC9E8B6C8D6D0B6E0
:100F2000CFCAB1BCE4202D3E2020202564732020B0
:100F3000202020000AC9E8B6A8C4BFB1EACBD9B6C0
:100F4000C8202D3E2564B8F6C2F6B3E52020202047
:100F500020000000B5B1C7B0B5E7BBFACBD9B6C821
:100F60002D3E202564B8F6C2F6B3E50A20202020E5
:100F700020000000B2EED6B5B5E7BBFACBD9B6C8B3
:100F80002D3E202564B8F6C2F6B3E50A20202020C5
:100F900020000000D4F6C1BFCABD504944CBE3B71E
:100FA000A8BCC6CAFDBDE1B9FBD6B5A3BA2564206D
:100FB0002020C9E8D6C3D0C2B5C4D5BCBFD5B1C8FE
:100FC000CEAAA3BA25640D0A00000000500000203C
:100FD00010B5401EB0F1807F01D3012010BD4FF04D
:100FE000E02460610F21601700F046FE0020A06140
:100FF00007202061002010BD10B5FFF741FF10BD94
:101000007047704710B590F83820012A25D001228A
:1010100080F83820CA688C6822F4407222434C68F9
:1010200022F4806222430C6822F4006222430C699D
:1010300022F4805222434C6922F4005222438C69EC
:1010400022F48042224322F400410268002321431B
:10105000516480F83830002010BD022010BD30B53A
:1010600090F83820012A20D0012280F8382002236D
:1010700080F8393003685C6824F070045C600368B1
:101080005C680D682C435C6003689C6824F08004F5
:101090009C6003689C6849680C439C6080F8392018
:1010A000002180F83810084630BD022030BD10B550
:1010B00004460068042200F0E8FE2068416C41F418
:1010C000004141642068016841F001010160002095
:1010D00010BD10B5040003D094F8390010B107E03A
:1010E000012010BD002084F83800204600F00CF8E4
:1010F000022084F83900211D206800F05BFE0120E9
:1011000084F83900002010BD10B50268264800217F
:1011100086B082420AD12548016841F00101016090
:10112000006800F00100059006B010BD1F48204C7B
:10113000001F0223A24218D1026842F0020202609C
:10114000006800F00200059040200090CDE90131D8
:10115000CDE9031369461748FFF764FA00221146E8
:101160001D20FFF7D3FB1D201AE0134CA242DBD158
:10117000026842F004020260006800F0040005907A
:10118000A0140090CDE90131CDE9031369460B4865
:10119000FFF748FA002211461E20FFF7B7FB1E207A
:1011A000FFF7A8FBC0E70000000001404438024000
:1011B000000400400000024000080040000C024013
:1011C000022180F8391001680A6842F001020A60C1
:1011D000012180F839100020704770B5044690F85E
:1011E0003800012817D0012584F83850022084F8EF
:1011F00039002068826822F0770222F47F42826000
:101200000868502837D00DDC202859D005DC88B379
:10121000102841D151E0022070BD302853D0402821
:101220003AD13FE060282ED070280BD0B0F5805F17
:1012300003D0B0F5005F2FD110E02068816821F065
:10124000070115E0CB68D1E90121206800F028FEF4
:101250002168886840F0770088601DE0CB68D1E99C
:101260000121206800F01CFE2068816841F4804163
:10127000816011E01EE0CA684968206800F0D8FE6D
:101280005021206806E0CA684968206800F024FF01
:101290006021206800F00EFE84F83950002084F8A8
:1012A000380070BDCA684968206800F0C1FE40215E
:1012B0002068EFE700212068ECE710212068E9E7CB
:1012C00020212068E6E730212068E3E702488168B2
:1012D000491C816070470000000000202DE9F041AA
:1012E000044690F838000D4601283DD0012684F8C8
:1012F0003860022084F83900AAB3042A46D0206856
:10130000082A55D0D5E90027E968036A23F48053F9
:101310000362D0F81CC0036A2CF4407C4CEA072717
:101320004FF6FF7C27F470470CEA013139434FF444
:10133000204723F4204307EA02321A43C1610262C4
:101340002068C16921F44061C1612068C169AA684F
:1013500041EA0221C0F81C1084F83960002084F8AA
:101360003800BDE8F08101E00220FAE7D5E900127B
:10137000EB68206800F06EFE2068816921F00C01A6
:10138000816120688169AA6811430FE0D5E90012E4
:10139000EB68206800F0B2FE2068816921F44061AA
:1013A000816120688169AA6841EA02218161D3E7ED
:1013B000D5E9002C2F7B016A21F480710162C1699B
:1013C000036A21F0030141EA0C0121F0F00C390716
:1013D0004FF420674CEA116123F4206307EA0222EC
:1013E0001A43C16102622068C16921F00C01C16128
:1013F0002068C169AA681143ACE710B5040003D0A6
:1014000094F8390010B107E0012010BD002084F8E5
:101410003800204600F00CF8022084F83900211D25
:10142000206800F0C7FC012084F83900002010BDBE
:10143000704710B50268044631B1042908D0082964
:1014400015D00C2908D116E0D06840F0020002E067
:10145000D06840F00400D0600122206800F00AFD4E
:101460002068016841F001010160002010BDD068D2
:1014700040F00800EFE7D06840F01000EBE770B5EF
:101480000446006801694FF00005C943890715D477
:10149000C168C943890711D4E91E01610120207682
:1014A000206880698007204602D0FFF70FFF04E024
:1014B00000F0BEF8204600F040F92576206801696A
:1014C000C943490717D4C168C943490713D46FF00A
:1014D00004010161022020762068806910F4407FB9
:1014E000204602D0FFF7F2FE04E000F0A1F820460B
:1014F00000F023F9257620680169C943090716D44D
:10150000C168C943090712D46FF0080101610420C2
:1015100020762068C0698007204602D0FFF7D6FEFB
:1015200004E000F085F8204600F007F925762068F1
:101530000169C943C90617D4C168C943C90613D490
:101540006FF010010161082020762068C06910F456
:10155000407F204602D0FFF7B9FE04E000F068F8B3
:10156000204600F0EAF8257620680169C943C907DA
:1015700008D1C168C943C90704D1891E0161204649
:1015800000F0F8F820680169C943090609D4C16868
:10159000C943090605D46FF0800101612046FFF7B9
:1015A0002FFD20680169C943490609D4C168C943B0
:1015B000490605D46FF040010161204600F0DBF8D8
:1015C00020680169C94389060BD4C168C9438906EB
:1015D00007D46FF0200101612046BDE87040FFF79D
:1015E00010BD70BD70B500680E4986B0884216D136
:1015F0008020009002250024CDE901540126CDE988
:10160000034669460848FFF70DF828020090CDE927
:101610000154CDE9034669460448FFF703F806B0D4
:1016200070BD0000000001400000024000100240B8
:10163000704770B5044690F838000D4601280DD06B
:10164000012684F83860022084F8390042B1042A67
:1016500018D0082A2AD00C2A4DD139E0022070BDBA
:10166000206800F02FFC2068816941F00801816149
:101670002068816921F004018161206881692A69FB
:10168000114311E0206800F049FC2068816941F4B1
:10169000006181612068816921F480618161206835
:1016A00081692A6941EA0221816124E0206800F011
:1016B00067FC2068C16941F00801C1612068C16907
:1016C00021F00401C1612068C1692A69114311E058
:1016D000206800F085FC2068C16941F40061C161A7
:1016E0002068C16921F48061C1612068C1692A69EB
:1016F00041EA0221C16184F83960002084F8380091
:1017000070BD10B5040003D094F8390010B107E0A3
:10171000012010BD002084F83800204600F00CF8AD
:10172000022084F83900211D206800F043FB0120CD
:1017300084F83900002010BD7047704710B504468A
:101740000068012200F096FB08492068884202D018
:101750000749884203D1416C41F40041416420684B
:10176000016841F001010160002010BD000001404E
:10177000000401407047704770B5040004D094F82D
:101780003900002510B106E0012070BD84F8385002
:10179000204600F023F8242084F839002068C1682E
:1017A00021F40051C160204600F0C4FC20680169AA
:1017B00021F4904101612068416921F02A014161D1
:1017C0002068C16841F40051C160E563202084F8BD
:1017D000390084F83A00002070BD000000B50068B0
:1017E0000E4987B0884217D10D48016841F01001B9
:1017F00001600068694600F0100005904FF4C06079
:101800000090022001900120029003200390072005
:1018100004900448FEF706FF07B000BD0010014029
:1018200044380240000002402DE9F843044690F895
:1018300039001F4616460D46202850D1A5B19EB14D
:1018400094F8380001284AD0012084F838004FF07D
:101850000008C4F83C80212084F83900FEF7C0FF5E
:10186000A6848146E68426E00120BDE8F883E08C6A
:10187000401EE084A0684B46B0F5805F4FF0000248
:101880004FF080012046009703D000F0A9FDE8B991
:101890000DE000F0A5FDC8B928882168C0F3080054
:1018A0004860206908B16D1C05E0AD1C03E02168AB
:1018B00015F8010B4860E08C0028D8D14B46002277
:1018C00040212046009700F08BFD08B10320CCE7B3
:1018D000202084F8390084F838800020C5E70220F1
:1018E000C3E7FEE701B50098411E0091FBD208BD99
:1018F00070B51A492DED048BCC6821680D1A606A09
:10190000FEF7A8FD94ED061B53EC112BFEF730FDFE
:1019100041EC180B206AFEF79DFD94ED041B53EC7F
:10192000112BFEF725FD41EC190B2846FEF792FD21
:1019300094ED021B53EC112BFEF71AFD53EC192BFF
:10194000FEF710FD53EC182BFEF76BFCFEF793FD32
:10195000216A61622562BDEC048B70BD000000202D
:1019600009480021C068016241629FED080B80EDCB
:10197000020B9FED080B80ED040B9FED080B80ED33
:10198000060B01607047000000000020000000000E
:1019900000001040000000000000000000000000F7
:1019A0000000F0BF174800B5026887B0002142F080
:1019B00080020260026802F080020592026842F032
:1019C00001020260026802F001020592026842F020
:1019D00010020260026802F010020592026842F0F2
:1019E000080202600068029100F0080005904FF4C0
:1019F0000060CDE9000169460348FEF713FE07B019
:101A000000BD000030380240000C024010B52F48E5
:101A100094B02D49016001210024C0E901144FF464
:101A20006171C0E903144461FFF753FB18B145210C
:101A300027A000F008FD4FF480500E900EA9234817
:101A4000FFF7CBFB18B14B2121A000F0FCFC1F4895
:101A5000FFF757FE18B150211DA000F0F4FC1294BE
:101A600012A91A481394FFF7FAFA18B1572118A0CF
:101A700000F0E9FC6020CDE9000402940394049492
:101A800005940022694611480694FFF7D2FD18B16B
:101A900063210FA000F0D7FC0794089409944FF439
:101AA00000500A94CDE90B4007A908480D94FFF7B0
:101AB000A9FA18B16F2106A000F0C5FC0348FFF792
:101AC00091FD14B010BD0000000001405000002046
:101AD0002E2E2F5372632F74696D2E630000000049
:101AE00010B523488AB021490160A7210024C0E92C
:101AF00001144FF6FF71C0E90314FFF7EAFA18B1B9
:101B000083211CA000F09FFC4FF48050049004A996
:101B10001748FFF762FB18B1892116A000F093FC6B
:101B20001348FFF76AFC18B18E2112A000F08BFC5D
:101B3000089408A90E480994FFF791FA18B1952165
:101B40000CA000F080FC0120CDE9004002940022AE
:101B5000694607480394FFF7C1FB002803D09E2184
:101B600004A000F070FC0AB010BD000000040040AA
:101B70008C0000202E2E2F5372632F74696D2E63FC
:101B80000000000010B523488AB021490160A72158
:101B90000024C0E901144FF6FF71C0E90314FFF7F8
:101BA00098FA18B1B0211CA000F04DFC4FF4805001
:101BB000049004A91748FFF710FB18B1B62116A02E
:101BC00000F041FC1348FFF718FC18B1BB2112A02C
:101BD00000F039FC089408A90E480994FFF73FFA71
:101BE00018B1C2210CA000F02EFC0120CDE900406C
:101BF00002940022694607480394FFF76FFB002810
:101C000003D0CB2104A000F01EFC0AB010BD0000E0
:101C100000080040C80000202E2E2F5372632F743E
:101C2000696D2E63000000000D4810B50B4901607E
:101C30004FF4E1314160002181600C22C160C0E9B4
:101C400004128161C161FFF797FD002805D0BDE84E
:101C50001040422103A000F0F6BB10BD001001406F
:101C6000040100202E2E2F5372632F75736172743E
:101C70002E630000FEE770470907090E002806DA08
:101C800000F00F0000F1E02080F8141D704700F113
:101C9000E02080F8001470477047704710B5FEF7D9
:101CA000A5FDBDE81040FFF7A7B9000030B52448F6
:101CB00093B00025016841F080510160006800F098
:101CC000805011901F48016841F480410160006814
:101CD000022400F480401190012000900004019043
:101CE0008001CDE9064008AA0420A82182E813005B
:101CF0000B906846FEF72AFF00B1FEE70CA90F2003
:101D000081E831004FF4A0500F904FF480501090B4
:101D100005210CA8FEF72CFE00B1FEE7FEF7C0FE81
:101D20004FF47A71B0FBF1F0FFF752F90420FFF79E
:101D30009BF800221146501EFEF7E8FD13B030BD9F
:101D400040380240007000401048016841F47001C2
:101D500001600F48016841F0010101600C4A002157
:101D60000832116002680B4B1A400260031D0A4AD8
:101D70001A60026822F48022026005480C3001607B
:101D800002495806803908607047000088ED00E07D
:101D900000380240FFFFF6FE103000240148FFF734
:101DA0006EBB00008C0000200148FFF768BB0000FC
:101DB000C8000020F0B50268234B244D244E254F67
:101DC000254C4FF0804C984209D0604507D0A8427E
:101DD00005D0B04203D0B84201D0A04204D122F0D5
:101DE000700E4A6842EA0E0298421BD0604519D034
:101DF000A84217D0B04215D0B84213D0A04211D09B
:101E0000164DA8420ED0164DA8420BD0154DA84233
:101E100008D0154DA84205D0144DA84202D0144D4B
:101E2000A84203D122F44075CA682A4302608A6836
:101E3000C2620A688262984201D0A04201D1096957
:101E4000016301214161F0BD000001400004004038
:101E500000080040000C0040000401400040014028
:101E6000004401400048014000180040001C0040B0
:101E70000020004010B50123046A8B409C4304629B
:101E8000036A8A401343036210BD10B50423046A39
:101E90008B409C430462036A8A401343036210BD73
:101EA00010B5846842EA032224F47F440A432243A3
:101EB000826010BD826822F070020A4342F007017E
:101EC0008160704730B5026A22F001020262026A44
:101ED000436884690D6824F07304254322F00204EA
:101EE0008A6822430B4CA04202D00B4CA0420BD17B
:101EF00022F00804CA6823F4407322434C6922F09C
:101F000004021C438B692343436085614968416334
:101F1000026230BD000001400004014030B5026A99
:101F200022F010020262026A436884690D6824F498
:101F3000E64444EA05248D6822F0200242EA0512B4
:101F40000D4DA84202D00D4DA8420ED1CD6822F011
:101F5000800242EA05124D6923F4406343EA850397
:101F60008D6922F0400243EA850343608461496839
:101F70008163026230BD00000000014000040140A6
:101F800030B5026A22F480720262036A4268C46950
:101F900023F4007324F073050C682C438D6843EA26
:101FA00005230D4DA84202D00C4DA8420ED1CD689C
:101FB00023F4006343EA05234D6922F4405242EAC8
:101FC00005128D6923F4806342EA05124260C46100
:101FD0004968C163036230BD000001400004014054
:101FE00030B5026A22F480520262046A4268C36910
:101FF0000D6823F4E64343EA05238D6824F4005476
:1020000044EA0534084DA84202D0084DA84204D144
:102010004D6922F4804242EA85124260C3614968F8
:102020000164046230BD0000000001400004014072
:1020300010B5036A046A24F001040462846924F080
:10204000F00444EA021423F00A020A4384610262A3
:1020500010BD000070B5046A24F0010404628469B4
:10206000056A164EB04214D0B0F1804F11D0144E14
:10207000B0420ED0134EB0420BD0134EB04208D037
:10208000124EB04205D0124EB04202D0114EB042B4
:1020900003D124F00304144303E024F0030242F0CC
:1020A00001041A0724F0F00444EA126225F00A033E
:1020B00001F00A0119438261016270BD0000014014
:1020C0000004004000080040000C004000040140F3
:1020D000004001400018004010B5036A23F01003CF
:1020E00003628369046A23F4704343EA023224F0F2
:1020F000A00343EA01118261016210BD30B5046A98
:1021000024F0100404628469056A24F4407444EAEB
:10211000022222F470444FF6FF7202EA0332224395
:10212000A02425F0A00304EA011119438261016291
:1021300030BD00002DE9F04104460068016921F43A
:102140004052E168114301612168C86849F20C629C
:1021500090432369A268E5691A4363692B431A43D4
:102160000243CA602168486920F44072A0691043A4
:102170004861E1696425B1F5004F9748974A2168A5
:102180004FF032083FD0914201D081427CD1FEF71E
:102190009DFC00EBC00101EB001061688900B0FB01
:1021A000F1F6FEF793FC00EBC00101EB0010616853
:1021B0008900B0FBF1F0B0FBF5F06FF01801484377
:1021C00006EB800108EB0110B0FBF5F000F0F00623
:1021D000FEF77CFC00EBC00101EB00106168890098
:1021E000B0FBF1F0B0FBF5F006EB0016FEF76EFC6D
:1021F00000EBC00101EB001061688900B0FBF1F752
:10220000FEF764FCD2E0914201D081423DD1FEF75D
:102210005DFC00EBC00101EB001061684900B0FB00
:10222000F1F0B0FBF5F00601FEF750FC00EBC00149
:1022300001EB001061684900B0FBF1F7FEF746FCC6
:1022400000EBC00101EB001061684900B0FBF1F048
:10225000B0FBF5F06FF01801484307EB800108EB85
:10226000C100B0FBF5F000F0F80006EB4006FEF709
:102270002DFC00EBC00101EB001061684900B0FBD0
:10228000F1F7FEF723FC3CE055E0FEF70FFC00EB16
:10229000C00101EB001061684900B0FBF1F0B0FB38
:1022A000F5F00601FEF702FC00EBC00101EB0010A7
:1022B00061684900B0FBF1F7FEF7F8FB00EBC001E5
:1022C00001EB001061684900B0FBF1F0B0FBF5F0E4
:1022D0006FF01801484307EB800108EBC100B0FB29
:1022E000F5F000F0F80006EB4006FEF7DFFB00EB30
:1022F000C00101EB001061684900B0FBF1F7FEF787
:10230000D5FB00EBC00101EB001061684900B0FB98
:10231000F1F0B0FBF5F06FF01801484307EB8001D6
:1023200008EBC100B0FBF5F000F007002168304475
:102330008860BDE8F081FEF7B9FB00EBC00101EB5E
:10234000001061688900B0FBF1F6FEF7AFFB00EB0F
:10235000C00101EB001061688900B0FBF1F0B0FB37
:10236000F5F06FF01801484306EB800108EB01100F
:10237000B0FBF5F000F0F006FEF798FB00EBC001B3
:1023800001EB001061688900B0FBF1F0B0FBF5F0E3
:1023900006EB0016FEF78AFB00EBC00101EB001014
:1023A00061688900B0FBF1F7FEF780FB00EBC0012C
:1023B00001EB001061688900B0FBF1F0B0FBF5F0B3
:1023C0006FF01801484307EB800108EB0110B0FBE8
:1023D000F5F000F00F00A9E70014014000100140E3
:1023E0002DE9F041984617460E460446069D1DE02D
:1023F000681C1BD02DB1FEF7F3F9A0EB0800A84232
:1024000014D92068C16821F4D071C1602068416985
:1024100021F001014161202084F8390084F83A005C
:10242000002084F838000320BDE8F08120680068AF
:1024300036EA000004D00020B842D9D00020F3E7EB
:102440000120F9E7FEE7FEE70FB4054B10B503A93D
:10245000044A029800F018F810BC5DF814FB000064
:10246000DD2500082000002002E008C8121F08C176
:10247000002AFAD170477047002001E001C1121F05
:10248000002AFBD1704700002DE9FF4F89B09B4621
:102490000446002506E025280BD05A460B999047A4
:1024A000641C6D1C20780028F5D10DB02846BDE8CD
:1024B000F08F0027B8460122474900E0074314F88F
:1024C000013F203B02FA03F00842F7D120782E2882
:1024D00019D114F8010F47F004072A280ED06FF025
:1024E0002F022078A0F1300109290CD808EB8801CF
:1024F00002EB410100EB0108641CF2E70A98641C3E
:1025000050F8048B0A9020780028CED0642808D098
:10251000692806D075281ED05A460B9990476D1C25
:1025200058E00A994FF00A0901C90A91002802DA15
:1025300040422D2102E0390504D52B218DF82010D1
:10254000012103E0F90704D02021F7E78A4608AE0D
:102550000DE00021FAE70A994FF00A0901C90A9132
:10256000F7E74946FDF7A6FF303106F8011D0028C0
:10257000F7D1ADEB060000F12009780701D44FF048
:102580000108C84502DDA8EB090000E000208046F4
:10259000002706E008A85A46C05D0B9990476D1CBD
:1025A0007F1C5745F6DB04E030205A460B999047D4
:1025B0006D1CB8F10001A8F10108F5DC05E016F882
:1025C000010B5A460B9990476D1CB9F10001A9F116
:1025D0000109F4DC641C65E70928010013B54FF616
:1025E000FF73012269460248FFF71EF900981CBDDF
:1025F00004010020FEF702F9FFF758FBFFF7D2F9BC
:10260000FFF704FAFFF76CFAFFF70EFBFFF7BAFAD1
:10261000FFF7A6F91748FEF7D3FD00211548FFF78D
:102620008DF800211348FEF742FD1348FEF7C8FD60
:1026300000211148FEF7FDFE104C0120207010A073
:10264000FFF702FFE16842F210700860134D4FF48B
:1026500000644FF4FA76012221462846FEF7BAF8C4
:102660003046FFF73FF9002221462846FEF7B2F830
:10267000F1E70000500000208C0000200000002046
:10268000D4F6C1BFCABD504944CBE3B7A8BFD8D622
:10269000C6B5E7BBFAD0FDD7AA0A0000000C02407D
:1026A0000000000000000000010203040607080902
:1026B0000000000001020304D826000800000020EA
:1026C0002400000068240008FC26000824000020E4
:1026D000240500007824000800000000000000002D
:1026E0000000000028000020010000001000000091
:0C26F000000000000024F40000000000C6
:040000050800018965
:00000001FF
