:020000040800F2
:1000000098100020450100088B140008A313000875
:10001000891400082F020008E11800080000000001
:100020000000000000000000000000005701000870
:1000300031020008000000005B010008AD14000858
:100040005F0100085F0100085F0100085F01000810
:100050005F0100085F0100085F0100085F01000800
:100060005F0100085F0100085F0100085F010008F0
:100070005F0100085F0100085F0100085F010008E0
:100080005F0100085F0100085F0100085F010008D0
:100090005F0100085F0100085F0100085F010008C0
:1000A0005F0100085F0100085F0100085F010008B0
:1000B0005F0100085F0100085F0100085F010008A0
:1000C0005F0100085F0100085F0100085F01000890
:1000D0005F0100085F010008D51800085F010008F3
:1000E0005F0100085F0100085F0100085F01000870
:1000F0005F0100085F0100085F0100085F01000860
:100100005F0100085F0100085F0100085F0100084F
:100110005F0100085F0100085F0100085F0100083F
:100120005F0100085F0100085F0100085F0100082F
:10013000DFF80CD000F05AF800480047A11D000875
:10014000981000200648804706480047FEE7FEE773
:10015000FEE7FEE7FEE7FEE7FEE7FEE7FEE7FEE777
:100160001915000831010008202A04DB203A21FA81
:1001700002F00021704721FA02F3D040C2F12002C0
:1001800091400843194670472DE9F05F054600206D
:1001900092469B4688460646814640241BE02846F8
:1001A000414647462246FFF7DFFF53465A46C01AEC
:1001B000914110D311461846224600F029F82D1A15
:1001C00067EB01084F4622460120002100F020F88D
:1001D00017EB00094E41201EA4F10104DFDC484664
:1001E00031462A464346BDE8F09F0000064C074DC5
:1001F00006E0E06840F0010394E8070098471034F7
:10020000AC42F6D3FFF798FF2C1E00084C1E0008E6
:10021000202A04DB203A00FA02F1002070479140C6
:10022000C2F1200320FA03F3194390407047FEE720
:10023000FEE731B500F010F9044600F00DF9009921
:10024000001B8842F9D338BD2DE9F84F0023002464
:10025000DFF8DC914FF00F0809F1040A0AF1040BF2
:100260000BF1040E0127A7400A683A40BA4275D143
:10027000DFF8C0C14D68A5EB0C0665452BD00DDC41
:10028000032D34D005DC35B3012D19D0022D2FD12B
:100290001BE0112D16D0122D2AD119E0B6F5881FBA
:1002A00019D006DCB6F5803F15D0B6F5801F1FD1FA
:1002B00011E0B6F5001F0ED0B6F5041F18D10AE004
:1002C000CB6815E0CB681B1D12E0CB6808330FE04C
:1002D000CB680C330CE08B6823B1012B04D00823CE
:1002E000476105E0042303E00823076100E00023E1
:1002F000FF2A01D8054601E000F1040502D84FEAC3
:10030000840603E0A4F108064FEA86062F6808FA7F
:1003100006FC27EA0C0703FA06F647EA06072F60F1
:100320004D68ED007ED5444DAE6946F00106AE61E4
:10033000AD6905F001050095404D24F003067719DD
:10034000BE68A5072D0F08FA05FC26EA0C06DFF8A3
:10035000F0C0604503D14FF0000C25E062E0DFF80B
:10036000E4C0604502D14FF0010C1DE0DFF8D8C0B9
:10037000604502D14FF0020C16E0DFF8D0C06045B6
:1003800002D14FF0030C0FE0DFF8C4C0604502D18A
:100390004FF0040C08E0DFF8BCC0604502D14FF01C
:1003A000050C01E04FF0060C0CFA05FC4CEA060CBB
:1003B000C7F808C04D68ED0305D5D9F800501543BE
:1003C000C9F8005004E0D9F800509543C9F800502E
:1003D0004D68AD0305D5DAF800501543CAF8005052
:1003E00004E0DAF800509543CAF800504D68ED0279
:1003F00005D5DBF800501543CBF8005004E0DBF8DE
:1004000000509543CBF800504D68AD0205D5DEF89D
:1004100000501543CEF8005004E0DEF8005095433C
:10042000CEF80050641C102CFFF41CAFBDE8F88F10
:1004300000040140000011100010024000000140C3
:1004400000080140000C0140001001400014014070
:1004500000180140001C014001480068704700007E
:100460000400002002480168491C01607047000038
:100470000400002010B50748016841F01001016038
:10048000032000F075F8002000F006F800F016F8E0
:10049000002010BD0020024010B5044600F0D6F93F
:1004A0004FF47A72B0FBF2F000F0C1FD0022214659
:1004B000501E00F03DF8002010BD000008B51548A2
:1004C000816941F001018161806900F001000090C3
:1004D000052000F04DF8002211466FF00B0000F0EF
:1004E00027F8002211466FF00A0000F021F80022E0
:1004F00011466FF0090000F01BF800221146101F92
:1005000000F016F80022BDE808401146501E00F029
:100510000FB800000010024000F01F0201219140BE
:100520004009800000F1E020C0F800117047000091
:10053000F0B40D460D4B1B68C3F30223C3F107044F
:10054000042C00D90424191D072901D2002300E03E
:10055000DB1E012606FA04F1491E294099409E40FF
:10056000761E16403143F0BC00F090BF0CED00E069
:1005700000F00701054A10684FF6FF03184040EAF3
:100580000120034908431060704700000CED00E0B3
:100590000000FA052DE9F04704460F46DFF8A49263
:1005A000D9F80000A84D00F00701012043044606D9
:1005B0004FF0020C41F28838B9426FD2D9F80010DE
:1005C00021F007013943C9F80010D9F8001001F0F3
:1005D0000701B94201D0BDE8F0872178890705D528
:1005E0006968A26821F0F001114369602178C907A8
:1005F00061D0616801290BD002291FD09CFAACF2AE
:10060000B2FA82F242F0200252092DD02A682CE080
:1006100093FAA3F2B2FA82F242F02002520901D018
:100620002A6800E06A6A93FAA3F3B3FA83F303F04B
:100630001F039840024223D10120CCE796FAA6F28C
:10064000B2FA82F242F02002520901D02A6800E098
:100650006A6A96FAA6F3B3FA83F303F01F0398408D
:1006600002420DD10120B6E76A6A9CFAACF3B3FAF4
:1006700083F303F01F039840024201D10120AAE74F
:10068000686820F0030008436860FFF7E5FE06464F
:10069000606801280AD0022815D021E025E0FFF784
:1006A000DBFE801B404501D9032094E76868C0F356
:1006B00081000128F3D1ADE0FFF7CEFE801B40455D
:1006C00001D9032087E76868C0F381000228F3D1CD
:1006D000A0E0FFF7C1FE801B404501D903207AE767
:1006E000686810F00C0FF4D194E02178890705D5E3
:1006F0006968A26821F0F001114369602178C90797
:1007000079D0616801290BD002291FD09CFAACF284
:10071000B2FA82F242F0200252092DD02A682CE06F
:1007200093FAA3F2B2FA82F242F02002520901D007
:100730002A6800E06A6A93FAA3F3B3FA83F303F03A
:100740001F039840024223D1012044E796FAA6F203
:10075000B2FA82F242F02002520901D02A6800E087
:100760006A6A96FAA6F3B3FA83F303F01F0398407C
:1007700002420DD101202EE76A6A9CFAACF3B3FA6B
:1007800083F303F01F039840024201D1012022E7C6
:10079000686820F0030008436860FFF75DFE0646C6
:1007A0006068012809D0022814D020E0FFF754FE29
:1007B000801B404501D903200DE76868C0F3810024
:1007C0000128F3D117E0FFF747FE801B404501D910
:1007D000032000E76868C0F381000228F3D10AE033
:1007E000FFF73AFE801B404501D90320F3E6686815
:1007F00010F00C0FF4D1D9F8000020F007003843B6
:10080000C9F80000D9F8000000F00700B84201D094
:100810000120E0E62078400705D56868E16820F40B
:10082000E060084368602078000706D568682169A1
:1008300020F4605040EAC10068600020FFF72CFE01
:100840000020C8E6002002400010024000B500F081
:1008500043F808494968F02292FAA2F201F0F00147
:10086000B2FA82F2D140044A515CC84003490860A0
:1008700000BD0000001002401C1E00080000002007
:1008800000B5FFF7E3FF074949684FF4E06292FAC9
:10089000A2F201F4E061B2FA82F2D140024A515C64
:1008A000C84000BD001002401C1E000800B5FFF744
:1008B000CDFF074949684FF4605292FAA2F201F461
:1008C0006051B2FA82F2D140024A515CC84000BD88
:1008D000001002401C1E000810B585B01AA0D0E917
:1008E0000031D0E90220CDE90131CDE903201AA081
:1008F00000680090194B5968194801F00C02042A4D
:100900001DD0082A1BD14FF4701494FAA4F401F4FA
:100910007012B4FA84F4E24001ACA25CC90310D5B1
:1009200059684FF4003393FAA3F301F40031B3FA9A
:1009300083F3D9401DF80110B0FBF1F0504305B02E
:1009400010BD08485043FAE70203040506070809EA
:100950000A0B0C0D0E0F10100102000000100240D7
:1009600000127A0000093D002DE9F84F0446F94DC8
:1009700020784FF00106C00775D068687704C0F38F
:100980008100012807D06868C0F3810002281DD1CA
:100990006868C0031AD597FAA7F0B0FA80F040F063
:1009A0002000400901D0286800E0686A97FAA7F1A2
:1009B000B1FA81F101F01F0206FA02F1084252D0A9
:1009C000606800284FD10120BDE8F88F286820F426
:1009D00080302860286820F480202860FFF73CFDE4
:1009E000804607E0FFF738FDA0EB0800642801D936
:1009F0000320E9E797FAA7F0B0FA80F040F0200072
:100A0000400901D0286800E0686A97FAA7F1B1FAB6
:100A100081F101F01F0106FA01F10842E2D160689C
:100A2000B0F5803F11D0A8B1B0F5A02F1CD0286838
:100A300020F480302860286820F4802028606068D6
:100A4000C8B3FFF709FD80461FE0286840F48030F6
:100A50002860F4E7286820F480302860286820F4B3
:100A600080202860EBE748E0286840F48020286078
:100A7000286840F480302860E1E7FFF7EDFCA0EB48
:100A80000800642801D903209EE797FAA7F0B0FA7E
:100A900080F040F02000400901D0286800E0686A3A
:100AA00097FAA7F1B1FA81F101F01F0106FA01F1FD
:100AB0000842E2D021E0FFE7FFF7CEFC804607E0E6
:100AC000FFF7CAFCA0EB0800642801D903207BE7EC
:100AD00097FAA7F0B0FA80F040F02000400901D06A
:100AE000286800E0686A97FAA7F1B1FA81F101F08D
:100AF0001F0106FA01F10842E2D12078DFF858829E
:100B000080074FF0000B4FF0020732D568684FF0B6
:100B1000F80A10F00C0F07D06868C0F381000228B3
:100B200028D16868C00325D497FAA7F0B0FA80F0FE
:100B300040F02000400901D0286800E0686A97FA78
:100B4000A7F1B1FA81F101F01F0106FA01F10842A3
:100B500004D02069012801D0012035E728689AFADD
:100B6000AAF26169B2FA82F220F0F80091400843DB
:100B700028605CE0206990B396FAA6F0B0FA80F0A5
:100B800048F82060FFF768FC814607E0FFF764FC47
:100B9000A0EB0900022801D9032015E797FAA7F076
:100BA000B0FA80F040F02000400901D0286800E051
:100BB000686A97FAA7F1B1FA81F101F01F0106FA0C
:100BC00001F10842E2D028689AFAAAF26169B2FA01
:100BD00082F220F0F80091400843286027E0FFE708
:100BE00096FAA6F0B0FA80F048F820B0FFF734FC8F
:100BF000814607E0FFF730FCA0EB0900022801D98D
:100C00000320E1E697FAA7F0B0FA80F040F0200068
:100C1000400901D0286800E0686A97FAA7F1B1FAA4
:100C200081F101F01F0106FA01F10842E2D12078BA
:100C3000000770D5A069C0B396FAA6F0B0FA80F0AC
:100C400008EB8000C0F88064FFF706FC814607E0EF
:100C5000FFF702FCA0EB0900022801D90320B3E64C
:100C600097FAA7F0B0FA80F040F06000B6EB501FA2
:100C700001D128680BE097FAA7F0B0FA80F040F0B5
:100C80006000B7EB501F01D1286A00E0686A97FA4C
:100C9000A7F1B1FA81F101F01F0206FA02F1084250
:100CA000D6D00120FFF7C5FA35E0FFE796FAA6F0A7
:100CB000B0FA80F008EB8000C0F880B4FFF7CCFBFE
:100CC000814607E0FFF7C8FBA0EB0900022801D925
:100CD000032079E697FAA7F0B0FA80F040F06000C0
:100CE000B6EB501F01D128680BE097FAA7F0B0FAD5
:100CF00080F040F06000B7EB501F01D1286A00E09F
:100D0000686A97FAA7F1B1FA81F101F01F0206FAB9
:100D100002F10842D6D12078400770D5E86940F04A
:100D20008050E861E86900F080500090DFF82CA066
:100D3000DAF8000040F48070CAF80000FFF78CFB7E
:100D400081460DE0FFF788FBA0EB0900642807D976
:100D5000032039E6001002400000424200700040CB
:100D6000DAF80000C005EDD5286A20F001002862FD
:100D7000286A20F004002862FFF76EFB814641F2EA
:100D8000883A07E0FFF768FBA0EB0900504501D95E
:100D9000032019E697FAA7F0B0FA80F040F040007F
:100DA000B6EB501F01D128680BE097FAA7F0B0FA14
:100DB00080F040F04000B7EB501F01D1286A00E0FE
:100DC000686A97FAA7F1B1FA81F101F01F0106FAFA
:100DD00001F10842D6D1E068012811D0A8B1052858
:100DE0001CD0286A20F001002862286A20F0040044
:100DF0002862E068C8B3FFF72FFB81461FE06EE072
:100E0000286A40F001002862F3E7286A20F0010018
:100E10002862286A20F004002862EAE7286A40F085
:100E200004002862286A40F001002862E1E7FFF729
:100E300013FBA0EB0900504501D90320C4E597FA44
:100E4000A7F0B0FA80F040F04000B6EB501F01D19F
:100E500028680CE097FAA7F0B0FA80F040F0400064
:100E6000B7EB501F02D1286A01E00BE0686A97FADD
:100E7000A7F1B1FA81F101F01F0206FA02F108426E
:100E8000D5D02CE0FFF7E8FA814607E0FFF7E4FA57
:100E9000A0EB0900504501D9032095E597FAA7F08A
:100EA000B0FA80F040F04000B6EB501F01D1286846
:100EB0000BE097FAA7F0B0FA80F040F04000B7EBF3
:100EC000501F01D1286A00E0686A97FAA7F1B1FAC9
:100ED00081F101F01F0206FA02F10842D6D1E06961
:100EE00080B36968C1F38101022970D04FF0807925
:100EF0004FF00077022809D099FAA9F0B0FA80F0F3
:100F000048F820B0FFF7A8FA044668E099FAA9F07B
:100F1000B0FA80F048F820B0FFF79EFA824607E06A
:100F2000FFF79AFAA0EB0A00022801D903204BE54B
:100F300097FAA7F0B0FA80F040F02000400902D004
:100F4000286801E060E0686A97FAA7F1B1FA81F1D8
:100F500001F01F0106FA01F10842E1D1206AB0F563
:100F6000803F05D16868A16820F4003008436860BC
:100F7000D4E908010843696821F4741108436860E2
:100F800099FAA9F0B0FA80F048F82060FFF764FA07
:100F9000044606E0FFF760FA001B022801D903208F
:100FA00012E597FAA7F0B0FA80F040F0200040096F
:100FB00001D0296800E0696A97FAA7F0B0FA80F0DA
:100FC00000F01F0006FA00F00142E3D01CE01DE033
:100FD000FFF742FA001B022801D90320F4E497FA34
:100FE000A7F0B0FA80F040F02000400901D0296855
:100FF00000E0696A97FAA7F0B0FA80F000F01F00ED
:1010000006FA00F00142E3D10020DDE40120DBE438
:101010004FF0E021042804D0086920F004000861A2
:101020007047086940F0040008617047704710B5C8
:10103000401EB0F1807F01D3012010BD4FF0E024AD
:1010400060610F21601700F021FA0020A0610720E5
:101050002061002010BD10B5FFF7E8FF10BD7047FC
:1010600038B5044620680168C1F30001C26802F483
:101070008072002904D01AB1E16B41F00101E163F3
:101080000168C1F34002416901F0010122B119B1C7
:10109000E26B42F00402E2630268C2F3800222B112
:1010A00019B1E26B42F00202E2630268C2F3C002CD
:1010B00022B119B1E16B41F00801E1630168C1F3AC
:1010C0004011C06800F0200019B110B1204600F0B6
:1010D0005CFA20680168C1F3C011C06800F08000AC
:1010E00019B110B1204600F02FFB20680168C1F350
:1010F0008011C06800F0400019B110B1204600F026
:101100002FFAE06B002809D0206801684068009041
:10111000012084F839002046FFF7A1FF38BD70B5E3
:101120000446002C04D094F83900002510B106E0E4
:10113000012070BD84F83850204600F021F80220CC
:1011400084F839002068C16821F40051C16020464C
:1011500000F074FA2068016921F49041016120686F
:10116000416921F02A0141612068C16841F40051C0
:10117000C160E563012084F83900002070BD0000E3
:1011800010B586B00068114988421DD110488169A8
:1011900041F480418161806900F4804001904FF406
:1011A000007002900220039003200590094C02A9D0
:1011B0002046FFF749F8211502910021039104917F
:1011C00002A92046FFF740F806B010BD00380140E4
:1011D000001002400008014090F83930012B03D084
:1011E000122B01D00220704731B32AB390F8383067
:1011F000012B23D0012380F8383081628285C2859B
:101200000021C16390F83920122A19D0222280F8D7
:10121000392080F838100168CA6842F48072CA60C8
:1012200001684A6942F001024A610068C16841F000
:101230002001C160002070470120704702207047E4
:10124000322280F83920E4E770B5134C0026251DC2
:10125000A07801280DD16878297800EB012081B2AF
:101260000EA000F03FFBA6700122211D1048FFF7E1
:10127000B3FFE07801280ED128782D38C1B20DA037
:1012800000F030FBE670BDE8704003490222091D02
:101290000748FFF7A1BF70BD08000020B2E2C1BF40
:1012A000B5C4BEE0C0EBCEAA3A25646D6D0A00005D
:1012B00054000020B2E2C1BFB5C4CEC2B6C8CEAAA7
:1012C000A3BA2564A1E60A002DE9F04104460D46C3
:1012D000984694F83900012804D0222802D0022030
:1012E000BDE8F0819DB192B194F83800012810D08A
:1012F000012684F838600027E76394F83900222833
:1013000009D0122084F83900A284E2842EE0012062
:10131000E6E70220E4E7322084F83900F4E7401ED3
:10132000E084A068B0F5805F08D0434600228021A9
:10133000204600F03EFAA8B10320D1E74346002240
:101340008021204600F035FA08B10320C8E728883C
:101350002168C0F308004860206908B16D1C05E0F1
:10136000AD1C03E0216815F8010B4860E08C0028F3
:10137000D5D1434600224021204600F01AFA08B198
:101380000320ADE794F83900322805D084F839609D
:1013900084F838700020A3E7222084F83900F7E7AA
:1013A0007047FEE730B585B01248816941F004010D
:1013B0008161816901F004010091816941F01001AE
:1013C0008161806900F010000090012401940025E3
:1013D00002950220039001A90748FEF735FF60033C
:1013E00001900295039401A90448FEF72DFF05B072
:1013F00030BD000000100240000801400010014014
:1014000082B00D48816941F004018161806900F07A
:10141000040001900A48094901604FF4E13141603C
:1014200000218160C16001610C2242618161C16162
:1014300002B0FFF774BE0000001002400038014007
:101440001400002010B500F017FA0E480C49016096
:101450004FF41651416000218160C16001610C228E
:1014600042618161C161FFF75AFE002201212620FD
:10147000FFF75EF8BDE810402620FFF74DB80000EA
:101480000044004054000020FEE770470907090EA1
:10149000002806DA00F00F0000F1E02080F8141DAB
:1014A000704700F1E02080F80014704710B5FEF797
:1014B000D9FFBDE81040FFF7CEBD30B58FB0012099
:1014C0000590000406900024079402250C950D90C9
:1014D0004FF4E0100E9005A8FFF746FA0F20009099
:1014E0000195029468020390049402216846FFF774
:1014F00051F8FFF7ABF94FF47A71B0FBF1F0FFF759
:1015000096FD0420FFF784FD00221146501EFFF7D0
:101510000FF80FB030BD00000D48016841F0010127
:10152000016041680B4A1140416001680A4A11405C
:101530000160016821F480210160416821F4FE010D
:1015400041604FF41F0181600449C0030860704787
:10155000001002400000FFF8FFFFF6FE08ED00E07B
:1015600010B50168CA6822F04002CA6090F83910CC
:10157000322906D0012180F83910FFF711FF002031
:1015800010BD222180F83910F7E710B590F8391016
:10159000222903D0322901D0022010BD8168B1F583
:1015A000805F11D0016919B30168496801F07F03B8
:1015B000816A4A1C82620B70C18D491E0904090CA4
:1015C000C1851CD0002010BD816A02693AB1026851
:1015D0005268D2B20A80816A491C8162ECE70268D3
:1015E0005268C2F308020A80816A891C8162E3E7BB
:1015F00001684A68816A4B1C83620A70DCE70168F3
:10160000CA6822F02002CA6090F83910322910D03E
:101610000168CA6822F48072CA6001684A6922F0CF
:1016200001024A61012180F83910FFF70DFE002008
:1016300010BD122180F83910F7E700002DE9F041C4
:10164000044620680169E26821F4405111430161B8
:10165000A16820690143606901432068C26841F2C2
:101660000C639A430A43C26020684169A26921F46D
:101670004071114341613349206864253226884214
:1016800030D1FFF713F900EBC00101EB00106168E6
:101690008900B0FBF1F0B0FBF5F7FFF707F900EBBD
:1016A000C00101EB001061688900B0FBF1F8FFF7A1
:1016B000FDF800EBC00101EB001061688900B0FB90
:1016C000F1F0B0FBF5F06FF01801484308EB800033
:1016D00006EB0010B0FBF5F0216867F31F1088607F
:1016E000BDE8F081FFF7CCF800EBC00101EB001082
:1016F00061688900B0FBF1F0B0FBF5F7FFF7C0F8C7
:1017000000EBC00101EB001061688900B0FBF1F84B
:10171000FFF7B6F800EBC00101EB0010616889002B
:10172000B0FBF1F0B0FBF5F06FF01801484308EBA7
:10173000800006EB0010B0FBF5F0216867F31F1086
:101740008860CDE70038014090F83910122903D0A5
:10175000322901D0022070478168B1F5805F0CD03A
:10176000016A4A1C0262026809785160C18C491EF4
:101770000904090CC18410D019E0016A02680988C3
:10178000C1F308015160016919B1016A491C016284
:10179000ECE7016A891C0162E8E70168CA6822F087
:1017A0008002CA600068C16841F04001C160002049
:1017B00070472DE9F04704460F4692461D46FEF756
:1017C0004BFE06464FF000084FF00109BAF1000F3A
:1017D00023D04AE0681C20D025B1FEF73DFE801BD7
:1017E000A8421AD92068C16821F08001C160206830
:1017F000C16821F02001C1602068C16821F48071B6
:10180000C1602068416921F00101416184F839908B
:1018100084F838800320BDE8F0872068006837EA44
:101820000000D7D126E0681C1FD025B1FEF714FEBA
:10183000801BA84219D92068C16821F08001C160CD
:101840002068C16821F02001C1602068C16821F4CE
:101850008071C1602068416921F00101416184F813
:10186000399084F838800320D5E72068006837EA8B
:101870000000D8D00020CEE710B586B01348C1696B
:1018800041F40031C161C16901F400310191816904
:1018900041F004018161806900F00400019004209E
:1018A00002900220039003200590094C02A92046D3
:1018B000FEF7CAFC0821029100210391049102A9BC
:1018C0002046FEF7C1FC06B010BD0000001002402B
:1018D000000801400148FFF7C3BB0000540000208E
:1018E000FEE700000FB4054B10B503A9044A0298A7
:1018F00000F018F810BC5DF814FB0000891D00080A
:101900001000002002E008C8121F08C1002AFAD106
:1019100070477047002001E001C1121F002AFBD16F
:10192000704700002DE9FF4F8DB00F460546002699
:1019300006E025280BD0DDE90F1290476D1C761CC0
:1019400028780028F5D111B03046BDE8F08F00248A
:10195000A246A1460122EC4900E0044315F8013FEC
:10196000203B02FA03F00842F7D128782A2810D049
:101970006FF02F022878A0F13001092914D80AEB62
:101980008A0102EB410144F0020400EB010A6D1CE4
:10199000F0E701CF5FEA000A03D544F40054CAF12E
:1019A000000A44F002046D1C28782E2817D115F87F
:1019B000010F44F004042A280ED06FF02F0228787B
:1019C000A0F1300109290AD809EB890102EB410194
:1019D00000EB01096D1CF2E757F8049B6D1C287899
:1019E0006C280FD006DC4C2817D068280DD06A2848
:1019F00014D104E0742810D07A280FD10DE044F4FB
:101A000000140AE044F4801401E044F440146978BE
:101A1000814202D104F580146D1C6D1C2A786E2A57
:101A20001FD00CDC632A31D004DC002A8BD0582A6A
:101A300011D1A3E0642A68D0692A0CD165E0732A29
:101A40002ED004DC6F2A73D0702A04D19BE0752A53
:101A50006FD0782A6ED01046DDE90F129047761CC1
:101A600050E1C4F30250022806D0032809D004280C
:101A700001CF09D0066045E101CFF117C0E900614F
:101A800040E101CF06803DE106703BE117F8040B11
:101A90008DF8000000208DF80100EB46012003E0E6
:101AA00057F804BB4FF0FF3061074FF0000102D43C
:101AB0000DE008F10101884649450FDA8045F8DB61
:101AC0001BF808100029F4D108E008F1010188464C
:101AD0008142FADB1BF808100029F6D1DDE90F235B
:101AE000AAEB08008146214600F036F9304400EBAD
:101AF000080604E0DDE90F121BF8010B9047B8F16E
:101B00000108F7D221464846F7E00A21C4F3025300
:101B10004FF0000B0891022B04D001CFC117032B0B
:101B200009D00AE0FF1D27F00707F7E8020108E0E7
:101B300032E01FE020E000B2C117042B01D140B217
:101B4000C117031E71F1000307DA4FF0000CD0EB50
:101B50000C006CEB01012D2302E0230504D52B239F
:101B60008DF82430012303E0E30701D02023F7E7B9
:101B7000984658E00A2110E010210EE010204FF0A6
:101B8000000B08900CE010214FF0000B44F004040F
:101B90004FF00809089103E008214FF0000B08916D
:101BA000C4F30253022B04D001CF0021032B06D033
:101BB00006E0FF1D27F00707F7E8020103E080B207
:101BC000042B00D1C0B24FF0000823072BD5702A98
:101BD00007D0DDF820C08CF0100C5CEA0B0C05D0AF
:101BE0000EE040238DF82430012308E050EA010381
:101BF00006D030238DF824308DF825200223984616
:101C0000DDF820C08CF0080C5CEA0B0C0BD150EA1C
:101C1000010301D1630706D530238DF824304FF03E
:101C20000108A9F10109582A04D038A20B9208AA88
:101C30000A920BE03AA2F9E75B46089AFEF7A4FA8B
:101C40000B9B9B5C0A9A521E0A92137050EA010287
:101C5000F2D10A98ADEB000000F1200B600702D52D
:101C600024F4803401E04FF00109D94502DDA9EBED
:101C70000B0000E0002000EB0B0141440890AAEBB0
:101C8000010AE00306D4DDE90F232146504600F0A7
:101C900063F806444FF0000908E009A911F80900AB
:101CA000DDE90F12904709F10109761CC145F4DB0B
:101CB000E0030CD5DDE90F232146504600F04CF837
:101CC000064404E0DDE90F1230209047761C0899A5
:101CD000481E08900029F5DC08E00A980A99007867
:101CE000491C0A91DDE90F129047761CBBF10001F7
:101CF000ABF1010BF1DC21465046DDE90F2300F08A
:101D000019F806446D1C1BE60928010030313233F6
:101D10003435363738396162636465660000000027
:101D20003031323334353637383941424344454611
:101D3000000000002DE9F041044600251E4617462C
:101D4000880404D405E039462020B0476D1C641E89
:101D5000F9D52846BDE8F0812DE9F041044600257B
:101D60001E469046C80301D5302700E0202788048E
:101D700004D505E041463846B0476D1C641EF9D5D0
:101D80002846BDE8F081000013B54FF6FF7301222D
:101D900069460248FFF798FA00981CBD140000201D
:101DA000FEF768FBFFF789FBFFF7FCFAFFF74AFB3A
:101DB000FFF726FB214613A0FFF794FD02221549E9
:101DC0001548FFF709FA134C01254FF6FF77241F3A
:101DD0004FF47A760F493B460122091F0E48FFF760
:101DE00073FAA5703046FEF724FA0A493B460122F1
:101DF000C91E0948FFF768FAE5703046FEF719FA80
:101E0000E8E700004C43442049443D307825303811
:101E1000580A00000C0000205400002000000000C0
:101E20000102030401020304060708094C1E00080E
:101E3000000000201400000004190008601E0008C3
:101E400014000020841000001419000800A24A04A5
:101E500000000000555000000000000000000000DD
:0400000508000131BD
:00000001FF
