:020000040800F2
:1000000050100020450100083F130008DB120008D3
:100010003D130008C1010008391700080000000066
:100020000000000000000000000000005701000870
:10003000C3010008000000005B0100086113000814
:100040005F0100085F0100085F0100085F01000810
:100050005F0100085F0100085F0100085F01000800
:100060005F0100085F0100085F0100085F010008F0
:100070005F0100085F0100085F0100085F010008E0
:100080005F0100085F0100085F0100085F010008D0
:100090005F0100085F0100085F0100085F010008C0
:1000A0005F0100085F0100085F0100085F010008B0
:1000B0005F0100085F0100085F0100085F010008A0
:1000C0005F0100085F0100085F0100085F01000890
:1000D0005F0100082D1700085F0100085F0100089C
:1000E0005F0100085F0100085F0100085F01000870
:1000F0005F0100085F0100085F0100085F01000860
:100100005F0100085F0100085F0100085F0100084F
:100110005F0100085F0100085F0100085F0100083F
:100120005F0100085F0100085F0100085F0100082F
:10013000DFF80CD000F032F80048004759170008EB
:10014000501000200648804706480047FEE7FEE7BB
:10015000FEE7FEE7FEE7FEE7FEE7FEE7FEE7FEE777
:10016000CD1300083101000840EA01039B0703D0CA
:1001700009E008C9121F08C0042AFAD203E011F8E6
:10018000013B00F8013B521EF9D27047421C10F8A7
:10019000011B0029FBD1801A70470000064C074D57
:1001A00006E0E06840F0010394E807009847103447
:1001B000AC42F6D3FFF7C0FF001800082018000873
:1001C000FEE7FEE731B500F011F9044600F00EF944
:1001D0000099001B8842F9D338BD00002DE9F84F83
:1001E00000230024DFF8DC914FF00F0809F1040A26
:1001F0000AF1040B0BF1040E0127A7400A683A40EC
:10020000BA4275D1DFF8C0C14D68A5EB0C06654553
:100210002BD00DDC032D34D005DC35B3012D19D0E6
:10022000022D2FD11BE0112D16D0122D2AD119E04D
:10023000B6F5881F19D006DCB6F5803F15D0B6F5A7
:10024000801F1FD111E0B6F5001F0ED0B6F5041FB8
:1002500018D10AE0CB6815E0CB681B1D12E0CB6813
:1002600008330FE0CB680C330CE08B6823B1012B13
:1002700004D00823476105E0042303E00823076155
:1002800000E00023FF2A01D8054601E000F1040543
:1002900002D84FEA840603E0A4F108064FEA860676
:1002A0002F6808FA06FC27EA0C0703FA06F647EA65
:1002B00006072F604D68ED007ED5444DAE6946F0CF
:1002C0000106AE61AD6905F001050095404D24F0D1
:1002D00003067719BE68A5072D0F08FA05FC26EA64
:1002E0000C06DFF8F0C0604503D14FF0000C25E0AC
:1002F00062E0DFF8E4C0604502D14FF0010C1DE080
:10030000DFF8D8C0604502D14FF0020C16E0DFF8EC
:10031000D0C0604502D14FF0030C0FE0DFF8C4C03D
:10032000604502D14FF0040C08E0DFF8BCC0604526
:1003300002D14FF0050C01E04FF0060C0CFA05FC61
:100340004CEA060CC7F808C04D68ED0305D5D9F88E
:1003500000501543C9F8005004E0D9F80050954307
:10036000C9F800504D68AD0305D5DAF800501543C3
:10037000CAF8005004E0DAF800509543CAF800507B
:100380004D68ED0205D5DBF800501543CBF8005061
:1003900004E0DBF800509543CBF800504D68AD0207
:1003A00005D5DEF800501543CEF8005004E0DEF825
:1003B00000509543CEF80050641C102CFFF41CAF85
:1003C000BDE8F88F00040140000011100010024049
:1003D0000000014000080140000C014000100140F5
:1003E0000014014000180140001C01400148006851
:1003F000704700000400002002480168491C0160A9
:10040000704700000400002010B50748016841F063
:1004100010010160032000F075F8002000F006F8DC
:1004200000F016F8002010BD0020024010B5044670
:1004300000F0D6F94FF47A72B0FBF2F000F0C1FD93
:1004400000222146501E00F03DF8002010BD0000A3
:1004500008B51548816941F001018161806900F0AA
:1004600001000090052000F04DF8002211466FF0C9
:100470000B0000F027F8002211466FF00A0000F090
:1004800021F8002211466FF0090000F01BF800224D
:100490001146101F00F016F80022BDE80840114672
:1004A000501E00F00FB800000010024000F01F02C4
:1004B000012191404009800000F1E020C0F80011C6
:1004C00070470000F0B40D460D4B1B68C3F30223C8
:1004D000C3F10704042C00D90424191D072901D2F3
:1004E000002300E0DB1E012606FA04F1491E294024
:1004F00099409E40761E16403143F0BC00F020BF6C
:100500000CED00E000F00701054A10684FF6FF030C
:10051000184040EA0120034908431060704700007A
:100520000CED00E00000FA052DE9F04704460F4607
:10053000DFF8A492D9F80000A84D00F007010120CF
:10054000430446064FF0020C41F28838B9426FD29C
:10055000D9F8001021F007013943C9F80010D9F883
:10056000001001F00701B94201D0BDE8F087217801
:10057000890705D56968A26821F0F0011143696017
:100580002178C90761D0616801290BD002291FD0E9
:100590009CFAACF2B2FA82F242F0200252092DD05B
:1005A0002A682CE093FAA3F2B2FA82F242F0200217
:1005B000520901D02A6800E06A6A93FAA3F3B3FAF9
:1005C00083F303F01F039840024223D10120CCE7BC
:1005D00096FAA6F2B2FA82F242F02002520901D053
:1005E0002A6800E06A6A96FAA6F3B3FA83F303F086
:1005F0001F03984002420DD10120B6E76A6A9CFAB7
:10060000ACF3B3FA83F303F01F039840024201D125
:100610000120AAE7686820F0030008436860FFF73C
:10062000E5FE0646606801280AD0022815D021E0C0
:1006300025E0FFF7DBFE801B404501D9032094E74E
:100640006868C0F381000128F3D1ADE0FFF7CEFE6A
:10065000801B404501D9032087E76868C0F381000B
:100660000228F3D1A0E0FFF7C1FE801B404501D96D
:1006700003207AE7686810F00C0FF4D194E0217839
:10068000890705D56968A26821F0F0011143696006
:100690002178C90779D0616801290BD002291FD0C0
:1006A0009CFAACF2B2FA82F242F0200252092DD04A
:1006B0002A682CE093FAA3F2B2FA82F242F0200206
:1006C000520901D02A6800E06A6A93FAA3F3B3FAE8
:1006D00083F303F01F039840024223D1012044E733
:1006E00096FAA6F2B2FA82F242F02002520901D042
:1006F0002A6800E06A6A96FAA6F3B3FA83F303F075
:100700001F03984002420DD101202EE76A6A9CFA2D
:10071000ACF3B3FA83F303F01F039840024201D114
:10072000012022E7686820F0030008436860FFF7B3
:100730005DFE06466068012809D0022814D020E03A
:10074000FFF754FE801B404501D903200DE7686880
:10075000C0F381000128F3D117E0FFF747FE801BAB
:10076000404501D9032000E76868C0F381000228F2
:10077000F3D10AE0FFF73AFE801B404501D9032080
:10078000F3E6686810F00C0FF4D1D9F8000020F0FF
:1007900007003843C9F80000D9F8000000F007004E
:1007A000B84201D00120E0E62078400705D568680E
:1007B000E16820F4E060084368602078000706D50F
:1007C0006868216920F4605040EAC1006860002038
:1007D000FFF72CFE0020C8E6002002400010024077
:1007E00000B500F043F808494968F02292FAA2F2F5
:1007F00001F0F001B2FA82F2D140044A515CC840E3
:100800000349086000BD000000100240F017000816
:100810000000002000B5FFF7E3FF074949684FF4E7
:10082000E06292FAA2F201F4E061B2FA82F2D140FF
:10083000024A515CC84000BD00100240F017000899
:1008400000B5FFF7CDFF074949684FF4605292FAAF
:10085000A2F201F46051B2FA82F2D140024A515C34
:10086000C84000BD00100240F017000810B585B068
:100870001AA0D0E90031D0E90220CDE90131CDE95B
:1008800003201AA000680090194B5968194801F01C
:100890000C02042A1DD0082A1BD14FF4701494FABC
:1008A000A4F401F47012B4FA84F4E24001ACA25C46
:1008B000C90310D559684FF4003393FAA3F301F438
:1008C0000031B3FA83F3D9401DF80110B0FBF1F009
:1008D000504305B010BD08485043FAE70203040531
:1008E000060708090A0B0C0D0E0F1010010200007C
:1008F0000010024000127A0000093D002DE9F84F77
:100900000446F94D20784FF00106C00775D068689D
:100910007704C0F38100012807D06868C0F3810024
:1009200002281DD16868C0031AD597FAA7F0B0FA5B
:1009300080F040F02000400901D0286800E0686A9B
:1009400097FAA7F1B1FA81F101F01F0206FA02F15C
:10095000084252D0606800284FD10120BDE8F88FCE
:10096000286820F480302860286820F480202860DF
:10097000FFF73CFD804607E0FFF738FDA0EB0800DD
:10098000642801D90320E9E797FAA7F0B0FA80F0CC
:1009900040F02000400901D0286800E0686A97FA1A
:1009A000A7F1B1FA81F101F01F0106FA01F1084245
:1009B000E2D16068B0F5803F11D0A8B1B0F5A02FAA
:1009C0001CD0286820F480302860286820F480201B
:1009D00028606068C8B3FFF709FD80461FE02868FB
:1009E00040F480302860F4E7286820F480302860E4
:1009F000286820F480202860EBE748E0286840F46D
:100A000080202860286840F480302860E1E7FFF704
:100A1000EDFCA0EB0800642801D903209EE797FABB
:100A2000A7F0B0FA80F040F02000400901D028681B
:100A300000E0686A97FAA7F1B1FA81F101F01F01AD
:100A400006FA01F10842E2D021E0FFE7FFF7CEFC11
:100A5000804607E0FFF7CAFCA0EB0800642801D934
:100A600003207BE797FAA7F0B0FA80F040F020006F
:100A7000400901D0286800E0686A97FAA7F1B1FA46
:100A800081F101F01F0106FA01F10842E2D120785C
:100A9000DFF8588280074FF0000B4FF0020732D585
:100AA00068684FF0F80A10F00C0F07D06868C0F3C0
:100AB0008100022828D16868C00325D497FAA7F0DE
:100AC000B0FA80F040F02000400901D0286800E032
:100AD000686A97FAA7F1B1FA81F101F01F0106FAED
:100AE00001F1084204D02069012801D0012035E736
:100AF00028689AFAAAF26169B2FA82F220F0F80044
:100B00009140084328605CE0206990B396FAA6F013
:100B1000B0FA80F048F82060FFF768FC814607E0F3
:100B2000FFF764FCA0EB0900022801D9032015E7B8
:100B300097FAA7F0B0FA80F040F02000400901D009
:100B4000286800E0686A97FAA7F1B1FA81F101F02C
:100B50001F0106FA01F10842E2D028689AFAAAF2C7
:100B60006169B2FA82F220F0F800914008432860EF
:100B700027E0FFE796FAA6F0B0FA80F048F820B038
:100B8000FFF734FC814607E0FFF730FCA0EB0900DB
:100B9000022801D90320E1E697FAA7F0B0FA80F025
:100BA00040F02000400901D0286800E0686A97FA08
:100BB000A7F1B1FA81F101F01F0106FA01F1084233
:100BC000E2D12078000770D5A069C0B396FAA6F0EC
:100BD000B0FA80F008EB8000C0F88064FFF706FCF4
:100BE000814607E0FFF702FCA0EB0900022801D9CB
:100BF0000320B3E697FAA7F0B0FA80F040F0600067
:100C0000B6EB501F01D128680BE097FAA7F0B0FAB5
:100C100080F040F06000B7EB501F01D1286A00E07F
:100C2000686A97FAA7F1B1FA81F101F01F0206FA9A
:100C300002F10842D6D00120FFF7C4FA35E0FFE701
:100C400096FAA6F0B0FA80F008EB8000C0F880B405
:100C5000FFF7CCFB814607E0FFF7C8FBA0EB0900DC
:100C6000022801D9032079E697FAA7F0B0FA80F0BC
:100C700040F06000B6EB501F01D128680BE097FAF6
:100C8000A7F0B0FA80F040F06000B7EB501F01D140
:100C9000286A00E0686A97FAA7F1B1FA81F101F0D9
:100CA0001F0206FA02F10842D6D12078400770D51B
:100CB000E86940F08050E861E86900F080500090F9
:100CC000DFF82CA0DAF8000040F48070CAF80000C9
:100CD000FFF78CFB81460DE0FFF788FBA0EB0900D6
:100CE000642807D9032039E6001002400000424280
:100CF00000700040DAF80000C005EDD5286A20F049
:100D000001002862286A20F004002862FFF76EFBC9
:100D1000814641F2883A07E0FFF768FBA0EB090043
:100D2000504501D9032019E697FAA7F0B0FA80F0F0
:100D300040F04000B6EB501F01D128680BE097FA55
:100D4000A7F0B0FA80F040F04000B7EB501F01D19F
:100D5000286A00E0686A97FAA7F1B1FA81F101F018
:100D60001F0106FA01F10842D6D1E068012811D02E
:100D7000A8B105281CD0286A20F001002862286A42
:100D800020F004002862E068C8B3FFF72FFB81461B
:100D90001FE06EE0286A40F001002862F3E7286A4D
:100DA00020F001002862286A20F004002862EAE7A7
:100DB000286A40F004002862286A40F00100286296
:100DC000E1E7FFF713FBA0EB0900504501D9032031
:100DD000C4E597FAA7F0B0FA80F040F04000B6EB17
:100DE000501F01D128680CE097FAA7F0B0FA80F004
:100DF00040F04000B7EB501F02D1286A01E00BE041
:100E0000686A97FAA7F1B1FA81F101F01F0206FAB8
:100E100002F10842D5D02CE0FFF7E8FA814607E05E
:100E2000FFF7E4FAA0EB0900504501D9032095E54E
:100E300097FAA7F0B0FA80F040F04000B6EB501FF0
:100E400001D128680BE097FAA7F0B0FA80F040F0E3
:100E50004000B7EB501F01D1286A00E0686A97FA9A
:100E6000A7F1B1FA81F101F01F0206FA02F108427E
:100E7000D6D1E06980B36968C1F38101022970D0DD
:100E80004FF080794FF00077022809D099FAA9F045
:100E9000B0FA80F048F820B0FFF7A8FA044668E0FE
:100EA00099FAA9F0B0FA80F048F820B0FFF79EFA5E
:100EB000824607E0FFF79AFAA0EB0A00022801D960
:100EC00003204BE597FAA7F0B0FA80F040F020003D
:100ED000400902D0286801E060E0686A97FAA7F14B
:100EE000B1FA81F101F01F0106FA01F10842E1D1E6
:100EF000206AB0F5803F05D16868A16820F4003011
:100F000008436860D4E908010843696821F4741152
:100F10000843686099FAA9F0B0FA80F048F82060B8
:100F2000FFF764FA044606E0FFF760FA001B0228A8
:100F300001D9032012E597FAA7F0B0FA80F040F04B
:100F40002000400901D0296800E0696A97FAA7F0FB
:100F5000B0FA80F000F01F0006FA00F00142E3D082
:100F60001CE01DE0FFF742FA001B022801D9032014
:100F7000F4E497FAA7F0B0FA80F040F020004009BE
:100F800001D0296800E0696A97FAA7F0B0FA80F00A
:100F900000F01F0006FA00F00142E3D10020DDE47A
:100FA0000120DBE44FF0E021042804D0086920F0A0
:100FB000040008617047086940F004000861704748
:100FC000704710B5401EB0F1807F01D3012010BDE5
:100FD0004FF0E02460610F21601700F0B1F90020AC
:100FE000A06107202061002010BD10B5FFF7E8FFC9
:100FF00010BD704738B5044620680168C1F3000190
:10100000C26802F48072002904D01AB1E16B41F089
:101010000101E1630168C1F34002416901F001018E
:1010200022B119B1E26B42F00402E2630268C2F33A
:10103000800222B119B1E26B42F00202E26302685F
:10104000C2F3C00222B119B1E16B41F00801E163C2
:101050000168C1F34011C06800F0200019B110B15F
:10106000204600F0ECF920680168C1F3C011C068A7
:1010700000F0800019B110B1204600F0BFFA2068DE
:101080000168C1F38011C06800F0400019B110B1CF
:10109000204600F0BFF9E06B002809D02068016805
:1010A00040680090012084F839002046FFF7A1FF36
:1010B00038BD70B50446002C04D094F839000025E2
:1010C00010B106E0012070BD84F83850204600F0D1
:1010D00021F8022084F839002068C16821F4005109
:1010E000C160204600F004FA2068016921F49041B3
:1010F00001612068416921F02A0141612068C168CD
:1011000041F40051C160E563012084F839000020FA
:1011100070BD000010B586B00068114988421DD12D
:101120001048816941F480418161806900F4804008
:1011300001904FF40070029002200390032005906C
:10114000094C02A92046FFF749F821150291002118
:101150000391049102A92046FFF740F806B010BDA4
:1011600000380140001002400008014090F839307A
:10117000012B03D0122B01D00220704731B32AB3C8
:1011800090F83830012B23D0012380F83830816269
:101190008285C2850021C16390F83920122A19D0B6
:1011A000222280F8392080F838100168CA6842F499
:1011B0008072CA6001684A6942F001024A610068AF
:1011C000C16841F02001C1600020704701207047D4
:1011D00002207047322280F83920E4E710B500235E
:1011E00001220549054800F00BF8BDE81040012236
:1011F00001490248FFF7BABF080000200C00002098
:101200002DE9F04104460D46984694F8390001282E
:1012100004D0222802D00220BDE8F0819DB192B115
:1012200094F83800012810D0012684F8386000278F
:10123000E76394F83900222809D0122084F8390095
:10124000A284E2842EE00120E6E70220E4E73220D7
:1012500084F83900F4E7401EE084A068B0F5805FB0
:1012600008D0434600228021204600F0FCF9A8B1B6
:101270000320D1E7434600228021204600F0F3F905
:1012800008B10320C8E728882168C0F30800486037
:10129000206908B16D1C05E0AD1C03E0216815F85C
:1012A000010B4860E08C0028D5D143460022402144
:1012B000204600F0D8F908B10320ADE794F83900D2
:1012C000322805D084F8396084F838700020A3E70C
:1012D000222084F83900F7E77047FEE710B50022B6
:1012E00001212520FFF7EEF8BDE810402520FFF78B
:1012F000DDB8000008B50E48816941F00401816144
:10130000806900F0040000900B480A4901604FF426
:10131000E131416000218160C16001610C224261C4
:101320008161C161FFF7C5FEBDE80840FFF7D6BF88
:1013300000100240003801400C000020FEE770471A
:101340000907090E002806DA00F00F0000F1E0207E
:1013500080F8141D704700F1E02080F800147047F9
:1013600010B5FFF749F8BDE81040FFF73EBE30B5B5
:101370008FB00120059000040690002407940225F8
:101380000C950D904FF4E0100E9005A8FFF7B6FAFB
:101390000F200090019502946802039004940221AA
:1013A0006846FFF7C1F8FFF71BFA4FF47A71B0FBFC
:1013B000F1F0FFF706FE0420FFF7F4FD00221146CE
:1013C000501EFFF77FF80FB030BD00000D480168D8
:1013D00041F00101016041680B4A11404160016820
:1013E0000A4A11400160016821F4802101604168CE
:1013F00021F4FE0141604FF41F0181600449C003E4
:1014000008607047001002400000FFF8FFFFF6FE82
:1014100008ED00E010B50168CA6822F04002CA6019
:1014200090F83910322906D0012180F83910FFF7E1
:1014300053FF002010BD222180F83910F7E710B5C6
:1014400090F83910222903D0322901D0022010BD92
:101450008168B1F5805F11D0016919B301684968ED
:1014600001F07F03816A4A1C82620B70C18D491EA4
:101470000904090CC1851CD0002010BD816A0269D5
:101480003AB102685268D2B20A80816A491C81620C
:10149000ECE702685268C2F308020A80816A891C7C
:1014A0008162E3E701684A68816A4B1C83620A70C3
:1014B000DCE70168CA6822F02002CA6090F839109F
:1014C000322910D00168CA6822F48072CA600168AB
:1014D0004A6922F001024A61012180F83910FFF7C0
:1014E0007DFE002010BD122180F83910F7E70000C2
:1014F0002DE9F041044620680169E26821F4405179
:1015000011430161A16820690143606901432068BA
:10151000C26841F20C639A430A43C2602068416981
:10152000A26921F440711143416133492068642567
:101530003226884230D1FFF783F900EBC00101EB7E
:10154000001061688900B0FBF1F0B0FBF5F7FFF720
:1015500077F900EBC00101EB001061688900B0FB76
:10156000F1F8FFF76DF900EBC00101EB00106168C5
:101570008900B0FBF1F0B0FBF5F06FF018014843C3
:1015800008EB800006EB0010B0FBF5F0216867F374
:101590001F108860BDE8F081FFF73CF900EBC00147
:1015A00001EB001061688900B0FBF1F0B0FBF5F7CA
:1015B000FFF730F900EBC00101EB00106168890012
:1015C000B0FBF1F8FFF726F900EBC00101EB0010CA
:1015D00061688900B0FBF1F0B0FBF5F06FF0180125
:1015E000484308EB800006EB0010B0FBF5F02168E3
:1015F00067F31F108860CDE70038014090F839107C
:10160000122903D0322901D0022070478168B1F538
:10161000805F0CD0016A4A1C02620268097851603E
:10162000C18C491E0904090CC18410D019E0016A5B
:1016300002680988C1F308015160016919B1016AA2
:10164000491C0162ECE7016A891C0162E8E7016854
:10165000CA6822F08002CA600068C16841F0400197
:10166000C160002070472DE9F04704460F469246BE
:101670001D46FEF7BBFE06464FF000084FF001097D
:10168000BAF1000F23D04AE0681C20D025B1FEF744
:10169000ADFE801BA8421AD92068C16821F08001E4
:1016A000C1602068C16821F02001C1602068C16864
:1016B00021F48071C1602068416921F0010141611C
:1016C00084F8399084F838800320BDE8F0872068DA
:1016D000006837EA0000D7D126E0681C1FD025B18A
:1016E000FEF784FE801BA84219D92068C16821F04A
:1016F0008001C1602068C16821F02001C1602068BC
:10170000C16821F48071C1602068416921F0010144
:10171000416184F8399084F838800320D5E7206847
:10172000006837EA0000D8D00020CEE70148FFF774
:1017300061BC00000C000020FEE702E008C8121F98
:1017400008C1002AFAD170477047002001E001C1AA
:10175000121F002AFBD170479AB0FEF755FEFFF723
:1017600006FEFFF7C7FD642211A101A8FEF7FCFCED
:1017700001A8FEF70BFD82B24FF47A74234601A94B
:101780001348FFF73DFD642212A101A8FEF7ECFC0F
:1017900001A8FEF7FBFC82B2234601A90C48FFF723
:1017A0002FFD012211490A48FFF7E0FCFEE7000087
:1017B000D5E2CAC7D2BBB8F6B4AEBFDAD6D0B6CF80
:1017C000BDD3CAD5BBD8CFD4CAB5D1E90A00000071
:1017D0000C000020CAE4C8EBCAFDBEDDB2A2D2D420
:1017E000BBD8B3B5BCFCBDE1CAF80A0008000020B4
:1017F00000000000010203040102030406070809B7
:1018000020180008000000200C0000003A17000813
:101810002C1800080C000020441000004A17000893
:0C18200000A24A040000000000000000CC
:0400000508000131BD
:00000001FF
